:100000000C9461030C9499030C9499030C94990338
:100010000C9499030C9499030C9499030C949903F0
:100020000C9499030C9499030C947F260C945727F5
:100030000C9434260C9499030C9499030C94990312
:100040000C9499030C9499030C9499030C949903C0
:100050000C9499030C945B260C9499030C949903CB
:100060000C9499030C9499030C9499030C949903A0
:100070000C9499030C9499030C9499030C94990390
:100080000C9499030C9499030C9499030C94990380
:100090000C9499030C9499030C9499030C94990370
:1000A0000C9499030C9499030C949903050109800D
:1000B000A101850319012AB700150126B700950192
:1000C00075108100C0050C0901A101850419012AE0
:1000D000A002150126A002950175108100C00660DE
:1000E000FF0961A1010962150026FF00952075082E
:1000F00081020963150026FF00952075089102C052
:1001000005010906A101050719E029E715002501E8
:10011000950875018102950175088101050719008F
:1001200029FF150026FF00950675088100050819AE
:10013000012905950575019102950175039101C08D
:100140000E018466FFFF000000000F018466FFFFC0
:100150000000000010018466FFFF000000000301A2
:100160008466FF0A0155FFFF120155FFFFFF0000E3
:10017000000004018466FF090155FFFF130155FFCC
:10018000FFFF0000000011018466FF180155FFFF0A
:10019000FF000000000B018466FFFF000000001557
:1001A000018466FF0C0155FFFF100155FFFFFF00A2
:1001B00000000009025B00030100A0FA090400002E
:1001C000010301010009211101000122400007057E
:1001D0008103080001090401000203000000092155
:1001E00011010001222200070582032000010705FA
:1001F000030320000109040200010300000009219B
:1002000011010001223200070584032000011201C0
:10021000000200000008F1F12500010001020001C8
:100220001603570069006E0072007900200032004A
:1002300035007400660000001A0353007000690066
:10024000640065007200490073006C0061006E007C
:100250006400000004030904290053005400550001
:1002600056002A005F0060006100570020785C00A3
:100270005D005E005700000059005A005B002152EB
:100280007C007D006200630058002078217822788D
:100290002B78237827782578237829782C78287864
:1002A000267824782A780000625263526452000053
:1002B00000006552665267520000000029000000ED
:1002C0000000000000000000000000005A000000D4
:1002D000000000000000000000000000000000001E
:1002E0000000005200000000000000000000290093
:1002F00000000000000000000000000000005B00A3
:1003000000000000000000000000000000000000ED
:10031000000000000052000000000000000000008B
:1003200029000000000000000000000000000000A4
:100330005C00000000000000000000000000000061
:10034000000000000000005200000000000000005B
:100350000000290000000000000000000000000074
:1003600000005D0000000000000000000000000030
:10037000000000000000000000520000000000002B
:100380000000000029000000000000000000000044
:10039000000000005E0000000000000000000000FF
:1003A00000000000000000000000005200000000FB
:1003B0000000000000002900000000000000000014
:1003C0000000000000005F000000000000000000CE
:1003D00000000000000000000000000000520000CB
:1003E00000000000000000002223252628292A2CD6
:1003F0002D2F3032333536383A3B3D3E404243456F
:1004000047494A4C4E5051535557595A5C5E6062A9
:10041000646668696B6D6F71737577797B7D7F81B9
:10042000838587898A8C8E90929496989A9C9E9FB9
:10043000A1A3A5A7A8AAACAEAFB1B3B4B6B8B9BBD7
:10044000BCBEBFC1C2C3C5C6C7C9CACBCCCDCED046
:10045000D1D2D2D3D4D5D6D7D7D8D9D9DADADBDB33
:10046000DBDCDCDCDCDCDDDDDDDDDCDCDCDCDCDBCA
:10047000DBDBDADAD9D9D8D7D7D6D5D4D3D2D2D113
:10048000D0CECDCCCBCAC9C7C6C5C3C2C1BFBEBC06
:10049000BBB9B8B6B4B3B1AFAEACAAA8A7A5A3A177
:1004A0009F9E9C9A98969492908E8C8A8987858339
:1004B000817F7D7B79777573716F6D6B6968666419
:1004C00062605E5C5A5957555351504E4C4A4947E9
:1004D000454342403E3D3B3A3836353332302F2D8E
:1004E0002C2A292826252322FFAA7F554000010116
:1004F00001010101010101020202020202020202E3
:1005000003030303030303030404040404040405B2
:100510000505050506060606060707070707080876
:100520000808090909090A0A0A0B0B0B0C0C0C0D27
:100530000D0D0E0E0E0F0F0F1010111111121213C0
:10054000131414151516161717181819191A1A1B3B
:100550001B1C1D1D1E1E1F2020212222232424259A
:100560002626272829292A2B2C2D2D2E2F303132D3
:1005700032333435363738393A3B3C3D3E3F4041E3
:1005800042434445464748494A4C4D4E4F505153CB
:1005900054555658595A5B5D5E5F61626465666882
:1005A000696B6C6D6F7072737577787A7B7D7E8006
:1005B00082838587888A8C8E8F91939596989A9C52
:1005C0009EA0A2A3A5A7A9ABADAFB1B3B5B7BABC66
:1005D000BEC0C2C4C6C9CBCDCFD1D4D6D8DBDDDF37
:1005E000E2E4E7E9EBEEF0F3F5F8FAFDFF9F0195A1
:1005F00001860172015E0154014A01400100001EA2
:100600000F057F3F1F643214643214783C1E1E14A1
:100610000A050000000000000000000000000000CB
:1006200000000000000000000000000000000000CA
:100630000000000000007E0F00D4FFFFFFC7000095
:10064000007800000000000000002A2B28000000B5
:100650000000000000000000000000000029000071
:1006600000002C1E3420212224342627252E362D4E
:100670003738271E1F202122232425263333362EE8
:1006800037381F0405060708090A0B0C0D0E0F105A
:100690001112131415161718191A1B1C1D2F31309F
:1006A000232D350405060708090A0B0C0D0E0F1043
:1006B0001112131415161718191A1B1C1D2F31307F
:1006C000354C11241FBECFEFDAE0DEBFCDBF04B63C
:1006D00003FE18C080916E0390916F03A091700388
:1006E000B09171038730904BA740B04B59F41092F2
:1006F0006E0310926F031092700310927103E0E08A
:10070000F8E3099523E0A4E9B1E001C01D92AE36FB
:10071000B207E1F711E0A0E0B1E0ECEBF3E502C0D5
:1007200005900D92A439B107D9F70E94BE210C940F
:1007300081290C940000809330030895292F95306F
:1007400098F5853088F590E035E0239F800D911D68
:100750001124282F277041E001C0440F2A95EAF7A1
:1007600023E0969587952A95E1F7FC01EE0FFF1F90
:10077000E80FF91FEA50FD4F20E030E070E05191A2
:10078000DF011197CB01022E02C0969587950A943E
:10079000E2F7817081958527842385278C932F5FCD
:1007A0003F4F2330310559F70895292F953078F5BB
:1007B000853068F590E035E0239F800D911D112470
:1007C000682F677023E0969587952A95E1F7FC01DD
:1007D000EE0FFF1FE80FF91FEA50FD4F40E050E019
:1007E00080E0219130E0062E02C0369527950A94CC
:1007F000E2F721703327042E01C0220F0A94EAF792
:10080000822B4F5F5F4F4330510559F7089580E0C9
:1008100008958091370390913603981301C008958D
:100820008F5F8770FACFE8E9F1E09191891303C0F7
:10083000DF0111971C9291E0EE39F907B1F70895A5
:10084000982F909580912E03892380932E030895ED
:1008500080912F03811110922F030895803E9105FE
:10086000D1F1C8F48133910509F47FC048F489328D
:10087000910509F46FC08A32910509F47DC008958D
:1008800089339105E1F082389105C9F085339105EE
:1008900009F45BC00895843E9105D1F148F4823E8D
:1008A000910531F1833E910541F181EE90E008958B
:1008B000863E9105C1F1873E9105E1F108952091B1
:1008C00033032370211165C02091340323FF14C02A
:1008D00089E290E008952091330320FD43C03091D8
:1008E000340330FF09C024FF4EC080E090E008953B
:1008F0002091330322FDF7CF08952091330322FD89
:1009000045C03091340330FD44C024FFF5CFEDCF16
:100910002091340321FFF0CF8091330384FDE5CF94
:1009200087EE90E008952091330323FFE5CF24FD67
:10093000DCCFF6CF2091330323FD2EC0309134035A
:1009400031FFE3CF84EE90E008952091330325FF3B
:10095000D3CFBECF2091330325FD21C02091340396
:1009600023FFCACF89E390E008952091330326FF47
:10097000C3CF8AE290E008952091330326FFBCCFD5
:1009800081E390E0089583EE90E0089582EE90E098
:10099000089580EE90E0089586EE90E0089585E356
:1009A00090E0AACF2091330322FF06C0982F9871C0
:1009B0009830C1F4877F846090913403392F31706F
:1009C000927023FF21C0482F4871483191F4877EEF
:1009D00084619923B1F0982F9171913191F48E7EB9
:1009E00088610FC0982F9471943031F78B7F8860A5
:1009F000E3CF482F4471443139F48B7E88619111E3
:100A000018C024FD877E0895332369F0382F38718C
:100A1000383019F4877F8160DCCF382F3171313065
:100A200011F48E7F8860992361F3982F9871983123
:100A300091F6877E8161E5CF1F93CF93DF930E946C
:100A40002E04EC01811522E5920708F053C08115B0
:100A500040E5940708F0DDC0803E9105F8F48D3C38
:100A6000910508F0AEC0883A910580F4853A910569
:100A700008F099C08130910521F00497813A9105E1
:100A800050F4CE01DF91CF911F910895885A9109BA
:100A90004B9708F48BC0C0E0D0E0F3CF811550E451
:100AA0009507F8F4C11580E2D80708F0CBC0C83E1E
:100AB000D10538F3CE019A9581159F4160F78D2FAE
:100AC0000E94D204182FCE0199270E942E04212FB4
:100AD00030E0322F2227E901CC27DF71C82BD92B38
:100AE000D0CF99270E942E04CC27DF70C82BD92B9A
:100AF000D06AC7CF803842E59407C8F5803652E502
:100B0000950708F067C0C03482E5D807B0F08C2F95
:100B100086958695877020E2829FC0011124C3705C
:100B200021E030E0A90102C0440F551FCA95E2F749
:100B3000EA01C82BD92BDC68A4CFC03252E5D50717
:100B400008F041C08C2F8695869520E2829FC001D7
:100B50001124C37021E030E0A90102C0440F551FE9
:100B6000CA95E2F7EA01C82BD92BDD688ACF803C11
:100B700052E5950760F48F71C03AD24508F03FC046
:100B800090E0982F8827EC01C46FD06A7ACF805C00
:100B90009245809708F07FCFDC2FCC27CC27DF71E0
:100BA000C06FD06A6ECFA497D0646BCFC85AD0E024
:100BB000CC0FDD1FC35ADE4F0990D881C02DD464FD
:100BC00060CFD0655ECFCF71D0E0DC2FCC27C16F76
:100BD000D06A57CF86958695877020E2829FC001A4
:100BE0001124C37021E030E0A90102C0440F551F59
:100BF000CA95E2F7EA01C82BD92BDA6842CF0E94E6
:100C0000D204C82FD0E0DC2FCC27CC27DF71D062F4
:100C100038CF8F710E94D20465E0D695C7956A954A
:100C2000E1F7CF70D0E0DC2FCC27282F30E084FF15
:100C300005C054E0220F331F5A95E1F7C22BD32B86
:100C4000D0691FCF8D2F8F710E94D204182FCE0133
:100C500099270E942E04212F30E0322F22272227AD
:100C60003F71282B392BE901D2CF80E00895F89409
:100C7000E82FE295EF70F0E041A18F7021E030E0C5
:100C8000B90102C0660F771F8A95E2F7CB01962F54
:100C90009095942391A392A1892B82A3789408958F
:100CA0000895A0E0B0E0E7E5F6E00C940628E9013D
:100CB000E42FF0E0E351FB4F61110BC0E4919E2F54
:100CC0008E2F8983E8839A83CDB7DEB7EAE00C9450
:100CD0002228282F30E0062F10E0F491EF2F86E035
:100CE000829F6001839FD00C1124EE24EA94F12CA2
:100CF000C601B7010E94BA27220F331F45E5469F60
:100D0000C001479F900D1124281B390B822F880F9B
:100D1000280FC701801B910BF89FA001F99F500D70
:100D20001124952F209F5001219FB00C1124AB2C32
:100D3000BB24D701AA19BB095D01FA9DD001FB9D17
:100D4000B00D11248B2F5701A21AB1089501209FD5
:100D50005001219FB00C309FB00C1124AB2CBB2450
:100D6000EA18FB08FE9D9001FF9D300D11246330B1
:100D70007105C9F01CEFC11613E0D10650F46130C3
:100D8000710509F49ECF6230710589F08E2FE32F33
:100D900098CF6430710571F066307105B9F3E52FB5
:100DA0009B2F8F2F8ECFEB2F852F9F2F8ACF852FB5
:100DB000932F87CF832FE52FF8CF8091290382309F
:100DC00060F4817082608093290380912C038739BD
:100DD00018F086E980932C0308958235B0F3817072
:100DE0008065F1CF21E030E0A90102C0440F551F1A
:100DF0008A95E2F7CA0120912703309128036623E0
:100E000051F0242B352B309328032093270381E0C6
:100E10008093DC0208958095909528233923F3CFA1
:100E2000682F617080E00E94F2060895FA0188231D
:100E300011F009950895FB01FCCFE091EC02F091CF
:100E4000ED02309729F00190F081E02D0995089589
:100E500080E008951F93CF93DF93182F0E941D0702
:100E6000682F617080E00E94F206111121C060E0DD
:100E700081E00E94F20660E082E00E94F20660E0FB
:100E800083E00E94F20660E084E00E94F20660E0E7
:100E900085E00E94F20660E086E00E94F20660E0D3
:100EA00087E00E94F206812FDF91CF911F91089574
:100EB000C12FD0E0BE0175956795617081E00E94F9
:100EC000F206BE017595679575956795617082E02C
:100ED0000E94F206BE0123E0759567952A95E1F719
:100EE000617083E00E94F206BE0134E0759567955B
:100EF0003A95E1F7617084E00E94F206BE0145E098
:100F0000759567954A95E1F7617085E00E94F20654
:100F1000BE0156E0759567955A95E1F7617086E0D8
:100F20000E94F206CC0FCD2FCC1FDD0B6C2F617011
:100F3000B7CF0E942A0780933103089521E030E063
:100F400001C0220F8A95EAF780913103822B0E941B
:100F50009907089521E030E0A90102C0440F551F10
:100F60008A95E2F7CA0180959091310389230E9406
:100F7000990708952091320380958223809332034C
:100F8000982F9770911113C030E0482F082E000C55
:100F9000550B2417350759F09091340392FF07C081
:100FA0008595859585950E94AA071092320308952C
:100FB0009091310321E030E0F90101C0EE0F8A95F4
:100FC000EAF7D90102C0AA0FBB1F6A95E2F7EA2B24
:100FD00001C0220F4A95EAF7892F8E23E81305C036
:100FE000892F822B0E94990708952095822F8923AB
:100FF000F9CFA3E0B0E0EFEFF7E00C940E289C01EE
:101000008091BE019091BF0182179307A1F03093A8
:10101000BF012093BE01E091EC02F091ED02309708
:1010200051F083E089833B832A830680F781E02D9A
:10103000CE01019609952396E2E00C942A28A3E0BC
:10104000B0E0E5E2F8E00C940E289C018091BC0130
:101050009091BD0182179307A1F03093BD012093B9
:10106000BC01E091EC02F091ED02309751F084E088
:1010700089833B832A830680F781E02DCE01019688
:1010800009952396E2E00C942A289C01FC013296F3
:101090008FEF90E04191461751F08F3F19F44111C5
:1010A00001C0892F9F5F9630A9F78F3F09F40895FB
:1010B000280F311D87FD3A95F901628308952FB7F6
:1010C000F8948091B8019091B901A091BA01B091C2
:1010D000BB012FBF0895A4E0B0E0E1E7F8E00C9475
:1010E0000E288FB7F8942091B8013091B901409142
:1010F000BA015091BB0129833A834B835C838FBF34
:1011000069817A818B819C812496E2E00C942A2863
:101110008091B70108950895FC019B018091AD0174
:101120009091AE018617970740F0672B29F48091C4
:10113000E8008E778093E800C90140E0009741F411
:10114000411106C08091E80082FF2FC080E0089521
:101150002091E9022223A9F12530A9F12091E8008C
:1011600023FD2DC02091E80022FDECCF2091E80066
:1011700020FFE4CF3091F3002091F200009719F0A6
:101180002830310558F041E02830310509F040E0C1
:101190002091E8002E772093E800D0CF4191409332
:1011A000F10001972F5F3F4FE9CF8091E90288233B
:1011B00041F0853041F08091E80083FFC3CF81E0AA
:1011C000089582E0089583E008958091A70187FF44
:1011D00013C08091E80082FF06C08091E8008B7701
:1011E0008093E80004C08091E9028111F2CF089554
:1011F0008091E9028823D9F38091E80080FFF8CF3D
:101200008091E8008E77ECCF2091E4003091E500EA
:1012100095E6A9018091EC008170882331F08091DE
:10122000E80080FF06C080E008952091E80022FDDC
:101230001BC08091E902882391F0853091F0809164
:10124000EB0085FD10C02091E4003091E5004217CD
:10125000530701F391509111DCCF84E0089582E0AF
:10126000089583E0089581E00895E8EDF0E080813D
:101270008E7F80831092E2001092DA001092E100DB
:10128000A0EEB0E08C9181608C9380818F77808319
:1012900019BCA7EDB0E08C918E7F8C9380818F7EFE
:1012A00080831092A6010895982FE42FE270909306
:1012B000E900891308C0762F242F50E0E11111C0F6
:1012C00091E0980FF4CF7091EC002091ED005091D7
:1012D000F00021FD06C09F5F973049F78093E90039
:1012E00008953091EB003E7F3093EB003091ED009C
:1012F0003D7F3093ED003091EB0031603093EB0097
:101300007093EC002093ED005093F0002091EE00DC
:1013100027FDE1CF0895A0E0B0E0E1E9F9E00C9409
:101320000828C8EDD0E088818F7E8883E7EDF0E063
:1013300080818160808384E082BF81E08093A60108
:1013400088818E7F888302EE10E0F801108210926F
:10135000DA0081EEC82ED12CF601108288818F77B9
:10136000888388818068888388818F7D888319BC81
:101370001092E9021092A5011092D5021092A401D8
:1013800090EEE92EF12CF70180818B7F808388819C
:101390008160888342E060E080E00E945409F601A9
:1013A00080818E7F8083F80180818160808380814D
:1013B00088608083F70180818E7F8083888180614F
:1013C0008883CDB7DEB7E8E00C942428E09137039A
:1013D0009091360326E0E91302C080E00895AE2F15
:1013E000B0E02E9FF0011124E85CFC4F31813613F0
:1013F00006C03081381303C03281341304C0FD01AC
:101400003196E770E8CF81E0089581E08093E000B5
:1014100080E28093D8001092C9008FE19EE401978A
:10142000F1F700C0000087E090EBDC0180936E03D1
:1014300090936F03A0937003B093710388E19CE0D5
:101440000FB6F894A895809360000FBE909360004B
:10145000FFCF0F931F93CF93DF93EB018A019091FE
:10146000E902943079F58093E9008FEF9091E800DC
:1014700095FD07C095ED9A95F1F700008150811117
:10148000F5CF8091E80085FF1DC00E9404098111FD
:1014900014C08091E80085FD06C08091E8008E7739
:1014A0008093E800F2CF88818093F1000150110908
:1014B0000115110511F02196ECCF8091E8008E778F
:1014C0008093E800DF91CF911F910F910895CF9302
:1014D000DF93D82FC92F48E050E0682F792F81E0A3
:1014E0000E94290A88E0ED2FFC2FAFEAB1E00190BD
:1014F0000D928A95E1F7DF91CF910895BC0143E009
:1015000050E084E00E94290A08959091340392FBF0
:10151000222720F9281779F080FB92F99093340361
:10152000609133037091340384E090E00E940829B5
:1015300082E00E94BA070895882381F063E282E284
:1015400090E00E94EA2863E083E290E00E94EA28AB
:1015500069E184E290E00E94EA2808956FEF82E258
:1015600090E00E94EA286FEF83E290E00E94EA2870
:101570006FEFEFCF1F93CF93DF93962F122F632F31
:101580008830D8F49530C8F44530B8F4C42FD0E092
:10159000CC0FDD1F2AE0929FC00DD11D112492E3D4
:1015A000899FC00DD11D1124CE0186960E94EA2884
:1015B000612FCE0187960E94EA28DF91CF911F917B
:1015C0000895AF92BF92CF92DF92FF920F931F9335
:1015D000CF93DF93A12CB12C00E0650110E013C084
:1015E000FE01259134914F2D612F802F0E94BA0A60
:1015F0002296F39485E0F812F3CF85E0C80ED11C53
:101600001F5F153039F0E601CC0FDD1FC85ADD4FE2
:10161000F12CE6CF0F5F89E1A80EB11C0830E9F686
:10162000DF91CF911F910F91FF90DF90CF90BF90EE
:10163000AF900895CF93DF93C6EBD1E060E0CE0189
:101640000E94EA282196C11584E0D807B9F7DF91F6
:10165000CF91089580E00E949C0A60E085E290E0CE
:101660000E94EA280E94E10A0E941A0B81E00E946F
:101670009C0A089582E290E00E94D628833289F481
:1016800083E290E00E94D628833059F484E290E00F
:101690000E94D62891E0893109F090E0892F81706D
:1016A000089580E0FCCF0F931F93CF93DF93883092
:1016B00030F5653020F5453010F5C42FD0E0CC0F63
:1016C000DD1F2AE0629FC00DD11D112432E3839FEC
:1016D000C00DD11D1124CE0186960E94D628082F58
:1016E00010E0102F0027CE0187960E94D62898017F
:1016F000282BC901DF91CF911F910F91089580E0B0
:1017000090E0F8CF462F672F753038F4453028F435
:10171000883018F40E94530B089580E090E00895FB
:10172000A0E0B0E0E6E9FBE00C9409287C01009120
:10173000310380913003082BC7E0D0E010E0C801EE
:101740000C2E02C0959587950A94E2F780FD09C09A
:101750002197A8F7D12C8D2DCDB7DEB7E7E00C94FB
:101760002528DC2EB7018C2F0E94820B0E941C05BD
:10177000019771F3F0CF0F931F93CF93FC018281F8
:1017800000811181882391F0662381F0C8010E94B5
:10179000900BC82F682FC8010E949E03B8018C2FA0
:1017A0000E94820BCF911F910F910895C8010E9452
:1017B000D503C82FF3CFCF93DF93D82FC92F0E9423
:1017C000900B6D2F7C2F0E94820B0E941C05DF91D5
:1017D000CF910895FC0183819481892BC9F0818187
:1017E000908189238F3FA1F0808191810E94DB0B42
:1017F000282F92959F70963091F060F4925F9F70C1
:10180000923030F481E0203F79F030F4283E30F01F
:1018100080E004C09A5FF3CF243FD1F7089581E0C0
:10182000283E18F0213FF9CF0895089580912E03A6
:1018300090913503892B8093960190912F039923E2
:1018400091F0892B8093960120E088E991E0FC01DA
:101850003081019631112F5F31E08E399307B9F74E
:1018600021110E94280448E050E06EEE72E086E903
:1018700091E00E94C928892BA9F088E0E6E9F1E00F
:10188000AEEEB2E001900D928A95E1F7E091EC02A4
:10189000F091ED02309731F00280F381E02D86E97E
:1018A00091E009950895CF93C82F8823A9F08CEF74
:1018B0008C0F813A98F4E8E9F1E08EE991E021910A
:1018C000C217B1F18E179F07D1F76C2F86E991E00F
:1018D0000E9445080E94160CCF91089580E28C0F5B
:1018E000883068F4C77021E030E001C0220FCA954B
:1018F000EAF780912E03822B80932E03EBCF8BE5AA
:101900008C0F833038F42C2F2452330BC9010E94E2
:10191000F907E2CFC85ACB31F8F6EC2FF0E0EE0F22
:10192000FF1FE35AFE4F808191810E941F08D4CF90
:101930008C2F0E9413040E94160CC7CF882339F104
:101940009CEF980F913A28F40E9413040E94160C01
:10195000089590E2980F983050F4877091E001C09C
:10196000990F8A95EAF7892F0E942004EFCF9BE513
:10197000980F933028F480E090E00E94F9070895D2
:10198000885A8B3120F480E090E00E941F0808956F
:101990000F931F93CF93C82F00E010E0893311F409
:1019A00000E510E08C2F0E94530C0115110539F44D
:1019B0008C2F0E949E0CCF911F910F9108958FE95B
:1019C0009FE00197F1F700C0000001501109EDCF31
:1019D000882339F090912E03892B80932E030E9447
:1019E000160C0895882321F00E9420040E94160CF2
:1019F00008950F931F93CF93DF93C62FD42F122FE9
:101A00008823A9F0609323030E945F089093A201AA
:101A10008093A101C77081E001C0880FCA95EAF7E1
:101A20000E94E80CDF91CF911F910F910895809152
:101A3000230368133DC02091A1013091A2014FB74B
:101A4000F8948091B8019091B901A091BA01B09138
:101A5000BB014FBF821B930B883C910548F56D136A
:101A60000CC0812F0E94C80CD77081E001C0880F84
:101A7000DA95EAF70E94F20CD5CFC77001E0802F0B
:101A800001C0880FCA95EAF70E94F20C80E28D0F20
:101A9000883050F48D2F877001C0000F8A95EAF7C7
:101AA000802F0E94E80CDDCF812F0E94C80CBACF96
:101AB000C77081E001C0880FCA95EAF7DBCF1092AA
:101AC0002E03E8E9F1E086E0DF011D928A95E9F74F
:101AD00080E090E00E94F90780E090E00E941F08FB
:101AE000109235030E94160C08950E945F0D2FEF8F
:101AF00084E39CE0215080409040E1F700C000006A
:101B000088E19CE00FB6F894A895809360000FBE22
:101B100090936000FFCFAAE2B0E0E1E9FDE00C9411
:101B20000D2887EA91E0FC0101962091F1002083C5
:101B300021E08F3A9207B9F78091A801893009F422
:101B400056C0C8F4823009F4B3C0833009F482C0AF
:101B5000813071F18091E80083FFE7C08091A70197
:101B60009091A8019A3008F0E0C0E92FF0E0ED571D
:101B7000F64D0C94E2278A3009F489C08B3051F776
:101B80008091A701813231F78091AB019091AC0136
:101B9000892B01F78091E800877F8093E8000E94FD
:101BA000E5088091A901809304010E945F0DD2CFC6
:101BB0008091A701813A71F68091E800877F809338
:101BC000E8008091AB019091AC01892B61F060E05D
:101BD00080E090E070E00E948C088091E8008B77B4
:101BE0008093E800B7CF68E08FEA91E0F3CF80916F
:101BF000A701813209F0AECF8091AB019091AC0189
:101C00008D7F892B09F0A6CF8091E800877F809394
:101C1000E8008091E80082FF18C09091F300809165
:101C2000F200029731F48091F100813011F086309A
:101C300021F48091F1008093B7018091E8008B77C7
:101C40008093E8000E94E50885CF8091E902811128
:101C5000E0CF80CF8091A701813A09F07BCF8091BE
:101C6000AB019091AC01892B09F074CF8091E80011
:101C7000877F8093E8008091E80080FFFCCF80910F
:101C800004018093F1008091E8008E77D9CF809194
:101C9000A701813209F05ECF8091E800877F8093B1
:101CA000E8000E94E5088091AA018093A30152CF29
:101CB0008091A701813A09F04DCF8091E800877F9C
:101CC0008093E8008091E80080FFFCCF8091A30121
:101CD000D8CF803889F0823841F58091AB018F7080
:101CE000873018F58093E9008091EB0085FB882709
:101CF00080F91092E90006C08091A4019091D5026C
:101D0000911182609091E800977F9093E800809312
:101D1000F1001092F1008091E8008E7723C08111CC
:101D200016C08091A901813011F18091E80083FFF4
:101D30000AC08091E800877F8093E8008091EB00E3
:101D400080628093EB00AA96E3E00C94292882300D
:101D500061F78091A901882389F01092E9008091B0
:101D6000E800877F8093E8000E94E508DECF81E0ED
:101D7000933009F080E08093D502EFCF8091AB01E2
:101D80008F702FEF280F263080F68093E900209186
:101D9000EB0020FFE2CF933031F48091EB008062C2
:101DA0008093EB00DACF9091EB0090619093EB0081
:101DB00021E030E0A90102C0440F551F8A95E2F7E7
:101DC0004093EA001092EA008091EB008860E8CF2F
:101DD0008111ABCF1091A9011F778091E30080782A
:101DE000812B8093E3008091E800877F8093E80057
:101DF0000E94E5088091E80080FFFCCF8091E3001D
:101E000080688093E30083E0111101C082E0809339
:101E1000E9028BCF8058823008F087CF4091A9012A
:101E20005091AA014C3D83E0580799F583E08A83DD
:101E30008AE289834FB7F894DE01139620E03EE0F2
:101E400051E2E32FF0E050935700849120FF03C04C
:101E500082958F703F5F8F708A30C8F0895C90E008
:101E60008D939D932F5F243161F74FBF8091E800E0
:101E7000877F8093E8006AE270E0CE0101960E94BD
:101E80008C088091E8008B778093E8004ECF805DCE
:101E9000E6CF8091AB019091AC01252F3327233001
:101EA000310509F44AC078F52130310509F479C0CB
:101EB0008BE590E0E3EBF1E02230310509F035CF1E
:101EC0002091E800277F2093E8002091AD01309118
:101ED000AE018217930708F49C0140E021153105FB
:101EE00009F064C0411162C08091E80082FDC9CF51
:101EF0008091E902882329F2853019F28091E80067
:101F000083FFF2CFBECF2132310509F43BC022322C
:101F1000310509F00ACF8330910508F006CFFC01A6
:101F2000EE0FFF1FE25EFE4F0190F081E02D855E17
:101F30009E4FDC018C9190E011C0CA01992741307D
:101F400089F082309105B1F0892B09F0EECEE4E5FD
:101F5000F2E0E4918E2F90E0E4E5F2E0009709F4DE
:101F6000E4CEAECFE8E3F2E0E4918E2F90E0E8E338
:101F7000F2E0F4CFE0E2F2E0E4918E2F90E0E0E2D4
:101F8000F2E0ECCF8330910508F0CFCEFC01EE0FEC
:101F9000FF1FEC5DFE4F0190F081E02D89E090E0A5
:101FA0008FCF82E190E0EEE0F2E08ACF8091E9020B
:101FB000882309F466CF853009F463CF8091E80067
:101FC00083FD5FCF8091E80082FD8ECF8091E80095
:101FD00080FF84CF9091F3008091F20021153105AC
:101FE00019F08830910550F041E0089709F040E081
:101FF0008091E8008E778093E80070CF4491409301
:10200000F1003196215031090196E8CF803809F06E
:102010008CCE8091E800877F8093E8008091A501B5
:102020008093F10078CE811180CE1091A9011230F9
:1020300008F07BCE8091E800877F8093E8001093C2
:10204000A5010E94E5081123D1F084E08093E90204
:1020500042E061EC81E00E94540942E261EC84E0DC
:102060000E94540942E261EC82E00E94540942E27B
:1020700060EC83E00E9454098091E90256CE809181
:10208000E30087FDE2CF81E0E1CF67EE7EEF80E005
:1020900090E00E94082960E082E090E00E94EA2837
:1020A00060E083E090E00E94EA281092300360E054
:1020B00074E184E090E00E94082960E086E090E00E
:1020C0000E94EA286FEF87E090E00E94EA2840E053
:1020D00050E0BA0188E090E00E94FC2860E08DE0CA
:1020E00090E00E94EA2840E050E0BA0188E190E0E8
:1020F0000E94FC2860E087E190E00E94EA2840E02E
:1021000050E0BA018CE190E00E94FC2860E070E0B1
:1021100080E290E00E94082940E050E0BA0188E1A6
:1021200090E00E94FC2880E00E949C0A0E942A0BFA
:1021300040E050E0BA018FE090E00E94FC2840E0CF
:1021400050E0BA0183E190E00E94FC2808950F93CB
:102150001F93CF93DF938B01D82FC92F0E94DD06E9
:10216000A8016D2F7C2F88E090E00E94FC28DF9171
:10217000CF911F910F910895E9E2F3E083E080830E
:1021800011828FEF828386E98383148263E070E09B
:102190008FEF96E90E94A7100895A4E0B0E0E3ED68
:1021A000F0E10C940E2880912D03833018F48F5F9A
:1021B00080932D038091290390912A03A0912B03F2
:1021C000B0912C03BC01CD010E94A7102496E2E03F
:1021D0000C942A28A4E0B0E0E0EFF0E10C940E2883
:1021E00080912D03882319F0815080932D038091D5
:1021F000290390912A03A0912B03B0912C03BC01D9
:10220000CD010E94A7102496E2E00C942A28609148
:102210002903669570E04BE050E088E091E00E9471
:10222000BC28892B19F481E0809326030E945F0863
:102230009093DE028093DD020895A5E0B0E0E3E232
:10224000F1E10C9401288091290380FD0AC0E7E6A2
:10225000F2E0118210821282339622E0EA3CF20709
:10226000C1F78090D0029090D1028114910409F4BA
:1022700065C08091D402811161C050902C03A12CC3
:10228000B12C66246394712C20912703309128038C
:10229000C3010A2C02C0880F991F0A94E2F7822317
:1022A0009323892B09F43FC0F401E590F490E114E5
:1022B000F10409F443C045E050E0B701CE010196B6
:1022C0000E94B32889818F3F71F12A8190E0280F05
:1022D000392F311D2232310514F021E230E069013D
:1022E000CC0CDD1CC20ED31E960129593D4F69014D
:1022F0008C01000F111F080F191F09591D4F0C15D4
:102300001D0520F055E0E50EF11CD5CF452D36E931
:10231000351508F446E998016C818B810E945106BD
:102320000D5F1F4FECCF82E0880E911C9FEFA91A22
:10233000B90A29E0A216B10409F0A6CF559A3BB11B
:102340003F7D2BB120624FB7F89487E692E0FC0105
:102350000196508168E02BB9000000C057FF3BB9DF
:10236000550F000000C000C000C03BB900C06A9516
:1023700091F752E08A3C950751F74FBF8FE594E003
:102380000197F1F700C000002596EFE00C941D289E
:10239000A0E0B0E0EEECF1E10C940028FC016280DA
:1023A000448081E08483E8EEF3E07490E7E6F4E0B3
:1023B000E49100912C030695015810E0000F111FC5
:1023C000012F1127C0ECD1E027E6C22E22E0D22E49
:1023D00035E6832E32E0932EAA24AA94B12C5524FC
:1023E0005A94E719EE2EF12C82E0861530F0809198
:1023F0002A03888380912B038983411019C01B8293
:102400001A824A81473908F046E996016981888134
:102410000E945106259683E0C80ED11C8C169D069D
:1024200019F70E941D11CDB7DEB7E0E10C941C280E
:102430008B818823E9F081508B83589EC001112441
:102440006C8170E00E94BA27FB01FF27E851FC4F26
:102450008491E82FE7195E9EC0011124B7010E9404
:10246000BA2780912C03689FB00111247A83C9CFC9
:102470000E94A328B5010E94CE27801791070CF077
:10248000C0CF82E0861588F40E94A328B5010E947F
:10249000CE2788830E94A32820912B032695622FA4
:1024A00070E00E94CE27280F29831A8280912C0386
:1024B000893C20F088EC8C838B83A3CF8431D8F7C0
:1024C00084E1F9CFEF92FF921F93CF93DF93EC015A
:1024D00087E6E82E82E0F82E10E040912C03473981
:1024E00008F046E98C81970160912B03810F0E94CF
:1024F0005106195F83E0E80EF11C173E71F70E9448
:102500001D119A818C8190FF08C08F5F8C83DF91B1
:10251000CF911F91FF90EF9008958150F7CFA0E0E9
:10252000B0E0E5E9F2E10C940828FC018281DD24A9
:10253000D39480FF02C0DD24DA9407E612E0C0E005
:10254000D0E0F80111821082128294E0E92EF12C81
:10255000C12C809166028C0D8232ECF161E20E9406
:10256000AC27892F082E000C990B8C179D07A9F416
:1025700080912C038E9DA0018F9D500D11245595A7
:10258000479555954795473908F046E99801609178
:102590002B0380912A030E945106CD0CF1E0EF1A23
:1025A000F108E114F104A9F621960D5F1F4FC13225
:1025B000D10539F60E941D118091660291E0D91271
:1025C0000EC0882391F0815080936602CDB7DEB7AC
:1025D000E8E00C94242887FFC5CF8F5DC3CF90E03F
:1025E0000196BE010E94CE27EFCF80E2EDCF0F9380
:1025F0001F93CF93DF93C7E6D2E0FE0111821082D2
:102600001282339682E0EA3CF807C1F700E010E05E
:1026100080916502082E000C990B08171907A4F188
:1026200080910701082E000C990B8017910764F127
:1026300040912C03473908F046E99E0160912B0335
:1026400080912A030E9451060F5F1F4F239601328B
:102650001105F1F60E941D1180910601909165020D
:10266000980F9093650220910701280F209307018E
:10267000121614F490321CF0819580930601DF91BC
:10268000CF911F910F910895198218821A82DCCF81
:10269000AEE0B0E0EEE4F3E10C9408288D879E876D
:1026A000AD85BE8514961C91212F30E0D9010E9482
:1026B00072299B01AC010E943D2969837A838B8337
:1026C0009C83E0E2F0E0E11BF109A5E5B0E09B01AD
:1026D000AC010E943D2969877A878B879C879F017F
:1026E000DF010E94EF279B01AC010E9448296D8306
:1026F0007E838F8398879B01AC0189819A81AB810E
:10270000BC81280F391F4A1F5B1F69857A858B851D
:102710009C850E945029022F30E00A32E0F5C90161
:10272000880F991F820F931F95958795182F1095E5
:1027300037E6C32E32E0D32EF12C85E5E82EE01AE1
:102740008E2DF1FC802F412F173908F046E99601B4
:1027500060912B030E945106F394B3E0CB0ED11C81
:10276000E1E2FE12EDCF0E941D11AD85BE851496EB
:102770009C9181E0992319F0903219F48FEF8093A6
:10278000050180910501890FED85FE8584832E96D4
:10279000E8E00C94242885E590E0DC01A21BB30B53
:1027A000CD01880F991F8A0F9B1F97FFBDCF019600
:1027B000BBCF9091290390FF0CC0E7E6F2E0818344
:1027C00060834283339692E0EA3CF907C1F70E94A6
:1027D0001D110895A3E0B0E0E0EFF3E10C940E28A2
:1027E0009091290390FF0DC0473908F046E99E01FA
:1027F0002F5F3F4F0E9451064B8169818A810E9461
:10280000D9132396E2E00C942A28CF93DF93EC01AE
:10281000EC81F0E0E851FC4F4491E9E2F3E06281A1
:1028200081810E94EA138C818F5F8C83DF91CF912D
:102830000895CF93DF93EC01E9E2F3E043816281F5
:102840008C810E94EA138C818F5F8C83DF91CF9102
:102850000895A7E0B0E0EFE2F4E10C940128E82E3F
:10286000762EF42E622E9091290390FF32C0E92F2C
:10287000E695AE2FB0E0A65DBE4F8C918093250308
:102880009E7F923051F540932C0386E9841708F41B
:1028900046E99E012F5F3F4F672D8E2D0E94510606
:1028A0004B8169818A810E94D913E0922A03709238
:1028B0002B03F0922C03662061F080912903909104
:1028C0002A03A0912B03B0912C03BC01CD010E94DF
:1028D000A7102796EFE00C941D28823019F4F09091
:1028E0002C03E3CF863019F4E0902A03DECF893041
:1028F000D9F38931D1F6E9519E2F9170592EE69581
:10290000F0E0E851FB4FE4910E2F10E087E6C82E6F
:1029100082E0D82EA12CB12C91E2892E912CC501F8
:10292000B4010E94BA278E2D511019C0860F4F2D69
:10293000A6E9AF1508F446E99601672D0E945106F5
:10294000A00EB11EB3E0CB0ED11C8AECC81682E0FB
:10295000D80629F7F0922C030E941D11A6CF861BE2
:10296000E6CFA4E0B0E0E7EBF4E10C940E28909100
:10297000290390FF34C08823B1F18932B0F58F77F5
:10298000880F909129039170892B809329036623E6
:1029900061F08091290390912A03A0912B03B091BB
:1029A0002C03BC01CD010E94A710609129036695FC
:1029B00070E04BE050E088E091E00E94BC28892B59
:1029C000B1F01092260381E08093E00220E0409174
:1029D0002C0360912B0380912A030E9429142496D2
:1029E000E2E00C942A2881E0CBCF88E2C9CF0E9494
:1029F0000711E9CF8091290386958F5F893208F00E
:102A000081E061E00E94B1140895909129039695A8
:102A10008FEF890F913009F488E261E00E94B114D0
:102A20000895E9E2F3E080818160808360E086952B
:102A30000E94B11408959091290390FF08C09695C3
:102A4000981728F0961718F40E94FA14089561E078
:102A50000E94B1140895A4E1B0E0E1E3F5E10C9423
:102A6000FE278D879E87AD85BE859C9111968C91A2
:102A7000119713962D913C911497232B09F413C1B0
:102A800089238F3F09F40FC161E0CD010E94BB0B88
:102A90004C01ED85FE85A281815A92454F9708F041
:102AA0007BC08401F0EA0F27F2E51F27AA2309F46F
:102AB00090C380912203882309F4D9C11092220384
:102AC000480121E030E040E050E060E070E080E06C
:102AD00090E0082D0E943528E09102032E2BE09112
:102AE00003033E2BE09104034E2BE09105035E2B84
:102AF000E09106036E2BE09107037E2BE091080323
:102B00008E2BE0910903E92B2093020330930303FA
:102B100040930403509305036093060370930703E7
:102B200080930803E0930903AA2309F453C6109283
:102B3000230397E789169CE7990609F4CBC682E040
:102B4000A8E78A16ACE79A0609F4C5C6FAE58F1617
:102B5000FCE79F0609F4E8C608F0C9C631E0831611
:102B60003CE7930609F4DEC643E084164CE794067E
:102B700009F4D2C681148CE7980609F038C60E9481
:102B80005F0DBFEFE4E3FCE0B150E040F040E1F75F
:102B900000C000000E94050AAA2309F40FC32FEF0A
:102BA0008216910409F008F482C039E583163CE7E7
:102BB000930609F460C010922203C401975780382D
:102BC000910508F02CC3182D103108F05AC08FEF72
:102BD00093E00E94D628811154C056EB652E7724CD
:102BE00073941111BAC31A821982FE01339686E0DA
:102BF000DF011D928A95E9F74AE0242E4301BFEFD9
:102C00008B1A9B0AC3010E94D62889831A828823C3
:102C1000C1F1813009F0D4C383010E5F1F4FC4019D
:102C20000E94D6288A83882361F19FEF980F933002
:102C300008F0A2C3E3E06E0E711CC8010E94D62802
:102C40008B838823F1F01C828E010F5F1F4FD80108
:102C50008C91882399F2813009F0EDC311969C91F3
:102C6000119712968C91913009F0ACC30E5F1F4FF3
:102C70000E94C80CADC38091220391E08927809304
:102C80002203809132038770882369F0AD85BE8569
:102C900012968C91882339F08091340382FF03C00F
:102CA00082E00E94BA076496E2E10C941A288091AF
:102CB0002203882309F4D5C01092220340EC841625
:102CC000910408F458C021E030E040E050E060E0BA
:102CD00070E080E090E08401005C11090E943528DA
:102CE000E0911A032E2BE0911B033E2BE0911C0375
:102CF0004E2BE0911D035E2BE0911E036E2BE091A5
:102D00001F037E2BE09120038E2BE0912103E92B02
:102D100020931A0330931B0340931C0350931D030D
:102D200060931E0370931F0380932003E09321039D
:102D3000AA2309F4ACC210922303C40190578397CD
:102D400008F4F4C3F6E18F16FCE79F0609F0F1CE14
:102D500080912E038A7A91E0811101C090E09093D6
:102D6000240369E2811165E386E991E00E94450848
:102D70000E94160C86CF80E888169104E0F5840145
:102D8000005411090034110508F09BCE21E030E019
:102D900040E050E060E070E080E090E00E94352884
:102DA000E0910A032E2BE0910B033E2BE0910C03E4
:102DB0004E2BE0910D035E2BE0910E036E2BE09104
:102DC0000F037E2BE09110038E2BE0911103E92B72
:102DD00020930A0330930B0340930C0350930D038D
:102DE00060930E0370930F0380931003E09311031D
:102DF00010922303A4CE21E030E040E050E060E0F8
:102E000070E080E090E08401005811090E943528AC
:102E1000E09112032E2BE09113033E2BE09114035B
:102E20004E2BE09115035E2BE09116036E2BE09183
:102E300017037E2BE09118038E2BE0911903E92BE9
:102E400020931203309313034093140350931503FC
:102E5000609316037093170380931803E09319038C
:102E6000C7CF90E48916910408F066C084012090D1
:102E70000203B0910303B987E0910403EF87F09157
:102E80000503F88BB0910603B98BE0910703EA8B39
:102E9000F0910803FB8BB0910903BC8B21E030E07B
:102EA00040E050E060E070E080E090E00E94352873
:102EB000322E432E542E652E762EB72FF82FE92F63
:102EC000A22CA222B984B322CF84C422D888D522CE
:102ED000E988E622FA88F7220B8908231C8919233E
:102EE0000E944E2809F02FC2309440945094609470
:102EF0007094B095F095E0953220A9854A22AF856F
:102F00005A22A8896A22A9897A22AA89BA23AB8976
:102F1000FA23AC89EA2330920203409203035092D1
:102F200004036092050370920603B0930703F093C5
:102F30000803E0930903A5CEE0E88E16910408F09B
:102F400068C020900A03F0910B03F987B0910C033D
:102F5000BF87E0910D03E88BF0910E03F98BB091E0
:102F60000F03BA8BE0911003EB8BF0911103FC8BF4
:102F700021E030E040E050E060E070E080E090E090
:102F80008401005411090E943528322E432E542EFC
:102F9000652E762EB72FF82FE92FA22CA222B98406
:102FA000B322CF84C422D888D522E988E622FA88C1
:102FB000F7220B8908231C8919230E944E2809F047
:102FC000B7CE30944094509460947094B095F0953E
:102FD000E0953220A9854A22AF855A22A8896A2223
:102FE000A9897A22AA89BA23AB89FA23AC89EA2370
:102FF00030920A0340920B0350920C0360920D032F
:1030000070920E03B0930F03F0931003E09311033B
:1030100038CE20EC8216910408F068C0209012038C
:10302000B0911303B987E0911403EF87F091150372
:10303000F88BB0911603B98BE0911703EA8BF091EE
:103040001803FB8BB0911903BC8B21E030E040E00A
:1030500050E060E070E080E090E0840100581109E9
:103060000E943528322E432E542E652E762EB72FF1
:10307000F82FE92FA22CA222B984B322CF84C42234
:10308000D888D522E988E622FA88F7220B89082316
:103090001C8919230E944E2809F04ACE309440948E
:1030A000509460947094B095F095E0953220A98585
:1030B0004A22AF855A22A8896A22A9897A22AA8936
:1030C000BA23AB89FA23AC89EA23309212034092E7
:1030D0001303509214036092150370921603B09379
:1030E0001703F0931803E0931903CBCD20901A0334
:1030F000E0911B03E987F0911C03FF87B0911D034A
:10310000B88BE0911E03E98BF0911F03FA8BB0910D
:103110002003BB8BE0912103EC8B21E030E040E009
:1031200050E060E070E080E090E08401005C110914
:103130000E943528322E432E542E652E762EB72F20
:10314000F82FE92FA22CA222B984B322CF84C42263
:10315000D888D522E988E622FA88F7220B89082345
:103160001C8919230E944E2809F0E2CD3094409426
:10317000509460947094B095F095E0953220A985B4
:103180004A22AF855A22A8896A22A9897A22AA8965
:10319000BA23AB89FA23AC89EA2330921A0340920E
:1031A0001B0350921C0360921D0370921E03B09388
:1031B0001F03F0932003E093210363CDBFEF8B1631
:1031C000910411F008F0C1C0E0E48E16910490F56E
:1031D000840121E030E040E050E060E070E080E019
:1031E00090E00E943528A0900203A222B090030331
:1031F000B322C0900403C422D0900503D522E090EE
:103200000603E622F0900703F72200910803082343
:103210001091090319230E944E2809F432CDF401BC
:10322000E851FC47E730F10508F082CDE357F64D51
:103230000C94E227F0E88F169104B8F521E030E015
:1032400040E050E060E070E080E090E084010054F5
:1032500011090E943528A0900A03A222B0900B0306
:10326000B322C0900C03C422D0900D03D522E0906D
:103270000E03E622F0900F03F722009110030823BB
:103280001091110319230E944E2809F4FACCE6E1AB
:103290008E16ECE79E0609F01AC280912403811174
:1032A00014C289E20E94130463CD20EC82169104BB
:1032B00028F521E030E040E050E060E070E080E0A0
:1032C00090E08401005811090E943528A090120353
:1032D000A222B0901303B322C0901403C422D09052
:1032E0001503D522E0901603E622F0901703F7228B
:1032F00000911803082310911903C4CF21E030E096
:1033000040E050E060E070E080E090E08401005C2C
:1033100011090E943528A0901A03A222B0901B0325
:10332000B322C0901C03C422D0901D03D522E0908C
:103330001E03E622F0901F03F722009120030823CA
:10334000109121039FCFA11138CCF401E851FC4723
:10335000E730F10508F09BCF69CF611434E07306C4
:1033600009F48FCCC3010E94D628D30111963D01E8
:103370008111F3CF115035CC8430C1F432E0832E6B
:10338000912CC8010F5F1F4F0E94D628E1E0F0E0AA
:10339000EC0FFD1FE80DF91D8083882309F471CC23
:1033A0008C3731F4FE01E80DF91D128238014CCC46
:1033B000FFEF8F1A9F0A27E08216910411F761CC64
:1033C000340142CC923039F40E5F1F4F0E94530CEF
:1033D0000F5F1F4F3CCC933029F40E5F1F4F0E94AC
:1033E0009E0CF6CF943019F00F5F1F4FF1CF0E5F98
:1033F0001F4F20E030E0A8014F5F5F4F8053990BD3
:103400008A30910560F02115310511F38FE99FE0B5
:103410000197F1F700C0000021503109F4CF229E3E
:10342000B001239E700D11249C01260F371FF80157
:1034300081818A01E0CFE82FF0E0EE5BF94F349014
:10344000282F26952695269530E0F901EE5CF94F58
:1034500094918770F901EE5DF94F8490912C082EBC
:1034600002C0959487940A94E2F7A1E08A229924F5
:10347000F901EE5EF94F4490512C082E02C055948C
:1034800047940A94E2F7B1E04B225524292F30E00B
:1034900002C0359527958A95E2F720FF0AC081EE94
:1034A0000E94530C8928D1F4832D0E94C80C81EE10
:1034B00012C0892849F4832D0E94C80C411451047C
:1034C00009F486CF8CE2D4CB86EE0E94530C832D78
:1034D0000E94C80C86EE0E949E0CF0CF86EE0E94E1
:1034E000530C832D0E94C80C86EE0E949E0CDFCFE9
:1034F00026E241EE61EE8A2F0E94F90CC2CB27E250
:1035000045EE65EEF8CF26E241EE60EEF4CF27E21D
:1035100045EE64EEF0CF26E241EE62EEECCF27E21C
:1035200045EE66EEE8CF28E241E0EBCF84E090E0A4
:103530000E94E4289093340380933303F401E15014
:10354000F047E232F10520F4EC56F64D0C94E227F8
:1035500080913303816080933303609133037091D2
:10356000340384E090E00E9408290E945F0D89CB1B
:1035700080913403886080933403EFCF80913303CC
:103580008260E9CF809133038460E5CF809133037B
:103590008860E1CF809134038160EDCF8091340366
:1035A0008260E9CF809133038061D5CF809133036E
:1035B0008062D1CF809133038064CDCF0E945F0DB4
:1035C000809133038068C7CF809133038C60C3CF71
:1035D000809134038360CFCF809133038E7FBBCF44
:1035E00080913403877FC7CF809133038D7FB3CF22
:1035F000809133038B7FAFCF80913303877FABCF35
:10360000809134038E7FB7CF809134038D7FB3CF09
:10361000809133038F7E9FCF809133038F7D9BCF2B
:10362000809133038F7B97CF0E945F0D809133038E
:103630008F7791CF80913303837F8DCF8091340337
:103640008C7F99CF8091330382FB992790F921E0F9
:10365000922790FB82F990FB83F97DCF8091340310
:10366000982F909591708E7F892B90FB81F983CF55
:1036700090913303892F8F7B96FF80646CCF0E94DB
:103680005F0D90913303892F97FB87F9805863CFA3
:1036900061E08EE090E00E94EA285FCF60E0F9CF21
:1036A00090913303892F8F7E94FF806154CF909146
:1036B0003303892F8E7F90FF81604DCF909134032B
:1036C000892F877F93FF886056CF85E3EBCD80916C
:1036D0002E038272F401E052F847E531F10508F05B
:1036E00079C0EA54F64D0C94E2278091290380FFBB
:1036F00018C08E7F809329038091290390912A031B
:10370000A0912B03B0912C0389879A87AB87BC8744
:10371000BC01CD010E94A710109226030E941D112A
:10372000B0CA81608093290361E086950E94B1143C
:10373000A8CA45E055E16AEF74E10E941607A1CAE4
:103740004AEF54E165E075E1F8CF44EC50E26AEBF2
:1037500070E2F3CF4AEB50E264EC70E2EECF4BED57
:1037600050E26EEC70E2E9CF4EEC50E26BED70E2AD
:10377000E4CF45EF50E268EE70E2DFCF48EE50E272
:1037800065EF70E2DACF4AEE50E16DEC70E1D5CF33
:103790004DEC50E16AEE70E1D0CF61E081E0C6CF40
:1037A00065E082E00E941B156CCA68E086E0FACFF3
:1037B0006EE089E0F7CF64E18FE0F4CF67E185E167
:1037C000F1CF61E088E1B2CF62E289E1EBCF68E25C
:1037D00083E2E8CFB7E78B16BCE79B0609F483C00A
:1037E00082E0E8E78E16ECE79E0609F47DC0ED85E1
:1037F000FE85828180809180882309F499C0C4016C
:103800000E94900B182F682FC4010E949E03B401E0
:10381000812F0E94820B0E941C058C01AD85BE8504
:1038200012968C90129715967C9072942FE07222CB
:103830008091320387708823F1F0682C8820E1F0B2
:10384000812F807F803451F080E2800F883098F0A3
:10385000711004C0812F807E803269F08091340322
:1038600082FF09C082E00E94BA078091320387700C
:10387000662463948111612C812F82958F7088302A
:1038800009F440C108F07BC0843008F056C0B12F65
:10389000BF709B2E823008F483C0107F103219F065
:1038A000929480EF9822002309F4B1C0013009F40A
:1038B000F0C0882009F4FAC0772009F4F0C0AD8583
:1038C000BE8515968C91159780FF80C08F701596D8
:1038D0008C93E5C081E00E949E0743E062E081E0B6
:1038E0000E94D807CEC981E00E94AA07F6CF9BE5C7
:1038F00089169CE79906D1F0ACE58A16ACE79A06E2
:1039000009F075CF8091340382FB882780F991E01C
:1039100089270E94850A6BCF6FEF7FEF80E090E0F0
:103920000E9408290E94750D81E0F3CF80E0F1CF5D
:10393000C4010E94D503182F6ACF843009F4C7C090
:103940006620B9F08091320380FD13C0ED85FE85BD
:1039500012828595859585950E949E078D859E8509
:103960000E942B15809132038595859585950E943F
:10397000AA0760E08D859E850E94BB0B94C98930A3
:1039800009F431C18A5F8F708230D0F6023F09F0AE
:103990003BC1812F8F71811034C10E949E07DFC00F
:1039A000103118F0929490EF99228820B9F0992064
:1039B00069F080E2800F883010F0011109C0809119
:1039C0002E03892980932E030E94160C802F2FC06E
:1039D00080913503892980933503F6CF802F0E948B
:1039E0009E0C992009F4ACCF80E2800F883010F053
:1039F000011104C0892D0E94200406C0909480917A
:103A000035038921809335030E94160C99CF2091AC
:103A1000340322FD16C0882069F0992039F0809186
:103A20002E03892980932E030E94160C80E00E94A9
:103A3000530C86CF80E00E949E0C992009F480CF21
:103A4000D9CF8820A1F090912F03892D892B711057
:103A500003C00E94E80C74CFE1E07E12FACF22FF8F
:103A60006FCF891709F46CCF80932F0369CF711042
:103A700006C00E942804892D0E94F20C61CFF1E05B
:103A80007F1609F45DCF892D0E94F20C0E94280454
:103A900057CF882031F025E0271508F451CF892D24
:103AA000D8CF34E0371508F44BCFE5CF772019F3A2
:103AB000093349F4BFEFE7EEF3E0B150E040F040E6
:103AC000E1F700C00000802F0E949E0C39CF812FAB
:103AD000869586958370882361F0813009F030CF18
:103AE000C8019370811002C080E090E00E941F081E
:103AF00027CFC8019370811002C080E090E00E943F
:103B0000F9071ECF812F8370811136C0811027C025
:103B1000402F429546954770440F440F802F8F7079
:103B2000042E01C0880F0A94EAF70071002341F0C7
:103B30002FE030E001C0220F4A95EAF7022F0095EE
:103B4000169516951370123091F0133071F0209184
:103B50003003113049F0802B82230E949B030E9486
:103B60001D070E941007ECCE822B802BF6CF802BF6
:103B7000909130038927F1CF882051F110FFEFCFCA
:103B8000402F429546954770440F440F802F8F7009
:103B9000042E01C0880F0A94EAF70071002341F057
:103BA0002FE030E001C0220F4A95EAF7022F00957E
:103BB000169516951370123089F0133069F0209124
:103BC0003103113041F0802B82230E949907C7CF27
:103BD000823028F2D5CF822B802BF7CF802B90918B
:103BE00031038927F2CF1F70882039F0812F0E947E
:103BF0009E07802F0E94E80CB2CF802F0E94F20C0B
:103C0000812F0E94AA07ABCF033F70F4003FB9F0A9
:103C1000013FB9F1882009F45BC0772009F455C051
:103C2000802F0E94530C9BCF033FD9F0043F29F112
:103C30008110F3CF71105AC0812F8F71E2CF88208D
:103C400069F024E0271508F48ACF1F7181E090E025
:103C5000012E01C0880F0A94EAF7C1CF35E0731630
:103C6000F2CF80E0882009F4B0CF1F7181E0012EEF
:103C700001C0880F0A94EAF7A8CF8091340382FD2F
:103C800006C0812F8F71882009F4BBCF86CE882093
:103C900089F01F71812F0E949E078091340382FF5B
:103CA00007C048E0149FC001112483608093320351
:103CB000812F73CE81E00E94BA0781E0871508F05A
:103CC0004ECF82E00E94BA074ACF812F8F7165CE16
:103CD000772009F4B1CF093349F49FEFA7EEB3E0A1
:103CE0009150A040B040E1F700C00000802F0E943A
:103CF0009E0C35CF1F93CF93DF9380916D0380315E
:103D000008F04CC080916A03882309F447C0809171
:103D10003703209136033091680360916903C091A5
:103D20006B03D0916C03732F76232817B9F190E0C1
:103D3000209709F443C016E07F3F09F43FC0189F65
:103D4000F001199FF00D1124DF01A85CBC4F119602
:103D50004C91119746132CC04C91431329C01296D5
:103D60004C91129741111EC013964D915C914C1BC2
:103D70005D0B483C5105E0F480916D038F708061CC
:103D800080936D03E35CFC4F80818F708061808342
:103D900088E693E00E942B150E940904DF91CF91E1
:103DA0001F9108950196877099272813C8CFF6CFE1
:103DB0000196877099272813BFCFF0CF019687709F
:103DC000B4CFABE0B0E0E7EEFEE10C9405288C0147
:103DD00085E0F801DE01179601900D928A95E1F7D2
:103DE000F8019280C380D48088E6A82E83E0B82EA4
:103DF000809168039091690320916B0330916C036B
:103E00002115310509F403C1482F49234F3F09F417
:103E1000FEC0E0906A03A601421B530BEE2009F49A
:103E2000C9C0F0906D03483C510508F0A3C0B180B3
:103E30005FE05F1508F462C09B1114C09081981375
:103E400011C091103FC08F2D8F70806180936D03E2
:103E500088E693E00E942B1580916D03F80185831D
:103E6000F12C29C0FF80C114D10451F18F2D8B2179
:103E70008F3F31F1911026C040E06B2D8F2D0E94B5
:103E8000E60940E06B2D8F2D0E94E609F82E811186
:103E9000E7CF8F8198850E94DB0B292F22952F7009
:103EA0009034B0F49F702230E0F09923F1F0F801E3
:103EB00095819031D0F48F2D2B96EBE00C94212836
:103EC000992071F280916D03816080936D03C8CF5A
:103ED0002A5F2F70223068F0C8010E942B15FE2C3B
:103EE000EACF992311F0882331F3805E883018F3EC
:103EF000F3CF803F00F3815F8230F9CF9B1112C076
:103F0000908198130FC091100DC0F582C8010E94D6
:103F10002B1586E0F801A8E6B3E001900D928A9592
:103F2000E1F725C0C8010E94EA0B882309F46BC0A1
:103F3000992009F468C080916D03803270F08091FF
:103F40006803909169039A8389831B82DD82CC8206
:103F5000FE82CE0101960E942B1586E0F801A8E6AC
:103F6000B3E001900D928A95E1F70E947A1EFF243A
:103F7000F394A1CFFFE0FF1550F088E693E00E9494
:103F80002B1586E0F50111928A95E9F769CFF801C2
:103F900021812913C7CF90819813C4CF9110C2CF2C
:103FA000F582C8010E942B1586E0F50111928A95D1
:103FB000E9F7DDCF483C510520F7992021F1218117
:103FC000291317C09081981314C080916D0380FD50
:103FD000A0CF803108F49DCF8583807F803F09F496
:103FE00095CF8581982F907F905F8F70892B8583E7
:103FF0008DCFC8010E94EA0B8111AFCF80916D0374
:10400000816080936D03C8010E942B15B0CF992069
:10401000D1F3C8010E94EA0B8823A9F39ECFA7E140
:10402000B0E0E5E1F0E20C940D284B8B5C8B962F11
:104030006D8B7E8B8F8B6111109235031A8A85E010
:10404000FE017396DE011D9601900D928A95E1F7AF
:104050009F8786E0FE013D96DE01179601900D9246
:104060008A95E1F7CE0107960E94E11E811131C0C9
:1040700086E0FE013796DE01119601900D928A9539
:10408000E1F78F81988520913603409137036A8547
:104090007B85672BF1F089238F3FD9F030E0C90190
:1040A00001968770992750E084179507E9F096E00C
:1040B000929FD001939FB00D1124A85CBC4FFE01CC
:1040C000319601900D929A95E1F7809336030E9404
:1040D000090416E08091370390913603891312C0CA
:1040E0006796E3E00C9429280E945F0D1092360336
:1040F0001092370386E0E8E6F3E0DF011D928A952F
:10410000E9F7E7CF189FC0011124885C9C4F0E94FB
:10411000E11E882329F38091370390E00196877090
:10412000992780933703D6CFA5E0B0E0EAE9F0E223
:104130000C940C280E945F088C018091EA029091F7
:10414000EB028017910791F08FEF89838A831B829E
:104150000E945F088160782F49815A816B81892F85
:104160000E940F201093EB020093EA022596E4E0F0
:104170000C942828E9E2F3E0818121E04381628107
:10418000885F0E9429140895E9E2F3E0818121E02B
:104190004381628188500E9429140895E9E2F3E086
:1041A000628128E0620F08F46FEF21E04381818192
:1041B0000E9429140895E9E2F3E0628128E0621B7D
:1041C00008F460E021E0438181810E942914089570
:1041D000E9E2F3E0438128E0420F08F44FEF21E0E9
:1041E000628181810E9429140895E9E2F3E043810C
:1041F00028E0421B08F440E021E0628181810E94B6
:1042000029140895A5E0B0E0E8E0F1E20C9401285B
:104210001A821982FE01339683E0DF011D928A958E
:10422000E9F783E5E82E81E0F82E8E010F5F1F4F3E
:1042300098E5C92E91E0D92E3801AA24A394B12C77
:104240003DE5832E31E0932EF70181917F018F3F71
:1042500009F441C0F894E82FE295EF70F0E021A155
:104260008F70A50102C0440F551F8A95E2F7CA015D
:10427000922F982B91A392A18095892382A3789461
:1042800000C0E8E5F1E031E0512C21912F3F09F425
:104290006BC0A22FA295AF70A05EB0E08C9190E0B1
:1042A0002F7002C0959587952A95E2F7817081114C
:1042B0005BC0832F582A330F8E169F0631F7F70104
:1042C000319780818F3F11F00E94370650EA5A954E
:1042D000F1F7D8015C920F5F1F4FCE14DF0409F095
:1042E000B3CF45E050E0B3018AEC92E00E94C928C8
:1042F000892BE1F185E0F301AAECB2E001900D9287
:104300008A95E1F781E08093A0010E945F08909375
:104310009F0180939E0120919E0130919F014FB794
:10432000F8948091B8019091B901A091BA01B0912F
:10433000BB014FBF821B930B0597E0F045E050E0B7
:104340006AEC72E084EE92E00E94C928892B49F061
:1043500085E0EAECF2E0A4EEB2E001900D928A95DD
:10436000E1F71092A00106C080E0A4CF8091A001E7
:104370008111D1CF2596EFE00C941D28CDB7DEB783
:10438000A4970FB6F894DEBF0FBECDBF85B7806887
:1043900085BF85B7806885BF84B7877F84BF0FB628
:1043A000F894A895809160008861809360001092D5
:1043B00060000FBE80E890E00FB6F8948093610033
:1043C000909361000FBE85E396E0909395018093F2
:1043D00094010E9435090E948B098091E20084605B
:1043E0008093E20078948091E902882399F080918B
:1043F000E9001091EC001795112717958F70182B75
:104400001092E9008091E80083FD0E948B0D1F70DF
:104410001093E90082E084BD93E095BD9AEF97BDCB
:1044200080936E000E943A0B811102C00E942A0BF9
:1044300003E511E0D8018D918D018F3F11F00E94AD
:104440003706B1E008351B07A9F708E511E08DE54F
:10445000E82E81E0F82EF80181918F018F3F11F055
:104460000E943706E016F106B1F785E0E4EEF2E0CF
:10447000DF01282F1D922A95E9F7EAECF2E0DF012F
:104480001D928A95E9F780E090E00E94E428873E3B
:104490009E4F21F40E943A0B811102C00E944510E8
:1044A00082E090E00E94D6288093D60284E090E0DB
:1044B0000E94E42890933403809333030E940221E6
:1044C000EFEFF6E721E0E150F0402040E1F700C0D7
:1044D00000000E9402218091E40280FF08C06FEF7B
:1044E0007FEF80E090E00E9408290E94050A83E0A7
:1044F00090E00E94D6280E949B03809131030E9485
:104500002A078091CF0281113AC080E090E00E949A
:10451000E428873E9E4F21F40E943A0B811104C08B
:104520000E9445100E94BC1088E090E00E94DE28A6
:104530006093290370932A0380932B0390932C0399
:10454000623070F40E94BC1088E090E00E94DE2887
:104550006093290370932A0380932B0390932C0379
:104560000E94DD06109226038091290380FF04C07B
:1045700060E086950E94B11481E08093CF028DEEB9
:1045800095E09093D1028093D00283E191E09093E3
:10459000ED028093EC02B8E1EB2EF12C10E4D12E69
:1045A000CC24C3948091E9028530B1F48091E90272
:1045B000853009F45BC00E945F0D0E941D070E94B8
:1045C00010071092D4028091D302882309F4B4C05A
:1045D0000E9411150E9407110E940221F7EDAF2ED3
:1045E000F2E0BF2EA4EE8A2EA2E09A2E2CED32E04D
:1045F000D401F50191918D912E173F0709F4A6C0C2
:104600009817C1F310E0D4010D914D01F5015190BF
:104610005F01501629F15026712C66246394852D74
:1046200086218823A9F079821A8391E0802F862140
:10463000811101C090E09B830E945F088160782F08
:104640009D838C8349815A816B81892F0E940F2021
:104650007394660CF5E07F12E2CFF5013197008389
:104660001F5F153081F60E946B0874C08091E902CB
:10467000843009F437C080E00E94100710922603AE
:104680008091D40281110DC0C092D402809129037F
:10469000982F91709093D3028E7F809329030E946C
:1046A0001D111092D2020FB6F894A895E092600006
:1046B0000FBED092600083B7817F846083BF83B7D1
:1046C000816083BF7894889583B78E7F83BF0FB650
:1046D000F894A895809160008861809360001092A2
:1046E00060000FBE8091D502882309F45FCF0E943D
:1046F0000221E4EEF2E089EE92E02191211104C062
:104700008E179F07D1F752CF80E189BD82E189BD25
:1047100009B400FEFDCF8091D8008F7D8093D80032
:104720008091E00082608093E0008091E00081FD54
:10473000FCCF0E945F0D3ACF809127039091280310
:10474000892B09F447CF0E941D1144CF98135ACFEB
:104750000E949420809126038823D1F18091250323
:10476000E0912903E695E81BE093DF02823009F02F
:1047700068C0F0E0E25FF94FE4910E2F10E0E5E051
:10478000AE2EE4E1BE2E8091E002882361F010920B
:10479000E0020E945F089093DE028093DD02109297
:1047A000E2021092E1020E945F082091DD02309146
:1047B000DE02821B930B8F3F9F4750F4200F311F67
:1047C0003093DE022093DD028DED92E0F501099534
:1047D0008091DC02882389F01092DC02809126030C
:1047E000811106C08091290360E086950E94B11472
:1047F0008091290380FF0E941D110E941D07182F20
:104800008091E302181739F01093E3020E946B08BD
:10481000812F0E9410078091E902843009F0C2CEF6
:1048200083E08093E9008091E80082FFBBCE809115
:10483000E80085FD5EC08091E8008B778093E800FA
:10484000B1CE863059F4F0E0E55FF94FE4910E2FD8
:1048500010E079E1A72E74E1B72E95CF893061F48D
:10486000E695F0E0E85FF94FE4910E2F10E062E684
:10487000A62E62E1B62E87CF8F3061F4E695F0E088
:10488000EB5FF94FE4910E2F10E05FE8A52E52E1A7
:10489000B52E79CF853159F4F0E0EE5FF94FE49110
:1048A0000E2F10E047EFA42E42E1B42E6CCF08E2A9
:1048B00010E028E4A22E23E1B22E883109F463CF60
:1048C00000ED17E090E5A92E96E0B92E833209F0AD
:1048D0005ACF8E2F63E00E94A027E92FF0E0E1502D
:1048E000FA4FE4910E2F10E038ECA32E31E1B32EF5
:1048F0004ACF0E940409882379F08091E8008B77E1
:104900008093E8008981EFEFE80FE33190F5F0E064
:10491000E553F64D0C94E22780E2A82EB12C8E01CF
:104920000F5F1F4F8091E80085FD0AC08091E8006D
:104930008B778093E8000E940409882399F3DDCFE8
:104940008091F100D8018C93B1E0AB1AB108A114A9
:10495000B10499F20F5F1F4FE5CF1A828CE08B8371
:104960001AC08A81833049F138F4813061F0823095
:10497000D9F08FEF89830FC08430D9F71B821C8256
:104980001D821E8208C00E946B080E94E8276B836C
:104990007C838D839E8340E250E0BE016F5F7F4F3A
:1049A00082E00E94290AFECD85E290E00E94D6288E
:1049B0001B821C821D828E83EECF8B8190E0DE01F4
:1049C0001496853091053CF7FC01FF27EC51FD4F13
:1049D00020812D930196F5CF8A81823081F0853038
:1049E00041F68091290380FF1BC0809129038E7FAF
:1049F00080932903109226030E941D11CCCF8B8136
:104A00009C81AD81BE8189A39AA3ABA3BCA3BC0149
:104A1000CD010E94E82785E290E00E94EA28BBCF02
:104A20000E941115B8CF4C816B818A810E94530B73
:104A30009827892798279E838D83ADCF2D813E812E
:104A40003227232732274C816B818A810E94BA0A40
:104A5000A2CF0E94E10A9FCF9A81923009F089CFBC
:104A60008830B1F1893009F45EC08B81833061F107
:104A700080F48130B9F0823009F08DCF8C818823A9
:104A800009F4B3CF0E94111560E08C810E94B1142B
:104A900082CF843009F07FCF20E040912C036D81DC
:104AA0008C810FC08C81A6E98A9FC00111246FEF11
:104AB00070E00E94BA27462F20E060912B0380917E
:104AC0002A030E94291467CF8C8180932D0363CF22
:104AD0008B81833029F160F48130A1F0823009F0BC
:104AE0005ACF8091290380FF19C086958C8353CFBC
:104AF000843009F050CF80912A038C8380912B035E
:104B00008D8349CF80912C03BFEF8B9FC00111246F
:104B100066E970E00E94BA276C833DCF80E0E6CF63
:104B200080912D03E3CF8091290390912A03A091D6
:104B30002B03B0912C0389A39AA3ABA3BCA3BC0104
:104B4000CD010E94A71027CF80E18A8324CF82E085
:104B50008A838AE404CF0A811B811027012710274A
:104B60008C814801880E911C5E0195E0A90EB11C54
:104B70000815190509F40FCF80E00A34A2E01A07DE
:104B800028F4C8018A549E4F0E94D628F5018193CB
:104B90005F010F5F1F4FECCF0A811B811027012798
:104BA0001027CE0101965C018C80880E992E911CF5
:104BB000A814B90409F4EFCE0A3492E0190740F4BE
:104BC000D50114966C91C8018A549E4F0E94EA2820
:104BD0000F5F1F4FBFEFAB1ABB0AEACF0E941A0B41
:104BE000DACE88E0B2CF0A811B8110270127102777
:104BF0008C814801880E911C5E01E5E0AE0EB11C6F
:104C00000815190509F4C7CE80E00039F1E01F0747
:104C100020F4C80186960E94D628D5018D935D01A7
:104C20000F5F1F4FEDCF0A811B811027012710272F
:104C3000FE0131965F018C808E0E9F2E911C8A148E
:104C40009B0409F4A8CE0039F1E01F0738F4D50120
:104C500014966C91C80186960E94EA280F5F1F4F38
:104C6000BFEFAB1ABB0AEBCF1F921FB61F921124E6
:104C70008F939F93AF93BF938091D202811113C002
:104C80008091B8019091B901A091BA01B091BB0196
:104C90004196A11DB11D8093B8019093B901A093D5
:104CA000BA01B093BB01BF91AF919F918F911F90BB
:104CB0001FBE1F90189578941F921FB61F92112443
:104CC0008F939F93AF93BF938091B8019091B90157
:104CD000A091BA01B091BB010196A11DB11D8093B5
:104CE000B8019093B901A093BA01B093BB01BF91F1
:104CF000AF919F918F911F901FBE1F9018951F928B
:104D00000F920FB60F9211242F933F934F935F93FF
:104D10006F937F938F939F93AF93BF93EF93FF9383
:104D20008091E10082FF09C08091E20082FF05C00E
:104D30008091E1008B7F8093E1008091DA0080FF19
:104D400024C08091D80080FF20C08091DA008E7F3F
:104D50008093DA008091D90080FF9BC080E189BDFB
:104D600082E189BD09B400FEFDCF81E08093E902B4
:104D70008091A601811109C00E9435090E948B090A
:104D80008091E20084608093E2008091E10080FFE6
:104D900017C08091E20080FF13C08091E2008E7FF7
:104DA0008093E2008091E20080618093E200809134
:104DB000D80080628093D80019BC85E08093E90216
:104DC0008091E10084FF29C08091E20084FF25C02A
:104DD00080E189BD82E189BD09B400FEFDCF8091EB
:104DE000D8008F7D8093D8008091E1008F7E8093E2
:104DF000E1008091E2008F7E8093E2008091E200EA
:104E000081608093E2008091A501882309F447C066
:104E100084E08093E9028091E9028091E10083FFC0
:104E200027C08091E20083FF23C08091E100877F4B
:104E30008093E10082E08093E9021092A5018091C5
:104E4000E1008E7F8093E1008091E2008E7F80936D
:104E5000E2008091E20080618093E20042E060E045
:104E600080E00E9454098091F00088608093F000F7
:104E7000FF91EF91BF91AF919F918F917F916F9132
:104E80005F914F913F912F910F900FBE0F901F9008
:104E9000189519BC1092E9021092A60176CF809164
:104EA000E30087FF02C083E0B4CF81E0B2CF1F925E
:104EB0000F920FB60F921124FF920F931F932F930F
:104EC0003F934F935F936F937F938F939F93AF9392
:104ED000BF93CF93DF93EF93FF9309EE10E0F801B8
:104EE0008081C091EC00C795CC27C7958F70FC2EB0
:104EF000F82A1082C0EFD0E08881877F8883789479
:104F00000E948B0DF8011082888188608883CF2DE4
:104F1000CF70C083FF91EF91DF91CF91BF91AF919F
:104F20009F918F917F916F915F914F913F912F91C1
:104F30001F910F91FF900F900FBE0F901F9018952B
:104F4000991B79E004C0991F961708F0961B881FDB
:104F50007A95C9F78095089587FB082E062687FD68
:104F6000819567FD61950E94A0270EF4919507FC3D
:104F700081950895AA1BBB1B51E107C0AA1FBB1F47
:104F8000A617B70710F0A61BB70B881F991F5A95D5
:104F9000A9F780959095BC01CD01089597FB072E48
:104FA00016F4009407D077FD09D00E94BA2707FCB9
:104FB00005D03EF4909581959F4F08957095619529
:104FC0007F4F0895EE0FFF1F0590F491E02D099497
:104FD00069279627692778278727782708950E94C9
:104FE0007229332312F48A1B9B0B0C94F9270E941D
:104FF0007229B7FF0895821B930B08952F923F9259
:105000004F925F926F927F928F929F92AF92BF92D8
:10501000CF92DF92EF92FF920F931F93CF93DF9384
:10502000CDB7DEB7CA1BDB0B0FB6F894DEBF0FBEE1
:10503000CDBF09942A88398848885F846E847D842E
:105040008C849B84AA84B984C884DF80EE80FD8030
:105050000C811B81AA81B981CE0FD11D0FB6F894A6
:10506000DEBF0FBECDBFED010895002E083090F0D9
:10507000982F872F762F652F542F432F322F2227DB
:105080000850F4CF220F331F441F551F661F771F90
:10509000881F991F0A95B2F7002D08952A153B0520
:1050A0004C055D056E057F058007910708958F9279
:1050B0009F92AF92BF92CF92DF92EF92FF92CF93E7
:1050C000DF93EC01688179818A819B81611571058B
:1050D0008105910521F464E279ED8BE597E02DE1FE
:1050E00033EF41E050E00E941E2949015A019B0123
:1050F000AC01A7EAB1E40E943D296B017C01ACEE52
:10510000B4EFA50194010E944B29DC01CB018C0D69
:105110009D1DAE1DBF1DB7FF03C00197A109B0487B
:1051200088839983AA83BB839F77DF91CF91FF9078
:10513000EF90DF90CF90BF90AF909F908F900895A9
:105140000E945728089580E091E00E945728089512
:10515000B0E0A0E08093000190930101A0930201D0
:10516000B09303010895FB01DC0102C005900D928C
:1051700041505040D8F70895FC014150504030F064
:1051800001900616D1F73197CF0108958827992706
:105190000895FB01DC0104C08D910190801921F478
:1051A00041505040C8F7881B990B0895F999FECFDC
:1051B00092BD81BDF89A992780B50895A6E1B0E027
:1051C00044E050E00C941029A8E1B0E042E050E047
:1051D0000C941029262FF999FECF92BD81BDF89A23
:1051E000019700B4021639F01FBA20BD0FB6F8942B
:1051F000FA9AF99A0FBE08950396272F0E94EB287A
:105200000E94EA28252F0E94EB28242F0C94EB28DB
:105210000196272F0E94EB280C94EA28DC01CB0191
:10522000FC01F999FECF06C0F2BDE1BDF89A3196B6
:1052300000B40D9241505040B8F70895052E97FBE9
:105240001EF400940E94352957FD07D00E94502972
:1052500007FC03D04EF40C943529509540953095B9
:1052600021953F4F4F4F5F4F0895909580957095D2
:1052700061957F4F8F4F9F4F08950E947229A59F80
:10528000900DB49F900DA49F800D911D1124089541
:10529000B7FF0C943D290E943D29821B930B089572
:1052A000A1E21A2EAA1BBB1BFD010DC0AA1FBB1F2A
:1052B000EE1FFF1FA217B307E407F50720F0A21B9C
:1052C000B30BE40BF50B661F771F881F991F1A9409
:1052D00069F760957095809590959B01AC01BD0133
:1052E000CF010895A29FB001B39FC001A39F700D8D
:1052F000811D1124911DB29F700D811D1124911DDE
:105300000895F894FFCF690E8F0E950E8F0E950EAF
:10531000E80E0A0F950E06101310831A871A781AD2
:105320007F1A8B1A8F1A931AEC1A571BF41ABE1A8B
:10533000C21AF81AC61AFC1A081BD21A501BD61A1F
:105340000C1BDA1A101B381BDE1A141B3F1BE41A45
:105350001A1B221BCA1A001BCE1A041BE81A1E1B9A
:105360002E1B481B4E1BB81AF01A5E1B751B991B8F
:10537000A01BA51BAA1BAF1BB41BB91BBE1BC31BC9
:10538000C81BCD1BD01BD51BD81BDB1BDE1BE11B99
:10539000E41B4116E71BAD24B124EC2413251E2584
:1053A00029252C252C252C25B924B924A425A7256D
:0C53B000AB25CC25EE25F125F3251326B6
:1053BC00010000000101010201191A1B1C1D1E1F16
:1053CC002021228808670A8B087E0A4022320001BD
:1053DC00DE00AC00C501DE01FE010001020202028A
:1053EC000606060909090909090F0F0F0F0F0F15FA
:1053FC0015151819191919191919191919232323FC
:10540C00232323C6F0969236F567373234E200E94F
:10541C0000EA00B500B600B700CD008301CC008ACD
:10542C000192019401210223022402250226022763
:10543C00022A02B300B4006F0070009F01CB019FE1
:04544C0002A00200B8
:00000001FF
