:100000000C9461030C9499030C9499030C94990338
:100010000C9499030C9499030C9499030C949903F0
:100020000C9499030C9499030C940F260C94E726D6
:100030000C94C4250C9499030C9499030C94990383
:100040000C9499030C9499030C9499030C949903C0
:100050000C9499030C94EB250C9499030C9499033C
:100060000C9499030C9499030C9499030C949903A0
:100070000C9499030C9499030C9499030C94990390
:100080000C9499030C9499030C9499030C94990380
:100090000C9499030C9499030C9499030C94990370
:1000A0000C9499030C9499030C949903050109800D
:1000B000A101850319012AB700150126B700950192
:1000C00075108100C0050C0901A101850419012AE0
:1000D000A002150126A002950175108100C00660DE
:1000E000FF0961A1010962150026FF00952075082E
:1000F00081020963150026FF00952075089102C052
:1001000005010906A101050719E029E715002501E8
:10011000950875018102950175088101050719008F
:1001200029FF150026FF00950675088100050819AE
:10013000012905950575019102950175039101C08D
:100140000E018466FFFF000000000F018466FFFFC0
:100150000000000010018466FFFF000000000301A2
:100160008466FF0A0155FFFF120155FFFFFF0000E3
:10017000000004018466FF090155FFFF130155FFCC
:10018000FFFF0000000011018466FF180155FFFF0A
:10019000FF000000000B018466FFFF000000001557
:1001A000018466FF0C0155FFFF100155FFFFFF00A2
:1001B00000000009025B00030100A0FA090400002E
:1001C000010301010009211101000122400007057E
:1001D0008103080001090401000203000000092155
:1001E00011010001222200070582032000010705FA
:1001F000030320000109040200010300000009219B
:1002000011010001223200070584032000011201C0
:10021000000200000008F1F12500010001020001C8
:100220001603570069006E0072007900200032004A
:1002300035007400660000001A0353007000690066
:10024000640065007200490073006C0061006E007C
:100250006400000004030904290053005400550001
:1002600056002A005F0060006100570020785C00A3
:100270005D005E005700000059005A005B002152EB
:100280007C007D006200630058002078217822788D
:100290002B78237827782578237829782C78287864
:1002A000267824782A780000625263526452000053
:1002B00000006552665267520000000029000000ED
:1002C0000000000000000000000000005A000000D4
:1002D000000000000000000000000000000000001E
:1002E0000000005200000000000000000000290093
:1002F00000000000000000000000000000005B00A3
:1003000000000000000000000000000000000000ED
:10031000000000000052000000000000000000008B
:1003200029000000000000000000000000000000A4
:100330005C00000000000000000000000000000061
:10034000000000000000005200000000000000005B
:100350000000290000000000000000000000000074
:1003600000005D0000000000000000000000000030
:10037000000000000000000000520000000000002B
:100380000000000029000000000000000000000044
:10039000000000005E0000000000000000000000FF
:1003A00000000000000000000000005200000000FB
:1003B0000000000000002900000000000000000014
:1003C0000000000000005F000000000000000000CE
:1003D00000000000000000000000000000520000CB
:1003E00000000000000000002223252628292A2CD6
:1003F0002D2F3032333536383A3B3D3E404243456F
:1004000047494A4C4E5051535557595A5C5E6062A9
:10041000646668696B6D6F71737577797B7D7F81B9
:10042000838587898A8C8E90929496989A9C9E9FB9
:10043000A1A3A5A7A8AAACAEAFB1B3B4B6B8B9BBD7
:10044000BCBEBFC1C2C3C5C6C7C9CACBCCCDCED046
:10045000D1D2D2D3D4D5D6D7D7D8D9D9DADADBDB33
:10046000DBDCDCDCDCDCDDDDDDDDDCDCDCDCDCDBCA
:10047000DBDBDADAD9D9D8D7D7D6D5D4D3D2D2D113
:10048000D0CECDCCCBCAC9C7C6C5C3C2C1BFBEBC06
:10049000BBB9B8B6B4B3B1AFAEACAAA8A7A5A3A177
:1004A0009F9E9C9A98969492908E8C8A8987858339
:1004B000817F7D7B79777573716F6D6B6968666419
:1004C00062605E5C5A5957555351504E4C4A4947E9
:1004D000454342403E3D3B3A3836353332302F2D8E
:1004E0002C2A292826252322FFAA7F554000010116
:1004F00001010101010101020202020202020202E3
:1005000003030303030303030404040404040405B2
:100510000505050506060606060707070707080876
:100520000808090909090A0A0A0B0B0B0C0C0C0D27
:100530000D0D0E0E0E0F0F0F1010111111121213C0
:10054000131414151516161717181819191A1A1B3B
:100550001B1C1D1D1E1E1F2020212222232424259A
:100560002626272829292A2B2C2D2D2E2F303132D3
:1005700032333435363738393A3B3C3D3E3F4041E3
:1005800042434445464748494A4C4D4E4F505153CB
:1005900054555658595A5B5D5E5F61626465666882
:1005A000696B6C6D6F7072737577787A7B7D7E8006
:1005B00082838587888A8C8E8F91939596989A9C52
:1005C0009EA0A2A3A5A7A9ABADAFB1B3B5B7BABC66
:1005D000BEC0C2C4C6C9CBCDCFD1D4D6D8DBDDDF37
:1005E000E2E4E7E9EBEEF0F3F5F8FAFDFF9F0195A1
:1005F00001860172015E0154014A01400100001EA2
:100600000F057F3F1F643214643214783C1E1E14A1
:100610000A050000000000000000000000000000CB
:1006200000000000000000000000000000000000CA
:100630000000000000007E0F00D4FFFFFFC7000095
:10064000007800000000000000002A2B28000000B5
:100650000000000000000000000000000029000071
:1006600000002C1E3420212224342627252E362D4E
:100670003738271E1F202122232425263333362EE8
:1006800037381F0405060708090A0B0C0D0E0F105A
:100690001112131415161718191A1B1C1D2F31309F
:1006A000232D350405060708090A0B0C0D0E0F1043
:1006B0001112131415161718191A1B1C1D2F31307F
:1006C000354C11241FBECFEFDAE0DEBFCDBF04B63C
:1006D00003FE18C080916A0390916B03A0916C0394
:1006E000B0916D038730904BA740B04B59F41092F6
:1006F0006A0310926B0310926C0310926D03E0E09A
:10070000F8E3099523E0A0E9B1E001C01D92AA3603
:10071000B207E1F711E0A0E0B1E0ECEDF2E502C0D4
:1007200005900D92A039B107D9F70E9434210C949D
:1007300011290C94000080932C030895292F9530E3
:1007400098F5853088F590E035E0239F800D911D68
:100750001124282F277041E001C0440F2A95EAF7A1
:1007600023E0969587952A95E1F7FC01EE0FFF1F90
:10077000E80FF91FEE50FD4F20E030E070E051919E
:10078000DF011197CB01022E02C0969587950A943E
:10079000E2F7817081958527842385278C932F5FCD
:1007A0003F4F2330310559F70895292F953078F5BB
:1007B000853068F590E035E0239F800D911D112470
:1007C000682F677023E0969587952A95E1F7FC01DD
:1007D000EE0FFF1FE80FF91FEE50FD4F40E050E015
:1007E00080E0219130E0062E02C0369527950A94CC
:1007F000E2F721703327042E01C0220F0A94EAF792
:10080000822B4F5F5F4F4330510559F7089580E0C9
:1008100008958091330390913203981301C0089595
:100820008F5F8770FACFE4E9F1E09191891303C0FB
:10083000DF0111971C9291E0EA39F907B1F70895A9
:10084000982F909580912A03892380932A030895F5
:1008500080912B03811110922B03089520912F0377
:1008600022FF06C0982F98719830C1F4877F84606A
:1008700090913003392F3170927023FF21C0482F9F
:100880004871483191F4877E84619923B1F0982FA3
:100890009171913191F48E7E88610FC0982F94717F
:1008A000943031F78B7F8860E3CF482F4471443117
:1008B00039F48B7E8861911118C024FD877E0895DC
:1008C000332369F0382F3871383019F4877F81600D
:1008D000DCCF382F3171313011F48E7F886099234D
:1008E00061F3982F9871983191F6877E8161E5CFF9
:1008F000CF93DF93EC01803E910509F478C088F531
:100900008133910509F4C0C090F48932910509F44E
:10091000B0C08A32910509F4BEC0019709F47AC0CB
:10092000CE010497813A910508F06DC073C08933F8
:10093000910509F450C08238910509F44CC0853303
:10094000910509F491C08D3C910508F010C1883AD9
:10095000910508F0A7C0853A910510F3A497D064DB
:1009600059C0843E910509F464C088F4823E910523
:1009700009F44CC0833E910509F450C0C83ED1052E
:1009800008F448C0CE019A958F3F9E41CDCF863E58
:10099000910509F459C0873E910509F45AC0803287
:1009A00022E5920708F0A4C0811542E5940708F0FB
:1009B000E3C0811550E5950708F484C08F710E944B
:1009C0002E04E5E0D695C795EA95E1F7CF709C2F08
:1009D000EC01D0691FC080912F03837081110CC17D
:1009E0008091300383FF16C0C9E2D0E013C080912C
:1009F0002F0380FD46C09091300390FF0BC0C3EEE3
:100A0000D0E084FF07C0C0E0D0E004C080912F0395
:100A100082FDF5CFCE01DF91CF91089580912F0314
:100A200082FDE7C09091300390FDE6C084FFF2CFD5
:100A3000EACF8091300381FFEDCF80912F03C7EE85
:100A4000D0E084FDE0CFE6CF80912F0383FDF7CF88
:100A5000E1CF80912F0383FDD2C09091300391FFAD
:100A6000E5CFC4EED0E0D6CF80912F0385FFD2CF63
:100A7000BBCF80912F0385FDC5C08091300383FFDC
:100A8000C9CFC9E3D0E0C6CF80912F0386FFC2CF84
:100A9000CAE2D0E0BFCF80912F0386FFBBCFC1E376
:100AA000D0E0B8CF885A9109499708F0ACCFC85A1E
:100AB000D0E0CC0FDD1FC35ADE4F0990D881C02D86
:100AC000D464A8CFC11580E4D80708F052C0C1157E
:100AD00020E2D20708F452CF8D2F8F710E942E048E
:100AE00090E0982F882788279F718C2BEC017FC07E
:100AF000803A924550F5C03882E5D80708F066C0C4
:100B0000C03622E5D207B0F08C2F86958695877087
:100B100040E2849FC0011124C37021E030E0A901AC
:100B200002C0440F551FCA95E2F7EA01C82BD92B22
:100B3000DA6870CFC03452E5D50790F5CF71D0E0B8
:100B4000DC2FCC27C16FD06A65CFC03C82E5D807C7
:100B500008F443C0CE01805C9245809708F053CFE3
:100B6000DC2FCC27CC27DF71C06FD06A53CFD06584
:100B700051CFDF70D06A4ECF8695869520E2829F56
:100B8000C0011124C37021E030E0A90102C0440F6C
:100B9000551FCA95E2F7EA01C82BD92BDD683ACF79
:100BA0008C2F86958695877050E2859FC001112411
:100BB000C37021E030E0A90102C0440F551FCA955F
:100BC000E2F7EA01C82BD92BDC6824CFCF71D0E043
:100BD000DC2FCC27C46FD06A1DCF8C2F8F710E9461
:100BE0002E04C82FD0E0DC2FCC27CC27DF71D062B9
:100BF00011CFC2EED0E00ECFC0EED0E00BCFC6EEEC
:100C0000D0E008CFC5E3D0E005CF80E00895F894A8
:100C1000E82FE295EF70F0E041A18F7021E030E025
:100C2000B90102C0660F771F8A95E2F7CB01962FB4
:100C30009095942391A392A1892B82A378940895EF
:100C40000895A0E0B0E0E7E2F6E00C949627E90111
:100C5000E42FF0E0E351FB4F61110BC0E4919E2FB4
:100C60008E2F8983E8839A83CDB7DEB7EAE00C94B0
:100C7000B227282F30E0062F10E0F491EF2F86E006
:100C8000829F6001839FD00C1124EE24EA94F12C02
:100C9000C601B7010E944A27220F331F45E5469F30
:100CA000C001479F900D1124281B390B822F880FFC
:100CB000280FC701801B910BF89FA001F99F500DD1
:100CC0001124952F209F5001219FB00C1124AB2C93
:100CD000BB24D701AA19BB095D01FA9DD001FB9D78
:100CE000B00D11248B2F5701A21AB1089501209F36
:100CF0005001219FB00C309FB00C1124AB2CBB24B1
:100D0000EA18FB08FE9D9001FF9D300D1124633011
:100D10007105C9F01CEFC11613E0D10650F4613023
:100D2000710509F49ECF6230710589F08E2FE32F93
:100D300098CF6430710571F066307105B9F3E52F15
:100D40009B2F8F2F8ECFEB2F852F9F2F8ACF852F15
:100D5000932F87CF832FE52FF8CF80912503823003
:100D600060F4817082608093250380912803873925
:100D700018F086E98093280308958235B0F38170D6
:100D80008065F1CF21E030E0A90102C0440F551F7A
:100D90008A95E2F7CA012091230330912403662348
:100DA00051F0242B352B309324032093230381E02F
:100DB0008093DA0208958095909528233923F3CF04
:100DC000682F617080E00E94C2060895FA018823AE
:100DD00011F009950895FB01FCCFE091E802F09134
:100DE000E902309729F00190F081E02D09950895EE
:100DF00080E008951F93CF93DF93182F0E94ED0694
:100E0000682F617080E00E94C206111121C060E06D
:100E100081E00E94C20660E082E00E94C20660E0BB
:100E200083E00E94C20660E084E00E94C20660E0A7
:100E300085E00E94C20660E086E00E94C20660E093
:100E400087E00E94C206812FDF91CF911F91089504
:100E5000C12FD0E0BE0175956795617081E00E9459
:100E6000C206BE017595679575956795617082E0BC
:100E70000E94C206BE0123E0759567952A95E1F7A9
:100E8000617083E00E94C206BE0134E075956795EB
:100E90003A95E1F7617084E00E94C206BE0145E028
:100EA000759567954A95E1F7617085E00E94C206E5
:100EB000BE0156E0759567955A95E1F7617086E039
:100EC0000E94C206CC0FCD2FCC1FDD0B6C2F6170A2
:100ED000B7CF0E94FA0680932D03089521E030E0F9
:100EE00001C0220F8A95EAF780912D03822B0E9480
:100EF0006907089521E030E0A90102C0440F551FA1
:100F00008A95E2F7CA01809590912D0389230E946A
:100F10006907089520912E038095822380932E03E4
:100F2000982F9770911113C030E0482F082E000CB5
:100F3000550B2417350759F09091300392FF07C0E5
:100F40008595859585950E947A0710922E030895C0
:100F5000A3E0B0E0EEEAF7E00C949E279C018091BC
:100F6000BA019091BB0182179307A1F03093BB01A6
:100F70002093BA01E091E802F091E902309751F034
:100F800083E089833B832A830680F781E02DCE01AD
:100F9000019609952396E2E00C94BA27A3E0B0E00D
:100FA000E4EDF7E00C949E279C018091B8019091AC
:100FB000B90182179307A1F03093B9012093B801CA
:100FC000E091E802F091E902309751F084E08983E2
:100FD0003B832A830680F781E02DCE010196099597
:100FE0002396E2E00C94BA279C01FC0132968FEF25
:100FF00090E04191461751F08F3F19F4411101C023
:10100000892F9F5F9630A9F78F3F09F40895280F25
:10101000311D87FD3A95F901628308952FB7F89441
:101020008091B4019091B501A091B601B091B70142
:101030002FBF0895A4E0B0E0E0E2F8E00C949E2712
:101040008FB7F8942091B4013091B5014091B60169
:101050005091B70129833A834B835C838FBF6981A9
:101060007A818B819C812496E2E00C94BA2780914E
:10107000B30108950895FC019B018091A90190910D
:10108000AA018617970740F0672B29F48091E800A2
:101090008E778093E800C90140E0009741F4411148
:1010A00006C08091E80082FF2FC080E00895209163
:1010B000E7022223A9F12530A9F12091E80023FDC0
:1010C0002DC02091E80022FDECCF2091E80020FF08
:1010D000E4CF3091F3002091F200009719F028300E
:1010E000310558F041E02830310509F040E0209109
:1010F000E8002E772093E800D0CF41914093F10093
:1011000001972F5F3F4FE9CF8091E702882341F09D
:10111000853041F08091E80083FFC3CF81E00895DE
:1011200082E0089583E008958091A30187FF13C0B2
:101130008091E80082FF06C08091E8008B77809361
:10114000E80004C08091E7028111F2CF08958091F8
:10115000E7028823D9F38091E80080FFF8CF8091DF
:10116000E8008E77ECCF2091E4003091E50095E621
:10117000A9018091EC008170882331F08091E80012
:1011800080FF06C080E008952091E80022FD1BC08A
:101190008091E702882391F0853091F08091EB00F7
:1011A00085FD10C02091E4003091E50042175307FF
:1011B00001F391509111DCCF84E0089582E008950D
:1011C00083E0089581E00895E8EDF0E080818E7F6E
:1011D00080831092E2001092DA001092E100A0EEFB
:1011E000B0E08C9181608C9380818F77808319BC73
:1011F000A7EDB0E08C918E7F8C9380818F7E808371
:101200001092A201089580912D03982F9670963028
:1012100021F488600E9469070895877FFBCF982F8B
:10122000E42FE2709093E900891308C0762F242FF1
:1012300050E0E11111C091E0980FF4CF7091EC00F3
:101240002091ED005091F00021FD06C09F5F973086
:1012500049F78093E90008953091EB003E7F309389
:10126000EB003091ED003D7F3093ED003091EB00CD
:1012700031603093EB007093EC002093ED005093BD
:10128000F0002091EE0027FDE1CF0895A0E0B0E04E
:10129000ECE4F9E00C949827C8EDD0E088818F7ECB
:1012A0008883E7EDF0E080818160808384E082BF05
:1012B00081E08093A20188818E7F888302EE10E016
:1012C000F80110821092DA0081EEC82ED12CF601BE
:1012D000108288818F77888388818068888388815D
:1012E0008F7D888319BC1092E7021092A1011092A1
:1012F000D1021092A00190EEE92EF12CF70180812D
:101300008B7F808388818160888342E060E080E019
:101310000E940F09F60180818E7F8083F801808111
:1013200081608083808188608083F70180818E7FE7
:101330008083888180618883CDB7DEB7E8E00C9434
:10134000B42781E08093E00080E28093D80010927F
:10135000C9008FE19EE40197F1F700C0000087E02B
:1013600090EBDC0180936A0390936B03A0936C0372
:10137000B0936D0388E19CE00FB6F894A895809334
:1013800060000FBE90936000FFCF0F931F93CF9329
:10139000DF93EB018A019091E702943079F5809315
:1013A000E9008FEF9091E80095FD07C095ED9A95C3
:1013B000F1F7000081508111F5CF8091E80085FFA1
:1013C0001DC00E94B308811114C08091E80085FD02
:1013D00006C08091E8008E778093E800F2CF888184
:1013E0008093F100015011090115110511F02196AA
:1013F000ECCF8091E8008E778093E800DF91CF9169
:101400001F910F910895CF93DF93D82FC92F48E0F4
:1014100050E0682F792F81E00E94C50988E0ED2F08
:10142000FC2FABEAB1E001900D928A95E1F7DF91D4
:10143000CF910895BC0143E050E084E00E94C509CB
:1014400008959091300392FB222720F9281779F014
:1014500080FB92F99093300360912F0370913003D9
:1014600084E090E00E94982882E00E948A07089514
:10147000882381F063E282E290E00E947A2862E0B1
:1014800083E290E00E947A2866E084E290E00E9485
:101490007A2808956FEF82E290E00E947A286FEF39
:1014A00083E290E00E947A286FEFEFCF1F93CF93F3
:1014B000DF93962F122F632F8830D8F49530C8F41D
:1014C0004530B8F4C42FD0E0CC0FDD1F2AE0929F46
:1014D000C00DD11D112492E3899FC00DD11D11248F
:1014E000CE0186960E947A28612FCE0187960E94AF
:1014F0007A28DF91CF911F910895AF92BF92CF923A
:10150000DF92FF920F931F93CF93DF93A12CB12C07
:1015100000E0650110E013C0FE01259134914F2DCC
:10152000612F802F0E94560A2296F39485E0F812CC
:10153000F3CF85E0C80ED11C1F5F153039F0E601EE
:10154000CC0FDD1FC85ADD4FF12CE6CF0F5F89E1CC
:10155000A80EB11C0830E9F6DF91CF911F910F91D1
:10156000FF90DF90CF90BF90AF900895CF93DF931F
:10157000C6EBD1E060E0CE010E947A282196C11529
:1015800084E0D807B9F7DF91CF91089580E00E94F9
:10159000380A60E085E290E00E947A280E947D0A85
:1015A0000E94B60A81E00E94380A089582E290E023
:1015B0000E946628833289F483E290E00E946628C4
:1015C000823059F484E290E00E94662891E08630EF
:1015D00009F090E0892F8170089580E0FCCF0F938F
:1015E0001F93CF93DF93883030F5653020F5453079
:1015F00010F5C42FD0E0CC0FDD1F2AE0629FC00D94
:10160000D11D112432E3839FC00DD11D1124CE01C1
:1016100086960E946628082F10E0102F0027CE0122
:1016200087960E9466289801282BC901DF91CF91E7
:101630001F910F91089580E090E0F8CF462F672F1B
:10164000753038F4453028F4883018F40E94EF0AD9
:10165000089580E090E00895A0E0B0E0E2E3FBE0D0
:101660000C9499277C0100912D0380912C03082B69
:10167000C7E0D0E010E0C8010C2E02C09595879518
:101680000A94E2F780FD09C02197A8F7D12C8D2D8F
:10169000CDB7DEB7E7E00C94B527DC2EB7018C2F71
:1016A0000E941E0B0E947804019771F3F0CF0F93F4
:1016B0001F93CF93FC01828100811181882391F0D7
:1016C000662381F0C8010E942C0BC82F682FC80127
:1016D0000E949E03B8018C2F0E941E0BCF911F9178
:1016E0000F910895C8010E94D503C82FF3CFCF935F
:1016F000DF93D82FC92F0E942C0B6D2F7C2F0E94B7
:101700001E0B0E947804DF91CF910895FC01838124
:101710009481892BC9F08181908189238F3FA1F029
:10172000808191810E94770B282F92959F7096302F
:1017300091F060F4925F9F70923030F481E0203F2E
:1017400079F030F4283E30F080E004C09A5FF3CFA7
:10175000243FD1F7089581E0283E18F0213FF9CFCA
:101760000895089580912A0390913103892B8093E5
:10177000920190912B03992391F0892B80939201F0
:1017800020E084E991E0FC013081019631112F5F66
:1017900031E08A399307B9F721110E94280448E003
:1017A00050E06AEE72E082E991E00E945928892BAC
:1017B000A9F088E0E2E9F1E0AAEEB2E001900D9232
:1017C0008A95E1F7E091E802F091E902309731F073
:1017D0000280F381E02D82E991E009950895CF938D
:1017E000C82F8823A9F08CEF8C0F813A98F4E4E994
:1017F000F1E08AE991E02191C217B1F18E179F07BC
:10180000D1F76C2F82E991E00E94F4070E94B20B9D
:10181000CF91089580E28C0F883068F4C77021E082
:1018200030E001C0220FCA95EAF780912A03822B8B
:1018300080932A03EBCF8BE58C0F833038F42C2F69
:101840002452330BC9010E94A807E2CFC85AC931FC
:10185000F8F6EC2FF0E0EE0FFF1FE35AFE4F808109
:1018600091810E94CE07D4CF8C2F0E9413040E9436
:10187000B20BC7CF882339F19CEF980F913A28F427
:101880000E9413040E94B20B089590E2980F9830C2
:1018900050F4877091E001C0990F8A95EAF7892F7B
:1018A0000E942004EFCF9BE5980F933028F480E04E
:1018B00090E00E94A8070895885A893120F480E0BA
:1018C00090E00E94CE0708950F931F93CF93C82FE7
:1018D00000E010E0893311F400E510E08C2F0E9445
:1018E000EF0B0115110539F48C2F0E943A0CCF91A2
:1018F0001F910F9108958FE99FE00197F1F700C0C4
:10190000000001501109EDCF882339F090912A038E
:10191000892B80932A030E94B20B0895882321F01B
:101920000E9420040E94B20B08950F931F93CF933F
:10193000DF93C62FD42F122F8823A9F060931F03A3
:101940000E940E0890939E0180939D01C77081E0D4
:1019500001C0880FCA95EAF70E94840CDF91CF91ED
:101960001F910F91089580911F0368133DC020912E
:101970009D0130919E014FB7F8948091B4019091F0
:10198000B501A091B601B091B7014FBF821B930B77
:10199000883C910548F56D130CC0812F0E94640CA2
:1019A000D77081E001C0880FDA95EAF70E948E0CAB
:1019B000D5CFC77001E0802F01C0880FCA95EAF724
:1019C0000E948E0C80E28D0F883050F48D2F87702E
:1019D00001C0000F8A95EAF7802F0E94840CDDCFAA
:1019E000812F0E94640CBACFC77081E001C0880FBC
:1019F000CA95EAF7DBCF10922A03E4E9F1E086E02A
:101A0000DF011D928A95E9F780E090E00E94A80727
:101A100080E090E00E94CE07109231030E94B20B4A
:101A200008950E94FB0C2FEF84E39CE0215080403E
:101A30009040E1F700C0000088E19CE00FB6F89408
:101A4000A895809360000FBE90936000FFCFAAE23C
:101A5000B0E0EDE2FDE00C949D2783EA91E0FC010B
:101A600001962091F100208321E08B3A9207B9F78B
:101A70008091A401893009F456C0C8F4823009F479
:101A8000B3C0833009F482C0813071F18091E800E5
:101A900083FFE7C08091A3019091A4019A3008F0E0
:101AA000E0C0E92FF0E0ED5EF64D0C9472278A302D
:101AB00009F489C08B3051F78091A301813231F74D
:101AC0008091A7019091A801892B01F78091E800EE
:101AD000877F8093E8000E9494088091A5018093FD
:101AE00004010E94FB0CD2CF8091A301813A71F6D0
:101AF0008091E800877F8093E8008091A701909112
:101B0000A801892B61F060E080E090E070E00E9425
:101B10003B088091E8008B778093E800B7CF68E0BE
:101B20008BEA91E0F3CF8091A301813209F0AECF2F
:101B30008091A7019091A8018D7F892B09F0A6CFF4
:101B40008091E800877F8093E8008091E80082FF21
:101B500018C09091F3008091F200029731F48091C7
:101B6000F100813011F0863021F48091F1008093F2
:101B7000B3018091E8008B778093E8000E9494087D
:101B800085CF8091E7028111E0CF80CF8091A301C2
:101B9000813A09F07BCF8091A7019091A801892B10
:101BA00009F074CF8091E800877F8093E8008091EE
:101BB000E80080FFFCCF809104018093F1008091C8
:101BC000E8008E77D9CF8091A301813209F05ECFF2
:101BD0008091E800877F8093E8000E9494088091BC
:101BE000A60180939F0152CF8091A301813A09F011
:101BF0004DCF8091E800877F8093E8008091E800D6
:101C000080FFFCCF80919F01D8CF803889F0823847
:101C100041F58091A7018F70873018F58093E90016
:101C20008091EB0085FB882780F91092E90006C0BF
:101C30008091A0019091D102911182609091E80071
:101C4000977F9093E8008093F1001092F1008091CB
:101C5000E8008E7723C0811116C08091A5018130E4
:101C600011F18091E80083FF0AC08091E800877F2E
:101C70008093E8008091EB0080628093EB00AA964D
:101C8000E3E00C94B927823061F78091A5018823A5
:101C900089F01092E9008091E800877F8093E80046
:101CA0000E949408DECF81E0933009F080E08093B9
:101CB000D102EFCF8091A7018F702FEF280F263030
:101CC00080F68093E9002091EB0020FFE2CF933073
:101CD00031F48091EB0080628093EB00DACF909139
:101CE000EB0090619093EB0021E030E0A90102C08D
:101CF000440F551F8A95E2F74093EA001092EA00DC
:101D00008091EB008860E8CF8111ABCF1091A501E5
:101D10001F778091E3008078812B8093E30080918E
:101D2000E800877F8093E8000E9494088091E80093
:101D300080FFFCCF8091E30080688093E30083E024
:101D4000111101C082E08093E7028BCF805882306E
:101D500008F087CF4091A5015091A6014C3D83E04A
:101D6000580799F583E08A838AE289834FB7F8940C
:101D7000DE01139620E03EE051E2E32FF0E05093C5
:101D80005700849120FF03C082958F703F5F8F7052
:101D90008A30C8F0895C90E08D939D932F5F243149
:101DA00061F74FBF8091E800877F8093E8006AE287
:101DB00070E0CE0101960E943B088091E8008B778D
:101DC0008093E8004ECF805DE6CF8091A70190918F
:101DD000A801252F33272330310509F44AC078F5AF
:101DE0002130310509F479C08BE590E0E3EBF1E0B7
:101DF0002230310509F035CF2091E800277F20936C
:101E0000E8002091A9013091AA018217930708F4F4
:101E10009C0140E02115310509F064C0411162C008
:101E20008091E80082FDC9CF8091E702882329F2E2
:101E3000853019F28091E80083FFF2CFBECF2132C6
:101E4000310509F43BC02232310509F00ACF833055
:101E5000910508F006CFFC01EE0FFF1FE25EFE4F7A
:101E60000190F081E02D855E9E4FDC018C9190E029
:101E700011C0CA019927413089F082309105B1F033
:101E8000892B09F0EECEE4E5F2E0E4918E2F90E0AC
:101E9000E4E5F2E0009709F4E4CEAECFE8E3F2E047
:101EA000E4918E2F90E0E8E3F2E0F4CFE0E2F2E09C
:101EB000E4918E2F90E0E0E2F2E0ECCF83309105E8
:101EC00008F0CFCEFC01EE0FFF1FEC5DFE4F01903E
:101ED000F081E02D89E090E08FCF82E190E0EEE0AC
:101EE000F2E08ACF8091E702882309F466CF85303B
:101EF00009F463CF8091E80083FD5FCF8091E80013
:101F000082FD8ECF8091E80080FF84CF9091F30016
:101F10008091F2002115310519F08830910550F0BB
:101F200041E0089709F040E08091E8008E778093C7
:101F3000E80070CF44914093F1003196215031096F
:101F40000196E8CF803809F08CCE8091E800877F39
:101F50008093E8008091A1018093F10078CE8111F7
:101F600080CE1091A501123008F07BCE8091E80060
:101F7000877F8093E8001093A1010E9494081123A9
:101F8000D1F084E08093E70242E061EC81E00E94BE
:101F90000F0942E261EC84E00E940F0942E261EC29
:101FA00082E00E940F0942E260EC83E00E940F0988
:101FB0008091E70256CE8091E30087FDE2CF81E079
:101FC000E1CF67EE7EEF80E090E00E94982860E02D
:101FD00082E090E00E947A2860E083E090E00E9436
:101FE0007A2810922C0360E074E184E090E00E9473
:101FF000982860E086E090E00E947A286FEF87E002
:1020000090E00E947A2840E050E0BA0188E090E039
:102010000E948C2860E08DE090E00E947A2840E0E9
:1020200050E0BA0188E190E00E948C2860E087E1EE
:1020300090E00E947A2840E050E0BA018CE190E004
:102040000E948C2860E070E080E290E00E94982876
:1020500040E050E0BA0188E190E00E948C2880E0E6
:102060000E94380A0E94C60A40E050E0BA018FE0A0
:1020700090E00E948C2840E050E0BA0183E190E0BB
:102080000E948C2808950F931F93CF93DF938B01A9
:10209000D82FC92F0E94AD06A8016D2F7C2F88E094
:1020A00090E00E948C28DF91CF911F910F910895AD
:1020B000E5E2F3E083E0808311828FEF828386E99B
:1020C0008383148263E070E08FEF96E90E944310EF
:1020D0000895A4E0B0E0EFE6F0E10C949E27809133
:1020E0002903833018F48F5F80932903809125039F
:1020F00090912603A0912703B0912803BC01CD0144
:102100000E9443102496E2E00C94BA27A4E0B0E0C9
:10211000ECE8F0E10C949E2780912903882319F0C4
:102120008150809329038091250390912603A091EB
:102130002703B0912803BC01CD010E9443102496CF
:10214000E2E00C94BA2760912503669570E04BE0BD
:1021500050E088E091E00E944C28892B19F481E03E
:10216000809322030E940E089093DC028093DB028E
:102170000895A5E0B0E0EFEBF0E10C949127809199
:10218000250380FD0AC0E3E6F2E01182108212828C
:10219000339622E0E63CF207C1F78090CC029090A3
:1021A000CD028114910409F465C08091D00281119F
:1021B00061C050902803A12CB12C66246394712C2B
:1021C0002091230330912403C3010A2C02C0880FFD
:1021D000991F0A94E2F782239323892B09F43FC0C5
:1021E000F401E590F490E114F10409F443C045E0F2
:1021F00050E0B701CE0101960E94432889818F3FAC
:1022000071F12A8190E0280F392F311D22323105DA
:1022100014F021E230E06901CC0CDD1CC20ED31EAB
:1022200096012D593D4F69018C01000F111F080FB8
:10223000191F0D591D4F0C151D0520F055E0E50E19
:10224000F11CD5CF452D36E9351508F446E998013E
:102250006C818B810E9421060D5F1F4FECCF82E0C5
:10226000880E911C9FEFA91AB90A29E0A216B104A1
:1022700009F0A6CF559A3BB13F7D2BB120624FB7F5
:10228000F89483E692E0FC010196508168E02BB956
:10229000000000C057FF3BB9550F000000C000C050
:1022A00000C03BB900C06A9591F752E0863C9507A3
:1022B00051F74FBF8FE594E00197F1F700C00000A0
:1022C0002596EFE00C94AD27A0E0B0E0EAE6F1E15E
:1022D0000C949027FC016280448081E08483E8EEC6
:1022E000F3E07490E7E6F4E0E491009128030695AA
:1022F000015810E0000F111F012F1127CCEBD1E086
:1023000023E6C22E22E0D22E31E6832E32E0932E37
:10231000AA24AA94B12C55245A94E719EE2EF12C34
:1023200082E0861530F08091260388838091270310
:102330008983411019C01B821A824A81473908F0EB
:1023400046E99601698188810E942106259683E0ED
:10235000C80ED11C8C169D0619F70E94B910CDB776
:10236000DEB7E0E10C94AC278B818823E9F0815043
:102370008B83589EC00111246C8170E00E944A2713
:10238000FB01FF27E851FC4F8491E82FE7195E9E7F
:10239000C0011124B7010E944A2780912803689F39
:1023A000B00111247A83C9CF0E943328B5010E945D
:1023B0005E27801791070CF0C0CF82E0861588F465
:1023C0000E943328B5010E945E2788830E9433282B
:1023D000209127032695622F70E00E945E27280F28
:1023E00029831A8280912803893C20F088EC8C8311
:1023F0008B83A3CF8431D8F784E1F9CFEF92FF929A
:102400001F93CF93DF93EC0183E6E82E82E0F82E52
:1024100010E040912803473908F046E98C81970184
:1024200060912703810F0E942106195F83E0E80E67
:10243000F11C173E71F70E94B9109A818C8190FFB0
:1024400008C08F5F8C83DF91CF911F91FF90EF9039
:1024500008958150F7CFA0E0B0E0E1E3F2E10C9401
:102460009827FC018281DD24D39480FF02C0DD2403
:10247000DA9403E612E0C0E0D0E0F80111821082A5
:10248000128294E0E92EF12CC12C809162028C0D15
:102490008232ECF161E20E943C27892F082E000C69
:1024A000990B8C179D07A9F4809128038E9DA0019C
:1024B0008F9D500D11245595479555954795473952
:1024C00008F046E9980160912703809126030E9455
:1024D0002106CD0CF1E0EF1AF108E114F104A9F6A0
:1024E00021960D5F1F4FC132D10539F60E94B910F8
:1024F0008091620291E0D9120EC0882391F0815040
:1025000080936202CDB7DEB7E8E00C94B42787FF72
:10251000C5CF8F5DC3CF90E00196BE010E945E27BC
:10252000EFCF80E2EDCF0F931F93CF93DF93C3E6FE
:10253000D2E0FE01118210821282339682E0E63CE4
:10254000F807C1F700E010E080916102082E000C4E
:10255000990B08171907A4F180910701082E000CA8
:10256000990B8017910764F140912803473908F0CF
:1025700046E99E0160912703809126030E9421066F
:102580000F5F1F4F239601321105F1F60E94B9101B
:102590008091060190916102980F909361022091C1
:1025A0000701280F20930701121614F490321CF033
:1025B000819580930601DF91CF911F910F9108952E
:1025C000198218821A82DCCFAEE0B0E0EAEEF2E1C6
:1025D0000C9498278D879E87AD85BE8514961C9197
:1025E000212F30E0D9010E9402299B01AC010E94F9
:1025F000CD2869837A838B839C83E0E2F0E0E11B42
:10260000F109A5E5B0E09B01AC010E94CD286987E6
:102610007A878B879C879F01DF010E947F279B0120
:10262000AC010E94D8286D837E838F8398879B019D
:10263000AC0189819A81AB81BC81280F391F4A1F67
:102640005B1F69857A858B859C850E94E028022F17
:1026500030E00A32E0F5C901880F991F820F931FFD
:1026600095958795182F109533E6C32E32E0D32E1B
:10267000F12C85E5E82EE01A8E2DF1FC802F412FFC
:10268000173908F046E99601609127030E94210658
:10269000F394B3E0CB0ED11CE1E2FE12EDCF0E9429
:1026A000B910AD85BE8514969C9181E0992319F0EF
:1026B000903219F48FEF8093050180910501890F05
:1026C000ED85FE8584832E96E8E00C94B42785E59D
:1026D00090E0DC01A21BB30BCD01880F991F8A0F7C
:1026E0009B1F97FFBDCF0196BBCF9091250390FF15
:1026F0000CC0E3E6F2E0818360834283339692E08C
:10270000E63CF907C1F70E94B9100895A3E0B0E0D4
:10271000ECE8F3E10C949E279091250390FF0DC007
:10272000473908F046E99E012F5F3F4F0E9421067E
:102730004B8169818A810E9475132396E2E00C9493
:10274000BA27CF93DF93EC01EC81F0E0E851FC4F26
:102750004491E5E2F3E0628181810E9486138C81DD
:102760008F5F8C83DF91CF910895CF93DF93EC013E
:10277000E5E2F3E0438162818C810E9486138C81C3
:102780008F5F8C83DF91CF910895A7E0B0E0EBECF1
:10279000F3E10C949127E82E762EF42E622E909180
:1027A000250390FF32C0E92FE695AE2FB0E0A65D7D
:1027B000BE4F8C91809321039E7F923051F54093C0
:1027C000280386E9841708F446E99E012F5F3F4FEE
:1027D000672D8E2D0E9421064B8169818A810E947E
:1027E0007513E092260370922703F0922803662067
:1027F00061F08091250390912603A0912703B09169
:102800002803BC01CD010E9443102796EFE00C94F1
:10281000AD27823019F4F0902803E3CF863019F405
:10282000E0902603DECF8930D9F38931D1F6E95122
:102830009E2F9170592EE695F0E0E851FB4FE49100
:102840000E2F10E083E6C82E82E0D82EA12CB12CEA
:1028500091E2892E912CC501B4010E944A278E2D48
:10286000511019C0860F4F2DA6E9AF1508F446E99F
:102870009601672D0E942106A00EB11EB3E0CB0E7B
:10288000D11C86ECC81682E0D80629F7F0922803FE
:102890000E94B910A6CF861BE6CFA4E0B0E0E3E526
:1028A000F4E10C949E279091250390FF34C0882377
:1028B000B1F18932B0F58F77880F9091250391702F
:1028C000892B80932503662361F0809125039091E5
:1028D0002603A0912703B0912803BC01CD010E94DB
:1028E000431060912503669570E04BE050E088E06E
:1028F00091E00E944C28892BB1F01092220381E0D4
:102900008093DE0220E040912803609127038091AC
:1029100026030E94C5132496E2E00C94BA2781E0B6
:10292000CBCF88E2C9CF0E94A310E9CF80912503C5
:1029300086958F5F893208F081E061E00E944D1436
:1029400008959091250396958FEF890F913009F4A2
:1029500088E261E00E944D140895E5E2F3E0808191
:102960008160808360E086950E944D140895909167
:10297000250390FF08C09695981728F0961718F42D
:102980000E949614089561E00E944D140895A4E1F8
:10299000B0E0EDECF4E10C948E278D879E87AD8539
:1029A000BE859C9111968C91119713962D913C9117
:1029B0001497232B09F449C189238F3F09F445C19A
:1029C00061E0CD010E94570B4C01ED85FE85A2818F
:1029D000815A92454F9708F0B3C08401F0EA0F275F
:1029E000F2E51F27AA2309F4CCC380911E03882394
:1029F00009F400C210921E03480121E030E040E0DB
:102A000050E060E070E080E090E0082D0E94C52773
:102A1000E091FE022E2BE091FF023E2BE09100039D
:102A20004E2BE09101035E2BE09102036E2BE091AF
:102A300003037E2BE09104038E2BE0910503E92B29
:102A40002093FE023093FF02409300035093010352
:102A5000609302037093030380930403E0930503E0
:102A6000A1110C940A1EED85FE85828180809180E3
:102A7000882309F4EDC6C4010E942C0B182F682F7F
:102A8000C4010E949E03B401812F0E941E0B0E946C
:102A900078048C01AD85BE8512968C9012971596A0
:102AA0007C9072942FE0722280912E03877088238D
:102AB000C1F0682C8820B1F0812F807F803421F014
:102AC00080E2800F883068F08091300382FF09C077
:102AD00082E00E948A0780912E03877066246394A7
:102AE0008111612C812F82958F70883009F49AC7EB
:102AF00008F0D5C6843008F0B0C6B12FBF709B2E49
:102B0000823008F4DDC6107F103219F0929480EF05
:102B10009822002309F40BC7013009F44AC7882022
:102B200009F454C7772009F44AC7AD85BE851596C8
:102B30008C91159780FFDAC68F7015968C933FC7DE
:102B4000AA2309F4FEC22FEF8216910409F008F4BB
:102B500080C039E583163CE7930609F45EC0109205
:102B60001E03C40182509747409708F0B8C38FEF07
:102B700093E00E946628811156C08A948A9456EB8D
:102B8000652E772473948110BEC31A821982FE01C8
:102B9000339686E0DF011D928A95E9F74AE0242EFC
:102BA0004301BFEF8B1A9B0AC3010E9466288983E9
:102BB0001A828823C1F1813009F0D8C383010E5FE6
:102BC0001F4FC4010E9466288A83882361F19FEF0A
:102BD000980F933008F0A6C3E3E06E0E711CC80195
:102BE0000E9466288B838823F1F01C828E010F5F80
:102BF0001F4FD8018C91882399F2813009F0F1C3DD
:102C000011969C91119712968C91913009F0B0C356
:102C10000E5F1F4F0E94640CB1C380911E0391E0B0
:102C2000892780931E0380912E038770882369F083
:102C3000AD85BE8512968C91882339F08091300342
:102C400082FF03C082E00E948A076496E2E10C944E
:102C5000AA2780911E03882309F4C6C010921E0380
:102C600040EC8416910408F44BC021E030E040E0D1
:102C700050E060E070E080E090E08401005C1109C9
:102C80000E94C527E09116032E2BE09117033E2BDF
:102C9000E09118034E2BE09119035E2BE0911A038B
:102CA0006E2BE0911B037E2BE0911C038E2BE09199
:102CB0001D03E92B20931603309317034093180349
:102CC0005093190360931A0370931B0380931C03A2
:102CD000E0931D03A1110CC426E182162CE7920695
:102CE00009F4F4C480912A038272F401E052F84797
:102CF000E531F10508F0B7CEE35EF64D0C9472278E
:102D000080E888169104D0F584010054110900343C
:102D1000110508F072CE21E030E040E050E060E0C4
:102D200070E080E090E00E94C527E09106032E2B22
:102D3000E09107033E2BE09108034E2BE09109033D
:102D40005E2BE0910A036E2BE0910B037E2BE0914A
:102D50000C038E2BE0910D03E92B20930603309397
:102D60000703409308035093090360930A03709389
:102D70000B0380930C03E0930D03ACCF21E030E014
:102D800040E050E060E070E080E090E084010058B6
:102D900011090E94C527E0910E032E2BE0910F032D
:102DA0003E2BE09110034E2BE09111035E2BE0913E
:102DB00012036E2BE09113037E2BE09114038E2BF4
:102DC000E0911503E92B20930E0330930F034093FA
:102DD00010035093110360931203709313038093B5
:102DE0001403E093150376CF90E48916910408F05C
:102DF00066C084012090FE02B091FF02B987E09185
:102E00000003EF87F0910103F88BB0910203B98BB7
:102E1000E0910303EA8BF0910403FB8BB09105036F
:102E2000BC8B21E030E040E050E060E070E080E00A
:102E300090E00E94C527322E432E542E652E762E0A
:102E4000B72FF82FE92FA22CA222B984B322CF8466
:102E5000C422D888D522E988E622FA88F7220B898D
:102E600008231C8919230E94DE2709F045C23094EB
:102E70004094509460947094B095F095E095322011
:102E8000A9854A22AF855A22A8896A22A9897A226D
:102E9000AA89BA23AB89FA23AC89EA233092FE02CD
:102EA0004092FF025092000360920103709202036D
:102EB000B0930303F0930403E0930503B4CEE0E87A
:102EC0008E16910408F068C020900603F091070365
:102ED000F987B0910803BF87E0910903E88BF0916F
:102EE0000A03F98BB0910B03BA8BE0910C03EB8BC7
:102EF000F0910D03FC8B21E030E040E050E060E019
:102F000070E080E090E08401005411090E94C52720
:102F1000322E432E542E652E762EB72FF82FE92F02
:102F2000A22CA222B984B322CF84C422D888D5226D
:102F3000E988E622FA88F7220B8908231C891923DD
:102F40000E94DE2709F0C6CE3094409450946094DD
:102F50007094B095F095E0953220A9854A22AF850E
:102F60005A22A8896A22A9897A22AA89BA23AB8916
:102F7000FA23AC89EA233092060340920703509269
:102F800008036092090370920A03B0930B03F09355
:102F90000C03E0930D0347CE20EC8216910408F059
:102FA00068C020900E03B0910F03B987E091100321
:102FB000EF87F0911103F88BB0911203B98BE09178
:102FC0001303EA8BF0911403FB8BB0911503BC8BB8
:102FD00021E030E040E050E060E070E080E090E030
:102FE0008401005811090E94C527322E432E542E09
:102FF000652E762EB72FF82FE92FA22CA222B984A6
:10300000B322CF84C422D888D522E988E622FA8860
:10301000F7220B8908231C8919230E94DE2709F057
:1030200059CE30944094509460947094B095F0953B
:10303000E0953220A9854A22AF855A22A8896A22C2
:10304000A9897A22AA89BA23AB89FA23AC89EA230F
:1030500030920E0340920F035092100360921103BE
:1030600070921203B0931303F0931403E0931503CB
:10307000DACD20901603E0911703E987F091180349
:10308000FF87B0911903B88BE0911A03E98BF09197
:103090001B03FA8BB0911C03BB8BE0911D03EC8BDF
:1030A00021E030E040E050E060E070E080E090E05F
:1030B0008401005C11090E94C527322E432E542E34
:1030C000652E762EB72FF82FE92FA22CA222B984D5
:1030D000B322CF84C422D888D522E988E622FA8890
:1030E000F7220B8908231C8919230E94DE2709F087
:1030F000F1CD30944094509460947094B095F095D4
:10310000E0953220A9854A22AF855A22A8896A22F1
:10311000A9897A22AA89BA23AB89FA23AC89EA233E
:1031200030921603409217035092180360921903CD
:1031300070921A03B0931B03F0931C03E0931D03DA
:1031400072CDBFEF8B169104B9F0B0F08114E7E7B0
:103150009E0609F4ABC1F1E08F16F7E79F0609F46C
:1031600043C0F401E851FC47E730F10508F0B2CD67
:10317000EE5CF64D0C94722720E482169104B0F5B3
:10318000840121E030E040E050E060E070E080E069
:1031900090E00E94C527A090FE02A222B090FF02FC
:1031A000B322C0900003C422D0900103D522E09046
:1031B0000203E622F0900303F722009104030823A0
:1031C0001091050319230E94DE2709F42CCD8114E8
:1031D000E7E79E0609F462C1F1E08F16F7E79F0664
:1031E00009F0BFCFA11186C082E061C121E030E8C3
:1031F0008316910448F530E040E050E060E070E074
:1032000080E090E08401005411090E94C527A0903D
:103210000603A222B0900703B322C0900803C42281
:10322000D0900903D522E0900A03E622F0900B0328
:10323000F72200910C03082310910D0319230E941B
:10324000DE2709F4F0CC8DCF30E040EC84169104F9
:1032500018F540E050E060E070E080E090E084012C
:10326000005811090E94C527A0900E03A222B09019
:103270000F03B322C0901003C422D0901103D522B3
:10328000E0901203E622F0901303F722009114035A
:10329000082310911503D2CF40E050E060E070E0C9
:1032A00080E090E08401005C11090E94C527A09095
:1032B0001603A222B0901703B322C0901803C422B1
:1032C000D0901903D522E0901A03E622F0901B0358
:1032D000F72200911C03082310911D03AFCF811426
:1032E00087E7980609F4DCC091E0891697E799060C
:1032F00009F037CF82E0D5C0C4018250974740978C
:1033000008F065CF34CC6114A4E07A0609F48BCCC4
:10331000C3010E946628F30131963F018111F3CF6A
:103320008A9431CC8430C1F432E0832E912CC801D0
:103330000F5F1F4F0E946628E1E0F0E0EC0FFD1FD9
:10334000E80DF91D8083882309F46DCC8C3731F4A6
:10335000FE01E80DF91D1282380148CCFFEF8F1AEB
:103360009F0A27E08216910411F75DCC34013ECC10
:10337000923039F40E5F1F4F0E94EF0B0F5F1F4F0B
:1033800038CC933029F40E5F1F4F0E943A0CF6CFD1
:10339000943019F00F5F1F4FF1CF0E5F1F4F20E0E9
:1033A00030E0A8014F5F5F4F8053990B8A30910541
:1033B00060F02115310511F38FE99FE00197F1F7D6
:1033C00000C0000021503109F4CF229EB001239E9D
:1033D000700D11249C01260F371FF80181818A018D
:1033E000E0CFE82FF0E0EE5BF94F3490282F2695E0
:1033F0002695269530E0F901EE5CF94F949187709F
:10340000F901EE5DF94F8490912C082E02C095943D
:1034100087940A94E2F7A1E08A229924F901EE5EEA
:10342000F94F4490512C082E02C0559447940A94A9
:10343000E2F7B1E04B225524292F30E002C0359548
:1034400027958A95E2F720FF0AC081EE0E94EF0BD4
:103450008928D1F4832D0E94640C81EE12C0892842
:1034600049F4832D0E94640C4114510409F486CF61
:103470008CE2D0CB86EE0E94EF0B832D0E94640C71
:1034800086EE0E943A0CF0CF86EE0E94EF0B832D61
:103490000E94640C86EE0E943A0CDFCFAA2331F022
:1034A00081E00E946E070E940309BDCB81E00E946B
:1034B0007A07F9CF26E241EE61EE8A2F0E94950C41
:1034C000B2CB27E245EE65EEF8CF26E241EE60EEA4
:1034D000F4CF27E245EE64EEF0CF26E241EE62EE55
:1034E000ECCF27E245EE66EEE8CF28E241E0EBCFF5
:1034F00010921F03C40190578397C8F036E18316DA
:103500003CE7930609F061C180912A038A7A91E031
:10351000811101C090E09093200369E2811165E37D
:1035200082E991E00E94F4070E94B20B7CCB84E018
:1035300090E00E9474289093300380932F03F4014D
:10354000E150F047E232F10520F4E75CF64D0C94CF
:10355000722780912F03816080932F0360912F0346
:103560007091300384E090E00E9498280E94FB0C48
:103570005ACB80913003886080933003EFCF8091E5
:103580002F038260E9CF80912F038460E5CF809183
:103590002F038860E1CF809130038160EDCF80916F
:1035A00030038260E9CF80912F038061D5CF809175
:1035B0002F038062D1CF80912F038064CDCF0E94F2
:1035C000FB0C80912F038068C7CF80912F038C6004
:1035D000C3CF809130038360CFCF80912F038E7F44
:1035E000BBCF80913003877FC7CF80912F038D7F22
:1035F000B3CF80912F038B7FAFCF80912F03877F35
:10360000ABCF809130038E7FB7CF809130038D7F19
:10361000B3CF80912F038F7E9FCF80912F038F7D1B
:103620009BCF80912F038F7B97CF0E94FB0C8091C3
:103630002F038F7791CF80912F03837F8DCF809140
:1036400030038C7F99CF80912F0382FB992790F9CB
:1036500021E0922790FB82F990FB83F97DCF809146
:103660003003982F909591708E7F892B90FB81F974
:1036700083CF90912F03892F8F7B96FF80646CCF2F
:103680000E94FB0C90912F03892F97FB87F980589C
:1036900063CF61E08EE090E00E947A285FCF60E027
:1036A000F9CF90912F03892F8F7E94FF806154CFA3
:1036B00090912F03892F8E7F90FF81604DCF909145
:1036C0003003892F877F93FF886056CF8091200336
:1036D000811104C089E20E94130426CF85E3FBCF49
:1036E0008091250380FF18C08E7F809325038091F1
:1036F000250390912603A0912703B0912803898781
:103700009A87AB87BC87BC01CD010E944310109201
:1037100022030E94B91087CA81608093250361E06B
:1037200086950E944D147FCA41EA54E166E974E12E
:103730000E94E60678CA46E954E161EA74E1F8CFEE
:103740004AE350E260E370E2F3CF40E350E26AE321
:1037500070E2EECF41E550E264E470E2E9CF44E488
:1037600050E261E570E2E4CF4BE650E26EE570E2D4
:10377000DFCF4EE550E26BE670E2DACF46E850E18B
:1037800069E670E1D5CF49E650E166E870E1D0CF57
:1037900061E081E0C6CF65E082E00E94B71443CAD1
:1037A00068E086E0FACF6EE089E0F7CF64E18FE071
:1037B000F4CF67E185E1F1CF61E088E1B2CF62E269
:1037C00089E1EBCF68E283E2E8CF9AE589169CE7CE
:1037D0009906D1F1E0F4B1E08B16BCE79B0691F1BC
:1037E000E3E08E16ECE79E0639F18114FCE79F06B4
:1037F00009F039C90E94FB0C4FEF84E39CE0415073
:1038000080409040E1F700C000000E94A1092BE534
:1038100082162CE79206D1F03CE583163CE793062E
:1038200009F021C98091300382FB882780F991E05B
:1038300089270E94210A17C96FEF7FEF80E090E08F
:103840000E9498280E94110D81E0F3CF80E0F1CF13
:10385000C4010E94D503182F16C9843009F4C7C0CB
:103860006620B9F080912E0380FD13C0ED85FE85A2
:1038700012828595859585950E946E078D859E851A
:103880000E94C71480912E038595859585950E9489
:103890007A0760E08D859E850E94570BD6C98930D6
:1038A00009F431C18A5F8F708230D0F6023F09F08F
:1038B0003BC1812F8F71811034C10E946E07DFC020
:1038C000103118F0929490EF99228820B9F0992045
:1038D00069F080E2800F883010F0011109C08091FA
:1038E0002A03892980932A030E94B20B802F2FC0BC
:1038F00080913103892980933103F6CF802F0E9474
:103900003A0C992009F4ACCF80E2800F883010F097
:10391000011104C0892D0E94200406C0909480915A
:1039200031038921809331030E94B20B99CF2091FA
:10393000300322FD16C0882069F0992039F080916B
:103940002A03892980932A030E94B20B80E00E94F7
:10395000EF0B86CF80E00E943A0C992009F480CFCB
:10396000D9CF8820A1F090912B03892D892B71103C
:1039700003C00E94840C74CFE1E07E12FACF22FFD4
:103980006FCF891709F46CCF80932B0369CF711027
:1039900006C00E942804892D0E948E0C61CFF1E0A0
:1039A0007F1609F45DCF892D0E948E0C0E94280499
:1039B00057CF882031F025E0271508F451CF892D05
:1039C000D8CF34E0371508F44BCFE5CF772019F383
:1039D000093349F4BFEFE7EEF3E0B150E040F040C7
:1039E000E1F700C00000802F0E943A0C39CF812FF0
:1039F000869586958370882361F0813009F030CFF9
:103A0000C8019370811002C080E090E00E94CE0750
:103A100027CFC8019370811002C080E090E00E941F
:103A2000A8071ECF812F8370811136C0811027C057
:103A3000402F429546954770440F440F802F8F705A
:103A4000042E01C0880F0A94EAF70071002341F0A8
:103A50002FE030E001C0220F4A95EAF7022F0095CF
:103A6000169516951370123091F0133071F0209165
:103A70002C03113049F0802B82230E949B030E946B
:103A8000ED060E94E006ECCE822B802BF6CF802B39
:103A900090912C038927F1CF882051F110FFEFCFAF
:103AA000402F429546954770440F440F802F8F70EA
:103AB000042E01C0880F0A94EAF70071002341F038
:103AC0002FE030E001C0220F4A95EAF7022F00955F
:103AD000169516951370123089F0133069F0209105
:103AE0002D03113041F0802B82230E946907C7CF3C
:103AF000823028F2D5CF822B802BF7CF802B90916C
:103B00002D038927F2CF1F70882039F0812F0E9462
:103B10006E07802F0E94840CB2CF802F0E948E0CE3
:103B2000812F0E947A07ABCF033F70F4003FB9F0BA
:103B3000013FB9F1882009F45BC0772009F455C032
:103B4000802F0E94EF0B9BCF033FD9F0043F29F158
:103B50008110F3CF71105AC0812F8F71E2CF88206E
:103B600069F024E0271508F48ACF1F7181E090E006
:103B7000012E01C0880F0A94EAF7C1CF35E0731611
:103B8000F2CF80E0882009F4B0CF1F7181E0012ED0
:103B900001C0880F0A94EAF7A8CF8091300382FD14
:103BA00006C0812F8F71882009F4BBCF86CE882074
:103BB00089F01F71812F0E946E078091300382FF70
:103BC00007C048E0149FC0011124836080932E0336
:103BD000812F73CE81E00E948A0781E0871508F06B
:103BE0004ECF82E00E948A074ACF812F8F7165CE27
:103BF000772009F4B1CF093349F49FEFA7EEB3E082
:103C00009150A040B040E1F700C00000802F0E941A
:103C10003A0C35CF10921F0371CC1F93CF93DF93D3
:103C200080916903803108F04CC08091660388233D
:103C300009F447C0809133032091320360916403FB
:103C400030916503C0916703D0916803732F762389
:103C50002817B9F190E0209709F443C016E07F3FA0
:103C600009F43FC0189FF001199FF00D1124DF01E6
:103C7000AC5CBC4F11964C91119734132CC04C91F5
:103C8000461329C012964C91129741111EC01396EB
:103C90004D915C914C1B5D0B483C5105E0F48091CB
:103CA00069038F70806180936903E75CFC4F8081BA
:103CB0008F708061808384E693E00E94C7140E9425
:103CC0000904DF91CF911F9108950196877099277C
:103CD0002813C8CFF6CF0196877099272813BFCF36
:103CE000F0CF01968770B4CFABE0B0E0EAE7FEE139
:103CF0000C9494278C0185E0F801DE011796019061
:103D00000D928A95E1F7F801C280A380B48084E621
:103D1000882E83E0982E8091640390916503209112
:103D20006703309168032115310509F40CC1492F4F
:103D300048234F3F09F407C1D0906603A501421BF9
:103D4000530BDD2009F4D2C0F0906903483C5105C3
:103D500008F0ACC021815FE05F1508F46BC0EC2C6B
:103D6000291313C09081981310C0C1101EC08F2D4D
:103D70008F70806180936903C4010E94C714809191
:103D80006903F8018583E12C50C08F819885A114C7
:103D9000B10489F0282F29232F3F69F0E0913303E4
:103DA0002091320336E0CC20E1F0809169038160FC
:103DB00080936903E8CFCC2031F3F7CF4E2F50E04A
:103DC0003E9FF0011124EC5CFC4F6181691306C039
:103DD0006081681303C062816111D5CFFA01319609
:103DE000E770E213EBCF8F8198850E94770B292F24
:103DF00022952F70903248F49F70992311F08823F8
:103E0000A1F0805E883088F004C0225F2F702230DD
:103E100028F0C8010E94C714ED2C07C09F70992399
:103E200081F3F8019581903160F78E2D2B96ECE0AF
:103E30000C94B027291312C0908198130FC0C110A1
:103E40000DC0F582C8010E94C71486E0F801A4E6FF
:103E5000B3E001900D928A95E1F725C0C8010E9458
:103E6000860B882309F46BC0CC2009F468C08091CC
:103E70006903803270F080916403909165039A83A6
:103E800089831B82BD82AC82FE82CE0101960E9494
:103E9000C71486E0F801A4E6B3E001900D928A957C
:103EA000E1F70E940D1EEE24E394BFCFFFE0FF1563
:103EB00050F084E693E00E94C71486E0F40111926A
:103EC0008A95E9F760CFF80121819213C7CF9081DD
:103ED0009813C4CFC110C2CFF582C8010E94C71485
:103EE00086E0F40111928A95E9F7DDCF483C51054F
:103EF00020F7CC2021F12181921317C090819813D3
:103F000014C08091690380FDA0CF803108F49DCF5B
:103F10008583807F803F09F495CF8581982F907F9E
:103F2000905F8F70892B85838DCFC8010E94860B8F
:103F30008111AFCF80916903816080936903C801CB
:103F40000E94C714B0CFCC20D1F3C8010E94860BC9
:103F50008823A9F39ECFA7E1B0E0E1EBFFE10C9449
:103F60009D274B8B5C8B962F6D8B7E8B8F8B61117E
:103F7000109231031A8A85E0FE017396DE011D96C8
:103F800001900D928A95E1F79F8786E0FE013D96AC
:103F9000DE01179601900D928A95E1F7CE01079602
:103FA0000E94741E811131C086E0FE013796DE0149
:103FB000119601900D928A95E1F78F819885209155
:103FC0003203409133036A857B85672BF1F08923A7
:103FD0008F3FD9F030E0C90101968770992750E0F2
:103FE00084179507E9F096E0929FD001939FB00D5A
:103FF0001124AC5CBC4FFE01319601900D929A9554
:10400000E1F7809332030E94090416E080913303A4
:1040100090913203891312C06796E3E00C94B9279C
:104020000E94FB0C109232031092330386E0E4E608
:10403000F3E0DF011D928A95E9F7E7CF189FC001F1
:1040400011248C5C9C4F0E94741E882329F380915C
:10405000330390E001968770992780933303D6CF7E
:10406000E5E2F3E0818121E043816281885F0E9483
:10407000C5130895E5E2F3E0818121E04381628187
:1040800088500E94C5130895E5E2F3E0628128E0BC
:10409000620F08F46FEF21E0438181810E94C51314
:1040A0000895E5E2F3E0628128E0621B08F460E035
:1040B00021E0438181810E94C5130895E5E2F3E088
:1040C000438128E0420F08F44FEF21E062818181B3
:1040D0000E94C5130895E5E2F3E0438128E0421B06
:1040E00008F440E021E0628181810E94C5130895B7
:1040F000A5E0B0E0EEE7F0E20C9491271A82198275
:10410000FE01339683E0DF011D928A95E9F783E58E
:10411000E82E81E0F82E8E010F5F1F4F98E5C92E23
:1041200091E0D92E3801AA24A394B12C3DE5832E29
:1041300031E0932EF70181917F018F3F09F441C057
:10414000F894E82FE295EF70F0E021A18F70A501BF
:1041500002C0440F551F8A95E2F7CA01922F982B8F
:1041600091A392A18095892382A3789400C0E8E569
:10417000F1E031E0512C21912F3F09F46BC0A22FC7
:10418000A295AF70A05EB0E08C9190E02F7002C05D
:10419000959587952A95E2F7817081115BC0832FF1
:1041A000582A330F8E169F0631F7F7013197808119
:1041B0008F3F11F00E94070650EA5A95F1F7D80197
:1041C0005C920F5F1F4FCE14DF0409F0B3CF45E0C0
:1041D00050E0B30186EC92E00E945928892BE1F16E
:1041E00085E0F301A6ECB2E001900D928A95E1F72B
:1041F00081E080939C010E940E0890939B01809324
:104200009A0120919A0130919B014FB7F8948091C7
:10421000B4019091B501A091B601B091B7014FBF23
:10422000821B930B0597E0F045E050E066EC72E0EE
:1042300082EE92E00E945928892B49F085E0E6EC55
:10424000F2E0A2EEB2E001900D928A95E1F71092B1
:104250009C0106C080E0A4CF80919C018111D1CF48
:104260002596EFE00C94AD27CDB7DEB7A4970FB637
:10427000F894DEBF0FBECDBF85B7806885BF85B718
:10428000806885BF84B7877F84BF0FB6F894A895F0
:1042900080916000886180936000109260000FBE82
:1042A00080E890E00FB6F8948093610090936100ED
:1042B0000FBE85E096E090939101809390010E945B
:1042C000E4080E9446098091E20084608093E20045
:1042D00078948091E702882399F08091E900109109
:1042E000EC001795112717958F70182B1092E90085
:1042F0008091E80083FD0E94270D1F701093E90054
:1043000082E084BD93E095BD9AEF97BD80936E00E7
:104310000E94D60A811102C00E94C60A03E511E07C
:1043200098E5E92E91E0F92ED8018D918D018F3F0E
:1043300011F00E940706E016F106B1F708E511E05A
:104340008DE5E82E81E0F82EF80181918F018F3FF5
:1043500011F00E940706E016F106B1F785E0E2EEE3
:10436000F2E0DF01282F1D922A95E9F7E6ECF2E052
:10437000DF011D928A95E9F780E090E00E947428A1
:10438000873E9E4F21F40E94D60A811102C00E94EE
:10439000E10F82E090E00E9466288093D40284E0DE
:1043A00090E00E9474289093300380932F030E9422
:1043B0007820EFEFF6E721E0E150F0402040E1F710
:1043C00000C000000E9478208091E20280FF08C0B7
:1043D0006FEF7FEF80E090E00E9498280E94A10993
:1043E00083E090E00E9466280E949B0380912D0349
:1043F0000E94FA068091CB0281113AC080E090E0E1
:104400000E947428873E9E4F21F40E94D60A811193
:1044100004C00E94E10F0E94581088E090E00E94C2
:104420006E2860932503709326038093270390934F
:104430002803623070F40E94581088E090E00E94D7
:104440006E2860932503709326038093270390932F
:1044500028030E94AD06109222038091250380FF5D
:1044600004C060E086950E944D1481E08093CB02E9
:104470008DEE95E09093CD028093CC0283E191E0A4
:104480009093E9028093E802B8E1EB2EF12C10E45E
:10449000D12ECC24C3948091E7028530B1F4809171
:1044A000E702853009F45BC00E94FB0C0E94ED0618
:1044B0000E94E0061092D0028091CF02882309F476
:1044C000B4C00E94AD140E94A3100E947820F5EDA4
:1044D000AF2EF2E0BF2EA2EE8A2EA2E09A2E2AED97
:1044E00032E0D401F50191918D912E173F0709F427
:1044F000A6C09817C1F310E0D4010D914D01F5014C
:1045000051905F01501629F15026712C6624639456
:10451000852D86218823A9F079821A8391E0802F46
:104520008621811101C090E09B830E940E0881606A
:10453000782F9D838C8349815A816B81892F0E94BA
:10454000AB1F7394660CF5E07F12E2CFF501319753
:1045500000831F5F153081F60E941A0890C0809179
:10456000E702843009F437C080E00E94E006109230
:1045700022038091D00281110DC0C092D00280919F
:104580002503982F91709093CF028E7F80932503FF
:104590000E94B9101092CE020FB6F894A895E0923E
:1045A00060000FBED092600083B7817F846083BFBC
:1045B00083B7816083BF7894889583B78E7F83BFEC
:1045C0000FB6F894A8958091600088618093600090
:1045D000109260000FBE8091D102882309F45FCF52
:1045E0000E947820E2EEF2E087EE92E02191211124
:1045F00004C08E179F07D1F752CF80E189BD82E1B9
:1046000089BD09B400FEFDCF8091D8008F7D8093D5
:10461000D8008091E00082608093E0008091E0000B
:1046200081FDFCCF0E94FB0C3ACF80912303909137
:104630002403892B09F447CF0E94B91044CF981363
:104640005ACF0E940E088C018091D2029091D30221
:1046500008171907A1F08FEF89838A831B820E94B4
:104660000E088160782F9D838C8349815A816B81EC
:10467000892F0E94AB1F1093D3020093D202809126
:1046800022038823D1F180912103E0912503E6954F
:10469000E81BE093DD02823009F068C0F0E0E25FE1
:1046A000F94FE4910E2F10E0E1EAAE2EE3E1BE2EC9
:1046B0008091DE02882361F01092DE020E940E08D3
:1046C0009093DC028093DB021092E0021092DF02F2
:1046D0000E940E082091DB023091DC02821B930BBA
:1046E0008F3F9F4750F4200F311F3093DC022093FF
:1046F000DB028BED92E0F50109958091DA028823C7
:1047000089F01092DA0280912203811106C0809113
:10471000250360E086950E944D148091250380FF5B
:104720000E94B9100E94ED06182F8091E10218171F
:1047300039F01093E1020E941A08812F0E94E006CE
:104740008091E702843009F0A6CE83E08093E900EF
:104750008091E80082FF9FCE8091E80085FD5EC0D9
:104760008091E8008B778093E80095CE863059F4ED
:10477000F0E0E55FF94FE4910E2F10E075EBA72E06
:1047800073E1B72E95CF893061F4E695F0E0E85FEC
:10479000F94FE4910E2F10E06EEFA62E61E1B62ED8
:1047A00087CF8F3061F4E695F0E0EB5FF94FE4914D
:1047B0000E2F10E05BE2A52E52E1B52E79CF8531A8
:1047C00059F4F0E0EE5FF94FE4910E2F10E043E969
:1047D000A42E42E1B42E6CCF08E210E024EEA22E0B
:1047E00022E1B22E883109F463CF00ED17E090E2A8
:1047F000A92E96E0B92E833209F05ACF8E2F63E0AE
:104800000E943027E92FF0E0E150FA4FE4910E2F9B
:1048100010E034E6A32E31E1B32E4ACF0E94B30854
:10482000882379F08091E8008B778093E800898174
:10483000EFEFE80FE33190F5F0E0E55AF64D0C9418
:10484000722780E2A82EB12C8E010F5F1F4F80913E
:10485000E80085FD0AC08091E8008B778093E8002E
:104860000E94B308882399F3DDCF8091F100D8012D
:104870008C93B1E0AB1AB108A114B10499F20F5FA7
:104880001F4FE5CF1A828BE08B831AC08A81833059
:1048900049F138F4813061F08230D9F08FEF8983AB
:1048A0000FC08430D9F71B821C821D821E8208C073
:1048B0000E941A080E9478276B837C838D839E83D5
:1048C00040E250E0BE016F5F7F4F82E00E94C50969
:1048D000E2CD85E290E00E9466281B821C821D8248
:1048E0008E83EECF85E0E2EEF2E0DE0113960190DA
:1048F0000D928A95E1F7E4CF8A81823081F085308C
:1049000069F68091250380FF1BC0809125038E7F6F
:1049100080932503109222030E94B910D1CF8B817E
:104920009C81AD81BE8189A39AA3ABA3BCA3BC012A
:10493000CD010E94782785E290E00E947A28C0CFBE
:104940000E94AD14BDCF4C816B818A810E94EF0A19
:104950009827892798279E838D83B2CF2D813E810A
:104960003227232732274C816B818A810E94560A85
:10497000A7CF0E947D0AA4CF9A81923009F08ECFF2
:104980008830B1F1893009F45EC08B81833061F1E8
:1049900080F48130B9F0823009F092CF8C81882385
:1049A00009F4B3CF0E94AD1460E08C810E944D14D5
:1049B00087CF843009F084CF20E0409128036D81B7
:1049C0008C810FC08C81A6E98A9FC00111246FEFF2
:1049D00070E00E944A27462F20E0609127038091D3
:1049E00026030E94C5136CCF8C818093290368CF66
:1049F0008B81833029F160F48130A1F0823009F09D
:104A00005FCF8091250380FF19C086958C8358CF96
:104A1000843009F055CF809126038C838091270341
:104A20008D834ECF80912803BFEF8B9FC00111244F
:104A300066E970E00E944A276C8342CF80E0E6CFAF
:104A400080912903E3CF8091250390912603A091C3
:104A50002703B091280389A39AA3ABA3BCA3BC01ED
:104A6000CD010E9443102CCF80E18A8329CF82E0C0
:104A70008A838AE409CF0A811B8110270127102726
:104A80008C814801880E911C5E0195E0A90EB11C35
:104A90000815190509F414CF80E00A34A2E01A07BA
:104AA00028F4C8018A549E4F0E946628F50181931C
:104AB0005F010F5F1F4FECCF0A811B811027012779
:104AC0001027CE0101965C018C80880E992E911CD6
:104AD000A814B90409F4F4CE0A3492E0190740F49A
:104AE000D50114966C91C8018A549E4F0E947A2871
:104AF0000F5F1F4FBFEFAB1ABB0AEACF0E94B60A87
:104B0000DFCE88E0B2CF0A811B8110270127102752
:104B10008C814801880E911C5E01E5E0AE0EB11C4F
:104B20008016910609F4CCCE80E00039F1E01F0731
:104B300020F4C80186960E946628D5018D935D01F8
:104B40000F5F1F4FEDCF0A811B8110270127102710
:104B5000FE0131965F018C808E0E9F2E911C8A146F
:104B60009B0409F4ADCE0039F1E01F0738F4D501FC
:104B700014966C91C80186960E947A280F5F1F4F89
:104B8000BFEFAB1ABB0AEBCF1F921FB61F921124C7
:104B90008F939F93AF93BF938091CE02811113C0E7
:104BA0008091B4019091B501A091B601B091B70187
:104BB0004196A11DB11D8093B4019093B501A093BE
:104BC000B601B093B701BF91AF919F918F911F90A4
:104BD0001FBE1F90189578941F921FB61F92112424
:104BE0008F939F93AF93BF938091B4019091B50140
:104BF000A091B601B091B7010196A11DB11D80939E
:104C0000B4019093B501A093B601B093B701BF91E1
:104C1000AF919F918F911F901FBE1F9018951F926B
:104C20000F920FB60F9211242F933F934F935F93E0
:104C30006F937F938F939F93AF93BF93EF93FF9364
:104C40008091E10082FF09C08091E20082FF05C0EF
:104C50008091E1008B7F8093E1008091DA0080FFFA
:104C600024C08091D80080FF20C08091DA008E7F20
:104C70008093DA008091D90080FF9BC080E189BDDC
:104C800082E189BD09B400FEFDCF81E08093E70297
:104C90008091A201811109C00E94E4080E94460986
:104CA0008091E20084608093E2008091E10080FFC7
:104CB00017C08091E20080FF13C08091E2008E7FD8
:104CC0008093E2008091E20080618093E200809115
:104CD000D80080628093D80019BC85E08093E702F9
:104CE0008091E10084FF29C08091E20084FF25C00B
:104CF00080E189BD82E189BD09B400FEFDCF8091CC
:104D0000D8008F7D8093D8008091E1008F7E8093C2
:104D1000E1008091E2008F7E8093E2008091E200CA
:104D200081608093E2008091A101882309F447C04B
:104D300084E08093E7028091E7028091E10083FFA5
:104D400027C08091E20083FF23C08091E100877F2C
:104D50008093E10082E08093E7021092A1018091AC
:104D6000E1008E7F8093E1008091E2008E7F80934E
:104D7000E2008091E20080618093E20042E060E026
:104D800080E00E940F098091F00088608093F0001D
:104D9000FF91EF91BF91AF919F918F917F916F9113
:104DA0005F914F913F912F910F900FBE0F901F90E9
:104DB000189519BC1092E7021092A20176CF80914B
:104DC000E30087FF02C083E0B4CF81E0B2CF1F923F
:104DD0000F920FB60F921124FF920F931F932F93F0
:104DE0003F934F935F936F937F938F939F93AF9373
:104DF000BF93CF93DF93EF93FF9309EE10E0F80199
:104E00008081C091EC00C795CC27C7958F70FC2E90
:104E1000F82A1082C0EFD0E08881877F8883789459
:104E20000E94270DF8011082888188608883CF2D29
:104E3000CF70C083FF91EF91DF91CF91BF91AF9180
:104E40009F918F917F916F915F914F913F912F91A2
:104E50001F910F91FF900F900FBE0F901F9018950C
:104E6000991B79E004C0991F961708F0961B881FBC
:104E70007A95C9F78095089587FB082E062687FD49
:104E8000819567FD61950E9430270EF4919507FC8E
:104E900081950895AA1BBB1B51E107C0AA1FBB1F28
:104EA000A617B70710F0A61BB70B881F991F5A95B6
:104EB000A9F780959095BC01CD01089597FB072E29
:104EC00016F4009407D077FD09D00E944A2707FC0A
:104ED00005D03EF4909581959F4F0895709561950A
:104EE0007F4F0895EE0FFF1F0590F491E02D099478
:104EF00069279627692778278727782708950E94AA
:104F00000229332312F48A1B9B0B0C9489270E94DD
:104F10000229B7FF0895821B930B08952F923F92A9
:104F20004F925F926F927F928F929F92AF92BF92B9
:104F3000CF92DF92EF92FF920F931F93CF93DF9365
:104F4000CDB7DEB7CA1BDB0B0FB6F894DEBF0FBEC2
:104F5000CDBF09942A88398848885F846E847D840F
:104F60008C849B84AA84B984C884DF80EE80FD8011
:104F70000C811B81AA81B981CE0FD11D0FB6F89487
:104F8000DEBF0FBECDBFED010895002E083090F0BA
:104F9000982F872F762F652F542F432F322F2227BC
:104FA0000850F4CF220F331F441F551F661F771F71
:104FB000881F991F0A95B2F7002D08952A153B0501
:104FC0004C055D056E057F058007910708958F925A
:104FD0009F92AF92BF92CF92DF92EF92FF92CF93C8
:104FE000DF93EC01688179818A819B81611571056C
:104FF0008105910521F464E279ED8BE597E02DE1DF
:1050000033EF41E050E00E94AE2849015A019B0174
:10501000AC01A7EAB1E40E94CD286B017C01ACEEA3
:10502000B4EFA50194010E94DB28DC01CB018C0DBB
:105030009D1DAE1DBF1DB7FF03C00197A109B0485C
:1050400088839983AA83BB839F77DF91CF91FF9059
:10505000EF90DF90CF90BF90AF909F908F9008958A
:105060000E94E727089580E091E00E94E7270895D5
:10507000B0E0A0E08093000190930101A0930201B1
:10508000B09303010895FB01DC0102C005900D926D
:1050900041505040D8F70895FC014150504030F045
:1050A00001900616D1F73197CF01089588279927E7
:1050B0000895FB01DC0104C08D910190801921F459
:1050C00041505040C8F7881B990B0895F999FECFBD
:1050D00092BD81BDF89A992780B50895A6E1B0E008
:1050E00044E050E00C94A028A8E1B0E042E050E099
:1050F0000C94A028262FF999FECF92BD81BDF89A75
:10510000019700B4021639F01FBA20BD0FB6F8940B
:10511000FA9AF99A0FBE08950396272F0E947B28CA
:105120000E947A28252F0E947B28242F0C947B280C
:105130000196272F0E947B280C947A28DC01CB0152
:10514000FC01F999FECF06C0F2BDE1BDF89A319697
:1051500000B40D9241505040B8F70895052E97FBCA
:105160001EF400940E94C52857FD07D00E94E02835
:1051700007FC03D04EF40C94C5285095409530950B
:1051800021953F4F4F4F5F4F0895909580957095B3
:1051900061957F4F8F4F9F4F08950E940229A59FD1
:1051A000900DB49F900DA49F800D911D1124089522
:1051B000B7FF0C94CD280E94CD28821B930B089535
:1051C000A1E21A2EAA1BBB1BFD010DC0AA1FBB1F0B
:1051D000EE1FFF1FA217B307E407F50720F0A21B7D
:1051E000B30BE40BF50B661F771F881F991F1A94EA
:1051F00069F760957095809590959B01AC01BD0114
:10520000CF010895A29FB001B39FC001A39F700D6D
:10521000811D1124911DB29F700D811D1124911DBE
:105220000895F894FFCF050E2B0E310E2B0E310E84
:10523000840EA60E310EA20FAF0F701B941B9B1B8A
:10524000A01BA51BAA1BAF1BB41BB91BBE1BC31BFA
:10525000C81BCB1BD01BD31BD61BD91BDC1BDF1BD6
:105260001316E21B651A691A5A1A611A6D1A711A15
:10527000751AED1A581BF51ABF1AC31AF91AC71A6C
:10528000FD1A091BD31A511BD71A0D1BDB1A111B50
:10529000391BDF1A151B401BE51A1B1B231BCB1ADE
:1052A000011BCF1A051BE91A1F1B2F1B491B4F1B84
:1052B000B91AF11A5F1B422446247C24A324AE248D
:1052C000B924BC24BC24BC244E244E2434253725C8
:0C52D0003B255C257E2581258325A32538
:1052DC00010000000101010201191A1B1C1D1E1FF7
:1052EC002021223708030A3A081A0A402232000108
:1052FC00DE00AC00C501DE01FE010001020202026B
:10530C000606060909090909090F0F0F0F0F0F15DA
:10531C0015151819191919191919191919232323DC
:10532C00232323C6F0969236F567373234E200E930
:10533C0000EA00B500B600B700CD008301CC008AAE
:10534C000192019401210223022402250226022744
:10535C00022A02B300B4006F0070009F01CB010061
:00000001FF
