:100000000C9436040C946E040C946E040C946E04E0
:100010000C946E040C946E040C946E040C946E0498
:100020000C946E040C946E040C9445300C941D31A9
:100030000C94FA2F0C946E040C946E040C946E04C1
:100040000C946E040C946E040C946E040C946E0468
:100050000C946E040C9421300C946E040C946E0479
:100060000C946E040C946E040C946E040C946E0448
:100070000C946E040C946E040C946E040C946E0438
:100080000C946E040C946E040C946E040C946E0428
:100090000C946E040C946E040C946E040C946E0418
:1000A0000C946E040C946E040C946E04050109808B
:1000B000A101850319012AB700150126B700950192
:1000C00075108100C0050C0901A101850419012AE0
:1000D000A002150126A002950175108100C00660DE
:1000E000FF0961A1010962150026FF00952075082E
:1000F00081020963150026FF00952075089102C052
:1001000005010906A101050719E029E715002501E8
:10011000950875018102950175088101050719008F
:1001200029FF150026FF00950675088100050819AE
:10013000012905950575019102950175039101C08D
:100140000E018466FFFF000000000F018466FFFFC0
:100150000000000010018466FFFF000000000301A2
:100160008466FF0A0155FFFF120155FFFFFF0000E3
:10017000000004018466FF090155FFFF130155FFCC
:10018000FFFF0000000011018466FF180155FFFF0A
:10019000FF000000000B018466FFFF000000001458
:1001A000018466FF0C0155FFFFFF00000000000006
:1001B000000000000000000000000000000000003F
:1001C000000000000000000000000000000000002F
:1001D00000007E0F00D4FFFFFFC700000078000082
:1001E0000000000000002A2B280000000000000092
:1001F00000000000000000000029000000002C1E8C
:100200003420212224342627252E362D3738271E48
:100210001F202122232425263333362E37381F046E
:1002200005060708090A0B0C0D0E0F101112131406
:1002300015161718191A1B1C1D2F3130232D3504C4
:1002400005060708090A0B0C0D0E0F1011121314E6
:1002500015161718191A1B1C1D2F3130354C0902A1
:100260005B00030100A0FA09040000010301010082
:100270000921110100012240000705810308000146
:1002800009040100020300000009211101000122FC
:100290002200070582032000010705030320000157
:1002A00009040200010300000009211101000122DC
:1002B0003200070584032000011201000200000043
:1002C00008F1F125000100010203011C0376006919
:1002D0000061006C003A00660036003400630032B2
:1002E0000062003300630000001603570069006ECF
:1002F00000720079002000320035007400660000B2
:10030000001A035300700069006400650072004920
:100310000073006C0061006E0064000000040309BB
:1003200004530054005500560029005F006000612E
:10033000005700C25C5C005D005E005800C35C5961
:10034000005A005B005200015162006300500051EE
:10035000004F00C25CC35CC45CCD5CC55CC95CC7BB
:100360005CC55CCB5CCE5CCA5CC85CC65CCC5C002B
:1003700000025303530453000000000553065307C3
:10038000530000000000000000000000000000001A
:100390000000005A00000000000000000000000003
:1003A00000000000000000000000000050000000FD
:1003B000000000000000000000000000000000003D
:1003C00000000000005B00000000000000000000D2
:1003D00000000000000000000000000000005000CD
:1003E000000000000000000000000000000000000D
:1003F000000000000000005C0000000000000000A1
:1004000000000000000000000000000000000000EC
:10041000500000000000000000000000000000008C
:100420000000000000000000005D0000000000006F
:1004300000000000000000000000000000000000BC
:10044000000050000000000000000000000000005C
:1004500000000000000000000000005E000000003E
:10046000000000000000000000000000000000008C
:10047000000000005000000000000000000000002C
:10048000000000000000000000000000005F00000D
:10049000000000000000000000000000000000005C
:1004A00000000000000050000000000000000000FC
:1004B000002223252628292A2C2D2F3032333536A9
:1004C000383A3B3D3E4042434547494A4C4E5051E5
:1004D000535557595A5C5E6062646668696B6D6F0C
:1004E00071737577797B7D7F81838587898A8C8E0F
:1004F00090929496989A9C9E9FA1A3A5A7A8AAAC17
:10050000AEAFB1B3B4B6B8B9BBBCBEBFC1C2C3C550
:10051000C6C7C9CACBCCCDCED0D1D2D2D3D4D5D6F2
:10052000D7D7D8D9D9DADADBDBDBDCDCDCDCDCDD25
:10053000DDDDDDDCDCDCDCDCDBDBDBDADAD9D9D809
:10054000D7D7D6D5D4D3D2D2D1D0CECDCCCBCAC9A1
:10055000C7C6C5C3C2C1BFBEBCBBB9B8B6B4B3B1D0
:10056000AFAEACAAA8A7A5A3A19F9E9C9A9896946B
:1005700092908E8C8A89878583817F7D7B79777540
:1005800073716F6D6B6968666462605E5C5A59571F
:10059000555351504E4C4A4947454342403E3D3BDE
:1005A0003A3836353332302F2D2C2A292826252368
:1005B00022FFAA7F55400001010101010101010153
:1005C0000202020202020202020303030303030304
:1005D00003040404040404040505050505060606D1
:1005E0000606070707070708080808090909090A8E
:1005F0000A0A0B0B0B0C0C0C0D0D0D0E0E0E0F0F33
:100600000F101011111112121313141415151616C0
:100610001717181819191A1A1B1B1C1D1D1E1E1F2F
:100620002020212222232424252626272829292A7E
:100630002B2C2D2D2E2F30313232333435363738A6
:10064000393A3B3C3D3E3F404142434445464748A2
:10065000494A4C4D4E4F50515354555658595A5B78
:100660005D5E5F616264656668696B6C6D6F707218
:10067000737577787A7B7D7E8082838587888A8C84
:100680008E8F91939596989A9C9EA0A2A3A5A7A9B8
:10069000ABADAFB1B3B5B7BABCBEC0C2C4C6C9CBAF
:1006A000CDCFD1D4D6D8DBDDDFE2E4E7E9EBEEF065
:1006B000F3F5F8FAFDFF9F019501860172015E01D5
:1006C00054014A01400100001E0F057F3F1F6432A4
:1006D00014643214783C1E1E140A0501000100CB7C
:1006E00003F3280929000002000200C703F32809C8
:1006F00029000003000100CC03F3280929000004AD
:10070000000200B103F3280929DB0705000100CD31
:1007100003F3280929000006000200B303F32809A7
:1007200029000007000200C903F328092900000876
:10073000000100CE03F3280929000012000200CFB7
:1007400003F3280929000013000200D103F328094C
:1007500029000014000100D303F328092900001523
:100760000000000000E407610F0000FD377A585ACE
:10077000000004E6D6B44602002101160000007411
:100780002FE5A3E0016000C05D003D8889C65436B6
:10079000C3174FE4E881DCB77554611F8F0ADB9EF5
:1007A00081481ACFAD54ECECB46DFB7A059B70FE1A
:1007B00049D9CAA8592FBFB1C016AB2E04269E83B3
:1007C00071FC64ADC7A154C715F383E2A7CE12E153
:1007D000EF62AAB691F187EC8B70FF689B9FABE448
:1007E0009163D1B8395B705E5160692507F5D0EE31
:1007F000860A9E1D1EA97AA16D9BA0932B2439A069
:100800009B8C948FC8B59954A08FF6F4915BF244F9
:10081000F1AF3DE80066100254CE4967844A75C7BF
:10082000329D6B8A170CAE5C67275819908D59EA78
:10083000AEF8B67A01DB02B58876EF91E577E1B1E3
:10084000EA1BD0F4A310FD55D500004B0A2F270D4D
:10085000C9F2180001DC01E10200000AD38EF6B1F2
:10086000C467FB020000000004595A0011241FBE97
:10087000CFEFDAE0DEBFCDBF04B603FE18C0809133
:10088000D9039091DA03A091DB03B091DC038730A8
:10089000904BA740B04B59F41092D9031092DA0351
:1008A0001092DB031092DC03E0E0F8E3099523E00B
:1008B000A2EAB1E001C01D92A93DB207E1F711E043
:1008C000A0E0B1E0E4E6F7E602C005900D92A23A9E
:1008D000B107D9F70E94DF290C9457330C9400001C
:1008E0009C01FB019A9581159F4120F5D901AA270A
:1008F000B270832F8170B90166277470A9014427F3
:10090000587034FF0DC08295807FAB2B09F0806258
:10091000672B09F08064452B09F0806809950895DC
:10092000AB2B09F08260672B09F08460452BB1F393
:100930008860F4CF80E0F2CF282F92959F70963098
:1009400091F060F4925F9F70923030F481E0203F2C
:1009500079F030F4283E30F080E008959A5FF3CFCC
:10096000243FD1F7089581E0283EE0F3213FF9CFFD
:100970000895292F953098F5853088F590E035E079
:10098000239F800D911D1124282F277041E001C065
:10099000440F2A95EAF723E0969587952A95E1F783
:1009A000FC01EE0FFF1FE80FF91FE25DFC4F20E096
:1009B00030E070E05191DF011197CB01022E02C0AF
:1009C000969587950A94E2F781708195852784230F
:1009D00085278C932F5F3F4F2330310559F70895BA
:1009E000292F953078F5853068F590E035E0239F24
:1009F000800D911D1124682F677023E096958795CF
:100A00002A95E1F7FC01EE0FFF1FE80FF91FE25DE9
:100A1000FC4F40E050E080E0219130E0062E02C023
:100A2000369527950A94E2F721703327042E01C0EA
:100A3000220F0A94EAF7822B4F5F5F4F4330510534
:100A400059F7089580E0089580917A039091790391
:100A5000981301C008958F5F8770FACFE6EAF1E03E
:100A60009191891303C0DF0111971C9291E0EC3A38
:100A7000F907B1F70895982F909580917103892314
:100A800080937103089580917003882331F0109250
:100A9000700310922D0310922C0308959091D503AA
:100AA00092FF06C0282F28712830F9F4877F8460D0
:100AB00093FF06C0282F28712831F1F4877E8461C6
:100AC0002091D60320FF06C0382F38713830D9F472
:100AD000877F816021FF06C0282F28712831D1F43B
:100AE000877E816194FD877E0895282F24712430AC
:100AF000F9F68B7F8860DCCF282F2471243101F731
:100B00008B7E8861DDCF382F3171313019F78E7FC0
:100B10008860E0CF282F2171213121F78E7E8861F6
:100B2000E1CFCF93DF93EC01803E910509F47AC0C9
:100B300090F58133910509F4C0C088F4893291059C
:100B400009F4B0C08A32910509F4BEC0019709F4D6
:100B50007AC0CE010497813A9105D0F474C08933EC
:100B6000910509F453C08238910509F44FC08533CB
:100B7000910509F492C0883A910530F4853A9105BF
:100B800040F3A497D0645FC08F3B910508F4F3C095
:100B9000C0E0D0E058C0843E910509F463C0B0F4D1
:100BA000823E910509F44BC0833E910509F44FC084
:100BB000C11580E4D80708F0E9C0C83ED10508F4A3
:100BC00042C0CE019A958F3F9E41C7CF863E910588
:100BD00009F453C0873E910509F454C0811523E5FB
:100BE000920708F078C0811542E5940708F0E6C046
:100BF000811550E59507E0F2811561E5960708F447
:100C0000C8C0D82FCC27C16FD06A1DC08091D50332
:100C10008370811103C18091D60383FF14C0C9E2A0
:100C2000D0E011C08091D50380FD44C09091D603DF
:100C300090FF09C0C3EED0E084FDAACF04C080912C
:100C4000D50382FDF7CFCE01DF91CF91089580913A
:100C5000D50382FDE0C09091D60390FDDFC084FFF4
:100C6000F2CF96CF8091D60381FFEDCF8091D5034F
:100C7000C7EED0E084FD8CCFE6CF8091D50383FD15
:100C8000F7CFE1CF8091D50383FDCBC09091D60300
:100C900091FFE5CFC4EED0E0D6CF8091D50385FF9C
:100CA000D2CFBDCF8091D50385FDBEC08091D60344
:100CB00083FFC9CFC9E3D0E0C6CF8091D50386FFBB
:100CC000C2CFCAE2D0E0BFCF8091D50386FFBBCFB1
:100CD000C1E3D0E0B8CF811549E59407A8F58115A7
:100CE00058E5950708F084C0811565E59607D8F4A6
:100CF000C11584E5D80708F076C08C2F86958695B7
:100D000020E2829FC0011124C370DD2721E030E082
:100D1000A90102C0440F551FCA95E2F7EA01C82B8A
:100D2000D92BDA6890CF95558F3F910511F008F0D7
:100D30002FCF8C2F0E944E05C82FD0E0DC2FCC2760
:100D4000CC27DF71D0627FCFC1158AE5D80708F4C0
:100D500054C0CE0190568115904208F019CF8D2FC6
:100D60008F710E944E0590E0982F882788279F71E9
:100D70008C2BEC01E7CFC85AD0E0CC0FDD1FCD584B
:100D8000DE4F0990D881C02DD4645DCFDF70D06A6A
:100D90005ACF86958695837040E2849FC0011124C6
:100DA000C37021E030E0A90102C0440F551FCA956D
:100DB000E2F7EA01C82BD92BDD6845CF86958695E9
:100DC00050E2859FC0011124C370DD2721E030E08F
:100DD000A90102C0440F551FCA95E2F7EA01C82BCA
:100DE000D92BDC6830CFDC2FCC27C46FD06A2BCF57
:100DF000D82FCC27C06FD06A26CF8C2F8F700E943F
:100E00004E0534E0D695C7953A95E1F7CF709C2F03
:100E1000EC01D06918CFC2EED0E015CFC0EED0E023
:100E200012CFC6EED0E00FCFC5E3D0E00CCF80E00C
:100E30000895F894E82FE295EF70F0E041A18F70EB
:100E400021E030E0B90102C0660F771F8A95E2F712
:100E5000CB01962F9095942391A392A1892B82A3E5
:100E6000789408950895A0E0B0E0E9E3F7E00C94E9
:100E7000CC31E901E42FF0E0EA54FA4F61110BC0E4
:100E8000E4919E2F8E2F8983E8839A83CDB7DEB7B6
:100E9000EAE00C94E831282F30E0062F10E0F491BE
:100EA000EF2F86E0829F6001839FD00C1124EE24F7
:100EB000EA94F12CC601B7010E948031220F331F42
:100EC00045E5469FC001479F900D1124281B390B13
:100ED000822F880F280FC701801B910BF89FA0015C
:100EE000F99F500D1124952F209F5001219FB00C88
:100EF0001124AB2CBB24D701AA19BB095D01FA9DB3
:100F0000D001FB9DB00D11248B2F5701A21AB108FF
:100F10009501209F5001219FB00C309FB00C1124EF
:100F2000AB2CBB24EA18FB08FE9D9001FF9D300D01
:100F3000112463307105C9F01CEFC11613E0D1060E
:100F400050F46130710509F49ECF6230710589F06B
:100F50008E2FE32F98CF6430710571F066307105E4
:100F6000B9F3E52F9B2F8F2F8ECFEB2F852F9F2F40
:100F70008ACF852F932F87CF832FE52FF8CF8091AE
:100F80006B03823060F48170826080936B03809188
:100F90006E03873918F086E980936E0308958235D1
:100FA000B0F381708065F1CFFA01882311F00995C3
:100FB0000895FB01FCCF8091B1039091B20390930F
:100FC000200180931F010895A0E0B0E0EAEEF7E071
:100FD0000C94CA31FB018FEF9FEF4430510508F4A8
:100FE00065C04091D50341FB882780F990E0880FC8
:100FF000991F42FBAA24A0F8B12CAA0CBB1CAA0C76
:10100000BB1C8A299B2940FB882480F8912C8829C5
:10101000992943FBCC24C0F8D12C53E0CC0CDD1C27
:101020005A95E1F78C299D2944FBEE24E0F8F12C38
:1010300064E0EE0CFF1C6A95E1F78E299F2945FBC1
:10104000002700F910E075E0000F111F7A95E1F715
:10105000802B912B46FB222720F9C22F20E0D22F94
:10106000A6E0CC0FDD1FAA95E1F78C2B9D2B47FB4B
:10107000442740F920E8429FA0011124842B952B9E
:101080002091D603322F3170932B26952170B22FE9
:10109000BB0FA0E08A2B9B2B092E000CAA0BBB0BCD
:1010A00080839183A283B38380E090E0CDB7DEB7E5
:1010B000ECE00C94E631AC0123E0969587952A95F7
:1010C000E1F78E719927FC01EF52FE4F0190F081FC
:1010D000E02D4F70552721E030E002C0220F331F72
:1010E0004A95E2F7662341F0E22BF32B8F529E4F95
:1010F000DC01ED93FC93089520953095E223F323D2
:10110000F5CFE0912203F0912303309729F001906D
:10111000F081E02D0995089580E008952091CF0198
:101120003091D0012817390771F09093D001809346
:10113000CF01E0912203F0912303309721F0068044
:10114000F781E02D099508952091CD013091CE01D0
:101150002817390771F09093CE018093CD01E0916B
:101160002203F0912303309721F00084F185E02DD4
:10117000099508959C01FC0132968FEF90E0419112
:10118000461751F08F3F19F4411101C0892F9F5F1D
:101190009630A9F78F3F09F40895280F311D87FD78
:1011A0003A95F901628308952FB7F8948091C901A7
:1011B0009091CA01A091CB01B091CC012FBF0895AD
:1011C0008091B3039091B403892B91F00E94D408CD
:1011D00020912C0330912D03AC01421B530B9A013B
:1011E00081E04091B3035091B4032417350708F40C
:1011F00080E081700895CF93C82F8091D60382FF3D
:101200000CC0809170038C1741F00E94D408909319
:101210002D0380932C03C0937003CF910895A4E015
:10122000B0E0E5E1F9E00C94D4318FB7F894209167
:10123000C9013091CA014091CB015091CC01298361
:101240003A834B835C838FBF69817A818B819C81D8
:101250002496E2E00C94F0318091C801089508953D
:101260000895FC019B018091BB019091BC01861700
:10127000970740F0672B29F48091E8008E778093E0
:10128000E800C90140E0009741F4411106C0809197
:10129000E80082FF2FC080E00895209121032223DF
:1012A000A9F12530A9F12091E80023FD2DC020915E
:1012B000E80022FDECCF2091E80020FFE4CF309140
:1012C000F3002091F200009719F02830310558F012
:1012D00041E02830310509F040E02091E8002E7708
:1012E0002093E800D0CF41914093F10001972F5F08
:1012F0003F4FE9CF80912103882341F0853041F0B1
:101300008091E80083FFC3CF81E0089582E00895D3
:1013100083E008958091B50187FF13C08091E800B4
:1013200082FF06C08091E8008B778093E80004C0BC
:10133000809121038111F2CF0895809121038823A8
:10134000D9F38091E80080FFF8CF8091E8008E7794
:10135000ECCF2091E4003091E50095E6A901809161
:10136000EC008170882331F08091E80080FF06C096
:1013700080E008952091E80022FD1BC080912103A8
:10138000882391F0853091F08091EB0085FD10C0AD
:101390002091E4003091E5004217530701F391508A
:1013A0009111DCCF84E0089582E0089583E00895F0
:1013B00081E00895E8EDF0E080818E7F80831092D7
:1013C000E2001092DA001092E100A0EEB0E08C9101
:1013D00081608C9380818F77808319BCA7EDB0E00A
:1013E0008C918E7F8C9380818F7E80831092B4014C
:1013F0000895EF92FF920F931F93CF938C017B017F
:101400000E94A909C82F81110EC08091E80085FDB6
:1014100011C08091E8008E778093E8000E94A909AE
:10142000882399F3C82F8C2FCF911F910F91FF9094
:10143000EF900895F80180818093F100F1E0EF1AB8
:10144000F108E114F10479F30F5F1F4FDECF982FFD
:10145000E42FE2709093E900891308C0762F242FBF
:1014600050E0E11111C091E0980FF4CF7091EC00C1
:101470002091ED005091F00021FD06C09F5F973054
:1014800049F78093E90008953091EB003E7F309357
:10149000EB003091ED003D7F3093ED003091EB009B
:1014A00031603093EB007093EC002093ED0050938B
:1014B000F0002091EE0027FDE1CF0895A0E0B0E01C
:1014C000E4E6FAE00C94CE31C8EDD0E088818F7E5E
:1014D0008883E7EDF0E080818160808384E082BFD3
:1014E00081E08093B40188818E7F888302EE10E0D2
:1014F000F80110821092DA0081EEC82ED12CF6018C
:10150000108288818F77888388818068888388812A
:101510008F7D888319BC109221031092B301109221
:1015200008031092B20190EEE92EF12CF7018081B0
:101530008B7F808388818160888342E060E080E0E7
:101540000E94270AF60180818E7F8083F8018081C6
:1015500081608083808188608083F70180818E7FB5
:101560008083888180618883CDB7DEB7E8E00C9402
:10157000EA319C012115310509F408958FE99FE0B6
:101580000197F1F700C0000021503109F3CF81E04D
:101590008093E00080E28093D8001092C9008FE130
:1015A0009EE40197F1F700C0000087E090EBDC01BA
:1015B0008093D9039093DA03A093DB03B093DC0309
:1015C00088E19CE00FB6F894A895809360000FBE68
:1015D00090936000FFCFCF93DF93D82FC92F81E086
:1015E0008093E9008FEF9091E80095FD07C095ED9D
:1015F0009A95F1F7000081508111F5CF8091E800B4
:1016000085FD03C0DF91CF91089540E050E068E090
:1016100070E08D2F9C2F0E94F9098091E8008E7751
:101620008093E80088E0ED2FFC2FA0ECB1E0019062
:101630000D928A95E1F7E6CF8093BD017093BF01CB
:101640006093BE01809121038430F9F48093E90016
:101650008FEF9091E80095FD07C095ED9A95F1F711
:10166000000081508111F5CF8091E80085FF0DC009
:1016700040E050E063E070E08DEB91E00E94F909FA
:101680008091E8008E778093E8000895BC0183E0A4
:101690000E941C0B0895BC0184E00E941C0B08955D
:1016A000CF93682FC92F84E090E00E94C0326C2F46
:1016B00082E290E00E94C032CF910895882381F0A9
:1016C00066E983E290E00E94C03268E384E290E041
:1016D0000E94C03267EE85E290E00E94C032089519
:1016E0006FEF83E290E00E94C0326FEF84E290E0FF
:1016F0000E94C0326FEFEFCF1F93CF93DF93962FEF
:10170000122F632F8830D8F49530C8F44530B8F4E0
:10171000C42FD0E0CC0FDD1F2AE0929FC00DD11D59
:10172000112492E3899FC00DD11D1124CE0187960B
:101730000E94C032612FCE0188960E94C032DF9194
:10174000CF911F910895CF93DF93CBEDD1E060E06F
:10175000CE010E94C0322196C11584E0D807B9F7A6
:10176000DF91CF910895CF9384E090E00E94AC3256
:10177000C82F82E290E00E94AC32982F8C2FCF913C
:10178000089583E290E00E94AC32863989F484E2C5
:1017900090E00E94AC32883359F485E290E00E94D8
:1017A000AC3291E0873E09F090E0892F8170089576
:1017B00080E0FCCF0F931F93CF93DF93883030F5F9
:1017C000653020F5453010F5C42FD0E0CC0FDD1F7B
:1017D0002AE0629FC00DD11D112432E3839FC00D0A
:1017E000D11D1124CE0187960E94AC32082F10E043
:1017F000102F0027CE0188960E94AC329801282B2A
:10180000C901DF91CF911F910F91089580E090E081
:10181000F8CF462F672F20911F0330912003232BF1
:1018200091F4703F39F4403F71F48091F10190914F
:10183000F2010895883038F4753028F4453018F4F2
:101840000E94DA0B089580E090E00895A0E0B0E0F7
:10185000ECE2FCE00C94CF317C01009174038091A8
:101860007303082BC7E0D0E010E0C8010C2E02C0C3
:10187000959587950A94E2F780FD09C02197A8F70E
:10188000D12C8D2DCDB7DEB7E7E00C94EB31DC2EFB
:10189000B7018C2F0E94090C0E949105019771F3EA
:1018A000F0CFCF93DF93D82FC92F0E94260C6D2F36
:1018B0007C2F0E94090C0E949105DF91CF91089521
:1018C000FC0183819481892B61F08181908189233E
:1018D0008F3F39F0808191810E94510C0E949C04BD
:1018E000089580E008951F93CF93DF93182FD92F89
:1018F000662399F0442389F00E94260CC82F682F94
:10190000812F9D2F0E94B904612F7D2F8C2F0E9463
:10191000090CDF91CF911F9108950E94F004C82F08
:10192000F3CF0F931F93CF93DF9301EB13E0C7EB3C
:10193000D1E0CE010E94AC32F80161918F0186178F
:1019400019F0CE010E94C0322196CB3DF1E0DF07B5
:1019500081F7DF91CF911F910F9108950F931F93FE
:10196000CF93DF9301EB13E0C7EBD1E0CE010E94F0
:10197000AC32F80181938F012196CB3DF1E0DF0776
:10198000A9F7C5EED6E0FE0185919491009711F07C
:10199000FC0109952C96F7E0C537DF07A1F7DF9129
:1019A000CF911F910F9108958091710390917503CC
:1019B000892B8093A40180917003882309F1809181
:1019C000B3039091B403892B29F00E94E0088111A0
:1019D0000E9443058091A40190917003892B80930C
:1019E000A40120E086EA91E0FC01308101963111EA
:1019F0002F5F31E08C3A9307B9F721110E9443051C
:101A000048E050E064E273E084EA91E00E948F32A3
:101A1000892BA9F088E0E4EAF1E0A4E2B3E00190C8
:101A20000D928A95E1F7E0912203F091230330971C
:101A300031F00280F381E02D84EA91E00995089568
:101A4000882339F090917103892B809371030E9450
:101A5000D40C0895882339F090917503892B8093D5
:101A600075030E94D40C0895882321F00E943B0541
:101A70000E94D40C0895882341F0809590917503BD
:101A80008923809375030E94D40C0895CF93C82FA7
:101A90008823A9F08CEF8C0F813A98F4E6EAF1E004
:101AA0008CEA91E02191C217B1F18E179F07D1F70F
:101AB0006C2F84EA91E00E94BA080E94D40CCF9166
:101AC000089580E28C0F883068F4C77021E030E020
:101AD00001C0220FCA95EAF780917103822B80938F
:101AE0007103EBCF8BE58C0F833038F42C2F24520D
:101AF000330BC9010E948E08E2CFC85AC731F8F6ED
:101B0000EC2FF0E0EE0FFF1FED58FE4F808191812A
:101B10000E94A408D4CF8C2F0E942E050E94D40CC2
:101B2000C7CFCF93DF93EC01805E9109089720F037
:101B30006AE27DE0209711F460E27DE0CE010E9430
:101B400070048C2F0E94460DDF91CF91089566237B
:101B500029F0209175032260209375039C01305673
:101B6000211540E2340720F0305E2115304108F4A1
:101B700099270E94910D0895882339F19CEF980FC1
:101B8000913A28F40E942E050E94D40C089590E208
:101B9000980F983050F4877091E001C0990F8A95A2
:101BA000EAF7892F0E943B05EFCF9BE5980F933012
:101BB00028F480E090E00E948E080895885A8731CA
:101BC00020F480E090E00E94A4080895CF93DF9372
:101BD000EC010E94BC0DCE01805E9109089720F0B7
:101BE0006BE37DE0209711F464E37DE0CE010E9479
:101BF0007004DF91CF9108950F931F93CF93C82F57
:101C00000091D1031091D203893321F00091CF03C9
:101C10001091D0038C2F0E94460D0115110539F447
:101C20008C2F0E94BC0DCF911F910F9108958FE9C9
:101C30009FE00197F1F700C0000001501109EDCFBE
:101C40000F931F93CF93DF93C62FD42F122F882388
:101C5000A9F0609365030E94D4089093B00180932B
:101C6000AF01C77081E001C0880FCA95EAF70E94F2
:101C7000200DDF91CF911F910F9108958091650301
:101C800068133DC02091AF013091B0014FB7F89477
:101C90008091C9019091CA01A091CB01B091CC0172
:101CA0004FBF821B930B883C910548F56D130CC008
:101CB000812F0E94FC0DD77081E001C0880FDA955A
:101CC000EAF70E94340DD5CFC77001E0802F01C024
:101CD000880FCA95EAF70E94340D80E28D0F883094
:101CE00050F48D2F877001C0000F8A95EAF7802F7E
:101CF0000E94200DDDCF812F0E94FC0DBACFC7704E
:101D000081E001C0880FCA95EAF7DBCFA0E0B0E020
:101D1000ECE8FEE00C94CF31EC019881992309F4B2
:101D20009CC09130E1F599818A81913021F422960D
:101D30000E94FC0D05C0923029F422960E94460DA7
:101D40002196EBCF933021F422960E94BC0DF8CF60
:101D5000943011F02196F4CF229620E030E06AE032
:101D6000AE014F5F5F4F8053990B8A30910560F051
:101D70002115310529F38FE99FE00197F1F700C0A4
:101D8000000021503109F4CF629FF001639FF00DF4
:101D900011249C012E0F3F1F8981EA01E1CFE92F19
:101DA000F0E0E252FE4FD490292F269526952695F5
:101DB00030E0F901E253FE4F84919770F901E2544B
:101DC000FE4FE490F12C092E02C0F594E7940A949A
:101DD000E2F741E0E422FF24F901E255FE4F0491CD
:101DE00010E0092E02C0159507950A94E2F70170DC
:101DF0001127E82FF0E002C0F595E7959A95E2F7F4
:101E0000E0FD0CC0E114F104A1F48D2D0E94FC0D45
:101E10000115110509F494CF8CE28ACF81EE0E945E
:101E2000460DE114F10479F48D2D0E94FC0D81EE34
:101E300007C086EE0E94460D8D2D0E94FC0D86EE99
:101E40000E94BC0DE5CF86EE0E94460D8D2D0E94AE
:101E5000FC0D86EE0E94BC0DEACFCDB7DEB7E7E001
:101E60000C94EB3180E090E00E948E0880E090E0DE
:101E70000E94A408109275030E94D40C0895109239
:101E80007103E6EAF1E086E0DF011D928A95E9F749
:101E90000E94320F08950E943F0F2FEF84E39CE0D1
:101EA000215080409040E1F700C0000088E19CE0B4
:101EB0000FB6F894A895809360000FBE90936000D1
:101EC000FFCFCF92DF92EF92FF92FB018FEF9FEF58
:101ED0004430510508F47FC0C080D180E280F38097
:101EE0000E943F0FD701C601B695A7959795879594
:101EF0008170282F220FD701C60181709927AA2748
:101F0000BB27822BB701A60132E0769567955795DE
:101F100047953A95D1F74170440F440F842BB70190
:101F2000A601E3E07695679557954795EA95D1F731
:101F30004170440F440F440F842BB701A601F4E015
:101F40007695679557954795FA95D1F741704295E3
:101F5000407F842BB701A601A5E07695679557953C
:101F60004795AA95D1F741704295440F407E842B46
:101F7000B701A601B6E07695679557954795BA954E
:101F8000D1F741704295440F440F407C842BB70138
:101F9000A60197E076956795579547959A95D1F75D
:101FA000479544274795842B8093D503D1FA8827FA
:101FB00080F9880F9D2D9170892B9091D6039C7F7D
:101FC000892B8093D6038091D5039091D6030E94EC
:101FD000500B80E090E0FF90EF90DF90CF9008955D
:101FE000E1EBF3E0128E138E8FEA90E09183808311
:101FF00085E0848F28E833E13383228322E330E0D5
:10200000378B268B28EC30E0318F208F158E178E82
:10201000168E20E530E031A320A382A30E94910C0C
:102020000E943F0F1092D6031092D50380E0846087
:102030008093D60380E094E00E94500B0E94AE0C87
:1020400008958F929F92AF92BF92CF92DF92FF92AC
:102050000F931F93CF93DF938090210190902201E3
:1020600081E090E09093220180932101A12CB12C7A
:1020700000E0650110E013C0FE01259134914F2D61
:10208000612F802F0E947C0B2296F39485E0F8123A
:10209000F3CF85E0C80ED11C1F5F153039F0E60183
:1020A000CC0FDD1FCF5DDC4FF12CE6CF0F5F89E158
:1020B000A80EB11C0830E9F60E94F00F90922201A0
:1020C00080922101DF91CF911F910F91FF90DF90BE
:1020D000CF90BF90AF909F908F90089580E00E9426
:1020E0005E0B60E086E290E00E94C0320E94211008
:1020F0000E94A30B81E00E945E0B0895AAE2B0E06B
:10210000E4E8F0E10C94D33185EB91E0FC01019619
:102110002091F100208321E08D3B9207B9F7809157
:10212000B601893009F456C0C8F4823009F4B3C04E
:10213000833009F482C0813071F18091E80083FF1F
:10214000E7C08091B5019091B6019A3008F0E0C0E7
:10215000E92FF0E0E75AFC4C0C94A8318A3009F4DE
:1021600089C08B3051F78091B501813231F7809170
:10217000B9019091BA01892B01F78091E800877F1E
:102180008093E8000E948A098091B701809304013E
:102190000E943F0FD2CF8091B501813A71F68091B4
:1021A000E800877F8093E8008091B9019091BA019F
:1021B000892B61F060E080E090E070E00E943109DE
:1021C0008091E8008B778093E800B7CF68E080ECDF
:1021D00091E0F3CF8091B501813209F0AECF8091CB
:1021E000B9019091BA018D7F892B09F0A6CF80911A
:1021F000E800877F8093E8008091E80082FF18C0A4
:102200009091F3008091F200029731F48091F100F7
:10221000813011F0863021F48091F1008093C80163
:102220008091E8008B778093E8000E948A0985CF2F
:10223000809121038111E0CF80CF8091B501813A57
:1022400009F07BCF8091B9019091BA01892B09F0F7
:1022500074CF8091E800877F8093E8008091E80048
:1022600080FFFCCF809104018093F1008091E80011
:102270008E77D9CF8091B501813209F05ECF809100
:10228000E800877F8093E8000E948A098091B80166
:102290008093B10152CF8091B501813A09F04DCFC1
:1022A0008091E800877F8093E8008091E80080FFBC
:1022B000FCCF8091B101D8CF803889F0823841F5C8
:1022C0008091B9018F70873018F58093E900809173
:1022D000EB0085FB882780F91092E90006C0809109
:1022E000B20190910803911182609091E800977F6C
:1022F0009093E8008093F1001092F1008091E80043
:102300008E7723C0811116C08091B701813011F101
:102310008091E80083FF0AC08091E800877F809366
:10232000E8008091EB0080628093EB00AA96E3E0E6
:102330000C94EF31823061F78091B701882389F0E6
:102340001092E9008091E800877F8093E8000E9466
:102350008A09DECF81E0933009F080E080930803A2
:10236000EFCF8091B9018F702FEF280F263080F6C4
:102370008093E9002091EB0020FFE2CF933031F40D
:102380008091EB0080628093EB00DACF9091EB00BC
:1023900090619093EB0021E030E0A90102C0440F6E
:1023A000551F8A95E2F74093EA001092EA00809167
:1023B000EB008860E8CF8111ABCF1091B7011F7798
:1023C0008091E3008078812B8093E3008091E80086
:1023D000877F8093E8000E948A098091E80080FF4F
:1023E000FCCF8091E30080688093E30083E01111CB
:1023F00001C082E0809321038BCF8058823008F0A7
:1024000087CF4091B7015091B8014C3D83E0580708
:1024100099F583E08A838AE289834FB7F894DE01D5
:10242000139620E03EE051E2E32FF0E05093570096
:10243000849120FF03C082958F703F5F8F708A3038
:10244000C8F0895C90E08D939D932F5F243161F7F4
:102450004FBF8091E800877F8093E8006AE270E0D8
:10246000CE0101960E9431098091E8008B7780931C
:10247000E8004ECF805DE6CF8091B9019091BA011E
:10248000252F33272330310509F44AC078F5213050
:10249000310509F483C08BE590E0EEE5F2E02230EF
:1024A000310509F035CF2091E800277F2093E8001F
:1024B0002091BB013091BC018217930708F49C0165
:1024C00040E02115310509F06EC041116CC08091CA
:1024D000E80082FDC9CF80912103882329F285304D
:1024E00019F28091E80083FFF2CFBECF213231058F
:1024F00009F445C02232310509F00ACF8330910535
:1025000008F006CFFC01EE0FFF1FEC5CFE4F0190C0
:10251000F081E02D8F5C9E4FDC018C9190E010C02B
:10252000CA019927423019F18330910568F4892B4B
:10253000B1F4EDE1F3E0E4918E2F90E0EDE1F3E012
:10254000009709F4E5CEAFCF039709F0E1CEEBECAD
:10255000F2E0E4918E2F90E0EBECF2E0F1CFE1E0DD
:10256000F3E0E4918E2F90E0E1E0F3E0E9CFE9EED3
:10257000F2E0E4918E2F90E0E9EEF2E0E1CF8330DB
:10258000910508F0C5CEFC01EE0FFF1FE65CFE4F83
:102590000190F081E02D89E090E085CF82E190E02C
:1025A000E9EBF2E080CF80912103882309F45CCF2E
:1025B000853009F459CF8091E80083FD55CF809193
:1025C000E80082FD84CF8091E80080FF7ACF90916F
:1025D000F3008091F2002115310519F08830910542
:1025E00050F041E0089709F040E08091E8008E77D4
:1025F0008093E80066CF44914093F10031962150DA
:1026000031090196E8CF803809F082CE8091E80048
:10261000877F8093E8008091B3018093F1006ECEB4
:10262000811176CE1091B701123008F071CE8091F1
:10263000E800877F8093E8001093B3010E948A0925
:102640001123D1F084E08093210342E061EC81E02A
:102650000E94270A42E261EC84E00E94270A42E2DB
:1026600061EC82E00E94270A42E260EC83E00E9473
:10267000270A809121034CCE8091E30087FDE2CFB1
:1026800081E0E1CF809373030E94320F089580911F
:102690002301877F80932301909175039D7F909301
:1026A000750384FF08C08F7E80932301809171039E
:1026B0008260809371038091230185FF08C08F7D24
:1026C00080932301809171038062809371030E9443
:1026D000D40C0895CF92DF92FF920F931F93CF9364
:1026E000DF93EC018B01F42E8091230182FF6BC0FC
:1026F000C0905D03D0905E03CC16DD0619F02097E4
:1027000009F061C0809123018B7F80932301C1E098
:1027100081FD10C080915B0390915C039801281BA0
:10272000390BC1E080911F019091200128173907D2
:1027300008F4C0E0C17080912301C0FB81F980934F
:1027400023016C2FC6010E945B088091710381FFF9
:1027500008C08091230180618093230182E00E9460
:102760003B058091710385FF08C080912301806241
:102770008093230180E20E943B056C2FC6010E94DA
:10278000A70DFF2031F08091CC0385FF02C086FFAA
:1027900033C08091CF039091D0030E94B90A8091F9
:1027A0005D0390915E039C013056211540E2340791
:1027B00020F0305E2115304108F499270E94E60D83
:1027C0000E94471315C0CE019056811520E2920752
:1027D00020F0905E81159041B8F4CE0199270E94B7
:1027E000E60D80915D0390915E03C817D90741F310
:1027F00010935C0300935B03DF91CF911F910F91C6
:10280000FF90DF90CF900895CE01E9CF0F931F93F3
:10281000CF93DF938B01D82FC92F0E94BF07A80148
:102820006D2F7C2F88E090E00E94D232DF91CF9113
:102830001F910F910895EBE6F3E083E0808311820E
:102840008FEF828386E98383148263E070E08FEFE9
:1028500096E90E9406140895A4E0B0E0E2E3F4E1F2
:102860000C94D43180916F03833018F48F5F809380
:102870006F0380916B0390916C03A0916D03B091F5
:102880006E03BC01CD010E9406142496E2E00C9474
:10289000F031A4E0B0E0EFE4F4E10C94D4318091A5
:1028A0006F03882319F0815080936F0380916B032D
:1028B00090916C03A0916D03B0916E03BC01CD01AA
:1028C0000E9406142496E2E00C94F03168EE7EEF4C
:1028D00080E090E00E94DE3260E082E090E00E94C2
:1028E000C03260E083E090E00E94C0321092730337
:1028F00060E084E090E00E94C03264E082E290E018
:102900000E94C03260E085E090E00E94C03260E04A
:1029100086E090E00E94C0326FEF87E090E00E9476
:10292000C03240E050E0BA0188E090E00E94D2322C
:1029300060E08DE090E00E94C03240E050E0BA01DB
:1029400088E190E00E94D23260E087E190E00E944E
:10295000C03240E050E0BA018CE190E00E94D232F7
:1029600060E070E080E290E00E94DE3240E050E003
:10297000BA0188E190E00E94D23280E00E945E0BB2
:102980000E946E1040E050E0BA018FE090E00E949B
:10299000D23240E050E0BA0183E190E00E94D232AE
:1029A0000895A5E0B0E0E7EDF4E10C94C731809123
:1029B0006B0380FD0AC0EAE9F2E011821082128204
:1029C000339622E0ED3FF207C1F780900303909029
:1029D00004038114910409F465C0809107038111F7
:1029E00061C050906E03A12CB12C66246394712CAD
:1029F0002091690330916A03C3010A2C02C0880F39
:102A0000991F0A94E2F782239323892B09F43FC08C
:102A1000F401E590F490E114F10409F443C045E0B9
:102A200050E0B701CE0101960E94793289818F3F33
:102A300071F12A8190E0280F392F311D22323105A2
:102A400014F021E230E06901CC0CDD1CC20ED31E73
:102A5000960126563D4F69018C01000F111F080F8A
:102A6000191F06561D4F0C151D0520F055E0E50EEB
:102A7000F11CD5CF452D36E9351508F446E9980106
:102A80006C818B810E9433070D5F1F4FECCF82E07A
:102A9000880E911C9FEFA91AB90A29E0A216B10469
:102AA00009F0A6CF559A3BB13F7D2BB120624FB7BD
:102AB000F8948AE992E0FC010196508168E02BB914
:102AC000000000C057FF3BB9550F000000C000C018
:102AD00000C03BB900C06A9591F752E08D3F950761
:102AE00051F74FBF8FE594E00197F1F700C0000068
:102AF0002596EFE00C94E331EF92FF921F93CF9372
:102B0000DF93EC018AE9E82E82E0F82E10E0409194
:102B10006E03473908F046E98C81970160916D0397
:102B2000810F0E943307195F83E0E80EF11C173E06
:102B300071F70E94D1149A818C8190FF08C08F5F39
:102B40008C83DF91CF911F91FF90EF90089581507A
:102B5000F7CFA0E0B0E0EFEAF5E10C94CE31FC0154
:102B60008281DD24D39480FF02C0DD24DA940AE957
:102B700012E0C0E0D0E0F80111821082128294E0ED
:102B8000E92EF12CC12C809199028C0D8232ECF14E
:102B900061E20E947231892F082E000C990B8C176C
:102BA0009D07A9F480916E038E9DA0018F9D500D0D
:102BB00011245595479555954795473908F046E9AD
:102BC000980160916D0380916C030E943307CD0CD6
:102BD000F1E0EF1AF108E114F104A9F621960D5F76
:102BE0001F4FC132D10539F60E94D114809199024C
:102BF00091E0D9120EC0882391F081508093990200
:102C0000CDB7DEB7E8E00C94EA3187FFC5CF8F5D22
:102C1000C3CF90E00196BE010E949431EFCF80E2D5
:102C2000EDCF0F931F93CF93DF93CAE9D2E0FE015C
:102C3000118210821282339682E0ED3FF807C1F7CD
:102C400000E010E080919802082E000C990B081704
:102C50001907A4F180910701082E000C990B801729
:102C6000910764F140916E03473908F046E99E01EF
:102C700060916D0380916C030E9433070F5F1F4FBB
:102C8000239601321105F1F60E94D11480910601BC
:102C900090919802980F9093980220910701280F25
:102CA00020930701121614F490321CF08195809342
:102CB0000601DF91CF911F910F910895198218821B
:102CC0001A82DCCFAEE0B0E0E8E6F6E10C94CE315B
:102CD0008D879E87AD85BE8514961C91212F30E08F
:102CE000D9010E9448339B01AC010E9413336983D0
:102CF0007A838B839C83E0E2F0E0E11BF109A5E598
:102D0000B0E09B01AC010E94133369877A878B87FF
:102D10009C879F01DF010E94B5319B01AC010E949D
:102D20001E336D837E838F8398879B01AC018981DD
:102D30009A81AB81BC81280F391F4A1F5B1F6985AF
:102D40007A858B859C850E942633022F30E00A32DB
:102D5000E0F5C901880F991F820F931F95958795FC
:102D6000182F10953AE9C32E32E0D32EF12C85E5C9
:102D7000E82EE01A8E2DF1FC802F412F173908F034
:102D800046E9960160916D030E943307F394B3E026
:102D9000CB0ED11CE1E2FE12EDCF0E94D114AD8525
:102DA000BE8514969C9181E0992319F0903219F414
:102DB0008FEF8093050180910501890FED85FE85D8
:102DC00084832E96E8E00C94EA3185E590E0DC01FE
:102DD000A21BB30BCD01880F991F8A0F9B1F97FF72
:102DE000BDCF0196BBCF90916B0390FF0CC0EAE979
:102DF000F2E0818360834283339692E0ED3FF907EE
:102E0000C1F70E94D1140895A3E0B0E0EAE0F7E131
:102E10000C94D43190916B0390FF0DC0473908F0AA
:102E200046E99E012F5F3F4F0E9433074B81698126
:102E30008A810E94F3162396E2E00C94F031CF933E
:102E4000DF93EC01EC81F0E0EF54FB4F4491EBE6B3
:102E5000F3E0628181810E9404178C818F5F8C83F3
:102E6000DF91CF910895CF93DF93EC01EBE6F3E090
:102E7000438162818C810E9404178C818F5F8C83D7
:102E8000DF91CF910895A7E0B0E0E9E4F7E10C9479
:102E9000C731E82E762EF42E622E90916B0390FFB0
:102EA00030C0E92FE695AE2FB0E0A05CBE4F8C910C
:102EB000809367039E7F923041F586E9841708F47A
:102EC00046E99E012F5F3F4F672D8E2D0E943307ED
:102ED0004B8169818A810E94F316E0926C037092A3
:102EE0006D03F0926E03662061F080916B03909108
:102EF0006C03A0916D03B0916E03BC01CD010E94E3
:102F000006142796EFE00C94E331823019F4F09028
:102F10006E03E3CF863019F4E0906C03DECF893086
:102F2000D9F38931D1F6E9519E2F9170592EE6954A
:102F3000F0E0EF54FA4FE4910E2F10E08AE9C82E2A
:102F400082E0D82EA12CB12C91E2892E912CC501C2
:102F5000B4010E9480318E2D511017C0860F4F2D65
:102F6000A6E9AF1508F446E99601672D0E943307DC
:102F7000A00EB11EB3E0CB0ED11C8DEFC81682E0BF
:102F8000D80629F70E94D114A8CF861BE8CFEBE61C
:102F9000F3E0818121E043816281885F0E944317D1
:102FA0000895EBE6F3E0818121E04381628188505E
:102FB0000E9443170895EBE6F3E0628128E0620F78
:102FC00008F46FEF21E0438181810E944317089547
:102FD000EBE6F3E0628128E0621B08F460E021E0A8
:102FE000438181810E9443170895EBE6F3E043811A
:102FF00028E0420F08F44FEF21E0628181810E94B6
:1030000043170895EBE6F3E0438128E0421B08F400
:1030100040E021E0628181810E9443170895A0E091
:10302000B0E0E5E1F8E10C94C831FC0182806480F5
:1030300081E08483E1EBF4E09490E0E3F5E0E49157
:10304000C3EFD1E09AE9E92E92E0F92E28E9C22EE9
:1030500022E0D22E32E0A32EBB24B39477247A94BC
:10306000E9190E2F10E082E0881530F080916C0392
:10307000888380916D038983611019C01B821A8235
:103080004A81473908F046E99701698188810E94A1
:103090003307259683E0E80EF11CCC16DD0619F700
:1030A0000E94D114CDB7DEB7EEE00C94E4318B81F1
:1030B0008823E9F081508B83789EC00111246C81B4
:1030C00070E00E948031FB01FF27EF54FB4F849199
:1030D000E82FE9197E9EC0011124B8010E948031B9
:1030E00080916E03689FB00111247A83C9CF0E943A
:1030F0006932AC0190916E03969591589A9D90011A
:103100009B9D300D1124232F3327421753070CF0BA
:10311000B7CF82E0881590F40E9469326FEF70E0BB
:103120000E94943188830E94693220916D03269514
:10313000622F70E00E949431280F29831A828091B7
:103140006E03893C20F088EC8C838B8399CF84318B
:10315000D8F784E1F9CF60916B03669570E04BE09E
:1031600050E088E091E00E948232892B19F481E0DE
:10317000809368030E94D4089093120380931103F4
:103180000895A4E0B0E0E7ECF8E10C94D43190911C
:103190006B0390FF34C08823B1F18932B0F58F778B
:1031A000880F90916B039170892B80936B0366233A
:1031B00061F080916B0390916C03A0916D03B091CD
:1031C0006E03BC01CD010E94061460916B036695ED
:1031D00070E04BE050E088E091E00E948232892B61
:1031E000B1F01092680381E08093140320E04091D5
:1031F0006E0360916D0380916C030E9443172496C7
:10320000E2E00C94F03181E0CBCF88E2C9CF0E949C
:10321000AB18E9CF80916B0386958F5F893208F0F8
:1032200081E061E00E94C118089590916B0396952A
:103230008FEF890F913009F488E261E00E94C11894
:10324000089521E030E0A90102C0440F551F8A957E
:10325000E2F7CA012091690330916A036623B1F055
:10326000242B352B30936A032093690380916803E4
:10327000811106C080916B0360E086950E94C118A1
:1032800080916B0380FF0E94D114089580959095E2
:1032900028233923E7CF1F93CF93DF93182F0E9462
:1032A0008108682F617080E00E942119111121C0EE
:1032B00060E081E00E94211960E082E00E94211913
:1032C00060E083E00E94211960E084E00E942119FF
:1032D00060E085E00E94211960E086E00E942119EB
:1032E00060E087E00E942119812FDF91CF911F912B
:1032F0000895C12FD0E0BE0175956795617081E09A
:103300000E942119BE017595679575956795617045
:1033100082E00E942119BE0123E0759567952A95E8
:10332000E1F7617083E00E942119BE0134E07595D8
:1033300067953A95E1F7617084E00E942119BE011A
:1033400045E0759567954A95E1F7617085E00E94C3
:103350002119BE0156E0759567955A95E1F76170A0
:1033600086E00E942119CC0FCD2FCC1FDD0B6C2FD6
:103370006170B7CF0E944B19809374030E94320F83
:10338000089521E030E001C0220F8A95EAF780918C
:103390007403822B0E94BA1908959091D60392FF6C
:1033A00010C098E0899F90011124622B60937603EE
:1033B0000E94C1190E94D4089093780380937703E8
:1033C00008950E94C119089521E030E0A90102C0CA
:1033D000440F551F8A95E2F7CA01809590917403B6
:1033E00089230E94BA19089520917603809582233B
:1033F00080937603982F9770911117C030E0482F73
:10340000082E000C550B2417350779F09091D60340
:1034100092FF0BC08595859585950E94E4191092C1
:103420007603109278031092770308959091D60353
:1034300092FB222720F9281769F080FB92F99093DC
:10344000D6038091D5039091D6030E94500B82E061
:103450000E94F419089580917403982F9670963005
:1034600021F488600E94BA190895877FFBCF682FE6
:10347000617080E00E942119089590916B0390FF84
:1034800008C09695981728F0961718F40E940A1904
:10349000089561E00E94C1180895A0E1B0E0E3E55D
:1034A000FAE10C94C4312C01DC019C9111968C91B1
:1034B000119713962D913C911497232B09F4CFC0AB
:1034C00089238F3F09F4CBC041E012966C9112978B
:1034D0008D919C910E94730C1C01F201F281FD8779
:1034E000815095458F3F910508F043C0410125E586
:1034F0009226F111B9C0A0E48A16910408F0C4C361
:10350000A0903A03B0903B03C0903C03D0903D03A1
:10351000E0903E03F0903F03E0914003109141039F
:1035200021E030E040E050E060E070E080E090E0DA
:10353000082D0E94FB31A222B322C422D522E6220A
:10354000F722082F0E2319230E94143209F476C0A3
:10355000A0E12A16AFE53A0609F462C4B1E12B16E0
:10356000BFE53B0609F038C3FD85F111DDC382E0FC
:1035700061C4AD85AA2309F41DC3BFEF2B16310426
:1035800009F008F470C0EAE22E16EDE53E0609F4F3
:103590004FC010925A03C10182519F45409708F0D5
:1035A000B7C38FEF93E00E94AC32811147C0AEEEFB
:1035B0002A0E0BED11E02110C0C3809124019091DF
:1035C0002501A0912601B091270189839A83AB83BD
:1035D000BC837801EFEFEE1AFE0AC8010E94AC32FC
:1035E00089831A82882351F1813009F013C468015C
:1035F000F2E0CF0ED11CC7010E94AC32F82E8A83B4
:103600008823E1F0C6010E94AC32E82E8FEF8F0DC7
:10361000833008F0A0C3EB82EE2021F0CE010196AA
:103620000E94860E680123E0C20ED11C8601D1CF14
:1036300080915A0391E0892780935A038091760301
:103640008770882361F0D20112968C91882339F01B
:103650008091D60382FF03C082E00E94F419609635
:10366000E2E10C94E031410180915A03882309F48E
:10367000F4C010925A03F0EC8F16910408F040C089
:1036800020E88216910408F0B2C0840100541109A8
:103690000034110508F478C021E030E040E050E04B
:1036A00060E070E080E090E0082D0E94FB31E09146
:1036B0003A032E2BE0913B033E2BE0913C034E2B33
:1036C000E0913D035E2BE0913E036E2BE0913F03C2
:1036D0007E2BE09140038E2BE0914103E92B209358
:1036E0003A0330933B0340933C0350933D03609374
:1036F0003E0370933F0380934003E093410335C042
:1037000021E030E040E050E060E070E080E090E0F8
:103710008401005C11090E94FB31E09152032E2BC1
:10372000E09153033E2BE09154034E2BE09155035F
:103730005E2BE09156036E2BE09157037E2BE091B8
:1037400058038E2BE0915903E92B209352033093B9
:10375000530340935403509355036093560370935F
:10376000570380935803E09359038091CC0380FD65
:1037700064C38D85F8ED8F16FCE59F0609F0DBC468
:1037800027E245EE65EEE5C421E030E040E050E0A0
:1037900060E070E080E090E00E94FB31E091420345
:1037A0002E2BE09143033E2BE09144034E2BE091FE
:1037B00045035E2BE09146036E2BE09147037E2B81
:1037C000E09148038E2BE0914903E92B20934203BB
:1037D000309343034093440350934503609346035F
:1037E0007093470380934803E0934903BECF21E0E1
:1037F00030E040E050E060E070E080E090E0840184
:10380000005811090E94FB31E0914A032E2BE091F0
:103810004B033E2BE0914C034E2BE0914D035E2B6E
:10382000E0914E036E2BE0914F037E2BE09150030D
:103830008E2BE0915103E92B20934A0330934B03E5
:1038400040934C0350934D0360934E0370934F038A
:1038500080935003E093510388CF40E48416910491
:1038600008F066C0A0913A03AD83B0913B03BE83DC
:10387000E0913C03EF83F0913D03F887A0913E0374
:10388000A987B0913F03BA87E0914003EB87F0919D
:103890004103FC8721E030E040E050E060E070E070
:1038A00080E090E0082D0E94FB3139014A01B62FDB
:1038B000A72FF82FE92FAD80A222BE80B720CF809E
:1038C000C422D884D920E984E622FA84F7220B8521
:1038D00008231C8519230E94143209F027C2609422
:1038E000709480949094B095A095F095E0952D817A
:1038F00062224E8174225F81852288859822998573
:10390000B9232A85A2234B85F4235C85E5236092A5
:103910003A0370923B0380923C0390923D03B09334
:103920003E03A0933F03F0934003E093410386CE10
:1039300020E88216910408F068C0A0914203AD838C
:10394000B0914303BE83E0914403EF83F0914503BC
:10395000F887A0914603A987B0914703BA87E09101
:103960004803EB87F0914903FC8784010054110957
:1039700021E030E040E050E060E070E080E090E086
:103980000E94FB3139014A01B62FA72FF82FE92FEA
:10399000AD80A222BE80B720CF80C422D884D92097
:1039A000E984E622FA84F7220B8508231C85192373
:1039B0000E94143209F0BAC160947094809490947B
:1039C000B095A095F095E0958D8168229E81792231
:1039D0002F818222488594225985B5238A85A82380
:1039E0009B85F9232C85E223609242037092430366
:1039F0008092440390924503B0934603A0934703FB
:103A0000F0934803E093490319CE20EC8216910409
:103A100008F068C0A0914A03AD83B0914B03BE8308
:103A2000E0914C03EF83F0914D03F887A0914E0392
:103A3000A987B0914F03BA87E0915003EB87F091CB
:103A40005103FC8784010058110921E030E040E077
:103A500050E060E070E080E090E00E94FB313901CE
:103A60004A01B62FA72FF82FE92FAD80A222BE80E2
:103A7000B720CF80C422D884D920E984E622FA84F2
:103A8000F7220B8508231C8519230E94143209F0A4
:103A90004DC16094709480949094B095A095F095E9
:103AA000E0954D8164225E8175228F818822988500
:103AB00099222985B2234A85A4235B85F5238C8529
:103AC000E82360924A0370924B0380924C039092D9
:103AD0004D03B0934E03A0934F03F0935003E09334
:103AE0005103ACCDA0915203AD83B0915303BE837B
:103AF000E0915403EF83F0915503F887A0915603AA
:103B0000A987B0915703BA87E0915803EB87F091EA
:103B10005903FC878401005C110921E030E040E09A
:103B200050E060E070E080E090E00E94FB313901FD
:103B30004A01B62FA72FF82FE92FAD80A222BE8011
:103B4000B720CF80C422D884D920E984E622FA8421
:103B5000F7220B8508231C8519230E94143209F0D3
:103B6000E5C06094709480949094B095A095F09581
:103B7000E0959D8169222E8172224F818422588591
:103B800095228985B8239A85A9232B85F2234C8514
:103B9000E4236092520370925303809254039092F4
:103BA0005503B0935603A0935703F0935803E09343
:103BB000590344CD5FEF2516310409F008F462C0C3
:103BC00080E128168FE5380609F433C191E1291602
:103BD0009FE5390609F4CBCC8091CC03410180FDEF
:103BE0002CC14101D20112968C91B3EF8B16BCE52A
:103BF0009B0609F409C308F4BDCD55EF85165CE5B5
:103C0000950609F4A3C327E245EE66EE96EF891602
:103C10009CE5990609F49DC227E245EE64EEA4EF07
:103C20008A16ACE59A0609F494C2882309F4C8C23E
:103C300010926503B1E68B16BDE59B0609F4B9C386
:103C400008F08CC3F6E18F16FCE59F0608F062C110
:103C500022E082162CE5920608F489C10E94B30B7B
:103C60009093D6038093D503F401E350FC458091F3
:103C7000D5038160E331F10508F0A3C3ED59FC4C95
:103C80000C94A831410137CCB0E88B169104A0F414
:103C9000A0904203B0904303C0904403D0904503EA
:103CA000E0904603F0904703E091480310914903E8
:103CB000F0E48F1A910834CC20EC82169104A0F421
:103CC000A0904A03B0904B03C0904C03D0904D039A
:103CD000E0904E03F0904F03E09150031091510398
:103CE00040E8841A91081CCCA0905203B090530372
:103CF000C0905403D0905503E0905603F0905703C2
:103D0000E09158031091590350EC851A910808CCA2
:103D100080E128168FE5380609F485C091E129165F
:103D20009FE5390609F058CF82E07EC0C10182517B
:103D30009F45409708F00CCC34CC0115B4E01B072C
:103D400009F47CCCC8010E94AC320F5F1F4F811177
:103D5000F4CF2A9430CC8BEF8F0D833090F568012F
:103D600043E0C40ED11CEB82EE2009F45FCCC60107
:103D70000E94AC328C838823D9F0CB80DC8051E068
:103D8000C5165FEFD50610F0DC2CCC2486E0F816C3
:103D9000A1F097E0F91649F0C6010E94AC28809185
:103DA000CF039091D0030E94B90AC6010E94D02887
:103DB0006801A4E0CA0ED11C39CCC6010E94AC280F
:103DC000F7CFB4E0FB1232CC6801E4E0CE0ED11C98
:103DD000C80103960E94AC32EE2009F42FCC882350
:103DE00009F42CCC8150990B4FEF489F9001499FCB
:103DF000300D11244E2D4150550B240F351F2150ED
:103E0000310908F413CC8FE99FE00197F1F700C066
:103E10000000F5CFCE0101960E94860E670106CC08
:103E2000ED85EE2331F081E00E94C1190E942B1A2A
:103E300005CC81E00E94E419F9CF0E94D4087C01EE
:103E4000D20112968C911297882309F422C1809195
:103E5000230182FF06C040E0B70180E090E00E94AD
:103E60006A13BBE18B16BCE59B0619F1ECE18E16DB
:103E7000ECE59E0609F43CC0FAE18F16FCE59F06CE
:103E800009F05FC090912301892F8E7F90FF8160A0
:103E9000809323010E9447138091230180FF5AC21F
:103EA000F20182818111A6C1F3EF8F16FCE59F0616
:103EB000A9C180912301816080932301D2011296D0
:103EC0008C91882321F010925E0310925D03F20121
:103ED0008281811110926503D20112968C91811119
:103EE000A9CE26E182162CE5920609F069C114C319
:103EF000809123018E7F809323010E94471380913C
:103F0000230180FDCDCFF2018281882309F458C1BD
:103F100010926503C4018A5F9C45099708F0F5C2B9
:103F20000E94B30B9093D6038093D503F401EB5F0B
:103F3000FC45E830F10508F062C2EA58FC4C0C94EC
:103F4000A831F2018281940130562115F0E23F0739
:103F500008F488C0305E2115304108F0CFC01092BF
:103F60005E0310925D03882339F010926503D2013D
:103F700012968C9181112AC6F2018281E080F18033
:103F8000882309F49BC3C7010E94260C182F682FB1
:103F9000C7010E94B904B701812F0E94090C0E9439
:103FA0009105182F092FD2011296DC9012971596C1
:103FB000EC90E2942FE0E2228091760387708823D0
:103FC000C1F0CD2CDD20B1F0892F807F803421F02D
:103FD00080E2810F883068F08091D60382FF09C0AB
:103FE00082E00E94F419809176038770CC24C394F8
:103FF0008111C12C802F82958F70883009F479C48B
:1040000008F090C3843008F05EC3B02FBF70FB2E61
:10401000823008F498C3802F807F803219F0F294A8
:1040200080EFF822112309F4C5C3113009F426C426
:10403000DD2009F42FC4EE2009F4F6C340E0D201DC
:1040400012966C9112978D919C910E94730C8091A5
:10405000CE0381FD8EC3F201858180FF8AC38F70FC
:104060008583E2C310925E0310925D03882309F4F6
:1040700083CF10926503D20112968C91882309F4A4
:104080007BCFA7EA8A16ADE59A0609F075CF0E94A4
:104090004B0F51EE8516910461F4809123018F7EC0
:1040A0008093230112968C91811161CFF20182815C
:1040B00061CFB5EE8B16910441F4809123018F7D81
:1040C00080932301F2018281EFCFC40190568115C4
:1040D000F0E29F0720F0905E8115904178F4809186
:1040E000230182FFF4CE8091CE0381FD61C040E0C8
:1040F000B70180E090E00E946A1374CDD20112965D
:104100008C919091230190FF53C0B8E28B169104DB
:1041100018F5EEE18E16910408F07AC0940124504F
:1041200031092A31310508F445C08823C1F11092C4
:104130005E0310925D0329ED82162CE5920661F173
:1041400047ED84164CE5940609F0C1CE26E241EE17
:1041500061EE0E94200E72CAF9E38F16910408F5F1
:104160002DE28216910408F05EC04BE284169104A1
:1041700009F459C0882399F010925E0310925D03F0
:1041800048ED84164CE5940609F4FACA59ED8516F3
:104190005CE5950609F09BCE28E241E0F3CA80E099
:1041A000EFCF54E68516910409F43DC0811142C059
:1041B000140117CD9091CC0394FF41C08111B7CF6A
:1041C000809171038272B6ED8B16BCE59B0608F0F8
:1041D000DCC4E2EC8E16ECE59E0608F467CFF40131
:1041E000E35CFC45E331F10508F0D7C1E258FC4C33
:1041F0000C94A83110925E0310925D0393EF891620
:104200009CE5990609F0B6CA26E241EE60EEA1CF20
:104210009091CC0393FF13C0882391F210925E0318
:1042200010925D03A7CA9091CC0392FF08C0882327
:1042300009F44DCE10925E0310925D03D3CC882317
:1042400009F47EC09091710380917003182F192B8F
:10425000212F2D7F2223C9F010925E0310925D035F
:104260002091CC0321FD11C060E0C4010E945B08D5
:1042700060E0C4010E94A70D809170038D7F0E94B1
:10428000FB0882E00E94F419D9C926E0F201AFE5EB
:10429000B3E001900D922A95E1F71092610310921C
:1042A00063031092620320915D0330915E03281531
:1042B000390589F52091CC0325FF2DC000912301FC
:1042C00006950170002311F026FF25C020915B03A5
:1042D00030915C03D701A21BB30BA83CB105D8F405
:1042E00091FF08C08091230180618093230182E0C7
:1042F0000E943B058091710385FF08C080912301D6
:1043000080628093230180E20E943B05602FC401FC
:104310000E94A70D93C98D7F0E94FB0890925E03B7
:1043200080925D03F0925C03E0925B03812F8270C8
:10433000846090912301997F892B80932301A1CFE1
:1043400040E0B701C4010E946A1378C926E241EE39
:1043500062EEFFCED20112968C91D7CD45EA84163B
:104360004DE5940689F1C4018D5A9D45039708F0E7
:1043700082CE0E94B30B9093D6038093D5035DEA5F
:1043800085165DE5950649F18EEA88168DE5980655
:1043900009F45BC09FEA89169DE5990609F4AEC051
:1043A0008091D5039091D6030E94500B0E943F0F3D
:1043B00045C90E94B30B9093D603809584FB8095EA
:1043C00084F98093D503ECCF0E94B30B9093D6036E
:1043D000809580FB809580F9F4CF8091D60388602A
:1043E0008093D603DDCF8091D5038260EACF8091A0
:1043F000D5038460E6CF8091D5038860E2CF8091B9
:10440000D6038160EDCF8091D6038260E9CF8091A1
:10441000D5038061D6CF8091D5038062D2CF8091C1
:10442000D5038064CECF0E943F0F8091D503806872
:10443000C8CF8091D5038C60C4CF8091D6038360B0
:10444000CFCF8091D5038E7FBCCF8091D603877F5D
:10445000C7CF8091D5038D7FB4CF8091D5038B7F5B
:10446000B0CF8091D503877FACCF8091D6038E7F6C
:10447000B7CF8091D6038D7FB3CF8091D5038F7E48
:10448000A0CF8091D5038F7D9CCF8091D5038F7B6A
:1044900098CF0E943F0F8091D5038F7792CF809164
:1044A000D503837F8ECF8091D6038C7F99CF809167
:1044B000D50382FB992790F921E0922790FB82F99E
:1044C00090FB83F97ECF8091D603982F90959170C1
:1044D0008E7F892B90FB81F983CF0E943F0F9091B3
:1044E000D503892F97FB87F980586BCF61E08EE069
:1044F00090E00E94C03254CF60E0F9CF9091D60393
:10450000892F877F93FF88606BCFB6E18B16BCE560
:104510009B0609F041C381E0909171033091CB0378
:1045200030FF04C0292F247421111CC0292F2A7A9E
:1045300031FF04C0492F4171411120E0432F4870E1
:1045400032FF12C0392F3878332371F0411121C066
:10455000811114C0809166038823E9F085E30E94ED
:104560002E0514C020E0E4CF442319F0927291117B
:10457000EFCF882379F365E3211102C080E069E27F
:104580008093660384EA91E00E94BA080E94D40CEA
:1045900055C820E0EBCF89E2E2CF80916B0380FF2A
:1045A00021C08E7F80936B0380916B0390916C038D
:1045B000A0916D03B0916E038D879E87AF87B88BF6
:1045C000BC01CD010E940614109268039FEFA0E782
:1045D000B2E09150A040B040E1F700C000000E945E
:1045E000D1142CC8816080936B0361E086950E9492
:1045F000C11824C845E159E16AE079E10E94D40775
:104600001DC84AE059E165E179E1F8CF41ED57E194
:1046100067EC77E1F3CF47EC57E161ED77E1EECF5F
:1046200048EE57E16BED77E1E9CF4BED57E168EEEE
:1046300077E1E4CF42E058E165EF77E1DFCF45EF86
:1046400057E162E078E1DACF49E454E16CE274E1E9
:10465000D5CF4CE254E169E474E1D0CF61E081E070
:10466000C6CF65E082E00E943D1A0C941E1B68E0F4
:1046700086E0F9CF6EE089E0F6CF64E18FE0F3CF1A
:1046800067E185E1F0CF61E088E1B1CF62E289E1E5
:10469000EACF9CE589169DE5990609F0F2CC809158
:1046A000D60382FB882780F991E089270E94161A99
:1046B00063CC0E946614EBCC80E0F8CFC7010E9467
:1046C000F004182F68CC843009F4F6C0812F902FA5
:1046D0000E949C0481113AC21092D8031092D70311
:1046E000CC20A9F08091760380FD11C0F2011282E6
:1046F0008595859585950E94C119C2010E944D1A24
:10470000809176038595859585950E94E41940E012
:10471000D20112966C9112978D919C910E94730C0C
:104720000C942F1B893009F457C18A5F8F70823037
:1047300068F6123F09F063C1802F8F71D1105CC100
:104740000E94C11904C1003118F0F29490EFF922CF
:10475000DD20B9F0FF2069F080E2810F883010F091
:10476000111109C0809171038F29809371030E94F8
:10477000D40C812F2FC0809175038F2980937503EE
:10478000F6CF812F0E94BC0DFF2009F49FCF80E25D
:10479000810F883010F0111104C08F2D0E943B054D
:1047A00006C0F094809175038F21809375030E9459
:1047B000D40C8CCF8091D60382FD16C0DD2069F029
:1047C000FF2039F0809171038F29809371030E943B
:1047D000D40C80E00E94460D79CF80E00E94BC0D91
:1047E000FF2009F473CFD9CFDD2011F1E11004C00F
:1047F000809170038F2919C0E1E0EE1206C080910C
:1048000070038F290E94FB0861CF8091CD03823015
:1048100078F3E812EDCF0E944305909172038F2D3B
:10482000892B8913809372038F2D0E94200D4ECF08
:10483000E11003C00E94430518C08091CD03F1E050
:10484000EF1217C0823008F441CF809171038F219D
:10485000882309F43BCF0E944305909172038F2D6A
:10486000809589238913809372038F2D0E94340DC4
:104870002DCF8230F8F2E812DDCF28CF8091D3031C
:10488000DD2021F08E1508F421CFCECFE81608F0F8
:104890001DCFEBCFEE2049F38091D1039091D2034D
:1048A000193321F08091CF039091D0030E94B90A6F
:1048B000812F0E94BC0D0ACF802F8695869583702C
:1048C000882369F0813009F001CF812F902F9370F8
:1048D000D11002C080E090E00E94A408F7CE812FA2
:1048E000902F9370D11002C080E090E00E948E085B
:1048F000EDCE802F8370811137C0D11028C0412F99
:10490000429546954770440F440F812F8F70042EB7
:1049100001C0880F0A94EAF7212F2071222339F071
:104920002FE030E001C0220F4A95EAF72095302FA2
:10493000369536953370323091F0333071F04091C6
:104940007303313049F0822B84230E9442130E946A
:1049500081080E94371ABACE842B822BF6CF822B85
:10496000909173038927F1CFDD2059F100FFEFCF3C
:10497000412F429546954770440F440F812F8F7009
:10498000042E01C0880F0A94EAF7212F20712223F8
:1049900039F02FE030E001C0220F4A95EAF7209568
:1049A000302F369536953370323089F0333069F0D8
:1049B00040917403313041F0822B84230E94BA1954
:1049C000C6CF823020F2D4CF842B822BF7CF822B1C
:1049D000909174038927F2CFF02FFF70FF2EDD2016
:1049E00039F08F2F0E94C119812F0E94200DAFCF67
:1049F000812F0E94340D8F2D0E94E419A8CF133F00
:104A000070F4103FB9F0113FC9F1DD2009F48BC0FB
:104A1000EE2009F485C0812F0E94460D98CF133FE8
:104A2000E9F0143F39F1D110F3CFE11085C0802FA8
:104A30008F71E2CF8091D303DD2061F0E81608F09A
:104A400086CF202F2F7181E090E001C0880F2A953A
:104A5000EAF7BECF8E1508F47ACFF3CF80E0DD20E1
:104A600009F4ACCF81E0902F9F7101C0880F9A9517
:104A7000EAF7A4CF8091D60382FD06C0802F8F7104
:104A8000DD2009F4B9CF5CCE8091CD03823080F176
:104A9000DD20F1F0909176039770943061F41092DC
:104AA00076031092780310927703802F8F710E9403
:104AB000E419C12C4CCFE816E0F7202F2F71F22E0D
:104AC000822F0E94C11963E08F2D0E94CD19F1CF72
:104AD000E81650F010927603109278031092770344
:104AE00064E0802F8F71F1CF81E00E94F419E1CF53
:104AF000DD2059F0402F4F71F42E842F0E94C119F0
:104B000063E08F2D0E94CD1922CF81E00E94F4191D
:104B100051E05E1508F01BCF82E00E94F41917CF18
:104B2000802F8F710DCEEE2009F481CF8091D103BB
:104B30009091D203193321F08091CF039091D0034B
:104B40000E94B90A812F0E94BC0D01CFDD2019F00F
:104B5000E110C2CDC5CDE110BFCD40E0D20112962B
:104B60006C9112978D919C910E94730C8091CE0351
:104B700083FFB2CD8091D7039091D803029709F0BB
:104B8000ABCD812F0E94FC0DA7CD68E283E2FDE54D
:104B90008F169F0609F467CDF2018281882309F4FC
:104BA000EBC9FBE58F16FDE59F0609F485CD08F0FE
:104BB00070CD4EED84164CE5940609F47ACD81E073
:104BC0005AE585165DE5950609F470CD81148CE5EE
:104BD000980609F0D1C90E943F0FBFEFE4E3FCE063
:104BE000B150E040F040E1F700C000000E94C70A69
:104BF0001F93CF93DF938091B003803108F04CC0B6
:104C00008091AD03882309F447C080917A032091F5
:104C100079036091AB033091AC03C091AE03D091A6
:104C2000AF03732F76232817B9F190E0209709F48A
:104C300043C016E07F3F09F43FC0189FF001199F61
:104C4000F00D1124DF01A558BC4F11964C9111971E
:104C500034132CC04C91461329C012964C911297D4
:104C600041111EC013964D915C914C1B5D0B483C4D
:104C70005105E0F48091B0038F7080618093B003A0
:104C8000E058FC4F80818F70806180838BEA93E0D5
:104C90000E944D1A0E942405DF91CF911F91089523
:104CA0000196877099272813C8CFF6CF0196877091
:104CB00099272813BFCFF0CF01968770B4CFABE010
:104CC000B0E0E5E6F6E20C94C8318C0185E0F8012D
:104CD000DE01179601900D928A95E1F7D801EC90CC
:104CE0001196DC90119712966C9012971396AD90D6
:104CF000BC908BEA882E83E0982E40E06091AD0353
:104D00008091AB039091AC030E94730C8091AB0334
:104D10009091AC032091AE033091AF032115310582
:104D200009F433C1492F48234F3F09F42EC1C090E5
:104D3000AD03F501E21BF30BCC2009F4F1C0709038
:104D4000B003E83CF10508F0D4C0D80111962C91CD
:104D5000BFE0B71508F48FC0F62C291315C0F80171
:104D60009081981311C0611055C0872D8F7080619C
:104D70008093B003C4010E944D1A8091B003D80102
:104D800015968C93F12C72C0A114B10409F43FC0A4
:104D90008E2D8D218F3FD9F161103CC0A0917A03F7
:104DA00090917903EA2F46E0A9131AC08F3F51F37F
:104DB00086E0E91335C08F8198850E94510C292F18
:104DC00022952F70903208F03FC09F70992319F000
:104DD000882309F44BC0805E883008F447C038C08F
:104DE0002A2F30E04A9FD0011124A558BC4F1196BC
:104DF0005C9111975D1107C05C91E51204C0129699
:104E00005C915111CAC0D9011196A770CDCF66200F
:104E100009F4B8CF8091B00381608093B003B2CF22
:104E20002E2F30E08E9FF0011124E558FC4F418178
:104E3000D41206C04081E41203C042814111A2CFC6
:104E4000F9013196E770B5CF225F2F70223028F03C
:104E5000C8010E944D1AFC2C09C09F70992309F4C7
:104E6000BACFF8019581903108F0B5CF8F2D2B96F0
:104E7000EEE00C94E431291314C0D8019C919813EE
:104E800010C061100EC015967C92C8010E944D1A88
:104E900086E0F801ABEAB3E001900D928A95E1F764
:104EA00025C0C8010E94600C882309F467C06620F1
:104EB00009F464C08091B003803270F08091AB033C
:104EC0009091AC039A8389831B82BD82AC827E82DF
:104ED000CE0101960E944D1A86E0F801ABEAB3E0DC
:104EE00001900D928A95E1F70E94F825FF24F39432
:104EF000BDCFBFE0B71508F054C0F801218192136F
:104F0000D0CF90819813CDCF6110CBCF7582C801DF
:104F10000E944D1A86E0D4011D928A95E9F7E6CFEA
:104F2000E83CF10578F5662049F1F80121819213FA
:104F30001BC09081981318C08091CE0382FDA8CF2A
:104F40008091B00380FDA4CF803108F4A1CF858388
:104F5000982F907F903F09F498CF982F907F905F83
:104F60008F70892B858391CFC8010E94600C8111BD
:104F7000B3CF8091B00381608093B003C8010E94D9
:104F80004D1AB4CF86E0D40114C06620B9F3C8012D
:104F90000E94600C882391F39FCF2091CE0320FFC5
:104FA00005CF8BEA93E00E944D1A86E0EBEAF3E02E
:104FB000DF011D928A95E9F7E5CECF92DF92FF924D
:104FC0000F931F93CF93DF93CDB7DEB767970FB6DD
:104FD000F894DEBF0FBECDBFF42E4B8B052F5C8B3C
:104FE000162F6D8B7E8B8F8B262FCE88DF88C1147A
:104FF000D10469F0852F84238F3F49F08091D70336
:105000009091D80301969093D8038093D7032111F0
:10501000109275031A8A8091D60382FF21C0809175
:10502000B3039091B403892BD9F00E94D408209146
:10503000770330917803821B930B2091B303309157
:10504000B4038217930738F08091760382FD03C082
:1050500082E00E94F4190E94E00881110E94430539
:10506000FD860E871F87D98AC88A86E0FE013D9695
:10507000DE01179601900D928A95E1F7CE01079611
:105080000E945F26811113C086E0FE013796DE0183
:10509000119601900D928A95E1F78F819885209164
:1050A000790340917A036A857B85672BA9F416E022
:1050B00080917A039091790389133BC067960FB66C
:1050C000F894DEBF0FBECDBFDF91CF911F910F913E
:1050D000FF90DF90CF90089589238F3F41F330E018
:1050E000C90101968770992750E08417950771F4DC
:1050F0000E943F0F1092790310927A0386E0EBEA48
:10510000F3E0DF011D928A95E9F7D1CF96E0929FF7
:10511000D001939FB00D1124A558BC4FFE013196CC
:1051200001900D929A95E1F7809379030E942405EE
:10513000BECF189FC001112485589C4F0E945F2646
:10514000882309F4BBCF80917A0390E001968770A1
:10515000992780937A03ACCFA5E0B0E0E2EBF8E2C8
:105160000C94D4319093F2018093F101811520E2E7
:10517000920730F40E94910D2596E2E00C94F031F4
:1051800080EF89838A8381E08B830E94D4088160C9
:10519000782F49815A816B81892F0E94DD27ECCFBE
:1051A000A5E0B0E0E6EDF8E20C94D4319093F20182
:1051B0008093F101811520E2920730F40E94E60D00
:1051C0002596E2E00C94F03180EF89838A831B827C
:1051D0000E94D4088160782F49815A816B81892F80
:1051E0000E94DD27EDCF9C01CB01BA01F901329677
:1051F000459154916417750748F0F901349665910B
:1052000074910E949C3280E090E008958FEF9FEFB0
:1052100008959C01DA010296FC0145915491FC012C
:1052200085919491A817B90758F0F90134968591A2
:1052300094910E949C320E94910C80E090E008952D
:105240008FEF9FEF0895A5E0B0E0E9E2F9E20C945A
:10525000C7311A821982FE01339683E0DF011D9265
:105260008A95E9F789E6E82E81E0F82E8E010F5F36
:105270001F4F9EE6C92E91E0D92E3801AA24A3948F
:10528000B12C33E7832E31E0932EF70181917F011A
:105290008F3F09F441C0F894E82FE295EF70F0E0F9
:1052A00021A18F70A50102C0440F551F8A95E2F716
:1052B000CA01922F982B91A392A18095892382A352
:1052C000789400C0EEE6F1E031E0512C21912F3FBF
:1052D00009F46BC0A22FA295AF70A05EB0E08C91D4
:1052E00090E02F7002C0959587952A95E2F781701E
:1052F00081115BC0832F582A330F8E169F0631F71A
:10530000F701319780818F3F11F00E94190750EA11
:105310005A95F1F7D8015C920F5F1F4FCE14DF044E
:1053200009F0B3CF45E050E0B3018DEF92E00E9469
:105330008F32892BE1F185E0F301ADEFB2E001900E
:105340000D928A95E1F781E08093AE010E94D40826
:105350009093AD018093AC012091AC013091AD01EF
:105360004FB7F8948091C9019091CA01A091CB01E7
:10537000B091CC014FBF821B930B0597E0F045E045
:1053800050E06DEF72E08AE193E00E948F32892B4A
:1053900049F085E0EDEFF2E0AAE1B3E001900D9273
:1053A0008A95E1F71092AE0106C080E0A4CF80910B
:1053B000AE018111D1CF2596EFE00C94E331CDB74A
:1053C000DEB7AC970FB6F894DEBF0FBECDBF85B782
:1053D000806885BF85B7806885BF84B7877F84BFB5
:1053E0000FB6F894A8958091600088618093600062
:1053F000109260000FBE80E890E00FB6F8948093A2
:105400006100909361000FBE87E197E09093A30144
:105410008093A2010E94AE0C0E94DA090E945E0AEB
:105420008091E20084608093E2007894809121036F
:10543000882399F08091E9001091EC0017951127CD
:1054400017958F70182B1092E9008091E80083FD6A
:105450000E947E101F701093E90082E084BD93E0EB
:1054600095BD9AEF97BD80936E000E94C10B81118C
:1054700002C00E946E1009E611E03EE6E32E31E024
:10548000F32ED8018D918D018F3F11F00E941907E5
:10549000E016F106B1F70EE611E023E7E22E21E077
:1054A000F22EF80181918F018F3F11F00E941907B0
:1054B000E016F106B1F785E0EAE1F3E0DF01282F1D
:1054C0001D922A95E9F7EDEFF2E0DF011D928A9532
:1054D000E9F780E090E00E94BA32883E9E4F21F4C6
:1054E0000E94C10B811102C00E94661482E090E00C
:1054F0000E94AC3280930B030E94B30B9093D603AF
:105500008093D5030E942329EFEFF6E721E0E150D5
:10551000F0402040E1F700C000000E942329809164
:105520001A0380FF08C06FEF7FEF80E090E00E94D9
:10553000DE320E94C70A83E090E00E94AC320E94F3
:105540004213809174030E944B19809102038111D0
:105550003AC080E090E00E94BA32883E9E4F21F42B
:105560000E94C10B811104C00E9466140E941B148A
:1055700088E090E00E94B43260936B0370936C03F8
:1055800080936D0390936E03623070F40E941B143D
:1055900088E090E00E94B43260936B0370936C03D8
:1055A00080936D0390936E030E94BF07109268036F
:1055B00080916B0380FF04C060E086950E94C11853
:1055C00081E08093020386EB96E09093040380933E
:1055D000030383E191E0909323038093220388E106
:1055E000E82EF12C90E4D92ECC24C3948091210391
:1055F0008530E9F480912103853009F462C00E946E
:105600003F0F0E9481080E94371A10920703809171
:105610000603882309F4C4C080916B0381608093E2
:105620006B0360E086950E94C1180E94AB180E942F
:1056300023291CE0A12E13E0B12E0AE1802E03E005
:10564000902E21E133E0D401F50191918D912E1737
:105650003F0709F4AFC09817C1F310E0F4010191BE
:105660004F01D5015D905D01501629F15026712C36
:1056700066246394852D86218823A9F079821A8374
:1056800091E0802F8621811101C090E09B830E94D0
:10569000D4088160782F9D838C8349815A816B81E6
:1056A000892F0E94DD277394660CB5E07B12E2CF50
:1056B000F501319700831F5F153081F60E940F09B5
:1056C00099C080912103843009F440C080E00E9499
:1056D000371A1092680380910703811116C0C09297
:1056E000070380916B03982F9170909306038E7F30
:1056F00080936B038FEF90E7A2E081509040A04031
:10570000E1F700C000000E94D114109205030FB60B
:10571000F894A895E09260000FBED092600083B725
:10572000817F846083BF83B7816083BF78948895CD
:1057300083B78E7F83BF0FB6F894A89580916000E1
:10574000886180936000109260000FBE8091080312
:10575000882309F44FCF0E942329EAE1F3E08FE187
:1057600093E02191211104C08E179F07D1F742CFFA
:1057700080E189BD82E189BD09B400FEFDCF809141
:10578000D8008F7D8093D8008091E0008260809364
:10579000E0008091E00081FDFCCF0E943F0F2ACF06
:1057A0008091690390916A03892B09F43ECF0E948E
:1057B000D1143BCF981351CF0E94D4088C01809113
:1057C000090390910A0308171907A1F08FEF898345
:1057D0008A831B820E94D4088160782F9D838C83EA
:1057E00049815A816B81892F0E94DD2710930A031A
:1057F000009309038091CC0380FF1CC0809123019A
:1058000082FF18C00E94D408BC0180915B03909174
:105810005C039B01281B390B80911F019091200193
:105820002817390738F041E080915D0390915E03BD
:105830000E946A13809168038823D1F180916703E5
:10584000E0916B03E695E81BE0931303823009F0C7
:1058500053C0F0E0E952F94FE4910E2F10E0BFE1A0
:10586000AB2EB7E1BB2E80911403882361F0109218
:1058700014030E94D4089093120380931103109292
:105880001603109215030E94D40820911103309141
:105890001203821B930B8F3F9F4750F4200F311F41
:1058A000309312032093110381E193E0F5010995F0
:1058B0000E948108182F80911703181739F0109350
:1058C00017030E940F09812F0E94371A809121032C
:1058D000843009F08BCE83E08093E9008091E8006A
:1058E00082FF84CE8091E80085FD5EC08091E80053
:1058F0008B778093E8007ACE863059F4F0E0EC5252
:10590000F94FE4910E2F10E0A3E3AA2EA7E1BA2EDF
:10591000AACF893061F4E695F0E0EF52F94FE491B7
:105920000E2F10E0FCE7AF2EF5E1BF2E9CCF8F309D
:1059300061F4E695F0E0E253F94FE4910E2F10E0A8
:10594000E9EAAE2EE5E1BE2E8ECF853159F4F0E0C6
:10595000E553F94FE4910E2F10E071E1A72E76E1A7
:10596000B72E81CF08E210E052E6A52E56E1B52E03
:10597000883109F478CF00ED17E042E3A42E47E028
:10598000B42E833209F06FCF8E2F63E00E94663110
:10599000E92FF0E0E853F94FE4910E2F10E06FE0AB
:1059A000A62E68E1B62E5FCF0E94A90930E2A32E91
:1059B000B12C8E010F5F1F4F882361F18091E800A9
:1059C0008B778093E80000911F0310912003E981F9
:1059D0000115110569F1EE3F09F04DC08A81833050
:1059E00020F08550833008F046C0EA81EE3008F0A0
:1059F00042C0F0E0EF56FC4C0C94A8318091F100CD
:105A0000D8018C93B1E0AB1AB108A114B104B1F282
:105A10000F5F1F4F8091E80085FDF0CF8091E80077
:105A20008B778093E8000E94A909882399F3C6CF59
:105A3000E43150F4EE2351F0E150E33138F4F0E07A
:105A4000E156FC4C0C94A831EE3F79F28FEF83C203
:105A50001A8289E08B830FC08A81823091F1833072
:105A6000C9F1813099F70E940F090E94AE316B8312
:105A70007C838D839E8380912103843009F0B6CD91
:105A80008091E9001091EC001795112717958F7000
:105A9000182B82E08093E9008091E80080FF0DC020
:105AA00040E050E060E270E0CE0101960E94F9090A
:105AB0008091E8008E778093E8001F701093E900D2
:105AC00095CD86E290E00E94AC321B821C821D8242
:105AD0008E83D1CF8091210190912201892B59F29F
