:100000000C942E040C9466040C9466040C94660400
:100010000C9466040C9466040C9466040C946604B8
:100020000C9466040C9466040C943B300C941331CD
:100030000C94F02F0C9466040C9466040C946604E3
:100040000C9466040C9466040C9466040C94660488
:100050000C9466040C9417300C9466040C9466049B
:100060000C9466040C9466040C9466040C94660468
:100070000C9466040C9466040C9466040C94660458
:100080000C9466040C9466040C9466040C94660448
:100090000C9466040C9466040C9466040C94660438
:1000A0000C9466040C9466040C94660405010980A3
:1000B000A101850319012AB700150126B700950192
:1000C00075108100C0050C0901A101850419012AE0
:1000D000A002150126A002950175108100C00660DE
:1000E000FF0961A1010962150026FF00952075082E
:1000F00081020963150026FF00952075089102C052
:1001000005010906A101050719E029E715002501E8
:10011000950875018102950175088101050719008F
:1001200029FF150026FF00950675088100050819AE
:10013000012905950575019102950175039101C08D
:100140000E018466FFFF000000000F018466FFFFC0
:100150000000000010018466FFFF000000000301A2
:100160008466FF0A0155FFFF120155FFFFFF0000E3
:10017000000004018466FF090155FFFF130155FFCC
:10018000FFFF0000000011018466FF180155FFFF0A
:10019000FF000000000B018466FFFF000000001557
:1001A000018466FF0C0155FFFF100155FFFFFF00A2
:1001B000000000000000000000000000000000003F
:1001C000000000000000000000000000000000002F
:1001D000000000000000007E0F00D4FFFFFFC700FA
:1001E00000007800000000000000002A2B2800001A
:1001F00000000000000000000000000000002900D6
:100200000000002C1E3420212224342627252E36DF
:100210002D3738271E1F202122232425263333364D
:100220002E37381F0405060708090A0B0C0D0E0FA0
:10023000101112131415161718191A1B1C1D2F3123
:1002400030232D350405060708090A0B0C0D0E0F87
:10025000101112131415161718191A1B1C1D2F3103
:1002600030354C09025B00030100A0FA09040000CC
:1002700001030101000921110100012240000705CD
:1002800081030800010904010002030000000921A4
:100290001101000122220007058203200001070549
:1002A00003032000010904020001030000000921EA
:1002B0001101000122320007058403200001120110
:1002C000000200000008F1F1250001000102030115
:1002D0001C037600690061006C003A00660036007D
:1002E0003400630032006200330063000000160334
:1002F000570069006E00720079002000320035005E
:100300007400660000001A03530070006900640066
:1003100065007200490073006C0061006E006400AB
:10032000000004030904290053005400550056003E
:100330002A005F00600061005700C25C5C005D0045
:100340005E005700000059005A005B0001517C001C
:100350007D00620063005800C25CC35CC45CCD5C7D
:10036000C55CC95CC75CC55CCB5CCE5CCA5CC85C68
:10037000C65CCC5C00000253035304530000000031
:100380000553065307530000000029000000000039
:10039000000000000000000000005A000000000003
:1003A000000000000000000000000000000000004D
:1003B00000500000000000000000000029000000C4
:1003C0000000000000000000000000005B000000D2
:1003D000000000000000000000000000000000001D
:1003E0000000005000000000000000000000290094
:1003F00000000000000000000000000000005C00A1
:1004000000000000000000000000000000000000EC
:10041000000000000050000000000000000000008C
:1004200029000000000000000000000000000000A3
:100430005D0000000000000000000000000000005F
:10044000000000000000005000000000000000005C
:100450000000290000000000000000000000000073
:1004600000005E000000000000000000000000002E
:10047000000000000000000000500000000000002C
:100480000000000029000000000000000000000043
:10049000000000005F0000000000000000000000FD
:1004A00000000000000000000000005000000000FC
:1004B0000000000000002223252628292A2C2D2FA9
:1004C0003032333536383A3B3D3E4042434547496A
:1004D0004A4C4E5051535557595A5C5E606264669F
:1004E00068696B6D6F71737577797B7D7F818385AB
:1004F00087898A8C8E90929496989A9C9E9FA1A3AD
:10050000A5A7A8AAACAEAFB1B3B4B6B8B9BBBCBED0
:10051000BFC1C2C3C5C6C7C9CACBCCCDCED0D1D24C
:10052000D2D3D4D5D6D7D7D8D9D9DADADBDBDBDC4E
:10053000DCDCDCDCDDDDDDDDDCDCDCDCDCDBDBDBFA
:10054000DADAD9D9D8D7D7D6D5D4D3D2D2D1D0CE5A
:10055000CDCCCBCAC9C7C6C5C3C2C1BFBEBCBBB95F
:10056000B8B6B4B3B1AFAEACAAA8A7A5A3A19F9EDD
:100570009C9A98969492908E8C8A89878583817FA5
:100580007D7B79777573716F6D6B69686664626086
:100590005E5C5A5957555351504E4C4A4947454352
:1005A00042403E3D3B3A3836353332302F2D2C2AEF
:1005B000292826252322FFAA7F5540000101010199
:1005C000010101010102020202020202020203030E
:1005D00003030303030304040404040404050505DE
:1005E00005050606060606070707070708080808A0
:1005F000090909090A0A0A0B0B0B0C0C0C0D0D0D4D
:100600000E0E0E0F0F0F10101111111212131314E2
:1006100014151516161717181819191A1A1B1B1C5A
:100620001D1D1E1E1F2020212222232424252626B4
:10063000272829292A2B2C2D2D2E2F3031323233E9
:100640003435363738393A3B3C3D3E3F40414243F2
:100650004445464748494A4C4D4E4F5051535455D6
:100660005658595A5B5D5E5F616264656668696B86
:100670006C6D6F7072737577787A7B7D7E80828304
:100680008587888A8C8E8F91939596989A9C9EA048
:10069000A2A3A5A7A9ABADAFB1B3B5B7BABCBEC055
:1006A000C2C4C6C9CBCDCFD1D4D6D8DBDDDFE2E41E
:1006B000E7E9EBEEF0F3F5F8FAFDFF9F019501860F
:1006C0000172015E0154014A01400100001E0F0544
:1006D0007F3F1F643214643214783C1E1E140A05D6
:1006E00001000100CB03EB280129000002000200F9
:1006F000C703EB280129000003000100CC03EB280D
:100700000129000004000200B103EB280129D307EE
:1007100005000100CD03EB280129000006000200BE
:10072000B303EB280129000007000200C903EB28EE
:100730000129000008000100CE03EB280129000078
:1007400012000200CF03EB28012900001300020071
:10075000D103EB280129000014000100D303EB288A
:1007600001290000150000000000DC07590F0000FF
:10077000FD377A585A000004E6D6B446020021013B
:1007800016000000742FE5A3E0012B00AB5D003DD7
:100790008889C65436C3174FE4E881DCB7755461C5
:1007A0001F8F0ADB9E81481ACFAD54ECECB46DFB71
:1007B0007A059B70FE49D9CAA8592FBFB1C016ABA4
:1007C0002E04269E8371FC99C4C9EB76FE9B33737D
:1007D0000F6FACE03CA25F20C6CAA60D162930857B
:1007E000519A8DCF31D2635233E53D38B13C4E4200
:1007F0005029C6F2E1A3158FD0D2A41A118CB7727A
:10080000853CC3879F14C78E39F09F946AD6260013
:100810007A0D625ACA0135AE46FC902954E3B1D72D
:10082000D3CDD34325C22F345B2AA2EEC2767168A2
:10083000CD7AAED4BE5C2461E249000047D45CEAC4
:100840006785F4E90001C701AC020000B2A1E1F63E
:10085000B1C467FB020000000004595A11241FBEF6
:10086000CFEFDAE0DEBFCDBF04B603FE18C0809143
:10087000D9039091DA03A091DB03B091DC038730B8
:10088000904BA740B04B59F41092D9031092DA0361
:100890001092DB031092DC03E0E0F8E3099523E01B
:1008A000A2EAB1E001C01D92A93DB207E1F711E053
:1008B000A0E0B1E0E0E5F7E602C005900D92A23AB3
:1008C000B107D9F70E94D7290C944D330C9400003E
:1008D0009C01FB019A9581159F4120F5D901AA271A
:1008E000B270832F8170B90166277470A901442703
:1008F000587034FF0DC08295807FAB2B09F0806269
:10090000672B09F08064452B09F0806809950895EC
:10091000AB2B09F08260672B09F08460452BB1F3A3
:100920008860F4CF80E0F2CF282F92959F709630A8
:1009300091F060F4925F9F70923030F481E0203F3C
:1009400079F030F4283E30F080E008959A5FF3CFDC
:10095000243FD1F7089581E0283EE0F3213FF9CF0D
:100960000895292F953098F5853088F590E035E089
:10097000239F800D911D1124282F277041E001C075
:10098000440F2A95EAF723E0969587952A95E1F793
:10099000FC01EE0FFF1FE80FF91FE25DFC4F20E0A6
:1009A00030E070E05191DF011197CB01022E02C0BF
:1009B000969587950A94E2F781708195852784231F
:1009C00085278C932F5F3F4F2330310559F70895CA
:1009D000292F953078F5853068F590E035E0239F34
:1009E000800D911D1124682F677023E096958795DF
:1009F0002A95E1F7FC01EE0FFF1FE80FF91FE25DFA
:100A0000FC4F40E050E080E0219130E0062E02C033
:100A1000369527950A94E2F721703327042E01C0FA
:100A2000220F0A94EAF7822B4F5F5F4F4330510544
:100A300059F7089580E0089580917A0390917903A1
:100A4000981301C008958F5F8770FACFE6EAF1E04E
:100A50009191891303C0DF0111971C9291E0EC3A48
:100A6000F907B1F70895982F909580917103892324
:100A700080937103089580917003882331F0109260
:100A8000700310922D0310922C0308959091D503BA
:100A900092FF06C0282F28712830F9F4877F8460E0
:100AA00093FF06C0282F28712831F1F4877E8461D6
:100AB0002091D60320FF06C0382F38713830D9F482
:100AC000877F816021FF06C0282F28712831D1F44B
:100AD000877E816194FD877E0895282F24712430BC
:100AE000F9F68B7F8860DCCF282F2471243101F741
:100AF0008B7E8861DDCF382F3171313019F78E7FD1
:100B00008860E0CF282F2171213121F78E7E886106
:100B1000E1CFCF93DF93EC01803E910509F47AC0D9
:100B200090F58133910509F4C0C088F489329105AC
:100B300009F4B0C08A32910509F4BEC0019709F4E6
:100B40007AC0CE010497813A9105D0F474C08933FC
:100B5000910509F453C08238910509F44FC08533DB
:100B6000910509F492C0883A910530F4853A9105CF
:100B700040F3A497D0645FC08F3B910508F4F3C0A5
:100B8000C0E0D0E058C0843E910509F463C0B0F4E1
:100B9000823E910509F44BC0833E910509F44FC094
:100BA000C11580E4D80708F0E9C0C83ED10508F4B3
:100BB00042C0CE019A958F3F9E41C7CF863E910598
:100BC00009F453C0873E910509F454C0811523E50B
:100BD000920708F078C0811542E5940708F0E6C056
:100BE000811550E59507E0F2811561E5960708F457
:100BF000C8C0D82FCC27C16FD06A1DC08091D50343
:100C00008370811103C18091D60383FF14C0C9E2B0
:100C1000D0E011C08091D50380FD44C09091D603EF
:100C200090FF09C0C3EED0E084FDAACF04C080913C
:100C3000D50382FDF7CFCE01DF91CF91089580914A
:100C4000D50382FDE0C09091D60390FDDFC084FF04
:100C5000F2CF96CF8091D60381FFEDCF8091D5035F
:100C6000C7EED0E084FD8CCFE6CF8091D50383FD25
:100C7000F7CFE1CF8091D50383FDCBC09091D60310
:100C800091FFE5CFC4EED0E0D6CF8091D50385FFAC
:100C9000D2CFBDCF8091D50385FDBEC08091D60354
:100CA00083FFC9CFC9E3D0E0C6CF8091D50386FFCB
:100CB000C2CFCAE2D0E0BFCF8091D50386FFBBCFC1
:100CC000C1E3D0E0B8CF811549E59407A8F58115B7
:100CD00058E5950708F084C0811565E59607D8F4B6
:100CE000C11584E5D80708F076C08C2F86958695C7
:100CF00020E2829FC0011124C370DD2721E030E093
:100D0000A90102C0440F551FCA95E2F7EA01C82B9A
:100D1000D92BDA6890CF95558F3F910511F008F0E7
:100D20002FCF8C2F0E944605C82FD0E0DC2FCC2778
:100D3000CC27DF71D0627FCFC1158AE5D80708F4D0
:100D400054C0CE0190568115904208F019CF8D2FD6
:100D50008F710E94460590E0982F882788279F7101
:100D60008C2BEC01E7CFC85AD0E0CC0FDD1FCD585B
:100D7000DE4F0990D881C02DD4645DCFDF70D06A7A
:100D80005ACF86958695837040E2849FC0011124D6
:100D9000C37021E030E0A90102C0440F551FCA957D
:100DA000E2F7EA01C82BD92BDD6845CF86958695F9
:100DB00050E2859FC0011124C370DD2721E030E09F
:100DC000A90102C0440F551FCA95E2F7EA01C82BDA
:100DD000D92BDC6830CFDC2FCC27C46FD06A2BCF67
:100DE000D82FCC27C06FD06A26CF8C2F8F700E944F
:100DF000460534E0D695C7953A95E1F7CF709C2F1C
:100E0000EC01D06918CFC2EED0E015CFC0EED0E033
:100E100012CFC6EED0E00FCFC5E3D0E00CCF80E01C
:100E20000895F894E82FE295EF70F0E041A18F70FB
:100E300021E030E0B90102C0660F771F8A95E2F722
:100E4000CB01962F9095942391A392A1892B82A3F5
:100E5000789408950895A0E0B0E0E1E3F7E00C9401
:100E6000C231E901E42FF0E0E554FA4F61110BC003
:100E7000E4919E2F8E2F8983E8839A83CDB7DEB7C6
:100E8000EAE00C94DE31282F30E0062F10E0F491D8
:100E9000EF2F86E0829F6001839FD00C1124EE2407
:100EA000EA94F12CC601B7010E947631220F331F5C
:100EB00045E5469FC001479F900D1124281B390B23
:100EC000822F880F280FC701801B910BF89FA0016C
:100ED000F99F500D1124952F209F5001219FB00C98
:100EE0001124AB2CBB24D701AA19BB095D01FA9DC3
:100EF000D001FB9DB00D11248B2F5701A21AB10810
:100F00009501209F5001219FB00C309FB00C1124FF
:100F1000AB2CBB24EA18FB08FE9D9001FF9D300D11
:100F2000112463307105C9F01CEFC11613E0D1061E
:100F300050F46130710509F49ECF6230710589F07B
:100F40008E2FE32F98CF6430710571F066307105F4
:100F5000B9F3E52F9B2F8F2F8ECFEB2F852F9F2F50
:100F60008ACF852F932F87CF832FE52FF8CF8091BE
:100F70006B03823060F48170826080936B03809198
:100F80006E03873918F086E980936E0308958235E1
:100F9000B0F381708065F1CFFA01882311F00995D3
:100FA0000895FB01FCCF8091B1039091B20390931F
:100FB000200180931F010895A0E0B0E0E2EEF7E089
:100FC0000C94C031FB018FEF9FEF4430510508F4C2
:100FD00065C04091D50341FB882780F990E0880FD8
:100FE000991F42FBAA24A0F8B12CAA0CBB1CAA0C86
:100FF000BB1C8A299B2940FB882480F8912C8829D6
:10100000992943FBCC24C0F8D12C53E0CC0CDD1C37
:101010005A95E1F78C299D2944FBEE24E0F8F12C48
:1010200064E0EE0CFF1C6A95E1F78E299F2945FBD1
:10103000002700F910E075E0000F111F7A95E1F725
:10104000802B912B46FB222720F9C22F20E0D22FA4
:10105000A6E0CC0FDD1FAA95E1F78C2B9D2B47FB5B
:10106000442740F920E8429FA0011124842B952BAE
:101070002091D603322F3170932B26952170B22FF9
:10108000BB0FA0E08A2B9B2B092E000CAA0BBB0BDD
:1010900080839183A283B38380E090E0CDB7DEB7F5
:1010A000ECE00C94DC31AC0123E0969587952A9511
:1010B000E1F78E719927FC01EF52FE4F0190F0810C
:1010C000E02D4F70552721E030E002C0220F331F82
:1010D0004A95E2F7662341F0E22BF32B8F529E4FA5
:1010E000DC01ED93FC93089520953095E223F323E2
:1010F000F5CFE0912203F0912303309729F001907E
:10110000F081E02D0995089580E008952091CF01A8
:101110003091D0012817390771F09093D001809356
:10112000CF01E0912203F0912303309721F0068054
:10113000F781E02D099508952091CD013091CE01E0
:101140002817390771F09093CE018093CD01E0917B
:101150002203F0912303309721F00084F185E02DE4
:10116000099508959C01FC0132968FEF90E0419122
:10117000461751F08F3F19F4411101C0892F9F5F2D
:101180009630A9F78F3F09F40895280F311D87FD88
:101190003A95F901628308952FB7F8948091C901B7
:1011A0009091CA01A091CB01B091CC012FBF0895BD
:1011B0008091B3039091B403892B91F00E94CC08E5
:1011C00020912C0330912D03AC01421B530B9A014B
:1011D00081E04091B3035091B4032417350708F41C
:1011E00080E081700895CF93C82F8091D60382FF4D
:1011F0000CC0809170038C1741F00E94CC08909332
:101200002D0380932C03C0937003CF910895A4E025
:10121000B0E0EDE0F9E00C94CA318FB7F89420917A
:10122000C9013091CA014091CB015091CC01298371
:101230003A834B835C838FBF69817A818B819C81E8
:101240002496E2E00C94E6318091C8010895089557
:101250000895FC019B018091BB019091BC01861710
:10126000970740F0672B29F48091E8008E778093F0
:10127000E800C90140E0009741F4411106C08091A7
:10128000E80082FF2FC080E00895209121032223EF
:10129000A9F12530A9F12091E80023FD2DC020916E
:1012A000E80022FDECCF2091E80020FFE4CF309150
:1012B000F3002091F200009719F02830310558F022
:1012C00041E02830310509F040E02091E8002E7718
:1012D0002093E800D0CF41914093F10001972F5F18
:1012E0003F4FE9CF80912103882341F0853041F0C1
:1012F0008091E80083FFC3CF81E0089582E00895E4
:1013000083E008958091B50187FF13C08091E800C4
:1013100082FF06C08091E8008B778093E80004C0CC
:10132000809121038111F2CF0895809121038823B8
:10133000D9F38091E80080FFF8CF8091E8008E77A4
:10134000ECCF2091E4003091E50095E6A901809171
:10135000EC008170882331F08091E80080FF06C0A6
:1013600080E008952091E80022FD1BC080912103B8
:10137000882391F0853091F08091EB0085FD10C0BD
:101380002091E4003091E5004217530701F391509A
:101390009111DCCF84E0089582E0089583E0089500
:1013A00081E00895E8EDF0E080818E7F80831092E7
:1013B000E2001092DA001092E100A0EEB0E08C9111
:1013C00081608C9380818F77808319BCA7EDB0E01A
:1013D0008C918E7F8C9380818F7E80831092B4015C
:1013E0000895EF92FF920F931F93CF938C017B018F
:1013F0000E94A109C82F81110EC08091E80085FDCF
:1014000011C08091E8008E778093E8000E94A109C6
:10141000882399F3C82F8C2FCF911F910F91FF90A4
:10142000EF900895F80180818093F100F1E0EF1AC8
:10143000F108E114F10479F30F5F1F4FDECF982F0D
:10144000E42FE2709093E900891308C0762F242FCF
:1014500050E0E11111C091E0980FF4CF7091EC00D1
:101460002091ED005091F00021FD06C09F5F973064
:1014700049F78093E90008953091EB003E7F309367
:10148000EB003091ED003D7F3093ED003091EB00AB
:1014900031603093EB007093EC002093ED0050939B
:1014A000F0002091EE0027FDE1CF0895A0E0B0E02C
:1014B000ECE5FAE00C94C431C8EDD0E088818F7E71
:1014C0008883E7EDF0E080818160808384E082BFE3
:1014D00081E08093B40188818E7F888302EE10E0E2
:1014E000F80110821092DA0081EEC82ED12CF6019C
:1014F000108288818F77888388818068888388813B
:101500008F7D888319BC109221031092B301109231
:1015100008031092B20190EEE92EF12CF7018081C0
:101520008B7F808388818160888342E060E080E0F7
:101530000E941F0AF60180818E7F8083F8018081DE
:1015400081608083808188608083F70180818E7FC5
:101550008083888180618883CDB7DEB7E8E00C9412
:10156000E0319C012115310509F408958FE99FE0D0
:101570000197F1F700C0000021503109F3CF81E05D
:101580008093E00080E28093D8001092C9008FE140
:101590009EE40197F1F700C0000087E090EBDC01CA
:1015A0008093D9039093DA03A093DB03B093DC0319
:1015B00088E19CE00FB6F894A895809360000FBE78
:1015C00090936000FFCFCF93DF93D82FC92F81E096
:1015D0008093E9008FEF9091E80095FD07C095EDAD
:1015E0009A95F1F7000081508111F5CF8091E800C4
:1015F00085FD03C0DF91CF91089540E050E068E0A1
:1016000070E08D2F9C2F0E94F1098091E8008E7769
:101610008093E80088E0ED2FFC2FA0ECB1E0019072
:101620000D928A95E1F7E6CF8093BD017093BF01DB
:101630006093BE01809121038430F9F48093E90026
:101640008FEF9091E80095FD07C095ED9A95F1F721
:10165000000081508111F5CF8091E80085FF0DC019
:1016600040E050E063E070E08DEB91E00E94F10912
:101670008091E8008E778093E8000895BC0183E0B4
:101680000E94140B0895BC0184E00E94140B08957D
:10169000CF93682FC92F84E090E00E94B6326C2F60
:1016A00082E290E00E94B632CF910895882381F0C3
:1016B00062EE83E290E00E94B63263EC84E290E056
:1016C0000E94B6326AE285E290E00E94B632089546
:1016D0006FEF83E290E00E94B6326FEF84E290E019
:1016E0000E94B6326FEFEFCF1F93CF93DF93962F09
:1016F000122F632F8830D8F49530C8F44530B8F4F1
:10170000C42FD0E0CC0FDD1F2AE0929FC00DD11D69
:10171000112492E3899FC00DD11D1124CE0187961B
:101720000E94B632612FCE0188960E94B632DF91B8
:10173000CF911F910895CF93DF93CBEDD1E060E07F
:10174000CE010E94B6322196C11584E0D807B9F7C0
:10175000DF91CF910895CF9384E090E00E94A23270
:10176000C82F82E290E00E94A232982F8C2FCF9156
:10177000089583E290E00E94A232823E89F484E2DE
:1017800090E00E94A232833C59F485E290E00E94EE
:10179000A23291E08A3209F090E0892F8170089599
:1017A00080E0FCCF0F931F93CF93DF93883030F509
:1017B000653020F5453010F5C42FD0E0CC0FDD1F8B
:1017C0002AE0629FC00DD11D112432E3839FC00D1A
:1017D000D11D1124CE0187960E94A232082F10E05D
:1017E000102F0027CE0188960E94A2329801282B44
:1017F000C901DF91CF911F910F91089580E090E092
:10180000F8CF462F672F20911F0330912003232B01
:1018100091F4703F39F4403F71F48091F10190915F
:10182000F2010895883038F4753028F4453018F402
:101830000E94D20B089580E090E00895A0E0B0E00F
:10184000E4E2FCE00C94C5317C01009174038091CA
:101850007303082BC7E0D0E010E0C8010C2E02C0D3
:10186000959587950A94E2F780FD09C02197A8F71E
:10187000D12C8D2DCDB7DEB7E7E00C94E131DC2E15
:10188000B7018C2F0E94010C0E948905019771F30A
:10189000F0CFCF93DF93D82FC92F0E941E0C6D2F4E
:1018A0007C2F0E94010C0E948905DF91CF91089541
:1018B000FC0183819481892B61F08181908189234E
:1018C0008F3F39F0808191810E94490C0E949404DD
:1018D000089580E008951F93CF93DF93182FD92F99
:1018E000662399F0442389F00E941E0CC82F682FAC
:1018F000812F9D2F0E94B104612F7D2F8C2F0E947C
:10190000010CDF91CF911F9108950E94E804C82F28
:10191000F3CF0F931F93CF93DF9301EB13E0C7EB4C
:10192000D1E0CE010E94A232F80161918F018617A9
:1019300019F0CE010E94B6322196CB3DF1E0DF07CF
:1019400081F7DF91CF911F910F9108950F931F930E
:10195000CF93DF9301EB13E0C7EBD1E0CE010E9400
:10196000A232F80181938F012196CB3DF1E0DF0790
:10197000A9F7CAEED6E0FE0185919491009711F087
:10198000FC0109952C96F7E0CA37DF07A1F7DF9134
:10199000CF911F910F9108958091710390917503DC
:1019A000892B8093A40180917003882309F1809191
:1019B000B3039091B403892B29F00E94D8088111B8
:1019C0000E943B058091A40190917003892B809324
:1019D000A40120E086EA91E0FC01308101963111FA
:1019E0002F5F31E08C3A9307B9F721110E943B0534
:1019F00048E050E064E273E084EA91E00E948532BE
:101A0000892BA9F088E0E4EAF1E0A4E2B3E00190D8
:101A10000D928A95E1F7E0912203F091230330972C
:101A200031F00280F381E02D84EA91E00995089578
:101A3000882339F090917103892B809371030E9460
:101A4000CC0C0895882339F090917503892B8093ED
:101A500075030E94CC0C0895882321F00E94330561
:101A60000E94CC0C0895882341F0809590917503D5
:101A70008923809375030E94CC0C0895CF93C82FBF
:101A80008823A9F08CEF8C0F813A98F4E6EAF1E014
:101A90008CEA91E02191C217B1F18E179F07D1F71F
:101AA0006C2F84EA91E00E94B2080E94CC0CCF9186
:101AB000089580E28C0F883068F4C77021E030E030
:101AC00001C0220FCA95EAF780917103822B80939F
:101AD0007103EBCF8BE58C0F833038F42C2F24521D
:101AE000330BC9010E948608E2CFC85AC731F8F605
:101AF000EC2FF0E0EE0FFF1FED58FE4F808191813B
:101B00000E949C08D4CF8C2F0E9426050E94CC0CEA
:101B1000C7CFCF93DF93EC01805E9109089720F047
:101B200062E27DE0209711F468E17DE0CE010E9441
:101B300068048C2F0E943E0DDF91CF91089566239B
:101B400029F0209175032260209375039C01305683
:101B5000211540E2340720F0305E2115304108F4B1
:101B600099270E94890D0895882339F19CEF980FD9
:101B7000913A28F40E9426050E94CC0C089590E228
:101B8000980F983050F4877091E001C0990F8A95B2
:101B9000EAF7892F0E943305EFCF9BE5980F93302A
:101BA00028F480E090E00E9486080895885A8731E2
:101BB00020F480E090E00E949C080895CF93DF938A
:101BC000EC010E94B40DCE01805E9109089720F0CF
:101BD00063E37DE0209711F46CE27DE0CE010E948A
:101BE0006804DF91CF9108950F931F93CF93C82F6F
:101BF0000091D1031091D203893321F00091CF03DA
:101C00001091D0038C2F0E943E0D0115110539F45F
:101C10008C2F0E94B40DCF911F910F9108958FE9E1
:101C20009FE00197F1F700C0000001501109EDCFCE
:101C30000F931F93CF93DF93C62FD42F122F882398
:101C4000A9F0609365030E94CC089093B001809343
:101C5000AF01C77081E001C0880FCA95EAF70E9402
:101C6000180DDF91CF911F910F9108958091650319
:101C700068133DC02091AF013091B0014FB7F89487
:101C80008091C9019091CA01A091CB01B091CC0182
:101C90004FBF821B930B883C910548F56D130CC018
:101CA000812F0E94F40DD77081E001C0880FDA9572
:101CB000EAF70E942C0DD5CFC77001E0802F01C03C
:101CC000880FCA95EAF70E942C0D80E28D0F8830AC
:101CD00050F48D2F877001C0000F8A95EAF7802F8E
:101CE0000E94180DDDCF812F0E94F40DBACFC7706E
:101CF00081E001C0880FCA95EAF7DBCFA0E0B0E031
:101D0000E4E8FEE00C94C531EC019881992309F4D4
:101D10009CC09130E1F599818A81913021F422961D
:101D20000E94F40D05C0923029F422960E943E0DC7
:101D30002196EBCF933021F422960E94B40DF8CF78
:101D4000943011F02196F4CF229620E030E06AE042
:101D5000AE014F5F5F4F8053990B8A30910560F061
:101D60002115310529F38FE99FE00197F1F700C0B4
:101D7000000021503109F4CF629FF001639FF00D04
:101D800011249C012E0F3F1F8981EA01E1CFE92F29
:101D9000F0E0ED51FE4FD490292F269526952695FB
:101DA00030E0F901ED52FE4F84919770F901ED5347
:101DB000FE4FE490F12C092E02C0F594E7940A94AA
:101DC000E2F741E0E422FF24F901ED54FE4F0491D3
:101DD00010E0092E02C0159507950A94E2F70170EC
:101DE0001127E82FF0E002C0F595E7959A95E2F704
:101DF000E0FD0CC0E114F104A1F48D2D0E94F40D5E
:101E00000115110509F494CF8CE28ACF81EE0E946E
:101E10003E0DE114F10479F48D2D0E94F40D81EE54
:101E200007C086EE0E943E0D8D2D0E94F40D86EEB9
:101E30000E94B40DE5CF86EE0E943E0D8D2D0E94CE
:101E4000F40D86EE0E94B40DEACFCDB7DEB7E7E021
:101E50000C94E13180E090E00E94860880E090E000
:101E60000E949C08109275030E94CC0C0895109259
:101E70007103E6EAF1E086E0DF011D928A95E9F759
:101E80000E942A0F08950E94370F2FEF84E39CE0F1
:101E9000215080409040E1F700C0000088E19CE0C4
:101EA0000FB6F894A895809360000FBE90936000E1
:101EB000FFCFCF92DF92EF92FF92FB018FEF9FEF68
:101EC0004430510508F47FC0C080D180E280F380A7
:101ED0000E94370FD701C601B695A79597958795AC
:101EE0008170282F220FD701C60181709927AA2758
:101EF000BB27822BB701A60132E0769567955795EF
:101F000047953A95D1F74170440F440F842BB701A0
:101F1000A601E3E07695679557954795EA95D1F741
:101F20004170440F440F440F842BB701A601F4E025
:101F30007695679557954795FA95D1F741704295F3
:101F4000407F842BB701A601A5E07695679557954C
:101F50004795AA95D1F741704295440F407E842B56
:101F6000B701A601B6E07695679557954795BA955E
:101F7000D1F741704295440F440F407C842BB70148
:101F8000A60197E076956795579547959A95D1F76D
:101F9000479544274795842B8093D503D1FA88270A
:101FA00080F9880F9D2D9170892B9091D6039C7F8D
:101FB000892B8093D6038091D5039091D6030E94FC
:101FC000480B80E090E0FF90EF90DF90CF90089575
:101FD000E1EBF3E0128E138E8FEA90E09183808321
:101FE00085E0848F28E833E13383228322E330E0E5
:101FF000378B268B28EC30E0318F208F158E178E93
:10200000168E20E530E031A320A382A30E94890C24
:102010000E94370F1092D6031092D50380E084609F
:102020008093D60380E094E00E94480B0E94A60CA7
:1020300008958F929F92AF92BF92CF92DF92FF92BC
:102040000F931F93CF93DF938090210190902201F3
:1020500081E090E09093220180932101A12CB12C8A
:1020600000E0650110E013C0FE01259134914F2D71
:10207000612F802F0E94740B2296F39485E0F81252
:10208000F3CF85E0C80ED11C1F5F153039F0E60193
:10209000CC0FDD1FCA5DDC4FF12CE6CF0F5F89E16D
:1020A000A80EB11C0830E9F60E94E80F90922201B8
:1020B00080922101DF91CF911F910F91FF90DF90CE
:1020C000CF90BF90AF909F908F90089580E00E9436
:1020D000560B60E086E290E00E94B6320E94191032
:1020E0000E949B0B81E00E94560B0895AAE2B0E08B
:1020F000ECE7F0E10C94C93185EB91E0FC0101962D
:102100002091F100208321E08D3B9207B9F7809167
:10211000B601893009F456C0C8F4823009F4B3C05E
:10212000833009F482C0813071F18091E80083FF2F
:10213000E7C08091B5019091B6019A3008F0E0C0F7
:10214000E92FF0E0E15BFC4C0C949E318A3009F4FD
:1021500089C08B3051F78091B501813231F7809180
:10216000B9019091BA01892B01F78091E800877F2E
:102170008093E8000E9482098091B7018093040156
:102180000E94370FD2CF8091B501813A71F68091CC
:10219000E800877F8093E8008091B9019091BA01AF
:1021A000892B61F060E080E090E070E00E942909F6
:1021B0008091E8008B778093E800B7CF68E080ECEF
:1021C00091E0F3CF8091B501813209F0AECF8091DB
:1021D000B9019091BA018D7F892B09F0A6CF80912A
:1021E000E800877F8093E8008091E80082FF18C0B4
:1021F0009091F3008091F200029731F48091F10008
:10220000813011F0863021F48091F1008093C80173
:102210008091E8008B778093E8000E94820985CF47
:10222000809121038111E0CF80CF8091B501813A67
:1022300009F07BCF8091B9019091BA01892B09F007
:1022400074CF8091E800877F8093E8008091E80058
:1022500080FFFCCF809104018093F1008091E80021
:102260008E77D9CF8091B501813209F05ECF809110
:10227000E800877F8093E8000E9482098091B8017E
:102280008093B10152CF8091B501813A09F04DCFD1
:102290008091E800877F8093E8008091E80080FFCC
:1022A000FCCF8091B101D8CF803889F0823841F5D8
:1022B0008091B9018F70873018F58093E900809183
:1022C000EB0085FB882780F91092E90006C0809119
:1022D000B20190910803911182609091E800977F7C
:1022E0009093E8008093F1001092F1008091E80053
:1022F0008E7723C0811116C08091B701813011F112
:102300008091E80083FF0AC08091E800877F809376
:10231000E8008091EB0080628093EB00AA96E3E0F6
:102320000C94E531823061F78091B701882389F000
:102330001092E9008091E800877F8093E8000E9476
:102340008209DECF81E0933009F080E080930803BA
:10235000EFCF8091B9018F702FEF280F263080F6D4
:102360008093E9002091EB0020FFE2CF933031F41D
:102370008091EB0080628093EB00DACF9091EB00CC
:1023800090619093EB0021E030E0A90102C0440F7E
:10239000551F8A95E2F74093EA001092EA00809177
:1023A000EB008860E8CF8111ABCF1091B7011F77A8
:1023B0008091E3008078812B8093E3008091E80096
:1023C000877F8093E8000E9482098091E80080FF67
:1023D000FCCF8091E30080688093E30083E01111DB
:1023E00001C082E0809321038BCF8058823008F0B7
:1023F00087CF4091B7015091B8014C3D83E0580719
:1024000099F583E08A838AE289834FB7F894DE01E5
:10241000139620E03EE051E2E32FF0E050935700A6
:10242000849120FF03C082958F703F5F8F708A3048
:10243000C8F0895C90E08D939D932F5F243161F704
:102440004FBF8091E800877F8093E8006AE270E0E8
:10245000CE0101960E9429098091E8008B77809334
:10246000E8004ECF805DE6CF8091B9019091BA012E
:10247000252F33272330310509F44AC078F5213060
:10248000310509F483C08BE590E0E3E6F2E0223009
:10249000310509F035CF2091E800277F2093E8002F
:1024A0002091BB013091BC018217930708F49C0175
:1024B00040E02115310509F06EC041116CC08091DA
:1024C000E80082FDC9CF80912103882329F285305D
:1024D00019F28091E80083FFF2CFBECF213231059F
:1024E00009F445C02232310509F00ACF8330910545
:1024F00008F006CFFC01EE0FFF1FEC5CFE4F0190D1
:10250000F081E02D8F5C9E4FDC018C9190E010C03B
:10251000CA019927423019F18330910568F4892B5B
:10252000B1F4E2E2F3E0E4918E2F90E0E2E2F3E036
:10253000009709F4E5CEAFCF039709F0E1CEE0EDC7
:10254000F2E0E4918E2F90E0E0EDF2E0F1CFE6E0F2
:10255000F3E0E4918E2F90E0E6E0F3E0E9CFEEEED9
:10256000F2E0E4918E2F90E0EEEEF2E0E1CF8330E6
:10257000910508F0C5CEFC01EE0FFF1FE65CFE4F93
:102580000190F081E02D89E090E085CF82E190E03C
:10259000EEEBF2E080CF80912103882309F45CCF39
:1025A000853009F459CF8091E80083FD55CF8091A3
:1025B000E80082FD84CF8091E80080FF7ACF90917F
:1025C000F3008091F2002115310519F08830910552
:1025D00050F041E0089709F040E08091E8008E77E4
:1025E0008093E80066CF44914093F10031962150EA
:1025F00031090196E8CF803809F082CE8091E80059
:10260000877F8093E8008091B3018093F1006ECEC4
:10261000811176CE1091B701123008F071CE809101
:10262000E800877F8093E8001093B3010E9482093D
:102630001123D1F084E08093210342E061EC81E03A
:102640000E941F0A42E261EC84E00E941F0A42E2FB
:1026500061EC82E00E941F0A42E260EC83E00E948B
:102660001F0A809121034CCE8091E30087FDE2CFC9
:1026700081E0E1CF809373030E942A0F0895809137
:102680002301877F80932301909175039D7F909311
:10269000750384FF08C08F7E8093230180917103AE
:1026A0008260809371038091230185FF08C08F7D34
:1026B00080932301809171038062809371030E9453
:1026C000CC0C0895CF92DF92FF920F931F93CF937C
:1026D000DF93EC018B01F42E8091230182FF6BC00C
:1026E000C0905D03D0905E03CC16DD0619F02097F4
:1026F00009F061C0809123018B7F80932301C1E0A9
:1027000081FD10C080915B0390915C039801281BB0
:10271000390BC1E080911F019091200128173907E2
:1027200008F4C0E0C17080912301C0FB81F980935F
:1027300023016C2FC6010E9453088091710381FF11
:1027400008C08091230180618093230182E00E9470
:1027500033058091710385FF08C080912301806259
:102760008093230180E20E9433056C2FC6010E94F2
:102770009F0DFF2031F08091CC0385FF02C086FFC2
:1027800033C08091CF039091D0030E94B10A809111
:102790005D0390915E039C013056211540E23407A1
:1027A00020F0305E2115304108F499270E94DE0D9B
:1027B0000E943F1315C0CE019056811520E292076A
:1027C00020F0905E81159041B8F4CE0199270E94C7
:1027D000DE0D80915D0390915E03C817D90741F328
:1027E00010935C0300935B03DF91CF911F910F91D6
:1027F000FF90DF90CF900895CE01E9CF0F931F9304
:10280000CF93DF938B01D82FC92F0E94B707A80160
:102810006D2F7C2F88E090E00E94C832DF91CF912D
:102820001F910F910895EBE6F3E083E0808311821E
:102830008FEF828386E98383148263E070E08FEFF9
:1028400096E90E94FE130895A4E0B0E0EAE2F4E104
:102850000C94CA3180916F03833018F48F5F80939A
:102860006F0380916B0390916C03A0916D03B09105
:102870006E03BC01CD010E94FE132496E2E00C948D
:10288000E631A4E0B0E0E7E4F4E10C94CA318091D1
:102890006F03882319F0815080936F0380916B033D
:1028A00090916C03A0916D03B0916E03BC01CD01BA
:1028B0000E94FE132496E2E00C94E63168EE7EEF6F
:1028C00080E090E00E94D43260E082E090E00E94DC
:1028D000B63260E083E090E00E94B632109273035B
:1028E00060E084E090E00E94B63264E082E290E032
:1028F0000E94B63260E085E090E00E94B63260E06F
:1029000086E090E00E94B6326FEF87E090E00E9490
:10291000B63240E050E0BA0188E090E00E94C83250
:1029200060E08DE090E00E94B63240E050E0BA01F5
:1029300088E190E00E94C83260E087E190E00E9468
:10294000B63240E050E0BA018CE190E00E94C8321B
:1029500060E070E080E290E00E94D43240E050E01D
:10296000BA0188E190E00E94C83280E00E94560BD4
:102970000E94661040E050E0BA018FE090E00E94B3
:10298000C83240E050E0BA0183E190E00E94C832D2
:102990000895A5E0B0E0EFECF4E10C94BD31809136
:1029A0006B0380FD0AC0EAE9F2E011821082128214
:1029B000339622E0ED3FF207C1F780900303909039
:1029C00004038114910409F465C080910703811107
:1029D00061C050906E03A12CB12C66246394712CBD
:1029E0002091690330916A03C3010A2C02C0880F49
:1029F000991F0A94E2F782239323892B09F43FC09D
:102A0000F401E590F490E114F10409F443C045E0C9
:102A100050E0B701CE0101960E946F3289818F3F4D
:102A200071F12A8190E0280F392F311D22323105B2
:102A300014F021E230E06901CC0CDD1CC20ED31E83
:102A4000960126563D4F69018C01000F111F080F9A
:102A5000191F06561D4F0C151D0520F055E0E50EFB
:102A6000F11CD5CF452D36E9351508F446E9980116
:102A70006C818B810E942B070D5F1F4FECCF82E092
:102A8000880E911C9FEFA91AB90A29E0A216B10479
:102A900009F0A6CF559A3BB13F7D2BB120624FB7CD
:102AA000F8948AE992E0FC010196508168E02BB924
:102AB000000000C057FF3BB9550F000000C000C028
:102AC00000C03BB900C06A9591F752E08D3F950771
:102AD00051F74FBF8FE594E00197F1F700C0000078
:102AE0002596EFE00C94D931EF92FF921F93CF938C
:102AF000DF93EC018AE9E82E82E0F82E10E04091A5
:102B00006E03473908F046E98C81970160916D03A7
:102B1000810F0E942B07195F83E0E80EF11C173E1E
:102B200071F70E94C9149A818C8190FF08C08F5F51
:102B30008C83DF91CF911F91FF90EF90089581508A
:102B4000F7CFA0E0B0E0E7EAF5E10C94C431FC0176
:102B50008281DD24D39480FF02C0DD24DA940AE967
:102B600012E0C0E0D0E0F80111821082128294E0FD
:102B7000E92EF12CC12C809199028C0D8232ECF15E
:102B800061E20E946831892F082E000C990B8C1786
:102B90009D07A9F480916E038E9DA0018F9D500D1D
:102BA00011245595479555954795473908F046E9BD
:102BB000980160916D0380916C030E942B07CD0CEE
:102BC000F1E0EF1AF108E114F104A9F621960D5F86
:102BD0001F4FC132D10539F60E94C9148091990264
:102BE00091E0D9120EC0882391F081508093990210
:102BF000CDB7DEB7E8E00C94E03187FFC5CF8F5D3D
:102C0000C3CF90E00196BE010E948A31EFCF80E2EF
:102C1000EDCF0F931F93CF93DF93CAE9D2E0FE016C
:102C2000118210821282339682E0ED3FF807C1F7DD
:102C300000E010E080919802082E000C990B081714
:102C40001907A4F180910701082E000C990B801739
:102C5000910764F140916E03473908F046E99E01FF
:102C600060916D0380916C030E942B070F5F1F4FD3
:102C7000239601321105F1F60E94C91480910601D4
:102C800090919802980F9093980220910701280F35
:102C900020930701121614F490321CF08195809352
:102CA0000601DF91CF911F910F910895198218822B
:102CB0001A82DCCFAEE0B0E0E0E6F6E10C94C4317D
:102CC0008D879E87AD85BE8514961C91212F30E09F
:102CD000D9010E943E339B01AC010E9409336983F4
:102CE0007A838B839C83E0E2F0E0E11BF109A5E5A8
:102CF000B0E09B01AC010E94093369877A878B871A
:102D00009C879F01DF010E94AB319B01AC010E94B7
:102D100014336D837E838F8398879B01AC018981F7
:102D20009A81AB81BC81280F391F4A1F5B1F6985BF
:102D30007A858B859C850E941C33022F30E00A32F5
:102D4000E0F5C901880F991F820F931F959587950C
:102D5000182F10953AE9C32E32E0D32EF12C85E5D9
:102D6000E82EE01A8E2DF1FC802F412F173908F044
:102D700046E9960160916D030E942B07F394B3E03E
:102D8000CB0ED11CE1E2FE12EDCF0E94C914AD853D
:102D9000BE8514969C9181E0992319F0903219F424
:102DA0008FEF8093050180910501890FED85FE85E8
:102DB00084832E96E8E00C94E03185E590E0DC0118
:102DC000A21BB30BCD01880F991F8A0F9B1F97FF82
:102DD000BDCF0196BBCF90916B0390FF0CC0EAE989
:102DE000F2E0818360834283339692E0ED3FF907FE
:102DF000C1F70E94C9140895A3E0B0E0E2E0F7E152
:102E00000C94CA3190916B0390FF0DC0473908F0C4
:102E100046E99E012F5F3F4F0E942B074B8169813E
:102E20008A810E94EB162396E2E00C94E631CF9360
:102E3000DF93EC01EC81F0E0EA54FB4F4491EBE6C8
:102E4000F3E0628181810E94FC168C818F5F8C830C
:102E5000DF91CF910895CF93DF93EC01EBE6F3E0A0
:102E6000438162818C810E94FC168C818F5F8C83F0
:102E7000DF91CF910895A7E0B0E0E1E4F7E10C9491
:102E8000BD31E82E762EF42E622E90916B0390FFCA
:102E900030C0E92FE695AE2FB0E0A05CBE4F8C911C
:102EA000809367039E7F923041F586E9841708F48A
:102EB00046E99E012F5F3F4F672D8E2D0E942B0705
:102EC0004B8169818A810E94EB16E0926C037092BB
:102ED0006D03F0926E03662061F080916B03909118
:102EE0006C03A0916D03B0916E03BC01CD010E94F3
:102EF000FE132796EFE00C94D931823019F4F0904C
:102F00006E03E3CF863019F4E0906C03DECF893096
:102F1000D9F38931D1F6E9519E2F9170592EE6955A
:102F2000F0E0EA54FA4FE4910E2F10E08AE9C82E3F
:102F300082E0D82EA12CB12C91E2892E912CC501D2
:102F4000B4010E9476318E2D511017C0860F4F2D7F
:102F5000A6E9AF1508F446E99601672D0E942B07F4
:102F6000A00EB11EB3E0CB0ED11C8DEFC81682E0CF
:102F7000D80629F70E94C914A8CF861BE8CFEBE634
:102F8000F3E0818121E043816281885F0E943B17E9
:102F90000895EBE6F3E0818121E04381628188506E
:102FA0000E943B170895EBE6F3E0628128E0620F90
:102FB00008F46FEF21E0438181810E943B1708955F
:102FC000EBE6F3E0628128E0621B08F460E021E0B8
:102FD000438181810E943B170895EBE6F3E0438132
:102FE00028E0420F08F44FEF21E0628181810E94C6
:102FF0003B170895EBE6F3E0438128E0421B08F419
:1030000040E021E0628181810E943B170895A0E0A9
:10301000B0E0EDE0F8E10C94BE31FC018280648008
:1030200081E08483E6EBF4E09490E5E3F5E0E4915D
:10303000C3EFD1E09AE9E92E92E0F92E28E9C22EF9
:1030400022E0D22E32E0A32EBB24B39477247A94CC
:10305000E9190E2F10E082E0881530F080916C03A2
:10306000888380916D038983611019C01B821A8245
:103070004A81473908F046E99701698188810E94B1
:103080002B07259683E0E80EF11CCC16DD0619F718
:103090000E94C914CDB7DEB7EEE00C94DA318B8113
:1030A0008823E9F081508B83789EC00111246C81C4
:1030B00070E00E947631FB01FF27EA54FB4F8491B8
:1030C000E82FE9197E9EC0011124B8010E947631D3
:1030D00080916E03689FB00111247A83C9CF0E944A
:1030E0005F32AC0190916E03969591589A9D900134
:1030F0009B9D300D1124232F3327421753070CF0CB
:10310000B7CF82E0881590F40E945F326FEF70E0D5
:103110000E948A3188830E945F3220916D03269538
:10312000622F70E00E948A31280F29831A828091D1
:103130006E03893C20F088EC8C838B8399CF84319B
:10314000D8F784E1F9CF60916B03669570E04BE0AE
:1031500050E088E091E00E947832892B19F481E0F8
:10316000809368030E94CC0890931203809311030C
:103170000895A4E0B0E0EFEBF8E10C94CA3190912F
:103180006B0390FF34C08823B1F18932B0F58F779B
:10319000880F90916B039170892B80936B0366234A
:1031A00061F080916B0390916C03A0916D03B091DD
:1031B0006E03BC01CD010E94FE1360916B03669506
:1031C00070E04BE050E088E091E00E947832892B7B
:1031D000B1F01092680381E08093140320E04091E5
:1031E0006E0360916D0380916C030E943B172496DF
:1031F000E2E00C94E63181E0CBCF88E2C9CF0E94B7
:10320000A318E9CF80916B0386958F5F893208F010
:1032100081E061E00E94B918089590916B03969542
:103220008FEF890F913009F488E261E00E94B918AC
:10323000089521E030E0A90102C0440F551F8A958E
:10324000E2F7CA012091690330916A036623B1F065
:10325000242B352B30936A032093690380916803F4
:10326000811106C080916B0360E086950E94B918B9
:1032700080916B0380FF0E94C914089580959095FA
:1032800028233923E7CF1F93CF93DF93182F0E9472
:103290007908682F617080E00E941919111121C00E
:1032A00060E081E00E94191960E082E00E94191933
:1032B00060E083E00E94191960E084E00E9419191F
:1032C00060E085E00E94191960E086E00E9419190B
:1032D00060E087E00E941919812FDF91CF911F9143
:1032E0000895C12FD0E0BE0175956795617081E0AA
:1032F0000E941919BE01759567957595679561705E
:1033000082E00E941919BE0123E0759567952A9500
:10331000E1F7617083E00E941919BE0134E07595F0
:1033200067953A95E1F7617084E00E941919BE0132
:1033300045E0759567954A95E1F7617085E00E94D3
:103340001919BE0156E0759567955A95E1F76170B8
:1033500086E00E941919CC0FCD2FCC1FDD0B6C2FEE
:103360006170B7CF0E944319809374030E942A0FA3
:10337000089521E030E001C0220F8A95EAF780919C
:103380007403822B0E94B21908959091D60392FF84
:1033900010C098E0899F90011124622B60937603FE
:1033A0000E94B9190E94CC08909378038093770308
:1033B00008950E94B919089521E030E0A90102C0E2
:1033C000440F551F8A95E2F7CA01809590917403C6
:1033D00089230E94B2190895209176038095822353
:1033E00080937603982F9770911117C030E0482F83
:1033F000082E000C550B2417350779F09091D60351
:1034000092FF0BC08595859585950E94DC191092D9
:103410007603109278031092770308959091D60363
:1034200092FB222720F9281769F080FB92F99093EC
:10343000D6038091D5039091D6030E94480B82E079
:103440000E94EC19089580917403982F967096301D
:1034500021F488600E94B2190895877FFBCF682FFE
:10346000617080E00E941919089590916B0390FF9C
:1034700008C09695981728F0961718F40E9402191C
:10348000089561E00E94B9180895A0E1B0E0EBE46E
:10349000FAE10C94BA312C01DC019C9111968C91CB
:1034A000119713962D913C911497232B09F4CFC0BB
:1034B00089238F3F09F4CBC041E012966C9112979B
:1034C0008D919C910E946B0C1C01F201F281FD8791
:1034D000815095458F3F910508F043C0410125E596
:1034E0009226F111B9C0A0E48A16910408F0C4C371
:1034F000A0903A03B0903B03C0903C03D0903D03B2
:10350000E0903E03F0903F03E091400310914103AF
:1035100021E030E040E050E060E070E080E090E0EA
:10352000082D0E94F131A222B322C422D522E62224
:10353000F722082F0E2319230E940A3209F476C0BD
:10354000A0E12A16AFE53A0609F462C4B1E12B16F0
:10355000BFE53B0609F038C3FD85F111DDC382E00C
:1035600061C4AD85AA2309F41DC3BFEF2B16310436
:1035700009F008F470C0EAE22E16EDE53E0609F403
:103580004FC010925A03C10182519F45409708F0E5
:10359000B7C38FEF93E00E94A232811147C0AEEE15
:1035A0002A0E0BED11E02110C0C3809124019091EF
:1035B0002501A0912601B091270189839A83AB83CD
:1035C000BC837801EFEFEE1AFE0AC8010E94A23216
:1035D00089831A82882351F1813009F013C468016C
:1035E000F2E0CF0ED11CC7010E94A232F82E8A83CE
:1035F0008823E1F0C6010E94A232E82E8FEF8F0DE2
:10360000833008F0A0C3EB82EE2021F0CE010196BA
:103610000E947E0E680123E0C20ED11C8601D1CF2C
:1036200080915A0391E0892780935A038091760311
:103630008770882361F0D20112968C91882339F02B
:103640008091D60382FF03C082E00E94EC1960964D
:10365000E2E10C94D631410180915A03882309F4A8
:10366000F4C010925A03F0EC8F16910408F040C099
:1036700020E88216910408F0B2C0840100541109B8
:103680000034110508F478C021E030E040E050E05B
:1036900060E070E080E090E0082D0E94F131E09160
:1036A0003A032E2BE0913B033E2BE0913C034E2B43
:1036B000E0913D035E2BE0913E036E2BE0913F03D2
:1036C0007E2BE09140038E2BE0914103E92B209368
:1036D0003A0330933B0340933C0350933D03609384
:1036E0003E0370933F0380934003E093410335C052
:1036F00021E030E040E050E060E070E080E090E009
:103700008401005C11090E94F131E09152032E2BDB
:10371000E09153033E2BE09154034E2BE09155036F
:103720005E2BE09156036E2BE09157037E2BE091C8
:1037300058038E2BE0915903E92B209352033093C9
:10374000530340935403509355036093560370936F
:10375000570380935803E09359038091CC0380FD75
:1037600064C38D85F8ED8F16FCE59F0609F0DBC478
:1037700027E245EE65EEE5C421E030E040E050E0B0
:1037800060E070E080E090E00E94F131E09142035F
:103790002E2BE09143033E2BE09144034E2BE0910E
:1037A00045035E2BE09146036E2BE09147037E2B91
:1037B000E09148038E2BE0914903E92B20934203CB
:1037C000309343034093440350934503609346036F
:1037D0007093470380934803E0934903BECF21E0F1
:1037E00030E040E050E060E070E080E090E0840194
:1037F000005811090E94F131E0914A032E2BE0910B
:103800004B033E2BE0914C034E2BE0914D035E2B7E
:10381000E0914E036E2BE0914F037E2BE09150031D
:103820008E2BE0915103E92B20934A0330934B03F5
:1038300040934C0350934D0360934E0370934F039A
:1038400080935003E093510388CF40E484169104A1
:1038500008F066C0A0913A03AD83B0913B03BE83EC
:10386000E0913C03EF83F0913D03F887A0913E0384
:10387000A987B0913F03BA87E0914003EB87F091AD
:103880004103FC8721E030E040E050E060E070E080
:1038900080E090E0082D0E94F13139014A01B62FF5
:1038A000A72FF82FE92FAD80A222BE80B720CF80AE
:1038B000C422D884D920E984E622FA84F7220B8531
:1038C00008231C8519230E940A3209F027C260943C
:1038D000709480949094B095A095F095E0952D818A
:1038E00062224E8174225F81852288859822998583
:1038F000B9232A85A2234B85F4235C85E5236092B6
:103900003A0370923B0380923C0390923D03B09344
:103910003E03A0933F03F0934003E093410386CE20
:1039200020E88216910408F068C0A0914203AD839C
:10393000B0914303BE83E0914403EF83F0914503CC
:10394000F887A0914603A987B0914703BA87E09111
:103950004803EB87F0914903FC8784010054110967
:1039600021E030E040E050E060E070E080E090E096
:103970000E94F13139014A01B62FA72FF82FE92F04
:10398000AD80A222BE80B720CF80C422D884D920A7
:10399000E984E622FA84F7220B8508231C85192383
:1039A0000E940A3209F0BAC1609470948094909495
:1039B000B095A095F095E0958D8168229E81792241
:1039C0002F818222488594225985B5238A85A82390
:1039D0009B85F9232C85E223609242037092430376
:1039E0008092440390924503B0934603A09347030B
:1039F000F0934803E093490319CE20EC821691041A
:103A000008F068C0A0914A03AD83B0914B03BE8318
:103A1000E0914C03EF83F0914D03F887A0914E03A2
:103A2000A987B0914F03BA87E0915003EB87F091DB
:103A30005103FC8784010058110921E030E040E087
:103A400050E060E070E080E090E00E94F1313901E8
:103A50004A01B62FA72FF82FE92FAD80A222BE80F2
:103A6000B720CF80C422D884D920E984E622FA8402
:103A7000F7220B8508231C8519230E940A3209F0BE
:103A80004DC16094709480949094B095A095F095F9
:103A9000E0954D8164225E8175228F818822988510
:103AA00099222985B2234A85A4235B85F5238C8539
:103AB000E82360924A0370924B0380924C039092E9
:103AC0004D03B0934E03A0934F03F0935003E09344
:103AD0005103ACCDA0915203AD83B0915303BE838B
:103AE000E0915403EF83F0915503F887A0915603BA
:103AF000A987B0915703BA87E0915803EB87F091FB
:103B00005903FC878401005C110921E030E040E0AA
:103B100050E060E070E080E090E00E94F131390117
:103B20004A01B62FA72FF82FE92FAD80A222BE8021
:103B3000B720CF80C422D884D920E984E622FA8431
:103B4000F7220B8508231C8519230E940A3209F0ED
:103B5000E5C06094709480949094B095A095F09591
:103B6000E0959D8169222E8172224F8184225885A1
:103B700095228985B8239A85A9232B85F2234C8524
:103B8000E423609252037092530380925403909204
:103B90005503B0935603A0935703F0935803E09353
:103BA000590344CD5FEF2516310409F008F462C0D3
:103BB00080E128168FE5380609F433C191E1291612
:103BC0009FE5390609F4CBCC8091CC03410180FDFF
:103BD0002CC14101D20112968C91B3EF8B16BCE53A
:103BE0009B0609F409C308F4BDCD55EF85165CE5C5
:103BF000950609F4A3C327E245EE66EE96EF891613
:103C00009CE5990609F49DC227E245EE64EEA4EF17
:103C10008A16ACE59A0609F494C2882309F4C8C24E
:103C200010926503B1E68B16BDE59B0609F4B9C396
:103C300008F08CC3F6E18F16FCE59F0608F062C120
:103C400022E082162CE5920608F489C10E94AB0B93
:103C50009093D6038093D503F401E350FC45809103
:103C6000D5038160E331F10508F0A3C3E75AFC4CAA
:103C70000C949E31410137CCB0E88B169104A0F42E
:103C8000A0904203B0904303C0904403D0904503FA
:103C9000E0904603F0904703E091480310914903F8
:103CA000F0E48F1A910834CC20EC82169104A0F431
:103CB000A0904A03B0904B03C0904C03D0904D03AA
:103CC000E0904E03F0904F03E091500310915103A8
:103CD00040E8841A91081CCCA0905203B090530382
:103CE000C0905403D0905503E0905603F0905703D2
:103CF000E09158031091590350EC851A910808CCB3
:103D000080E128168FE5380609F485C091E129166F
:103D10009FE5390609F058CF82E07EC0C10182518B
:103D20009F45409708F00CCC34CC0115B4E01B073C
:103D300009F47CCCC8010E94A2320F5F1F4F811191
:103D4000F4CF2A9430CC8BEF8F0D833090F568013F
:103D500043E0C40ED11CEB82EE2009F45FCCC60117
:103D60000E94A2328C838823D9F0CB80DC8051E082
:103D7000C5165FEFD50610F0DC2CCC2486E0F816D3
:103D8000A1F097E0F91649F0C6010E94A42880919D
:103D9000CF039091D0030E94B10AC6010E94C828A7
:103DA0006801A4E0CA0ED11C39CCC6010E94A42827
:103DB000F7CFB4E0FB1232CC6801E4E0CE0ED11CA8
:103DC000C80103960E94A232EE2009F42FCC88236A
:103DD00009F42CCC8150990B4FEF489F9001499FDB
:103DE000300D11244E2D4150550B240F351F2150FD
:103DF000310908F413CC8FE99FE00197F1F700C077
:103E00000000F5CFCE0101960E947E0E670106CC20
:103E1000ED85EE2331F081E00E94B9190E94231A4A
:103E200005CC81E00E94DC19F9CF0E94CC087C010E
:103E3000D20112968C911297882309F422C18091A5
:103E4000230182FF06C040E0B70180E090E00E94BD
:103E50006213BBE18B16BCE59B0619F1ECE18E16F3
:103E6000ECE59E0609F43CC0FAE18F16FCE59F06DE
:103E700009F05FC090912301892F8E7F90FF8160B0
:103E8000809323010E943F138091230180FF5AC237
:103E9000F20182818111A6C1F3EF8F16FCE59F0626
:103EA000A9C180912301816080932301D2011296E0
:103EB0008C91882321F010925E0310925D03F20131
:103EC0008281811110926503D20112968C91811129
:103ED000A9CE26E182162CE5920609F069C114C329
:103EE000809123018E7F809323010E943F13809154
:103EF000230180FDCDCFF2018281882309F458C1CE
:103F000010926503C4018A5F9C45099708F0F5C2C9
:103F10000E94AB0B9093D6038093D503F401EB5F23
:103F2000FC45E830F10508F062C2E459FC4C0C9401
:103F30009E31F2018281940130562115F0E23F0753
:103F400008F488C0305E2115304108F0CFC01092CF
:103F50005E0310925D03882339F010926503D2014D
:103F600012968C9181112AC6F2018281E080F18043
:103F7000882309F49BC3C7010E941E0C182F682FC9
:103F8000C7010E94B104B701812F0E94010C0E9459
:103F90008905182F092FD2011296DC9012971596D9
:103FA000EC90E2942FE0E2228091760387708823E0
:103FB000C1F0CD2CDD20B1F0892F807F803421F03D
:103FC00080E2810F883068F08091D60382FF09C0BB
:103FD00082E00E94EC19809176038770CC24C39410
:103FE0008111C12C802F82958F70883009F479C49B
:103FF00008F090C3843008F05EC3B02FBF70FB2E72
:10400000823008F498C3802F807F803219F0F294B8
:1040100080EFF822112309F4C5C3113009F426C436
:10402000DD2009F42FC4EE2009F4F6C340E0D201EC
:1040300012966C9112978D919C910E946B0C8091BD
:10404000CE0381FD8EC3F201858180FF8AC38F700C
:104050008583E2C310925E0310925D03882309F406
:1040600083CF10926503D20112968C91882309F4B4
:104070007BCFA7EA8A16ADE59A0609F075CF0E94B4
:10408000430F51EE8516910461F4809123018F7ED8
:104090008093230112968C91811161CFF20182816C
:1040A00061CFB5EE8B16910441F4809123018F7D91
:1040B00080932301F2018281EFCFC40190568115D4
:1040C000F0E29F0720F0905E8115904178F4809196
:1040D000230182FFF4CE8091CE0381FD61C040E0D8
:1040E000B70180E090E00E94621374CDD201129675
:1040F0008C919091230190FF53C0B8E28B169104EC
:1041000018F5EEE18E16910408F07AC0940124505F
:1041100031092A31310508F445C08823C1F11092D4
:104120005E0310925D0329ED82162CE5920661F183
:1041300047ED84164CE5940609F0C1CE26E241EE27
:1041400061EE0E94180E72CAF9E38F16910408F509
:104150002DE28216910408F05EC04BE284169104B1
:1041600009F459C0882399F010925E0310925D0300
:1041700048ED84164CE5940609F4FACA59ED851603
:104180005CE5950609F09BCE28E241E0F3CA80E0A9
:10419000EFCF54E68516910409F43DC0811142C069
:1041A000140117CD9091CC0394FF41C08111B7CF7A
:1041B000809171038272B6ED8B16BCE59B0608F008
:1041C000DCC4E2EC8E16ECE59E0608F467CFF40141
:1041D000E35CFC45E331F10508F0D7C1EC58FC4C39
:1041E0000C949E3110925E0310925D0393EF89163A
:1041F0009CE5990609F0B6CA26E241EE60EEA1CF31
:104200009091CC0393FF13C0882391F210925E0328
:1042100010925D03A7CA9091CC0392FF08C0882337
:1042200009F44DCE10925E0310925D03D3CC882327
:1042300009F47EC09091710380917003182F192B9F
:10424000212F2D7F2223C9F010925E0310925D036F
:104250002091CC0321FD11C060E0C4010E945308ED
:1042600060E0C4010E949F0D809170038D7F0E94C9
:10427000F30882E00E94EC19D9C926E0F201AFE50B
:10428000B3E001900D922A95E1F71092610310922C
:1042900063031092620320915D0330915E03281541
:1042A000390589F52091CC0325FF2DC0009123010C
:1042B00006950170002311F026FF25C020915B03B5
:1042C00030915C03D701A21BB30BA83CB105D8F415
:1042D00091FF08C08091230180618093230182E0D7
:1042E0000E9433058091710385FF08C080912301EE
:1042F00080628093230180E20E943305602FC40115
:104300000E949F0D93C98D7F0E94F30890925E03D7
:1043100080925D03F0925C03E0925B03812F8270D8
:10432000846090912301997F892B80932301A1CFF1
:1043300040E0B701C4010E94621378C926E241EE51
:1043400062EEFFCED20112968C91D7CD45EA84164B
:104350004DE5940689F1C4018D5A9D45039708F0F7
:1043600082CE0E94AB0B9093D6038093D5035DEA77
:1043700085165DE5950649F18EEA88168DE5980665
:1043800009F45BC09FEA89169DE5990609F4AEC061
:104390008091D5039091D6030E94480B0E94370F5D
:1043A00045C90E94AB0B9093D603809584FB809502
:1043B00084F98093D503ECCF0E94AB0B9093D60386
:1043C000809580FB809580F9F4CF8091D60388603A
:1043D0008093D603DDCF8091D5038260EACF8091B0
:1043E000D5038460E6CF8091D5038860E2CF8091C9
:1043F000D6038160EDCF8091D6038260E9CF8091B2
:10440000D5038061D6CF8091D5038062D2CF8091D1
:10441000D5038064CECF0E94370F8091D50380688A
:10442000C8CF8091D5038C60C4CF8091D6038360C0
:10443000CFCF8091D5038E7FBCCF8091D603877F6D
:10444000C7CF8091D5038D7FB4CF8091D5038B7F6B
:10445000B0CF8091D503877FACCF8091D6038E7F7C
:10446000B7CF8091D6038D7FB3CF8091D5038F7E58
:10447000A0CF8091D5038F7D9CCF8091D5038F7B7A
:1044800098CF0E94370F8091D5038F7792CF80917C
:10449000D503837F8ECF8091D6038C7F99CF809177
:1044A000D50382FB992790F921E0922790FB82F9AE
:1044B00090FB83F97ECF8091D603982F90959170D1
:1044C0008E7F892B90FB81F983CF0E94370F9091CB
:1044D000D503892F97FB87F980586BCF61E08EE079
:1044E00090E00E94B63254CF60E0F9CF9091D603AD
:1044F000892F877F93FF88606BCFB6E18B16BCE571
:104500009B0609F041C381E0909171033091CB0388
:1045100030FF04C0292F247421111CC0292F2A7AAE
:1045200031FF04C0492F4171411120E0432F4870F1
:1045300032FF12C0392F3878332371F0411121C076
:10454000811114C0809166038823E9F085E30E94FD
:10455000260514C020E0E4CF442319F09272911193
:10456000EFCF882379F365E3211102C080E069E28F
:104570008093660384EA91E00E94B2080E94CC0C0A
:1045800055C820E0EBCF89E2E2CF80916B0380FF3A
:1045900021C08E7F80936B0380916B0390916C039D
:1045A000A0916D03B0916E038D879E87AF87B88B06
:1045B000BC01CD010E94FE13109268039FEFA0E79B
:1045C000B2E09150A040B040E1F700C000000E946E
:1045D000C9142CC8816080936B0361E086950E94AA
:1045E000B91824C84DE059E162E079E10E94CC0796
:1045F0001DC842E059E16DE079E1F8CF49EC57E19F
:104600006FEB77E1F3CF4FEB57E169EC77E1EECF5A
:1046100040EE57E163ED77E1E9CF43ED57E160EE1E
:1046200077E1E4CF4AEF57E16DEE77E1DFCF4DEE72
:1046300057E16AEF77E1DACF41E454E164E274E1F3
:10464000D5CF44E254E161E474E1D0CF61E081E090
:10465000C6CF65E082E00E94351A0C94161B68E014
:1046600086E0F9CF6EE089E0F6CF64E18FE0F3CF2A
:1046700067E185E1F0CF61E088E1B1CF62E289E1F5
:10468000EACF9CE589169DE5990609F0F2CC809168
:10469000D60382FB882780F991E089270E940E1AB1
:1046A00063CC0E945E14EBCC80E0F8CFC7010E947F
:1046B000E804182F68CC843009F4F6C0812F902FBD
:1046C0000E94940481113AC21092D8031092D70329
:1046D000CC20A9F08091760380FD11C0F2011282F6
:1046E0008595859585950E94B919C2010E94451A44
:1046F000809176038595859585950E94DC1940E02B
:10470000D20112966C9112978D919C910E946B0C24
:104710000C94271B893009F457C18A5F8F7082304F
:1047200068F6123F09F063C1802F8F71D1105CC110
:104730000E94B91904C1003118F0F29490EFF922E7
:10474000DD20B9F0FF2069F080E2810F883010F0A1
:10475000111109C0809171038F29809371030E9408
:10476000CC0C812F2FC0809175038F298093750306
:10477000F6CF812F0E94B40DFF2009F49FCF80E275
:10478000810F883010F0111104C08F2D0E94330565
:1047900006C0F094809175038F21809375030E9469
:1047A000CC0C8CCF8091D60382FD16C0DD2069F041
:1047B000FF2039F0809171038F29809371030E944B
:1047C000CC0C80E00E943E0D79CF80E00E94B40DB9
:1047D000FF2009F473CFD9CFDD2011F1E11004C01F
:1047E000809170038F2919C0E1E0EE1206C080911C
:1047F00070038F290E94F30861CF8091CD0382302E
:1048000078F3E812EDCF0E943B05909172038F2D53
:10481000892B8913809372038F2D0E94180D4ECF20
:10482000E11003C00E943B0518C08091CD03F1E068
:10483000EF1217C0823008F441CF809171038F21AD
:10484000882309F43BCF0E943B05909172038F2D82
:10485000809589238913809372038F2D0E942C0DDC
:104860002DCF8230F8F2E812DDCF28CF8091D3032C
:10487000DD2021F08E1508F421CFCECFE81608F008
:104880001DCFEBCFEE2049F38091D1039091D2035D
:10489000193321F08091CF039091D0030E94B10A87
:1048A000812F0E94B40D0ACF802F86958695837044
:1048B000882369F0813009F001CF812F902F937008
:1048C000D11002C080E090E00E949C08F7CE812FBA
:1048D000902F9370D11002C080E090E00E94860873
:1048E000EDCE802F8370811137C0D11028C0412FA9
:1048F000429546954770440F440F812F8F70042EC8
:1049000001C0880F0A94EAF7212F2071222339F081
:104910002FE030E001C0220F4A95EAF72095302FB2
:10492000369536953370323091F0333071F04091D6
:104930007303313049F0822B84230E943A130E9482
:1049400079080E942F1ABACE842B822BF6CF822BA5
:10495000909173038927F1CFDD2059F100FFEFCF4C
:10496000412F429546954770440F440F812F8F7019
:10497000042E01C0880F0A94EAF7212F2071222308
:1049800039F02FE030E001C0220F4A95EAF7209578
:10499000302F369536953370323089F0333069F0E8
:1049A00040917403313041F0822B84230E94B2196C
:1049B000C6CF823020F2D4CF842B822BF7CF822B2C
:1049C000909174038927F2CFF02FFF70FF2EDD2026
:1049D00039F08F2F0E94B919812F0E94180DAFCF87
:1049E000812F0E942C0D8F2D0E94DC19A8CF133F20
:1049F00070F4103FB9F0113FC9F1DD2009F48BC00C
:104A0000EE2009F485C0812F0E943E0D98CF133F00
:104A1000E9F0143F39F1D110F3CFE11085C0802FB8
:104A20008F71E2CF8091D303DD2061F0E81608F0AA
:104A300086CF202F2F7181E090E001C0880F2A954A
:104A4000EAF7BECF8E1508F47ACFF3CF80E0DD20F1
:104A500009F4ACCF81E0902F9F7101C0880F9A9527
:104A6000EAF7A4CF8091D60382FD06C0802F8F7114
:104A7000DD2009F4B9CF5CCE8091CD03823080F186
:104A8000DD20F1F0909176039770943061F41092EC
:104A900076031092780310927703802F8F710E9413
:104AA000DC19C12C4CCFE816E0F7202F2F71F22E25
:104AB000822F0E94B91963E08F2D0E94C519F1CF92
:104AC000E81650F010927603109278031092770354
:104AD00064E0802F8F71F1CF81E00E94EC19E1CF6B
:104AE000DD2059F0402F4F71F42E842F0E94B91908
:104AF00063E08F2D0E94C51922CF81E00E94EC193E
:104B000051E05E1508F01BCF82E00E94EC1917CF30
:104B1000802F8F710DCEEE2009F481CF8091D103CB
:104B20009091D203193321F08091CF039091D0035B
:104B30000E94B10A812F0E94B40D01CFDD2019F02F
:104B4000E110C2CDC5CDE110BFCD40E0D20112963B
:104B50006C9112978D919C910E946B0C8091CE0369
:104B600083FFB2CD8091D7039091D803029709F0CB
:104B7000ABCD812F0E94F40DA7CD68E283E2FDE565
:104B80008F169F0609F467CDF2018281882309F40C
:104B9000EBC9FBE58F16FDE59F0609F485CD08F00E
:104BA00070CD4EED84164CE5940609F47ACD81E083
:104BB0005AE585165DE5950609F470CD81148CE5FE
:104BC000980609F0D1C90E94370FBFEFE4E3FCE07B
:104BD000B150E040F040E1F700C000000E94BF0A81
:104BE0001F93CF93DF938091B003803108F04CC0C6
:104BF0008091AD03882309F447C080917A03209106
:104C000079036091AB033091AC03C091AE03D091B6
:104C1000AF03732F76232817B9F190E0209709F49A
:104C200043C016E07F3F09F43FC0189FF001199F71
:104C3000F00D1124DF01A558BC4F11964C9111972E
:104C400034132CC04C91461329C012964C911297E4
:104C500041111EC013964D915C914C1B5D0B483C5D
:104C60005105E0F48091B0038F7080618093B003B0
:104C7000E058FC4F80818F70806180838BEA93E0E5
:104C80000E94451A0E941C05DF91CF911F91089543
:104C90000196877099272813C8CFF6CF01968770A1
:104CA00099272813BFCFF0CF01968770B4CFABE020
:104CB000B0E0EDE5F6E20C94BE318C0185E0F80140
:104CC000DE01179601900D928A95E1F7D801EC90DC
:104CD0001196DC90119712966C9012971396AD90E6
:104CE000BC908BEA882E83E0982E40E06091AD0363
:104CF0008091AB039091AC030E946B0C8091AB034D
:104D00009091AC032091AE033091AF032115310592
:104D100009F433C1492F48234F3F09F42EC1C090F5
:104D2000AD03F501E21BF30BCC2009F4F1C0709048
:104D3000B003E83CF10508F0D4C0D80111962C91DD
:104D4000BFE0B71508F48FC0F62C291315C0F80181
:104D50009081981311C0611055C0872D8F708061AC
:104D60008093B003C4010E94451A8091B003D8011A
:104D700015968C93F12C72C0A114B10409F43FC0B4
:104D80008E2D8D218F3FD9F161103CC0A0917A0307
:104D900090917903EA2F46E0A9131AC08F3F51F38F
:104DA00086E0E91335C08F8198850E94490C292F30
:104DB00022952F70903208F03FC09F70992319F010
:104DC000882309F44BC0805E883008F447C038C09F
:104DD0002A2F30E04A9FD0011124A558BC4F1196CC
:104DE0005C9111975D1107C05C91E51204C01296A9
:104DF0005C915111CAC0D9011196A770CDCF662020
:104E000009F4B8CF8091B00381608093B003B2CF32
:104E10002E2F30E08E9FF0011124E558FC4F418188
:104E2000D41206C04081E41203C042814111A2CFD6
:104E3000F9013196E770B5CF225F2F70223028F04C
:104E4000C8010E94451AFC2C09C09F70992309F4DF
:104E5000BACFF8019581903108F0B5CF8F2D2B9600
:104E6000EEE00C94DA31291314C0D8019C91981308
:104E700010C061100EC015967C92C8010E94451AA0
:104E800086E0F801ABEAB3E001900D928A95E1F774
:104E900025C0C8010E94580C882309F467C0662009
:104EA00009F464C08091B003803270F08091AB034C
:104EB0009091AC039A8389831B82BD82AC827E82EF
:104EC000CE0101960E94451A86E0F801ABEAB3E0F4
:104ED00001900D928A95E1F70E94F025FF24F3944A
:104EE000BDCFBFE0B71508F054C0F801218192137F
:104EF000D0CF90819813CDCF6110CBCF7582C801F0
:104F00000E94451A86E0D4011D928A95E9F7E6CF02
:104F1000E83CF10578F5662049F1F801218192130A
:104F20001BC09081981318C08091CE0382FDA8CF3A
:104F30008091B00380FDA4CF803108F4A1CF858398
:104F4000982F907F903F09F498CF982F907F905F93
:104F50008F70892B858391CFC8010E94580C8111D5
:104F6000B3CF8091B00381608093B003C8010E94E9
:104F7000451AB4CF86E0D40114C06620B9F3C80145
:104F80000E94580C882391F39FCF2091CE0320FFDD
:104F900005CF8BEA93E00E94451A86E0EBEAF3E046
:104FA000DF011D928A95E9F7E5CECF92DF92FF925D
:104FB0000F931F93CF93DF93CDB7DEB767970FB6ED
:104FC000F894DEBF0FBECDBFF42E4B8B052F5C8B4C
:104FD000162F6D8B7E8B8F8B262FCE88DF88C1148A
:104FE000D10469F0852F84238F3F49F08091D70346
:104FF0009091D80301969093D8038093D703211101
:10500000109275031A8A8091D60382FF21C0809185
:10501000B3039091B403892BD9F00E94CC0820915E
:10502000770330917803821B930B2091B303309167
:10503000B4038217930738F08091760382FD03C092
:1050400082E00E94EC190E94D80881110E943B0561
:10505000FD860E871F87D98AC88A86E0FE013D96A5
:10506000DE01179601900D928A95E1F7CE01079621
:105070000E945726811113C086E0FE013796DE019B
:10508000119601900D928A95E1F78F819885209174
:10509000790340917A036A857B85672BA9F416E032
:1050A00080917A039091790389133BC067960FB67C
:1050B000F894DEBF0FBECDBFDF91CF911F910F914E
:1050C000FF90DF90CF90089589238F3F41F330E028
:1050D000C90101968770992750E08417950771F4EC
:1050E0000E94370F1092790310927A0386E0EBEA60
:1050F000F3E0DF011D928A95E9F7D1CF96E0929F08
:10510000D001939FB00D1124A558BC4FFE013196DC
:1051100001900D929A95E1F7809379030E941C0506
:10512000BECF189FC001112485589C4F0E9457265E
:10513000882309F4BBCF80917A0390E001968770B1
:10514000992780937A03ACCFA5E0B0E0EAEAF8E2D1
:105150000C94CA319093F2018093F101811520E201
:10516000920730F40E94890D2596E2E00C94E63116
:1051700080EF89838A8381E08B830E94CC088160E1
:10518000782F49815A816B81892F0E94D527ECCFD6
:10519000A5E0B0E0EEECF8E20C94CA319093F20195
:1051A0008093F101811520E2920730F40E94DE0D18
:1051B0002596E2E00C94E63180EF89838A831B8296
:1051C0000E94CC088160782F49815A816B81892F98
:1051D0000E94D527EDCF9C01CB01BA01F90132968F
:1051E000459154916417750748F0F901349665911B
:1051F00074910E94923280E090E008958FEF9FEFCB
:1052000008959C01DA010296FC0145915491FC013C
:1052100085919491A817B90758F0F90134968591B2
:1052200094910E9492320E94890C80E090E008954F
:105230008FEF9FEF0895A5E0B0E0E1E2F9E20C9472
:10524000BD311A821982FE01339683E0DF011D927F
:105250008A95E9F789E6E82E81E0F82E8E010F5F46
:105260001F4F9EE6C92E91E0D92E3801AA24A3949F
:10527000B12C33E7832E31E0932EF70181917F012A
:105280008F3F09F441C0F894E82FE295EF70F0E009
:1052900021A18F70A50102C0440F551F8A95E2F726
:1052A000CA01922F982B91A392A18095892382A362
:1052B000789400C0EEE6F1E031E0512C21912F3FCF
:1052C00009F46BC0A22FA295AF70A05EB0E08C91E4
:1052D00090E02F7002C0959587952A95E2F781702E
:1052E00081115BC0832F582A330F8E169F0631F72A
:1052F000F701319780818F3F11F00E94110750EA2A
:105300005A95F1F7D8015C920F5F1F4FCE14DF045E
:1053100009F0B3CF45E050E0B3018DEF92E00E9479
:105320008532892BE1F185E0F301ADEFB2E0019028
:105330000D928A95E1F781E08093AE010E94CC083E
:105340009093AD018093AC012091AC013091AD01FF
:105350004FB7F8948091C9019091CA01A091CB01F7
:10536000B091CC014FBF821B930B0597E0F045E055
:1053700050E06DEF72E08AE193E00E948532892B64
:1053800049F085E0EDEFF2E0AAE1B3E001900D9283
:105390008A95E1F71092AE0106C080E0A4CF80911B
:1053A000AE018111D1CF2596EFE00C94D931CDB764
:1053B000DEB7AC970FB6F894DEBF0FBECDBF85B792
:1053C000806885BF85B7806885BF84B7877F84BFC5
:1053D0000FB6F894A8958091600088618093600072
:1053E000109260000FBE80E890E00FB6F8948093B2
:1053F0006100909361000FBE8FE097E09093A3014E
:105400008093A2010E94A60C0E94D2090E94560A13
:105410008091E20084608093E2007894809121037F
:10542000882399F08091E9001091EC0017951127DD
:1054300017958F70182B1092E9008091E80083FD7A
:105440000E9476101F701093E90082E084BD93E003
:1054500095BD9AEF97BD80936E000E94B90B8111A4
:1054600002C00E94661009E611E03EE6E32E31E03C
:10547000F32ED8018D918D018F3F11F00E941107FD
:10548000E016F106B1F70EE611E023E7E22E21E087
:10549000F22EF80181918F018F3F11F00E941107C8
:1054A000E016F106B1F785E0EAE1F3E0DF01282F2D
:1054B0001D922A95E9F7EDEFF2E0DF011D928A9542
:1054C000E9F780E090E00E94B032883E9E4F21F4E0
:1054D0000E94B90B811102C00E945E1482E090E02C
:1054E0000E94A23280930B030E94AB0B9093D603D1
:1054F0008093D5030E941B29EFEFF6E721E0E150EE
:10550000F0402040E1F700C000000E941B2980917C
:105510001A0380FF08C06FEF7FEF80E090E00E94E9
:10552000D4320E94BF0A83E090E00E94A2320E941F
:105530003A13809174030E944319809102038111F0
:105540003AC080E090E00E94B032883E9E4F21F445
:105550000E94B90B811104C00E945E140E941314B2
:1055600088E090E00E94AA3260936B0370936C0312
:1055700080936D0390936E03623070F40E94131455
:1055800088E090E00E94AA3260936B0370936C03F2
:1055900080936D0390936E030E94B7071092680387
:1055A00080916B0380FF04C060E086950E94B9186B
:1055B00081E0809302038BEB96E090930403809349
:1055C000030383E191E0909323038093220388E116
:1055D000E82EF12C90E4D92ECC24C39480912103A1
:1055E0008530E9F480912103853009F462C00E947E
:1055F000370F0E9479080E942F1A1092070380919A
:105600000603882309F4C4C080916B0381608093F2
:105610006B0360E086950E94B9180E94A3180E944F
:105620001B291CE0A12E13E0B12E0AE1802E03E01D
:10563000902E21E133E0D401F50191918D912E1747
:105640003F0709F4AFC09817C1F310E0F4010191CE
:105650004F01D5015D905D01501629F15026712C46
:1056600066246394852D86218823A9F079821A8384
:1056700091E0802F8621811101C090E09B830E94E0
:10568000CC088160782F9D838C8349815A816B81FE
:10569000892F0E94D5277394660CB5E07B12E2CF68
:1056A000F501319700831F5F153081F60E940709CD
:1056B00099C080912103843009F440C080E00E94A9
:1056C0002F1A1092680380910703811116C0C092AF
:1056D000070380916B03982F9170909306038E7F40
:1056E00080936B038FEF90E7A2E081509040A04041
:1056F000E1F700C000000E94C914109205030FB624
:10570000F894A895E09260000FBED092600083B735
:10571000817F846083BF83B7816083BF78948895DD
:1057200083B78E7F83BF0FB6F894A89580916000F1
:10573000886180936000109260000FBE8091080322
:10574000882309F44FCF0E941B29EAE1F3E08FE19F
:1057500093E02191211104C08E179F07D1F742CF0A
:1057600080E189BD82E189BD09B400FEFDCF809151
:10577000D8008F7D8093D8008091E0008260809374
:10578000E0008091E00081FDFCCF0E94370F2ACF1E
:105790008091690390916A03892B09F43ECF0E949E
:1057A000C9143BCF981351CF0E94CC088C01809133
:1057B000090390910A0308171907A1F08FEF898355
:1057C0008A831B820E94CC088160782F9D838C8302
:1057D00049815A816B81892F0E94D52710930A0332
:1057E000009309038091CC0380FF1CC080912301AA
:1057F00082FF18C00E94CC08BC0180915B0390918D
:105800005C039B01281B390B80911F0190912001A3
:105810002817390738F041E080915D0390915E03CD
:105820000E946213809168038823D1F180916703FD
:10583000E0916B03E695E81BE0931303823009F0D7
:1058400053C0F0E0E452F94FE4910E2F10E0B7E1BD
:10585000AB2EB7E1BB2E80911403882361F0109228
:1058600014030E94CC0890931203809311031092AA
:105870001603109215030E94CC0820911103309159
:105880001203821B930B8F3F9F4750F4200F311F51
:10589000309312032093110381E193E0F501099500
:1058A0000E947908182F80911703181739F0109368
:1058B00017030E940709812F0E942F1A809121034C
:1058C000843009F08BCE83E08093E9008091E8007A
:1058D00082FF84CE8091E80085FD5EC08091E80063
:1058E0008B778093E8007ACE863059F4F0E0E75267
:1058F000F94FE4910E2F10E0ABE2AA2EA7E1BA2EE9
:10590000AACF893061F4E695F0E0EA52F94FE491CC
:105910000E2F10E0F4E7AF2EF5E1BF2E9CCF8F30B5
:1059200061F4E695F0E0ED52F94FE4910E2F10E0AE
:10593000E1EAAE2EE5E1BE2E8ECF853159F4F0E0DE
:10594000E053F94FE4910E2F10E079E0A72E76E1B5
:10595000B72E81CF08E210E05AE5A52E56E1B52E0C
:10596000883109F478CF00ED17E04AE2A42E47E031
:10597000B42E833209F06FCF8E2F63E00E945C312A
:10598000E92FF0E0E353F94FE4910E2F10E067E0C8
:10599000A62E68E1B62E5FCF0E94A10930E2A32EA9
:1059A000B12C8E010F5F1F4F882361F18091E800B9
:1059B0008B778093E80000911F0310912003E98109
:1059C0000115110569F1EE3F09F04DC08A81833060
:1059D00020F08550833008F046C0EA81EE3008F0B0
:1059E00042C0F0E0E957FC4C0C949E318091F100EC
:1059F000D8018C93B1E0AB1AB108A114B104B1F293
:105A00000F5F1F4F8091E80085FDF0CF8091E80087
:105A10008B778093E8000E94A109882399F3C6CF71
:105A2000E43150F4EE2351F0E150E33138F4F0E08A
:105A3000EB56FC4C0C949E31EE3F79F28FEF81C215
:105A40001A8289E08B830FC08A81823091F1833082
:105A5000C9F1813099F70E9407090E94A4316B8334
:105A60007C838D839E8380912103843009F0B6CDA1
:105A70008091E9001091EC001795112717958F7010
:105A8000182B82E08093E9008091E80080FF0DC030
:105A900040E050E060E270E0CE0101960E94F10922
:105AA0008091E8008E778093E8001F701093E900E2
:105AB00095CD86E290E00E94A2321B821C821D825C
:105AC0008E83D1CF8091210190912201892B59F2AF
:105AD00085E0EAE1F3E0DE01139601900D928A95EC
