:100000000C942C040C9464040C9464040C94640408
:100010000C9464040C9464040C9464040C946404C0
:100020000C9464040C9464040C948C290C9448295A
:100030000C94892A0C9464040C9464040C94640455
:100040000C9464040C9464040C9464040C94640490
:100050000C9464040C94652A0C9464040C94640459
:100060000C9464040C9464040C9464040C94640470
:100070000C9464040C9464040C9464040C94640460
:100080000C9464040C9464040C9464040C94640450
:100090000C9464040C9464040C9464040C94640440
:1000A0000C9464040C9464040C9464040E0184663F
:1000B000FFFF000000000F018466FFFF000000004A
:1000C00010018466FFFF0000000003018466FF0A40
:1000D0000155FFFF120155FFFFFF00000000040162
:1000E0008466FF090155FFFF130155FFFFFF000064
:1000F000000011018466FF180155FFFFFF0000009A
:10010000000B018466FFFF0000000014018466FFFD
:100110000C0155FFFFFF0000000005010980A1014F
:10012000850319012AB700150126B700950175103E
:100130008100C0050C0901A101850419012AA00252
:10014000150126A002950175108100C00660FF0907
:1001500061A1010962150026FF0095207508810242
:100160000963150026FF00952075089102C005015E
:100170000906A101050719E029E7150025019508E1
:10018000750181029501750881010507190029FF94
:10019000150026FF0095067508810005081901293C
:1001A00005950575019102950175039101C00B013B
:1001B0000101F200DE00CA00C000B600AC00000081
:1001C0001E0F057F3F1F643214643214783C1E1EDC
:1001D000140A05FD377A585A000004E6D6B44602E0
:1001E00000210116000000742FE5A3E0012B00ABF5
:1001F0005D003D8889C65436C3174FE4E881DCB7FB
:100200007554611F8F0ADB9E81481ACFAD54ECEC08
:10021000B46DFB7A059B70FE49D9CAA8592FBFB1AE
:10022000C016AB2E04269E8371FC99C4C9EB76FEE2
:100230009B33730F6FACE03CA25F20C6CAA60D16BD
:10024000293085519A8DCF31D2635233E53D38B193
:100250003C4E425029C6F2E1A3158FD0D2A41A1108
:100260008CB772853CC3879F14C78E39F09F946A00
:10027000D626007A0D625ACA0135AE46FC90295442
:10028000E3B1D7D3CDD34325C22F345B2AA2EEC22C
:10029000767168CD7AAED4BE5C2461E24900004735
:1002A000D45CEA6785F4E90001C701AC020000B242
:1002B000A1E1F6B1C467FB020000000004595A0036
:1002C0000101010101010101010202020202020217
:1002D00002020303030303030303040404040404EA
:1002E00004050505050506060606060707070707B0
:1002F00008080808090909090A0A0A0B0B0B0C0C63
:100300000C0D0D0D0E0E0E0F0F0F101011111112FE
:100310001213131414151516161717181819191A7D
:100320001A1B1B1C1D1D1E1E1F20202122222324E0
:1003300024252626272829292A2B2C2D2D2E2F301F
:10034000313232333435363738393A3B3C3D3E3F33
:10035000404142434445464748494A4C4D4E4F5020
:10036000515354555658595A5B5D5E5F61626465DE
:100370006668696B6C6D6F7072737577787A7B7D68
:100380007E8082838587888A8C8E8F9193959698BC
:100390009A9C9EA0A2A3A5A7A9ABADAFB1B3B5B7D8
:1003A000BABCBEC0C2C4C6C9CBCDCFD1D4D6D8DBAF
:1003B000DDDFE2E4E7E9EBEEF0F3F5F8FAFDFFFF4D
:1003C000AA7F55402223252628292A2C2D2F30327A
:1003D000333536383A3B3D3E4042434547494A4C27
:1003E0004E5051535557595A5C5E60626466686955
:1003F0006B6D6F71737577797B7D7F81838587895D
:100400008A8C8E90929496989A9C9E9FA1A3A5A761
:10041000A8AAACAEAFB1B3B4B6B8B9BBBCBEBFC18D
:10042000C2C3C5C6C7C9CACBCCCDCED0D1D2D2D318
:10043000D4D5D6D7D7D8D9D9DADADBDBDBDCDCDC2C
:10044000DCDCDDDDDDDDDCDCDCDCDCDBDBDBDADAEF
:10045000D9D9D8D7D7D6D5D4D3D2D2D1D0CECDCC66
:10046000CBCAC9C7C6C5C3C2C1BFBEBCBBB9B8B67B
:10047000B4B3B1AFAEACAAA8A7A5A3A19F9E9C9A06
:1004800098969492908E8C8A89878583817F7D7BD4
:1004900079777573716F6D6B6968666462605E5CB5
:1004A0005A5957555351504E4C4A4947454342407B
:1004B0003E3D3B3A3836353332302F2D2C2A292811
:1004C00026252322530054005500560029005F00C2
:1004D000600061005700C25C5C005D005E00580077
:1004E000C35C59005A005B00520001516200630076
:1004F000500051004F00C25CC35CC45CCD5CC55C65
:10050000C95CC75CC55CCB5CCE5CCA5CC85CC65CC5
:10051000CC5C000002530353045300000000055359
:100520000653075300000000000000000000000018
:100530000000000000005A00000000000000000061
:10054000000000000000000000000000000000505B
:10055000000000000000000000000000000000009B
:1005600000000000000000005B0000000000000030
:10057000000000000000000000000000000000007B
:10058000005000000000000000000000000000001B
:10059000000000000000000000005C0000000000FF
:1005A000000000000000000000000000000000004B
:1005B00000000050000000000000000000000000EB
:1005C0000000000000000000000000005D000000CE
:1005D000000000000000000000000000000000001B
:1005E00000000000005000000000000000000000BB
:1005F00000000000000000000000000000005E009D
:1006000000000000000000000000000000000000EA
:10061000000000000000005000000000000000008A
:1006200000000000000000000000000000000000CA
:100630005F0000000000000000000000000000005B
:10064000000000000000000000500000000000005A
:1006500000000000010001009F03230C560C000065
:10066000020002009B03230C560C00000300010053
:10067000A003230C560C0000040002008503230C89
:10068000560CC90605000100A103230C560C0000FE
:10069000060002008703230C560C0000070002002E
:1006A0009D03230C560C000008000100A203230C3C
:1006B000560C000012000200A303230C560C00008D
:1006C00013000200A503230C560C000014000100C7
:1006D000A703230C560C00001500000000004F0675
:1006E0004A17000009025B00030100A0FA09040098
:1006F000000103010100092111010001224000074E
:10070000058103080001090401000203000000093B
:1007100021110100012222000705820320000107A8
:100720000503032000010904020001030000000981
:10073000211101000122320007058403200001126B
:1007400001000200000008F1F12500010001020390
:10075000011C037600690061006C003A00660036F7
:1007600000340063003200620033006300000016B2
:1007700003570069006E00720079002000320035D6
:10078000007400660000001A0353007000690064E2
:100790000065007200490073006C0061006E006427
:1007A0000000000403090400000000000000000035
:1007B0000000000000000000000000000000000039
:1007C00000000000000000000000007E0F00D4FFC9
:1007D000FFFFC70000007800000000000000002AB2
:1007E0002B280000000000000000000000000000B6
:1007F000000029000000002C1E3420212224342671
:1008000027252E362D3738271E1F20212223242569
:10081000263333362E37381F0405060708090A0B1E
:100820000C0D0E0F101112131415161718191A1B90
:100830001C1D2F3130232D350405060708090A0B2E
:100840000C0D0E0F101112131415161718191A1B70
:100850001C1D2F3130354C0011241FBECFEFDAE0C4
:10086000DEBFCDBF04B603FE18C08091D7039091C0
:10087000D803A091D903B091DA038730904BA740F9
:10088000B04B59F41092D7031092D8031092D903A9
:100890001092DA03E0E0F8E3099523E0A0EAB1E082
:1008A00001C01D92A73DB207E1F711E0A0E0B1E061
:1008B000E8EEF5E602C005900D92A03AB107D9F72F
:1008C0000E94B02A0C94CE320C940000E8EDF0E0C7
:1008D00080818E7F80831092E2001092DA00109265
:1008E000E100A0EEB0E08C9181608C9380818F77E5
:1008F000808319BCA7EDB0E08C918E7F8C938081B2
:100900008F7E80831092B70308952091E400309188
:10091000E50095E6A9012091EC00822F817020FF6F
:1009200006C08091E80080FF06C080E00895209115
:10093000E80022FD1AC08091C403882389F0853025
:1009400089F08091EB0085FD0FC02091E40030918B
:10095000E50042175307F9F29150E1F684E008955B
:1009600082E0089583E0089581E00895EF92FF9278
:100970000F931F93CF937C018B010E948504C82F96
:10098000811117C08091E80085FD0BC08091E800BF
:100990008E778093E8000E948504882399F3C82FFE
:1009A00008C0F70181917F018093F1000150110986
:1009B00049F78C2FCF911F910F91FF90EF900895E1
:1009C0008091C60387FF13C08091E80082FF06C0B4
:1009D0008091E8008B778093E80004C08091C40385
:1009E0008111F2CF08958091C4038823D9F38091B7
:1009F000E80080FFF8CF8091E8008E77ECCF982F49
:100A00009093E900242F762F50E0891731F07091F0
:100A1000EC002091ED005091F00021FD07C09F5F98
:100A2000973071F78093E90081E008953091EB00F1
:100A30003E7F3093EB003091ED003D7F3093ED0031
:100A40003091EB0031603093EB007093EC00209319
:100A5000ED005093F0002091EE0027FDE0CF80E004
:100A60000895B0E0A0E0E7E3F5E00C944531C8ED6F
:100A7000D0E088818F7E8883E7EDF0E0808181601F
:100A8000808384E082BF81E08093B70388818E7F7A
:100A9000888302EE10E0F80110821092DA0081EEF5
:100AA000C82ED12CF601108288818F7788838881A7
:100AB0008068888388818F7D888319BC1092C403E5
:100AC0001092C5031092C3031092C20390EEE92E58
:100AD000F12CF70180818B7F8083888181608883FE
:100AE00042E060E080E00E94FF04F60180818E7F9A
:100AF0008083F80180818160808380818860808329
:100B0000F70180818E7F8083888180618883CDB763
:100B1000DEB7E8E00C946131FC018091CC03909148
:100B2000CD0386179707A0F06115710529F4909100
:100B3000E8009E779093E80090E06115710551F40C
:100B4000911108C08091E80082FF34C080E00895D0
:100B5000BC01F2CF8091C4038823C1F18530C1F17B
:100B60008091E80083FD30C08091E80082FDEACFEB
:100B70008091E80080FFE1CF8091F3002091F200A6
:100B8000382F6115710519F02830310558F091E0C2
:100B90002830310509F090E02091E8002E7720936D
:100BA000E800CBCF81918093F100615071092F5FF4
:100BB0003F4FE7CF8091C403882341F0853041F057
:100BC0008091E80083FFBECF81E0089582E0089520
:100BD00083E008950895089508958091B9030895D4
:100BE0002FB7F8948091CF039091D003A091D103B7
:100BF000B091D2032FBF08959C01FC0132969FEF64
:100C000080E04191461751F09F3F19F4411101C016
:100C1000982F8F5F8630A9F79F3F09F40895290F19
:100C2000311D97FD3A95F901628308952091B10332
:100C30003091B2032817390771F09093B203809373
:100C4000B103E091AF03F091B003309721F000843D
:100C5000F185E02D099508952091AD033091AE0303
:100C60002817390771F09093AE038093AD03E0919C
:100C7000AF03F091B003309721F00680F781E02DAB
:100C800009950895E091AF03F091B003309729F0F2
:100C90000190F081E02D0995089580E00895B0E07D
:100CA000A0E0E5E5F6E00C9443318FEF9FEF443090
:100CB000510508F469C04091620341FB882780F91F
:100CC00090E0880F991F42FB002700F910E0000F09
:100CD000111F000F111F802B912B40FBCC24C0F85B
:100CE000D12C8C299D2943FB222720F9C22FE0E03B
:100CF000DE2F53E0CC0FDD1F5A95E1F78C2B9D2B97
:100D000044FBAA27A0F9B0E0E4E0AA0FBB1FEA95D4
:100D1000E1F78A2B9B2B45FBEE27E0F9F0E0A5E0FD
:100D2000EE0FFF1FAA95E1F78E2B9F2B46FB222784
:100D300020F930E0B6E0220F331FBA95E1F7822B9D
:100D4000932B47FB222720F930E03695322F2227BC
:100D500037952795822B932B20916303322F317087
:100D6000F32EE82EF92A26952170B22EBB0CA82E60
:100D7000BF28C501BB0CAA0BBB0BFB018083918371
:100D8000A283B38390E080E0CDB7DEB7EAE00C94B5
:100D90005F31809185039091860390932101809328
:100DA00020010895FA01811101C0FB010995089500
:100DB00080915903982F9E7F61F4817082608093A7
:100DC000590380915C03873918F086E980935C03AE
:100DD00008958235B0F381708065F1CFAF92BF92F4
:100DE000DF92EF92FF920F931F93CF93DF93082F21
:100DF000162FE901E42FF0E0E154FD4F611110C01E
:100E0000E4915E2F4E2F4983E8835A83DF91CF917F
:100E10001F910F91FF90EF90DF90BF90AF900895DA
:100E2000E62EF12C4491D42EE42FF0E026E0829FB0
:100E3000C00111242FEF30E0B9010E94F730802F5C
:100E400090E0880F991F55E5569FD001579FB00D30
:100E500011248A1B9B0B982F990F890F5901AE18EB
:100E6000BF08AE9ED001AF9EB00DBE9EB00D112446
:100E70005B2F189F80011124012F11275901A01AFF
:100E8000B10AAE9E8001AF9E100DBE9E100D1124C2
:100E90005901A81AB108AE9CC001AF9C900DBE9C30
:100EA000900D1124892F9927281B390B2E9FC001E3
:100EB0002F9F900D3E9F900D1124E92F62307105F8
:100EC000A1F050F46115710509F49DCF61307105F1
:100ED00081F0EB2F512F97CF6430710569F080F0CE
:100EE0006630710509F48FCFF4CFE42F4B2F592FC3
:100EF0008ACFE42F412F87CFEB2F542F492F83CF59
:100F00004B2F5D2DE12F7FCF80E00895F894E82FDF
:100F1000E295EF70F0E031A1282F2F7081E090E092
:100F200001C0880F2A95EAF7982F9095932391A3F3
:100F300092A1892B82A3789408959091620392FFE5
:100F400006C0282F28712830F9F4877F846093FF2A
:100F500006C0282F28712831F1F4877E8461209102
:100F6000630320FF06C0382F38713830D9F4877FEB
:100F7000816021FF06C0282F28712831D1F4877E97
:100F8000816194FD877E0895282F24712430F9F61D
:100F90008B7F8860DCCF282F2471243101F78B7E72
:100FA0008861DDCF382F3171313019F78E7F88603D
:100FB000E0CF282F2171213121F78E7E8861E1CF8A
:100FC000CF93DF93EC0182389105B1F108F040C076
:100FD0008133910509F49DC048F58932910509F4E2
:100FE0008DC08A9709F49CC0C11522E5D20708F08C
:100FF000BDC0C11531E5D30708F025C1C83ED105F4
:1010000008F0A3C0C13ED10588F5C83AD10508F063
:101010008EC0C53AD10508F0F6C0C130D10531F116
:10102000209721F1C430D10508F545C085339105DD
:1010300009F45FC0C997C1F680916203837009F01B
:1010400037C18091630383FF11C0C9E2D0E00EC0B5
:10105000833E910599F170F4803E910501F1823E45
:10106000910511F68091620382FD21C0CE01DF91CE
:10107000CF910895863E910561F1873E910571F10A
:10108000843E910509F0B0CF8091630381FFEECFDC
:1010900080916203C7EED0E084FD0DC0E7CF809160
:1010A000620380FD33C09091630390FFDFCFC3EEF6
:1010B000D0E084FFDBCFD0E0C0E0D8CF80916203E6
:1010C00082FDF3C09091630390FDF2C084FFCECF08
:1010D000F2CF8091620383FDDDCFC8CF80916203A0
:1010E00083FDE9C09091630391FFF0CFC4EED0E09F
:1010F000BDCF8091620385FFB9CFA7CF80916203F6
:1011000085FDDCC08091630383FFB0CFC9E3D0E0ED
:10111000ADCF8091620386FFA9CFCAE2D0E0A6CF0F
:101120008091620386FFA2CFC1E3D0E09FCFCF3B87
:10113000D10508F6C85AD0E0CC0FDD1FC15DDE4FE7
:101140000990D881C02DD46491CFC11540E5D40752
:1011500008F064C0C11580E4D80708F05CC0CE0177
:101160009A9581159F4108F481CFA5CFC11536E529
:10117000D30718F5C11545E5D40708F07DC0C115A2
:1011800084E5D80708F073C09C2F969596959E012C
:1011900023703327C115D34508F45AC0C1E0D0E00D
:1011A00002C0CC0FDD1F2A95E2F730E2939FC00109
:1011B0001124C82BD92BDA6859CFC1158AE5D80775
:1011C00078F4C11529E5D20708F061C0C11538E5EA
:1011D000D30708F470CFDC2FCC27C06FD06A46CF7E
:1011E000CE0190568115904208F065CF8D2F8F71FA
:1011F0000E949D0790E0982F882788279F719C0167
:101200002C2BE90142C0C55AD0E0C45DDE4FC88135
:10121000D0E0D0642BCFDF70D06A28CF2C2F26955A
:101220002695237080E2289F900111248C2F8370D3
:10123000C1E0D0E002C0CC0FDD1F8A95E2F7C22BDF
:10124000D32BDD6813CFDC2FCC27C16FD06A0ECF34
:10125000C1E0D0E002C0CC0FDD1F2A95E2F720E20A
:10126000929FC0011124C82BD92BDC68FFCEDC2F44
:10127000CC27C46FD06AFACE8C2F0E949D07C82F4E
:10128000D0E0DC2FCC27CC27DF71D062EFCE8C2FC3
:101290008F700E949D0734E0D695C7953A95E1F787
:1012A000CF709C2FEC01D069E1CEC2EED0E0DECE53
:1012B000C0EED0E0DBCEC6EED0E0D8CEC5E3D0E0C5
:1012C000D5CE80912002882331F010922002109216
:1012D0001F0210921E020895CF93C82F80916303BE
:1012E00082FF0CC0809120028C1741F00E94F00513
:1012F00090931F0280931E02C0932002CF91089505
:1013000080959091640398239093640308951092BC
:10131000150210921402109213020895809187030F
:1013200090918803892B89F00E94F00520911E027C
:1013300030911F02AC01421B530B81E020918703C7
:10134000309188034217530708F480E081700895B4
:10135000209112029091E10156E0291302C080E031
:10136000089530E0529FF001539FF00D1124EE518B
:10137000FE4F7181761306C07081781303C07281AD
:10138000741304C02F5F3F4F2770E7CF81E00895AB
:10139000809112029091E101981301C008958F5F2E
:1013A0008770FACF292F953078F5853068F590E071
:1013B00035E0239F800D911D1124682F677023E075
:1013C000969587952A95E1F7FC01EE0FFF1FE80F30
:1013D000F91FE153FE4F50E040E080E0219130E002
:1013E000062E02C0369527950A94E2F7217033271E
:1013F000042E01C0220F0A94EAF7822B4F5F5F4F41
:101400004330510559F7089580E00895292F95300C
:1014100098F5853088F590E035E0239F800D911D8B
:101420001124282F277041E001C0440F2A95EAF7C4
:1014300023E0969587952A95E1F7FC01EE0FFF1FB3
:10144000E80FF91FE153FE4F30E020E070E05191CA
:10145000DF011197CB01022E02C0969587950A9461
:10146000E2F7817081958527842385278C932F5FF0
:101470003F4F2330310559F7089592959F7096306C
:1014800091F058F4925F9F70923058F4803F19F0B9
:1014900030F4883E30F481E008959A5FF4CF843FC1
:1014A000D1F380E00895883EB0F3813FD1F7F3CFC8
:1014B0009C013A9521153F4150F5FC01EE27F17052
:1014C000BC0166277270AC01442754709C0122272E
:1014D000387094FF0EC080E1EF2B09F480E0672B99
:1014E00009F08062452B09F08064232B89F0806825
:1014F000089581E0EF2B09F480E0672B09F082600A
:10150000452B09F08460232B19F08860089580E052
:1015100008958093B4037093B6036093B5038091EC
:10152000C4038430F9F48093E9008FEF9091E800D0
:10153000815095FD06C095ED9A95F1F70000811157
:10154000F5CF8091E80085FF0DC050E040E063E0FA
:1015500070E084EB93E00E94B6048091E8008E77FF
:101560008093E8000895BC0184E00E94890A0895F0
:10157000BC0183E00E94890A0895CF93DF93EC01B8
:1015800081E08093E9008FEF9091E800815095FD14
:1015900006C095ED9A95F1F700008111F5CF809185
:1015A000E80085FF14C050E040E068E070E0CE0144
:1015B0000E94B6048091E8008E778093E80088E06E
:1015C000FE01AAEBB3E001900D928A95E1F7DF915D
:1015D000CF91089581E08093E00080E28093D8006D
:1015E0001092C9008FE19EE40197F1F700C000005E
:1015F00087E090EBDC018093D7039093D803A0930E
:10160000D903B093DA0388E19CE00FB6F894A8956B
:10161000809360000FBE90936000FFCF019708F4A5
:101620000895EFE9FFE03197F1F700C00000F6CF31
:101630000F931F93CF93DF9305E813E0C7EBD1E03F
:10164000CE010E942332F80181938F012196CB3D78
:10165000F1E0DF07A9F7CEE5D6E0FE018591949190
:10166000009711F0FC0109952C96F6E0CE3EDF07BD
:10167000A1F7DF91CF911F910F9108950F931F93C1
:10168000CF93DF93883030F5653020F5453010F585
:10169000C42FD0E0CC0FDD1F2AE0629FC00DD11D0A
:1016A000112432E3839FC00DD11D1124CE018796F2
:1016B0000E942332082F10E0102F0027CE018896B9
:1016C0000E9423329801282BC901DF91CF911F91ED
:1016D0000F91089590E080E0F8CF462F20916003AD
:1016E00030916103232B99F4703F39F4603F79F412
:1016F00080915E0390915F030895883040F47530C7
:1017000030F4653020F4672F0E943E0B089590E07E
:1017100080E00895CF92DF92FF920F931F93CF93B3
:10172000DF936C010091D60380912102082BC7E062
:10173000D0E010E0FC2EC8010C2E02C095958795D4
:101740000A94E2F780FD0CC02197A0F7F12C8F2DB1
:10175000DF91CF911F910F91FF90DF90CF9008956F
:10176000B6018C2F0E946D0B0E94E007019761F378
:10177000EECFCF93DF93EC010E948A0BBE010E9453
:101780006D0B0E94E007DF91CF910895FC018381EA
:101790009481892B29F08081918189238F3F11F4D5
:1017A00080E00895808191810E94B90B0E943D0ADA
:1017B0000895A5E0B0E0EFEDFBE00C944A314983D9
:1017C0005A8389819A81662399F0222389F00E94A5
:1017D0008A0B182F682F89819A810E94060A6981D5
:1017E0007A81812F0E946D0B2596E3E00C9466317F
:1017F0000E94D209182FF3CF83E290E00E94233297
:10180000853F89F484E290E00E942332813D59F4BF
:1018100085E290E00E94233291E08A3C09F090E05A
:10182000892F8170089580E0FCCFCF9384E090E011
:101830000E942332C82F82E290E00E942332982F28
:101840008C2FCF910895DB01FC01329625913491C4
:101850004217530758F0FC01349665917491A90121
:10186000CD010E94133290E080E008958FEF9FEF4A
:1018700008950F931F93CF93DF9305E813E0C7EB11
:10188000D1E0CE010E942332F80161918F016817E7
:1018900019F0CE010E9437322196CB3DF1E0DF07EF
:1018A00081F7DF91CF911F910F910895DA019C018B
:1018B0002E5F3F4FF90145915491F90125913491E3
:1018C000A217B30758F0FC013496859194910E94B9
:1018D00013320E94390C90E080E008958FEF9FEF63
:1018E0000895CF93DF93CBEDD1E060E0CE010E946D
:1018F00037322196C11584E0D807B9F7DF91CF912F
:1019000008951F93CF93DF93122F8830E0F4653052
:10191000D0F44530C0F4C42FD0E0CC0FDD1F9AE0E6
:10192000699FC00DD11D112492E3899FC00DD11D67
:101930001124632FCE0187960E943732612FCE018A
:1019400088960E943732DF91CF911F910895CF93EF
:10195000C82F6FEF811165EF83E290E00E9437326C
:101960006FEFC11161ED84E290E00E9437326FEFBA
:10197000C1116AEC85E290E00E943732CF91089560
:10198000CF93C92F682F84E090E00E9437326C2FEC
:1019900082E290E00E943732CF910895609159031E
:1019A000669570E04BE050E080E191E00E94F931F3
:1019B000892B19F481E080934C020E94F0059093EA
:1019C0004602809345020895A5E0B0E0EAEEFCE00F
:1019D0000C943D318091590380FD0AC0E1E5F2E0AD
:1019E000118210821282339622E0E43BF207C1F7A3
:1019F00080904302909044028114910409F464C0E1
:101A000080914202811160C050905C03D12CC12CA6
:101A100066246394712C53E0452E20914D02309141
:101A20004E02C3010C2C02C0880F991F0A94E2F7E2
:101A300082239323892B09F43FC0F601EE0FFF1F89
:101A4000E80DF91DE590F490E114F104E9F145E0A9
:101A500050E0B701CE0101960E94F03109810F3F9D
:101A600059F18A81800F9927991F8232910514F0CC
:101A700081E290E05C01AA0CBB1C8A0D9B1DFC015D
:101A8000EF5AFD4F5F01049D800111240F5A1D4F35
:101A90000A151B0520F025E0E20EF11CD8CF452DDC
:101AA000F6E9F51508F446E998016C818B810E94EE
:101AB000EE060D5F1F4FECCF3FEFC31AD30A59E07C
:101AC000C516D10409F0A9CF559A3BB13F7D2BB182
:101AD00020624FB7F89481E592E0FC015191CF016B
:101AE00068E02BB9000000C057FF3BB9550F00005C
:101AF00000C000C000C03BB900C06A9591F7F2E099
:101B0000843B9F0751F74FBF8FE594E00197F1F7B2
:101B100000C000002596E0E10C945931B0E0A0E04F
:101B2000E4E9FDE00C943D31FC016280448081E0F9
:101B30008483E4ECF3E07490E3E4F4E0E491C4EB38
:101B4000D2E031E5E32E32E0F32E49E5C42E43E046
:101B5000D42E52E0A52EBB24B39488248A94912CD1
:101B600055245A94E7190E2F10E082E0861530F0C4
:101B700080915A03888380915B038983411019C047
:101B80001B821A824A81473908F046E99701698128
:101B900088810E94EE06259683E0E80EF11CCC16A3
:101BA000DD0619F70E94E40CCDB7DEB7E0E10C9436
:101BB00059318B818823E9F081508B83859DC00149
:101BC00011246C8170E00E94F730FB01FF27EC5379
:101BD000FC4F8491E82FE719E59DC0011124B8015D
:101BE0000E94F73080915C03689FB00111247A83D2
:101BF000C9CF0E94E03120915C03269521582A9D8F
:101C0000A0012B9D500D1124452F552784179507B2
:101C10000CF0B8CF82E0861588F40E94E031B40160
:101C20000E940B3188830E94E03120915B0326954E
:101C3000622F70E00E940B31280F29831A82809155
:101C40005C03893C20F088EC8C838B839BCF8431B0
:101C5000D8F784E1F9CFB0E0A0E0E1E3FEE00C9436
:101C60004131EC014C81042F10E09801D8010E9411
:101C7000BF329B01AC010E948A324B015C01E0E261
:101C8000F0E0E01BF10BA5E5B0E0AC019B010E9488
:101C90008A326B017C019F01DF010E942C319B0184
:101CA000AC010E9495329B01AC01280D391D4A1DE3
:101CB0005B1DC701B6010E949D32F22E822F90E07B
:101CC00039E23F15B0F143E0249F9001112435958E
:101CD0002795122F109591E5C92E92E0D92E00E09C
:101CE00085E5E82EEF188E2D01FD8F2D412F173938
:101CF00008F046E9960160915B030E94EE060F5FD3
:101D000053E0C50ED11C013271F70E94E40C9C8196
:101D100081E0992319F0903219F48FEF80931D011F
:101D200080911D01890F8C83CDB7DEB7ECE00C9458
:101D30005D3125E530E0A901481B590BCA019A0124
:101D4000220F331F280F391F37FFC1CF2F5F3F4F9F
:101D5000BECF0F931F93CF93DF93C1E5D2E0FE0177
:101D6000118210821282339682E0E43BF807C1F7B9
:101D700010E000E080915002082E000C990B08172B
:101D80001907A4F180911C01082E000C990B8017F3
:101D9000910764F140915C03473908F046E99E01E0
:101DA00060915B0380915A030E94EE060F5F1F4F04
:101DB000239601321105F1F60E94E40C80911B017B
:101DC00090915002980F9093500220911C01280F7F
:101DD00020931C01121614F490321CF0819580930C
:101DE0001B01DF91CF911F910F91089519821882E5
:101DF0001A82DCCFB0E0A0E0E0E0FFE00C944431D8
:101E0000FC018281DD24DA9480FD02C0DD24D394BC
:101E100001E512E0D0E0C0E021E2B22EF80111822B
:101E20001082128294E0E92EF12CC12C80914F0295
:101E30008C0D8232DCF16B2D0E94E930892F082E47
:101E4000000C990B8C179D07A9F480915C038E9D63
:101E5000A0018F9D500D1124559547955595479597
:101E6000473908F046E9980160915B0380915A0375
:101E70000E94EE06CD0CF1E0EF1AF108B9F62196BA
:101E80000D5F1F4FC132D10549F60E94E40C8091CD
:101E90004F0291E0D91210C081110CC080E28093F2
:101EA0004F02CDB7DEB7E9E00C94603187FFC7CFB2
:101EB0008F5DC5CF8150F3CF90E00196BE010E94A7
:101EC0000B31EDCFEF92FF921F93CF93DF93EC0195
:101ED00081E5E82E82E0F82E10E040915C0347395E
:101EE00008F046E98C81970160915B03810F0E94A5
:101EF000EE06195F83E0E80EF11C173E71F70E94B1
:101F0000E40C9A818C8190FF08C08F5F8C83DF91F5
:101F1000CF911F91FF90EF9008958150F7CF90914E
:101F2000590390FF0CC0E1E5F2E0818360834283B6
:101F3000339692E0E43BF907C1F70E94E40C089560
:101F4000A3E0B0E0E6EAFFE00C944B319091590336
:101F500090FF0DC0473908F046E99E012F5F3F4FC3
:101F60000E94EE064B8169818A810E948F0F239621
:101F7000E2E00C946731CF93DF93EC01E9E5F3E005
:101F8000438162818C810E94A00F8C818F5F8C8342
:101F9000DF91CF910895CF93DF93EC01EC81F0E0D6
:101FA000EC53FC4F4491E9E5F3E0628181810E94AA
:101FB000A00F8C818F5F8C83DF91CF910895CF929A
:101FC000DF92EF92FF926B017C010E94D806B7016D
:101FD000A60188E090E00E944932FF90EF90DF90E8
:101FE000CF900895A3E0B0E0E8EFFFE00C943E311D
:101FF000E82E762EF42E622E9091590390FF2EC07B
:10200000E92FE695AE2FB0E0A959BE4F8C91809391
:102010004B029E7F923031F586E9841708F446E939
:102020009E012F5F3F4F672D8E2D0E94EE064B8144
:1020300069818A810E948F0FE0925A0370925B033C
:10204000F0925C03662051F06091590370915A033D
:1020500080915B0390915C030E94DF0F2396EFE079
:102060000C945A31823019F4F0905C03E5CF86303D
:1020700019F4E0905A03E0CF8930D9F38931E1F6C1
:10208000E9519E2F9170592EE695F0E0E154FC4FF6
:10209000E4910E2F10E081E5C82E82E0D82EB12CFD
:1020A000A12C91E2892E912CC501B4010E94F73038
:1020B0008E2D511017C0860F4F2D96E99F1508F4ED
:1020C00046E99601672D0E94EE06A00EB11E83E040
:1020D000C80ED11C94EBC91692E0D90629F70E94CC
:1020E000E40CAACF861BE8CFE9E5F3E0438128E0C2
:1020F000421B08F440E021E0628181810E94F20FDE
:102100000895E9E5F3E0438128E0420F08F44FEF3A
:1021100021E0628181810E94F20F0895E9E5F3E0F8
:10212000628128E0621B08F460E021E04381818144
:102130000E94F20F0895E9E5F3E0628128E0620F62
:1021400008F46FEF21E0438181810E94F20F08952E
:10215000E9E5F3E0818121E04381628188500E94BA
:10216000F20F0895E9E5F3E0818121E04381628186
:10217000885F0E94F20F089580915D03882319F013
:10218000815080935D036091590370915A0380914F
:102190005B0390915C030E94DF0F089580915D03C3
:1021A000833018F48F5F80935D03609159037091C1
:1021B0005A0380915B0390915C030E94DF0F0895A6
:1021C0009091590390FF2CC0917081112AC09260A8
:1021D00090935903662351F06091590370915A030B
:1021E00080915B0390915C030E94DF0F6091590323
:1021F000669570E04BE050E080E191E00E94F9319B
:10220000892BB1F010924C0281E08093480220E0CB
:1022100040915C0360915B0380915A030E94F20F2E
:102220000895893210F09065D3CF880F982BD0CFC6
:102230000E94CE0CE9CF21E030E0A90102C0440F9A
:10224000551F8A95E2F7CA0120914D0230914E0246
:102250006623B1F0822B932B90934E0280934D0214
:1022600080914C02811106C08091590360E08695EF
:102270000E94E0108091590380FF0E94E40C0895B1
:102280008095909582239323E7CF682F617080E03B
:102290000E941B110895CF93C82F0E944206682FF9
:1022A000617080E00E941B11C1FB662760F9C111BB
:1022B00001C060E081E00E941B11C2FB662760F94B
:1022C000C11101C060E082E00E941B11C3FB6627C0
:1022D00060F9C11101C060E083E00E941B11C4FBE2
:1022E000662760F9C11101C060E084E00E941B1103
:1022F000C5FB662760F9C11101C060E085E00E945E
:102300001B11C6FB662760F9C11101C060E086E0C1
:102310000E941B11C7FB662760F9C11101C060E074
:1023200087E00E941B118C2FCF9108958091590353
:102330008695815009F488E261E00E94E0100895DA
:102340008091590386958F5F893208F081E061E0C2
:102350000E94E01008959091590390FF08C096954F
:10236000981728F0961718F40E94A011089561E0BC
:102370000E94E0100895E9E5F3E083E08083118294
:102380008FEF828386E983831482608171818281E9
:1023900093810E94DF0F0895A5E0B0E0E2EDF1E146
:1023A0000C9442318E010F5F1F4F85E0F8011192AE
:1023B0008A95E9F78DE5C82E81E0D82EF12CE12C25
:1023C000AA24A394B12CF60181916F018F3F09F4E7
:1023D00043C0F894E82FE295EF70F0E021A18F70F0
:1023E000A50102C0440F551F8A95E2F7CA01922F3A
:1023F000982B91A392A18095892382A3789400C001
:10240000E2E6F1E0912C31E021912F3F09F470C018
:10241000A22FA295AF70B0E090968C9190E02F70B3
:1024200002C0959587952A95E2F780FD61C0832FBC
:10243000982A330F51E0E736F50731F7F601319767
:1024400080818F3F11F00E94860780EA8A95F1F71C
:10245000F801EE0DFF1D9082EFEFEE1AFE0AF5E097
:10246000EF16F10409F0AFCF45E050E0B80185E286
:1024700092E00E940632892BE9F185E0F801A5E29D
:10248000B2E001900D928A95E1F781E080932402F9
:102490000E94F00590932302809322022091220251
:1024A000309123024FB7F8948091CF039091D003DD
:1024B000A091D103B091D2034FBF821B930B05971C
:1024C000E8F045E050E065E272E08DE392E00E94C2
:1024D0000632892BC1F085E0E5E2F2E0ADE3B2E03F
:1024E00001900D928A95E1F781E01092240207C0D5
:1024F00080E09ECF809124028111D0CF80E025968C
:10250000EBE00C945E3180E0F0CF80916403909119
:10251000CE03892B8093A20180912002882309F1A8
:102520008091870390918803892B29F00E948E095E
:1025300081110E9461098091A20190912002892B52
:102540008093A20120E084EA91E0FC013191CF0167
:1025500031112F5FF1E08A3A9F07B9F721110E94EC
:10256000610948E050E066E172E082EA91E00E9491
:102570000632892BA9F088E0E2EAF1E0A6E1B2E0B8
:1025800001900D928A95E1F7E091AF03F091B003CD
:10259000309731F00280F381E02D82EA91E00995D5
:1025A000089580912201877F809322019091CE032C
:1025B0009D7F9093CE0384FF08C08F7E809322017D
:1025C000809164038260809364038091220185FF7F
:1025D00008C08F7D80932201809164038062809384
:1025E00064030E948512089590E080E00E942C060A
:1025F00090E080E00E9416061092CE030E948512A1
:1026000008950E944B118093D6030E94F4120895FE
:102610008091D603982F9670963021F488600E949E
:1026200001130895877FFBCF21E030E001C0220F26
:102630008A95EAF720958091D60382230E940113A0
:102640000895909115028095892380931502282F73
:10265000277091F4282F082E000C330B92171306C5
:1026600059F09091630392FF07C0859585958595F4
:102670000E9414130E94870908959091630392FBAE
:10268000222720F9281769F080FB92F990936303C1
:1026900080916203909163030E94C00C82E00E94CB
:1026A0002113089521E030E001C0220F8A95EAF756
:1026B0008091D603822B0E940113089590916303A9
:1026C00092FF10C098E0899F90011124622B6093C3
:1026D00015020E9452130E94F005909314028093F9
:1026E000130208950E9452130895809321020E94BC
:1026F000F412089510926403E4EAF1E086E0DF0149
:102700001D928A95E9F70E94F4120895AAE2B0E0BA
:10271000ECE8F3E10C944A3186EC93E02091F1006F
:10272000DC012D93CD01B3E08E3C9B07B9F780917E
:10273000C703833009F472C0B8F4813009F449C08A
:10274000823009F4B3C08091E80083FF96C2809183
:10275000C6039091C7039A3008F08FC2E92FF0E0CA
:10276000E053FD4C0C941F318A3009F48EC08B303D
:1027700009F471C0893039F78091C603813219F7A5
:102780008091CA039091CB03009711F00297D9F67C
:102790008091E800877F8093E8008091E80082FFC5
:1027A00038C09091F3008091F200029731F480914B
:1027B000F100813011F0863021F48091F100809396
:1027C000B9038091E8008B778093E8000E94E004D1
:1027D000BACF8091C603813A09F0B5CF8091E80065
:1027E000877F8093E8008091CA039091CB03892B67
:1027F00061F468E08AEB93E070E00E948C058091C0
:10280000E8008B778093E8009ECF60E090E080E066
:10281000F3CF8091C4038111C0CF95CF8091C603BF
:10282000813A09F090CF8091CA039091CB03892B14
:1028300009F089CF8091E800877F8093E80080913C
:10284000E80080FFFCCF809123018093F10080910C
:10285000E8008E77B9CF8091C603813209F073CF3B
:102860008091CA039091CB03892B09F06CCF8091A2
:10287000E800877F8093E8000E94E0048091C8030D
:10288000809323010E947A135ECF8091C603813228
:1028900009F059CF8091E800877F8093E8000E947B
:1028A000E0048091C9038093B8034DCF8091C603A3
:1028B000813A09F048CF8091E800877F8093E80053
:1028C0008091E80080FFFCCF8091B803BECF8038B4
:1028D00099F0823809F0D1C18091CA038F70873096
:1028E00008F0CBC18093E9008091EB0085FB88273D
:1028F00080F91092E90006C08091C2039091C30351
:10290000911182609091E800977F9093E800809306
:10291000F1001092F1008091E8008E77AAC188231F
:1029200009F498C1823009F0A8C18091C8038111CF
:102930009BC18091CA038F702FEF280F263008F0BB
:102940009CC18093E9002091EB0020FF8DC1933062
:1029500031F48091EB0080628093EB0085C190910F
:10296000EB0090619093EB0021E030E001C0220F7A
:102970008A95EAF72093EA001092EA008091EB0032
:102980008860EACF811179C11091C8031F778091C7
:10299000E3008078812B8093E3008091E800877FBB
:1029A0008093E8000E94E0048091E80080FFFCCF63
:1029B0008091E30080688093E30082E0111183E05E
:1029C0008093C4035AC18058823008F056C12091C8
:1029D000C8033091C9032C3DE3E03E07A1F583E035
:1029E0008A838AE289834FB7F894DE01139620E048
:1029F0003EE051E2E32FF0E050935700E49120FFD6
:102A000003C0E295EF703F5FEF708E2F90E0EA30E9
:102A1000C0F0C7968D939D932F5F243159F74FBF18
:102A20008091E800877F8093E8006AE270E0CE0141
:102A300001960E948C058091E8008B778093E800D6
:102A40001CC1C096E7CF8091CA039091CB03432F5E
:102A500055274330510509F44AC078F541305105F6
:102A600009F485C08BE590E0E4EEF6E042305105D4
:102A700009F003C12091E800277F2093E80020910E
:102A8000CC033091CD038217930708F49C0140E0FA
:102A90002115310509F070C041116EC08091E80028
:102AA00082FDC9CF8091C403882329F2853019F2B1
:102AB0008091E80083FFF2CFBECF4132510509F487
:102AC00047C04232510509F0D8C08330910508F063
:102AD000D4C0FC01EE0FFF1FED56FE4F0190F081B8
:102AE000E02D80579E4FDC018C9190E01DC0332774
:102AF00021303105E9F02115310579F02230310519
:102B0000F9F02330310509F0B8C0E1E5F7E0E491D0
:102B10008E2F90E0E1E5F7E007C0E3EAF7E0E4910B
:102B20008E2F90E0E3EAF7E0009709F4A6C0A2CF69
:102B3000E7E8F7E0E4918E2F90E0E7E8F7E0F4CFE4
:102B4000EFE6F7E0E4918E2F90E0EFE6F7E0ECCFD0
:102B50008330910508F091C0880F991FFC01E7565A
:102B6000FE4F0190F081E02D89E090E083CF82E17B
:102B700090E0EFE3F7E07ECF8091C403882309F46F
:102B80005ACF853009F457CF8091E80083FD53CFA9
:102B90008091E80082FD82CF8091E80080FF78CFAD
:102BA0009091F3008091F2002115310519F08830E1
:102BB000910550F041E0089709F040E08091E8006D
:102BC0008E778093E80064CF44914093F100319672
:102BD000215031090196E8CF803809F04EC080912C
:102BE000E800877F8093E8008091C5038093F1001F
:102BF00092CE811142C01091C8031230F0F580913D
:102C0000E800877F8093E8001093C5030E94E004EA
:102C1000112311F084E005C08091E30087FDFACF15
:102C200081E08093C40342E061EC81E00E94FF04F4
:102C300042E261EC84E00E94FF0442E261EC82E047
:102C40000E94FF0442E260EC83E00E94FF04809156
:102C5000C40313C08091C803813079F481E09330BC
:102C600009F080E08093C3031092E9008091E800AE
:102C7000877F8093E8000E94E0048091E80083FF52
:102C80000AC08091E800877F8093E8008091EB0084
:102C900080628093EB00AA96E3E00C946631E5E84D
:102CA000F3E0128E138E8FEA90E09183808385E0AB
:102CB000848F28E833E13383228322E330E0378BAB
:102CC000268B28EC30E0318F208F158E178E168ED4
:102CD00020E530E031A320A382A30E94390C0E949A
:102CE0007A131092630310926203E3E6F3E08081AB
:102CF0008460808380916203909163030E94C00C82
:102D00000E94180B08958F929F92AF92BF92CF921C
:102D1000DF92EF92FF921F93CF93DF9380901E017B
:102D200090901F0181E090E090931F0180931E011D
:102D300084ECC82E84E0D82ED0E07601C0E014C028
:102D4000F50125913491412F6C2F8D2F0E94810C1C
:102D500082E0A80EB11C1F5F153091F78AE0E80EE3
:102D6000F11CCF5FC53019F0570110E0E9CFDF5FEC
:102D700082E3C80ED11CD83001F70E944F16909202
:102D80001F0180921E01DF91CF911F91FF90EF9064
:102D9000DF90CF90BF90AF909F908F90089580E08C
:102DA0000E94A70C60E086E290E00E9437320E9409
:102DB00083160E94710C81E00E94A70C089568EEB2
:102DC0007EEF90E080E00E94553260E082E090E08B
:102DD0000E94373260E083E090E00E943732109228
:102DE000210260E084E090E00E94373264E082E2F9
:102DF00090E00E94373260E085E090E00E94373238
:102E000060E086E090E00E9437326FEF87E090E06C
:102E10000E94373240E050E0BA0188E090E00E9422
:102E2000493260E08DE090E00E94373240E050E0AF
:102E3000BA0188E190E00E94493260E087E190E0C9
:102E40000E94373240E050E0BA018CE190E00E94ED
:102E5000493270E060E080E290E00E94553240E04C
:102E600050E0BA0188E190E00E94493280E00E947F
:102E7000A70C0E94CF1640E050E0BA018FE090E02E
:102E80000E94493240E050E0BA0183E190E00E94A4
:102E900049320895CF92DF92EF92FF928FEF9FEF2A
:102EA0004430510508F46AC0FB01C080D180E28043
:102EB000F3800E947A1380916203C0FA80F9B7010F
:102EC000A601769567955795479540FB81F9B7011F
:102ED000A60122E076956795579547952A95D1F7F3
:102EE00040FB82F9B701A60133E0769567955795C7
:102EF00047953A95D1F740FB83F9B701A601E4E085
:102F00007695679557954795EA95D1F740FB84F9F3
:102F1000B701A601F5E07695679557954795FA951F
:102F2000D1F740FB85F9B701A601A6E07695679534
:102F300057954795AA95D1F740FB86F9B701A601A9
:102F4000B7E07695679557954795BA95D1F740FBC9
:102F500087F98093620380916303D0FA80F9D1FAF4
:102F6000CC24C0F8C0FA81F9809363038091620396
:102F7000909163030E94C00C90E080E0FF90EF907E
:102F8000DF90CF9008950E947A132FEF84E39CE0A6
:102F9000215080409040E1F700C0000088E19CE0B3
:102FA0000FB6F894A895809360000FBE90936000D0
:102FB000FFCF882341F080959091CE0389238093A1
:102FC000CE030E9485120895882339F09091CE0394
:102FD000982B9093CE030E9485120895882321F0A8
:102FE0000E9480090E9485120895882339F09091EB
:102FF0006403982B909364030E948512089588239C
:1030000091F19CEF980F913A80F4E4EAF1E02AEA1A
:1030100031E09191891303C0DF0111971C922E17A3
:103020003F07B9F70E948512089590E2980F9830F3
:1030300050F4877091E001C0990F8A95EAF7892FC3
:103040000E948009EFCF9BE5980F933028F490E021
:1030500080E00E942C060895885A873120F490E081
:1030600080E00E9416060895CF93DF93EC010E9442
:10307000FF17CE010E94580A9E01205E31092830B8
:10308000310510F0CD2B29F40E94EE17DF91CF917E
:1030900008950E94D917FACFCF93C82F8823B1F093
:1030A0008CEF8C0F813A00F5E4EAF1E08AEA91E0D6
:1030B000DF012D91C21761F08A179B07D1F76C2FA2
:1030C00082EA91E00E94FC050E948512CF9108954A
:1030D0002191C21303C0DF0111971C928E179F0725
:1030E000B9F70E948512EBCF80E28C0F883068F42C
:1030F000C77021E030E001C0220FCA95EAF7809145
:103100006403822B80936403DFCFEBE5EC0FE330A5
:1031100040F4F0E0E45DFE4F808190E00E942C06D8
:10312000D5CFC85AC73190F6EC2FF0E0EE0FFF1F55
:10313000E15DFE4F808191810E941606C7CF1F93EB
:10314000CF93DF93182FC091A503D091A6038933A5
:1031500021F0C091A303D091A403812F0E944C18A9
:10316000209739F4812F0E94FF17DF91CF911F9193
:1031700008958FE99FE00197F1F700C000002197C3
:10318000EFCF0F931F93CF93DF93C62FD42F022F30
:10319000FC0182818823A9F06093D5030E94F00589
:1031A0009093D4038093D303C77081E001C0880F4C
:1031B000CA95EAF70E94F517DF91CF911F910F9101
:1031C00008958091D50368133DC02091D3033091B9
:1031D000D4034FB7F8948091CF039091D003A0917E
:1031E000D103B091D2034FBF821B930B883C910552
:1031F00048F510E21D0F6D17B9F080E2860F883098
:1032000040F4C77081E001C0880FCA95EAF70E94B8
:10321000EE17183048F481E09D2F977001C0880F99
:103220009A95EAF70E94F517802F0E949F18183090
:1032300018F6D77081E001C0880FDA95EAF70E948E
:10324000EE17BACFC77081E001C0880FCA95EAF7C0
:10325000F6CFB0E0A0E0EFE2F9E10C944331EC01ED
:103260008AE0A82E2881222309F48FC02130C9F5D5
:1032700099818A81913021F422960E949F1805C07D
:10328000923029F422960E944C182196EBCF93306D
:1032900021F422960E94FF17F8CF943011F0219666
:1032A000F4CF229630E020E0AE014F5F5F4F8053B5
:1032B000990B8A30910550F02150310930F38FE994
:1032C0009FE00197F1F700C00000F6CFA29EB00189
:1032D000A39E700D11249C01260F371F8981EA01DE
:1032E000E3CFE22FF0E0E952F84FB490822F8695B9
:1032F0008695869590E0FC01E953F84FE49027709D
:10330000F12C022E02C0F594E7940A94E2F731E022
:10331000E322FF24FC01E954F84FC490D12C022E83
:1033200002C0D594C7940A94E2F731E0C322DD24A9
:10333000FC01E955F84F049110E002C0159507957E
:103340002A95E2F701701127E114F10419F081EEDA
:103350000E944C18C114D10419F086EE0E944C183A
:103360008B2D0E949F18C114D10419F086EE0E9483
:10337000FF17E114F10419F081EE0E94FF17011507
:10338000110509F482CF8CE278CFCDB7DEB7EAE041
:103390000C945F31CF93DF93EC010E94580A9E0199
:1033A000205E31092830310510F0209741F40E9449
:1033B000F5178C2F0E944C18DF91CF9108950E9431
:1033C000E417F7CF662329F02091CE0322602093E3
:1033D000CE039C013056211540E2340720F0305EC8
:1033E0002115304108F499270E94CA190895B0E0C8
:1033F000A0E0EDEFF9E10C9446317C018B01D42E75
:103400008091220182FF8CC0C091AB03D091AC03AC
:10341000CE15DF0521F0E114F10409F081C080919F
:1034200022018B7F8093220181FD73C08091A903CB
:103430009091AA03A801481B590B81E0209120011B
:10344000309121014217530708F480E08170F82E73
:1034500080912201F0FA81F980932201FE0183E03C
:10346000F695E7958A95E1F7EE71FF27EB59FC4F4A
:1034700020813181AE014F70552781E090E002C07C
:10348000880F991F4A95E2F7FF2009F444C0822B68
:10349000932B918380838091640381FF08C0809186
:1034A000220180618093220182E00E948009809144
:1034B000640385FF08C0809122018062809322010D
:1034C00080E20E9480096F2DCE010E94E219DD206A
:1034D00031F08091A00385FF02C086FF3BC0809140
:1034E000A3039091A4030E940E0B8091AB039091D3
:1034F000AC039C013056211540E2340720F0305EC9
:103500002115304108F499270E9434180E94D112E5
:103510001DC081E09BCF8095909582239323B9CFE6
:10352000C701992797013056211540E2340728F04A
:10353000305E2115304108F0C7010E943418809197
:10354000AB039091AC038E159F0501F31093AA0372
:103550000093A903CDB7DEB7E7E00C946231A6E093
:10356000B0E0E5EBFAE10C943B313C01DC01139651
:103570008D919C911497892B51F04C9111965C91EF
:103580001197842F85238F3F11F00C94AF25269639
:10359000E2E10C9457318091CA0191E08927809330
:1035A000CA0180911502877091F3D30112968C9114
:1035B000882369F38091630382FFE9CF82E00E9450
:1035C0002113E5CF8091CA01882309F437C11092F5
:1035D000CA0130EC8316910408F088C040E88416D4
:1035E000910408F0F5C050E48516910408F0BAC0C3
:1035F00021E030E040E050E060E070E080E090E00A
:10360000082D0E947231E091AA012E2BE091AB01AE
:103610003E2BE091AC014E2BE091AD015E2BE09191
:10362000AE016E2BE091AF017E2BE091B0018E2BAD
:10363000E091B1019E2B2093AA013093AB014093FE
:10364000AC015093AD016093AE017093AF018093D4
:10365000B0019093B101C40182519F45409710F091
:103660000C9442258FEF93E00E942332811199CF71
:103670000EEE080D6BEDE62EFF24F3940111D4C27B
:1036800019821A821B821C82BB24BA9487010F5FA5
:103690001F4FC7010E94233289831A82882309F4AD
:1036A00080CF813009F02AC3670182E0C80ED11CA7
:1036B000C8010E942332082F8A83882309F471CF1E
:1036C000C6010E942332182F8FEF800F833008F03D
:1036D000BAC2670193E0C90ED11C1B83112321F0EC
:1036E000CE0101960E9429197601D0CF6FEF861680
:1036F000910411F008F07CCF21E030E040E050E090
:1037000060E070E080E090E08401005C11090E94BC
:103710007231E091C2012E2BE091C3013E2BE0916A
:10372000C4014E2BE091C5015E2BE091C6016E2BCA
:10373000E091C7017E2BE091C8018E2BE091C90179
:103740009E2B2093C2013093C3014093C401509338
:10375000C5016093C6017093C7018093C80190931F
:10376000C90179CF21E030E040E050E060E070E056
:1037700080E090E08401005411090E947231E091D0
:10378000B2012E2BE091B3013E2BE091B4014E2B00
:10379000E091B5015E2BE091B6016E2BE091B7018F
:1037A0007E2BE091B8018E2BE091B9019E2B2093E6
:1037B000B2013093B3014093B4015093B5016093CB
:1037C000B6017093B7018093B8019093B90143CFCC
:1037D00021E030E040E050E060E070E080E090E028
:1037E0008401005811090E947231E091BA012E2B18
:1037F000E091BB013E2BE091BC014E2BE091BD015D
:103800005E2BE091BE016E2BE091BF017E2BE0911B
:10381000C0018E2BE091C1019E2B2093BA01309301
:10382000BB014093BC015093BD016093BE017093F6
:10383000BF018093C0019093C1010DCF70E4871642
:10384000910408F06FC0A091AA01B091AB01509013
:10385000AC014090AD013090AE012090AF0180915D
:10386000B0018D839091B1019E8321E030E040E072
:1038700050E060E070E080E090E0082D0E9472313E
:10388000A22EAA22B32EBB22C42EC520D52ED42010
:10389000E62EE320F72EF2200D8108231E81192346
:1038A0000E948B3111F00C94DA2590EC891691046A
:1038B00008F09AC0E0E88E16910408F0FBC0F0E42E
:1038C0008F16910408F0C6C021E030E040E050E0DF
:1038D00060E070E080E090E0082D0E947231209559
:1038E00030954095509560957095809590952A23D8
:1038F0003B234521542163217221AD818A23BE815E
:103900009B232093AA013093AB014093AC015093C9
:10391000AD016093AE017093AF018093B0019093BD
:10392000B1013FCEA0E88A169104F0F4A091B20153
:10393000B091B3015090B4014090B5013090B60100
:103940002090B7012091B8012D833091B9013E83B9
:1039500021E030E040E050E060E070E080E090E0A6
:103960008401005411098ACF40EC84169104F0F4CC
:10397000A091BA01B091BB015090BC014090BD0133
:103980003090BE012090BF015091C0015D836091D5
:10399000C1016E8321E030E040E050E060E070E083
:1039A00080E090E084010058110968CFA091C20125
:1039B000B091C3015090C4014090C5013090C60140
:1039C0002090C7017091C8017D838091C9018E83C9
:1039D00021E030E040E050E060E070E080E090E026
:1039E0008401005C11094ACF2FEF8216910411F077
:1039F00008F06ACF8401005C110921E030E040E06A
:103A000050E060E070E080E090E00E94723120952C
:103A100030954095509560957095809590952A23A6
:103A20003B234521542163217221ED818E23FE81A8
:103A30009F232093C2013093C3014093C40150934C
:103A4000C5016093C6017093C7018093C80190932C
:103A5000C901A7CD84010054110921E030E040E004
:103A600050E060E070E080E090E00E9472312095CC
:103A700030954095509560957095809590952A2346
:103A80003B234521542163217221ED818E23FE8148
:103A90009F232093B2013093B3014093B40150931C
:103AA000B5016093B6017093B7018093B80190930C
:103AB000B90177CD84010058110921E030E040E0E0
:103AC00050E060E070E080E090E00E94723120956C
:103AD00030954095509560957095809590952A23E6
:103AE0003B234521542163217221AD818A23BE816C
:103AF0009B232093BA013093BB014093BC015093A8
:103B0000BD016093BE017093BF018093C00190938B
:103B1000C10147CD2FEF8216910409F068F530E41A
:103B200083169104A8F5A090AA01B090AB01C090B3
:103B3000AC01D090AD01E090AE01F090AF01A0914A
:103B4000B001B091B10121E030E040E050E060E030
:103B500070E080E090E0082D0E947231A222B32232
:103B6000C422D522E622F722082F0A23192F1B236D
:103B70000E948B3109F415CDE031BFE5FB0709F454
:103B8000C7C0E1312FE5F20709F4CAC04F0186C76B
:103B900040E884169104E0F4A090B201B090B30123
:103BA000C090B401D090B501E090B601F090B7019B
:103BB000A091B801B091B90184010054110921E02C
:103BC00030E040E050E060E070E080E090E0C4CFA2
:103BD00050EC85169104A0F4A090BA01B090BB01FE
:103BE000C090BC01D090BD01E090BE01F090BF013B
:103BF000A091C001B091C101840100581109DFCF2B
:103C0000A090C201B090C301C090C401D090C50182
:103C1000E090C601F090C701A091C801B091C90120
:103C20008401005C1109CBCFE11464E0F60609F4CD
:103C3000B8CCC7010E942332811101C001507FEF2F
:103C4000E71AF70A1BCD8BEF800F833078F5C70199
:103C500003961B836C01112309F446CD6701A4E090
:103C6000CA0ED11C0E9423328C83882309F43CCDD8
:103C7000EB80FC80B1E0EB16BFEFFB0610F0FE2CF2
:103C8000EE24063079F0073049F0C7010E9416296A
:103C90008091A3039091A4030E940E0BC7010E9480
:103CA000F12822CDC7010E9416291ECD043009F04B
:103CB0001BCD6701E4E0CE0ED11CC70103960E9424
:103CC0002332112309F46DCC882309F46ACC815086
:103CD000990BB89E9001B99E300D1124412F41508F
:103CE000550BCA01820F931F019708F4FDCCAFE971
:103CF000BFE01197F1F700C00000F6CFCE010196AA
:103D00000E9429196801F0CC81E00E94521303C07F
:103D100081E00E9414130E94081343CC82E0F5CF87
:103D200082E0F7CF80912201816080932201E6C674
:103D3000809122018E7F809322010E94D112DEC6E3
:103D4000809122018F7E61EE8616910439F075EE26
:103D500087169104D9F4809122018F7D80932201EE
:103D60008091220180FFD9C6F3018281F8E28F168B
:103D7000910438F52EE18216910408F079C034E000
:103D800083169104A0F58111C4C6C7C6C40190561C
:103D90008115A0E29A0720F0905E8115904100F70E
:103DA0008091220182FFB9C68091A20381FDB5C630
:103DB00024E332E040E0B80190E080E00E94F7198F
:103DC000ACC649E38416910468F45DE2851691045B
:103DD00020F46BE286169104B1F69091A00392FD57
:103DE000D2CF09C074E687169104B9F3CCCF909175
:103DF000A00394FDC8CF882309F49DC0909164036B
:103E000080912002282F292B322F3D7FB1F1109273
:103E1000AC031092AB033091A00331FD2EC0F4012E
:103E200043E0F695E7954A95E1F7EE71FF27EB59E8
:103E3000FC4F94012F70332781E090E002C0880F7F
:103E4000991F2A95E2F780959095208131818223F0
:103E500093239183808360E0C4010E94E2198091E2
:103E600020028D7F0E946C0982E00E94211399CB71
:103E70009091A00393FD87CFBECF36E0F301A4E37A
:103E8000B2E001900D923A95E1F71092360210924D
:103E90003802109237024091AB035091AC034815A1
:103EA000590591F53091A00335FF2EC040912201B4
:103EB00041FBFF24F0F841FF02C036FF25C04091CE
:103EC000A9035091AA03D801A41BB50BA83CB105C6
:103ED000D8F491FF08C08091220180618093220173
:103EE00082E00E9480098091640385FF08C0809170
:103EF000220180628093220180E20E9480096F2D5E
:103F0000C4010E94E2194DCB9091220121FB91F94D
:103F1000909322018D7F0E946C099092AC03809255
:103F2000AB031093AA030093A9038091220184603C
:103F30008093220199CF930140E0B801C4010E940F
:103F4000F7192FCB45EF84164CE5940609F465C0AC
:103F500008F45FC066EF86166CE5960609F461C04A
:103F6000D30112963C91332309F427C61092D5034E
:103F7000B3E08B16BDE59B0608F05AC0EAEF8E163B
:103F8000ECE59E0630F4C40182509C45449708F04D
:103F90005DC00E94150C909363038093620352E10D
:103FA00085165CE5950609F493C108F0D5C079E063
:103FB00087167CE5970609F469C108F098C095E07A
:103FC00089169CE5990609F455C108F07CC0B3E058
:103FD0008B16BCE59B0609F445C108F047C18091EA
:103FE00062038160F2E08F16FCE59F0609F4B1C020
:103FF00080916203909163030E94C00C0E947A1327
:10400000D0CA27E245EE65EEA5C526E241EE60EE98
:10401000A1C527E245EE64EE9DC526E241EE62EEC3
:1040200099C527E245EE66EE95C528E241E0EBCF63
:10403000F5EA8F16FDE59F0609F4ABCF08F03CC00A
:1040400041E684164DE5940609F4A3CF96E189165E
:104050009CE5990609F055C280916403982F9A7ADD
:1040600020919F0320FF04C0482F447409F090E082
:1040700021FF04C0482F417109F090E022FF04C0E5
:10408000482F487809F090E023FF03C0827209F0BE
:1040900090E0332309F446C181E0911101C080E032
:1040A0008093CB0169E2911165E382EA91E00E947D
:1040B000FC050E94851275CAC4018D5A9D4503975F
:1040C00008F0C4CF66CF80916203806227E0821639
:1040D0002CE59206F1F180916203806138E083164D
:1040E0003CE59306B0F180916203806432C04DE0FC
:1040F00084164CE5940609F4D3C0A0F480916203C1
:104100008E7F6BE086166CE5960619F1809162034E
:104110008C607CE087167CE59706D8F0809162037E
:104120008D7F17C08FE088168CE5980609F4C8C00B
:1041300008F4BAC0A0E18A16ACE59A0609F4C4C036
:10414000809162038F7BB1E18B16BCE59B0609F081
:104150004FCF809362034CCFEFEF8E16ECE59E06B7
:1041600009F4C0C0D8F52AEF82162CE5920609F4AE
:1041700085C0D0F444E184164CE5940609F4C0C02F
:1041800008F4ACC065E186166CE5960609F030CF00
:104190008091620382FB992790F921E0922790FB9E
:1041A00082F990FB83F9D5CF7CEF87167CE59706E3
:1041B00009F47EC008F466C09DEF89169CE5990657
:1041C00009F47AC0809163038360AEEF8A16ACE590
:1041D0009A0609F00DCF809363030ACFB1E68B16E0
:1041E000BDE59B0609F497C0A0F4F1E08F16FDE54C
:1041F0009F0609F48EC008F479C060E032E08316AF
:104200003DE5930609F0F4CE8EE090E00E9437324F
:10421000EFCE4DEA84164DE5940601F168F49091D5
:104220006203892F8E7F90FF816065EA86166DE5B7
:10423000960609F48ECFDCCE7EEA87167DE59706DA
:1042400059F18FEA88168DE5980609F0D1CE909144
:104250006303892F877F93FF8860BDCF80916303BD
:104260008860B9CF80916203826073CF80916203CE
:1042700084606FCF8091620388606BCF809163030D
:104280008160A9CF809163038260A5CF0E947A13D9
:104290008091620380685DCF80916303877F9BCFAD
:1042A000809162038B7F55CF80916203877F51CFCE
:1042B000809163038E7F8FCF809163038D7F8BCF3F
:1042C000809162038F7E45CF809162038F7D41CFC5
:1042D0000E947A13809162038F773BCF80916203B3
:1042E000837F37CF809163038C7F75CF8091630389
:1042F000982F909591708E7F892B90FB81F96BCFD1
:104300000E947A1390916203892F97FB87F9805856
:1043100020CF61E079CF90916203892F8F7E94FF47
:10432000806117CF8091CB0181110EC089E2E4EA50
:10433000F1E09191891303C0DF0111971C92A1E074
:10434000EA3AFA07B1F7B5CE85E3F1CF64EC861609
:104350006CE5960609F4A5C075EC87167CE5970612
:1043600009F052C448EA50E162EB70E117C099ECE1
:1043700089169CE5990609F4A3C098F4B7EC8B164E
:10438000BCE59B0609F497C04BE950E16EE870E18B
:10439000E8EC8E16ECE59E0609F036C40E94D206C3
:1043A00000C9FAEC8F16FCE59F0609F48EC04CEBB1
:1043B00050E16EEC70E12BEC82162CE5920671F365
:1043C00023C431ED83163CE5930609F491C0B8F49B
:1043D0005EEC85165CE5950609F484C008F47FC0A0
:1043E0007FEC87167CE5970609F47FC080ED881680
:1043F0008CE5980609F008C46EE089E025C094EDCC
:1044000089169CE5990609F479C088F4B2ED8B16FB
:10441000BCE59B0609F46FC061E088E1E3ED8E1610
:10442000ECE59E0609F0F0C30E94E010BAC8F5ED75
:104430008F16FCE59F0609F4B4C868E283E22DE517
:104440008216920609F0E0C30E94AB11AAC88091BF
:10445000590380FF1BC08E7F8093590360915903DD
:1044600070915A0380915B0390915C030E94DF0F6F
:1044700010924C023FEF40E752E031504040504034
:10448000E1F700C000000E94E40C8BC881608093BB
:10449000590361E08695C8CF46E951E160EA71E1D0
:1044A0007DCF40EA51E166E971E178CF42EB50E11E
:1044B00068EA70E173CF4EE850E16BE970E16ECFCE
:1044C00044E750E161E870E169CF41E850E164E719
:1044D00070E164CF4EEC50E16CEB70E15FCF61E0D6
:1044E00081E0A2CF65E082E0AFCF68E086E0ACCFAC
:1044F00064E18FE0A9CF67E185E1A6CF62E289E1BF
:10450000A3CF6AE586166DE5960699F168F48114E5
:104510008CE59806B9F09EED89169CE5990609F0A0
:1045200073C30E94DF160CC0ACE58A16ADE59A068F
:10453000B1F008F1E7EA8E16EDE59E0609F064C3D6
:104540000E94C3170E947A13FFEF24E33CE0F1506E
:1045500020403040E1F700C000000E94EA0A80914C
:10456000630382FB882780F991E089270E943D132D
:104570004BC381E0FBCF80E0F9CFC8010E94D20994
:10458000F82E51C3E12FEF70DE2E812F807F19F0BE
:10459000D29490EFD922EE20B9F0DD2069F080E2CC
:1045A000800F883010F0A11009C080916403D82AD0
:1045B000D09264030E948512802F61C08091CE0347
:1045C000D82AD092CE03F6CF802F0E94FF17DD208D
:1045D00009F457C080E2800F883010F0A11004C0A9
:1045E0008D2D0E94800906C0D0948091CE03D822E0
:1045F000D092CE030E94851244C0F12FFF70DF2EAF
:10460000812F807F803219F0D29480EFD822AA20A7
:1046100029F121E0A21609F4BFC0EE2009F4C8C0B8
:10462000FF2009F490C020E0D3014C9111965C91D9
:10463000119712966C91129713967C91139714967A
:104640008C910E94D90B8091A20381FDB5CFF3011B
:10465000858180FFB1CF8F70858375C080916303A2
:1046600082FD51C0EE2009F447C0DD2039F0809171
:104670006403D82AD09264030E94851280E00E94CD
:104680004C18EB2DE850FF0B349720F40E944206A3
:104690000E944511C8010E943D0A8111CDC11092AE
:1046A000CE011092CD01CC20A9F08091150280FDA1
:1046B00011C0F30112828595859585950E9452134C
:1046C000C3010E94AF1A8091150285958595859545
:1046D0000E94141320E0D3014C9111965C91119724
:1046E00012966C91129713967C91139714968C9155
:1046F0000E94D90B0C94C71A80E00E94FF17DD209E
:1047000009F4BFCF6DCFEE2011F1F11004C08091FC
:1047100020028D2919C031E0F31206C080912002D9
:104720008D290E946C09ADCF8091A103823078F36E
:10473000F812EDCF0E9461099091CC018D2D892B4B
:1047400089138093CC018D2D0E94F5179ACFF1101B
:1047500003C00E94610917C08091A10341E0F412D7
:1047600016C0823008F48DCF809164038D2109F446
:1047700088CF0E9461099091CC018D2D809589236D
:1047800089138093CC018D2D0E94EE177ACF823051
:1047900000F38F11DECF75CF8091A703EE2021F0BB
:1047A0008F1508F46ECFCFCFF81608F06ACFEBCF95
:1047B000FF2049F3F9E3AF1237C18091A50390912F
:1047C000A6030E940E0B802F0E94FF175ACF812F45
:1047D00086958695837061F0813009F052CFC801CB
:1047E0009370E11002C090E080E00E94160649CF6D
:1047F000C8019370E11002C090E080E00E942C0696
:1048000040CF812F837091F5E1103BCF402F42952F
:1048100046954770440F440F802F8F70042E01C0BF
:10482000880F0A94EAF7202F207104FF07C02FE0B9
:1048300030E001C0220F4A95EAF72095312F3695D6
:1048400036953370323069F050F4409121023130A6
:1048500029F0822B84230E94751313CF842B822B83
:10486000FACF282B809121028227F5CF8695EE2062
:1048700011F0812F8170882309F403CF402F4295D6
:1048800046954770440F440F802F8F70042E01C04F
:10489000880F0A94EAF7202F207104FF07C02FE049
:1048A00030E001C0220F4A95EAF72095312F369566
:1048B00036953370323069F050F44091D603313080
:1048C00029F0822B84230E940113DBCE842B822BC0
:1048D000FACF282B8091D6038227F5CF212F2F7076
:1048E000D22EEE2029F0822F0E945213802F2CCF3F
:1048F000802F0E94EE178D2D0E941413C2CE802FA0
:1049000032EFA316B1F13A1570F040EFA416D1F0D2
:1049100051EFA51691F0EE2009F481C0F1104CCEB4
:10492000812F8F712AC063EFA61651F174EFA71281
:10493000F2CF8091630382FD2FC0812F8F71EE2013
:10494000D9F21BC08091A703EE2079F0F81608F089
:1049500098CE212F2F7181E090E001C0880F2A9519
:10496000EAF79091D6038927AECF8F1508F489CE48
:10497000F0CF812F8F71E110BFCF0E94521381CEF3
:1049800080E0EE2009F49FCF81E0912F9F7101C05C
:10499000880F9A95EAF797CF8091A103823038F17A
:1049A000EE20C9F0909115029770943041F40E9466
:1049B0008709812F8F710E941413C12C62CEF816C3
:1049C000E0F7812F8F71D82E0E94521363E08D2D56
:1049D0000E945E13F2CFF81630F00E94870964E05F
:1049E000812F8F71F5CF81E00E942113E6CFEE2059
:1049F00059F0912F9F71D92E892F0E94521363E095
:104A00008D2D0E945E133DCE81E00E942113A1E016
:104A1000AF1508F036CE82E00E94211332CEFF207F
:104A200041F0893309F4C9CE8091A3039091A40386
:104A3000C8CE812F8F7160CFEE2019F0F1102FCEEC
:104A400032CEF1102CCE20E0D3014C9111965C9126
:104A5000119712966C91129713967C911397149656
:104A60008C910E94D90B8091A20383FF18CE809174
:104A7000CD019091CE01029709F011CE802F0E94B6
:104A80009F180DCEB0E18B16BFE59B0609F43CC91B
:104A9000E1E18E16EFE59E0609F440C98091A0037E
:104AA00080FF3BC00E94F0058C01F30182818823C6
:104AB00009F446C98091220182FF08C024E332E054
:104AC00040E0B80190E080E00E94F719FBE18F160A
:104AD000FCE59F0609F426C92CE182162CE5920616
:104AE00009F426C990912201892F8E7F90FF816061
:104AF0003AE183163CE5930609F41DC9C4019056BA
:104B0000811540E2940728F0905E8115904108F0ED
:104B100027C91092AC031092AB03B3EF8B16BCE520
:104B20009B0609F472CA08F00DCAF8ED8F16FCE571
:104B30009F0609F466CA29ED82162CE5920609F44F
:104B400074CA37ED83163CE5930609F009CA26E2DC
:104B500041EE61EEC3010E94C1180C94D11A21E00C
:104B600012966C91129713967C91139714968C91D0
:104B70000E94D90BFC01815095454F018F3F910553
:104B800010F4B5E59B26D30112968C91882311F47D
:104B90000C948A1DBFEF8B16910409F010F40C944D
:104BA000E21A2AE282162DE5920611F40C94CB1A31
:104BB0001092CA014F010C942B1B46E184164CE560
:104BC000940609F449CA809164038272BCEC8B1686
:104BD000BCE59B0609F47ECC08F0F3CBF6EC8F160F
:104BE000FCE59F0609F462CC08F0C1CB33EC8316D8
:104BF0003CE5930609F450CC08F0A8CB52EC85169E
:104C00005CE5950609F423CCF301828100811181D2
:104C1000882309F4B2CCC8010E948A0BF82E682FB1
:104C2000C8010E94060AB8018F2D0E946D0B0E94D8
:104C3000E0078C01A82ED3011296EC9012971596DE
:104C4000FC90F2943FE0F322809115028770C1F04E
:104C5000CE2CEE20B1F0812F807F803421F080E2D5
:104C6000800F883068F08091630382FF09C082E082
:104C70000E942113809115028770CC24C394811166
:104C8000C12CB12EB2942FE0B222BBE0BB1508F4C8
:104C9000F8CCEB2DF0E0E652FD4C0C941F311F9345
:104CA000CF93DF938091E001807F09F049C080912C
:104CB000DD01882309F444C080911202D091E10102
:104CC0006091DB017091DC01A091DE01B091DF0108
:104CD000C62FC72316E0D81799F190E0109711F06E
:104CE000CF3F19F401968770F6CF189F9001199F56
:104CF000300D1124F901EE51FE4F41814713F2CFDF
:104D000040814613EFCF42814111ECCF4381548162
:104D10004A1B5B0B483C510528F78091E0018F70DE
:104D200080618093E001F901E951FE4F80818F702D
:104D3000806180838BED91E00E94AF1A0E94C809C8
:104D4000DF91CF911F910895A1E1B0E0EAEAF6E288
:104D50000C9441318C0185E0F801DE011D96019033
:104D60000D928A95E1F7D8019C9011968C9011973D
:104D70001296EC9012971396CD90DC9020E0409123
:104D8000DB015091DC016091DD017091DE018091C9
:104D9000DF010E94D90B8BEDA82E81E0B82E409147
:104DA000DE015091DF014115510509F43AC190919E
:104DB000DB012091DC01892F82238F3F09F431C16F
:104DC000F090DD01F601E41BF50BFF2009F4F6C0BD
:104DD0008091E001382F307FE83CF10508F0C0C039
:104DE000D80111964C91119731117BC0FE2C4213C2
:104DF00015C02C91291312C0E11010C08F70806172
:104E00008093E001C5010E94AF1A8091E001F80192
:104E100085838F2D6196ECE00C945D31C114D10433
:104E200029F0892D88218F3F09F019C180E080FF8A
:104E300018C04E2D682D892D0E94A809882389F05D
:104E40008091A20380FF0DC08BED91E00E94AF1A0C
:104E500086E0EBEDF1E0DF011D928A95E9F7F12C98
:104E6000D8CFC114D10429F0892D88218F3F09F0B2
:104E7000F3C080E0B82FB170CB2E80FF29C04E2D3B
:104E8000682D892D0E94A809D82E811121C09D86E8
:104E90008E868D859E850E94B90B292F22952F70B5
:104EA000223050F0243078F49F7051F0F801958151
:104EB000907F31F4FD2CADCF9F7011F08823D1F39A
:104EC000805E8830B8F3C8010E94AF1ADC2CF2CFA4
:104ED000EE2009F49ECF8091E00181608093E00193
:104EE000BECF421313C02C91291310C0E1100EC085
:104EF00015968C93C8010E94AF1A86E0F801ABEDBD
:104F0000B1E001900D928A95E1F783CFC8010E942C
:104F1000C60B882309F1EE20F9F08091E001803280
:104F200070F02091DB013091DC0138872F831986E6
:104F3000DB86CA868C87CE0107960E94AF1A86E070
:104F4000F801ABEDB1E001900D928A95E1F70E9476
:104F50004F26FF24F3945DCFC8010E94AF1AF9CF0A
:104F6000332309F471CFF801318132130FC020814E
:104F700029130CC0E1100AC08583C8010E94AF1A32
:104F800086E0D5011D928A95E9F743CFC8010E94BA
:104F9000C60B882309F3EE20F9F28091E0018032FC
:104FA00070F22091DB013091DC013A8329831B826E
:104FB000DD82CC828E83CE010196BFCFE83CF10525
:104FC000F8F6FE2CEE2041F2F801818182131BC01D
:104FD0008081891318C08091A20382FD8ECF9091A9
:104FE000E00190FD8ACF907F09F487CF8091E001A6
:104FF0008583903F09F47ECF982F907F905F8F70CC
:10500000892B858377CFC8010E94C60B811197CF6A
:105010008091E00181608093E001C8010E94AF1A95
:10502000F8CEEE2009F498CFC8010E94C60BF82EE6
:10503000882309F491CF86E0F801ABEDB1E001904F
:105040000D928A95E1F78091DB019091DC010E943D
:10505000B90B0E944F26DDCE81E08E250BCF81E07B
:105060008E25E5CEA7E1B0E0E8E3F8E20C944A3102
:105070004B8B5C8B6D8B7E8B8F8B8E899F89892B65
:1050800029F0CA0189238F3F09F0A1C08D898111C0
:105090001092CE031A8A198A85E0FE017396DE010A
:1050A0001D9601900D928A95E1F78091630382FF2E
:1050B0001EC08091870390918803892BC1F00E94C4
:1050C000F0052091130230911402821B930B209162
:1050D0008703309188038217930720F0809115028F
:1050E00082FF71C00E948E0981110E94610986E0D1
:1050F000FE013D96DE01179601900D928A95E1F72B
:10510000CE0107960E94A426882359F016E08091CC
:1051100012029091E101891343C06796E3E00C9479
:10512000663186E0FE013796DE01119601900D9200
:105130008A95E1F78A859B85892B41F388859F8134
:1051400089238F3F19F32091E10130E0C9010196D5
:1051500087709927409112024817190671F40E942E
:105160007A131092E1011092120286E0EBEDF1E069
:10517000DF011D928A95E9F7C9CF96E0929FD00191
:10518000939FB00D1124AE51BE4FFE013196019098
:105190000D929A95E1F78093E1010E94C809B6CF7C
:1051A000819FC00111248E519E4F0E94A426882306
:1051B00009F4B3CF8091120290E00196877099278D
:1051C00080931202A4CF82E00E9421138BCF8091A2
:1051D000CD019091CE0101969093CE018093CD01A7
:1051E00055CFA5E0B0E0E7EFF8E20C944B31909397
:1051F0005F0380935E03811520E2920730F40E94E2
:1052000034182596E2E00C94673180EF89838A8315
:105210001B820E94F0058160782F9D838C834981D9
:105220005A816B818D810E943228EBCFA5E0B0E0DE
:10523000ECE1F9E20C944B3190935F0380935E03B1
:10524000811520E2920730F40E94CA192596E2E007
:105250000C94673180EF89838A8381E08B830E947D
:10526000F0058160782F9D838C8349815A816B8101
:105270008D810E943228EACF90E080E00E94313296
:10528000883E9E4F19F40E94FC0B089580E008951B
:105290001F920F920FB60F9211242F933F934F93AB
:1052A0005F936F937F938F939F93AF93BF93CF93AE
:1052B000DF93EF93FF93D091E900DF708091EC00D2
:1052C000C82FC17080FDC0E81092E9008091F00005
:1052D000877F8093F00078940E9486131092E900F3
:1052E0008091F00088608093F000CD2BCF70C09348
:1052F000E900FF91EF91DF91CF91BF91AF919F9125
:105300008F917F916F915F914F913F912F910F906E
:105310000FBE0F901F9018951F920F920FB60F920D
:1053200011242F933F934F935F936F937F938F93AA
:105330009F93AF93BF93EF93FF938091E10082FF20
:1053400009C08091E20082FF05C08091E1008B7F5F
:105350008093E1008091DA0080FF24C08091D80022
:1053600080FF20C08091DA008E7F8093DA008091E8
:10537000D90080FF9DC080E189BD82E189BD09B46B
:1053800000FEFDCF81E08093C4038091B7038111BB
:1053900009C00E9466040E9431058091E200846089
:1053A0008093E2008091E10080FF17C08091E200CD
:1053B00080FF13C08091E2008E7F8093E200809195
:1053C000E20080618093E2008091D8008062809347
:1053D000D80019BC85E08093C4038091E10084FF6C
:1053E0002BC08091E20084FF27C080E189BD82E16B
:1053F00089BD89B5982F917080FFFBCF8091D8002F
:105400008F7D8093D8008091E1008F7E8093E100B2
:105410008091E2008F7E8093E2008091E2008160C3
:105420008093E2008091C503882309F447C084E09B
:105430008093C4038091C4038091E10083FF27C05F
:105440008091E20083FF23C08091E100877F8093F9
:10545000E10082E08093C4031092C5038091E100D3
:105460008E7F8093E1008091E2008E7F8093E20046
:105470008091E20080618093E20042E060E080E0A1
:105480000E94FF048091F00088608093F000FF91FB
:10549000EF91BF91AF919F918F917F916F915F91AC
:1054A0004F913F912F910F900FBE0F901F90189525
:1054B00019BC1092C4031092B70374CF8091E3001B
:1054C00087FD93E09093C403B5CF78941F921FB6E5
:1054D0001F9211248F939F93AF93BF938091CF031B
:1054E0009091D003A091D103B091D2030196A11D58
:1054F000B11D8093CF039093D003A093D103B093B9
:10550000D203BF91AF919F918F911F901FBE1F90AB
:1055100018951F921FB61F9211248F939F93AF93DC
:10552000BF938091B303811113C08091CF039091F9
:10553000D003A091D103B091D2034196A11DB11D1A
:105540008093CF039093D003A093D103B093D20361
:10555000BF91AF919F918F911F901FBE1F90189583
:10556000CDB7DEB7E2970FB6F894DEBF0FBECDBF62
:1055700085B7806885BF85B7806885BF84B7877F1A
:1055800084BF0FB6F894A8958091600088618093DD
:105590006000109260000FBE80E890E00FB6F894B3
:1055A00080936100909361000FBE84E897E0909330
:1055B000A1018093A0010E94180B0E9466040E9422
:1055C00031058091E20084608093E20078948091BC
:1055D000C4038823A1F01091E9001F709091EC00A2
:1055E000892F817090FD80E8182B1092E90080913E
:1055F000E80083FD0E9486131F701093E90082E08B
:1056000084BD93E095BD9AEF97BD80936E000E9494
:10561000FC0B811102C00E94CF160DE511E0D801EC
:105620008D918D018F3F11F00E948607B1E0023607
:105630001B07A9F702E611E027E6E22E21E0F22E91
:10564000F80181918F018F3F11F00E948607E016CB
:10565000F106B1F785E0EDE3F2E0DF01282F1D92BE
:105660002A95E9F7E5E2F2E0DF011D928A95E9F774
:105670000E943C29811102C00E94DF1682E090E066
:105680000E94233280932E020E94150C9093630394
:10569000809362030E94CC11BFEFE6E7F1E0B150C6
:1056A000E040F040E1F700C000000E94CC11809182
:1056B0003D0280FF08C06FEF7FEF90E080E00E9426
:1056C00055320E94EA0A83E090E00E9423320E9451
:1056D00075138091D6030E944B1180912A0281118B
:1056E00033C00E943C29811104C00E94DF160E9431
:1056F000BB1188E090E00E942B32609359037093B5
:105700005A0380935B0390935C036E7F71F40E9455
:10571000BB1188E090E00E942B3260935903709394
:105720005A0380935B0390935C030E94D806109207
:105730004C028091590380FF04C060E086950E946E
:10574000E01081E080932A028EEA91E09093440277
:105750008093430284E091E09093B0038093AF0381
:1057600088E1C82ED12C8DE392E095E0B92EB80ED9
:10577000CE0101967C018091C403853019F500E4C7
:10578000A02E9924939400E112E18091C403853006
:1057900009F468C00E947A130E9442060E944511D3
:1057A0001092420280912B02882309F4AFC08091AD
:1057B000590381608093590360E086950E94E01050
:1057C0000E94CE0C0E94CC11BFE28B2EB2E09B2E29
:1057D0001DE3612E12E0712ED301F40191918D91A0
:1057E00022E0E433F20709F49BC09817B9F310E004
:1057F000D3010D913D01F40141904F01401619F183
:105800004026A12C55245394842D8521A1F0AEA6C9
:105810001FA791E0802F852109F490E098AB0E94AA
:10582000F0058160782F9AAB89AB4EA55FA568A97A
:105830008AA90E943228A394550CF5E0AF12E4CF58
:10584000F401319700831F5F153091F68FB7F894FC
:105850004091CF035091D0036091D1037091D20356
:105860008FBF7EC08091C403843009F440C080E0C3
:105870000E94451110924C0280914202811116C083
:105880009092420280915903982F917090932B022D
:105890008E7F809359039FEFA0E7B2E09150A04024
:1058A000B040E1F700C000000E94E40C1092B30386
:1058B0000FB6F894A895C09260000FBEA092600049
:1058C00083B7817F846083BF83B7816083BF78940F
:1058D000889583B78E7F83BF0FB6F894A895809183
:1058E0006000886180936000109260000FBE80911C
:1058F000C303882309F449CF0E94CC11EDE3F2E001
:10590000819181110DC4BE12FBCF3FCF80914D021A
:1059100090914E02892B09F453CF0E94E40C50CF92
:10592000981365CF0E94F0058C0180912C02909114
:105930002D0208171907A1F08FEF89A78AA71BA6C8
:105940000E94F0058160782F9DA78CA749A55AA5D4
:105950006BA58DA50E94322810932D0200932C0276
:105960008091A00380FF1EC08091220182FF1AC097
:105970000E94F0052091A9033091AA03AC01421BBB
:10598000530B20912001309121014217530750F011
:1059900024E332E041E0BC018091AB039091AC0381
:1059A0000E94F71980914C028823D1F180914B021B
:1059B000E0915903E695E81BE0934702823009F035
:1059C0007FC0F0E0E153FE4FE4910E2F10E0ABEC0E
:1059D0008A2EAFE09A2E80914802882361F01092BF
:1059E00048020E94F005909346028093450210926F
:1059F0004A02109249020E94F005E0914502F0919E
:105A000046028E1B9F0B8F3F9F4750F4E00FF11F04
:105A1000F0934602E093450285E492E0F401099593
:105A20000E94420690913A02891779F080933A02D7
:105A30009FB7F8944091CF035091D0036091D10368
:105A40007091D2039FBF0E9445118091C40384309E
:105A500009F091CE83E08093E9008091E80082FF15
:105A60008ACE8091E80090E085FF06C00E94850400
:105A7000882309F47DC091E08091E8008B778093C2
:105A8000E800992309F477CE009160031091610337
:105A900089810115110509F487C08E3F09F014C1F1
:105AA0008A81833020F08550833008F00DC1EA816F
:105AB000EE3008F009C1F0E0EA51FD4C0C941F31C2
:105AC000863059F4F0E0E453FE4FE4910E2F10E0DD
:105AD000FBEB8F2EFFE09F2E7ECF893061F4E695A1
