:100000000C9422040C9469040C9469040C94690403
:100010000C9469040C9469040C9469040C946904AC
:100020000C9469040C9469040C94182F0C94EC2F14
:100030000C94B9260C9469040C9469040C9469041A
:100040000C9469040C9469040C9469040C9469047C
:100050000C9469040C9410270C9469040C946904A2
:100060000C9469040C9469040C9469040C9469045C
:100070000C9469040C9469040C9469040C9469044C
:100080000C9469040C9469040C9469040C9469043C
:100090000C9469040C9469040C9469040C9469042C
:1000A0000C9469040C9469040C9469045300540082
:1000B0005500560029005F00600061005700C25CD7
:1000C0005C005D005E005800C35C59005A005B0094
:1000D0005200015162006300500051004F003A008D
:1000E0003B003C003D003E003F004000410042001C
:1000F000430044004500A800AA00A900AE00AD00DE
:10010000AC00AB000100E500E600E7006500E4009C
:1001100001000100010001000100010001000100D7
:1001200001000100010001000100010001000100C7
:1001300001000100010001000100010001000100B7
:1001400001000100010001000100010001000100A7
:1003C0000100010001000100010001000000000027
:1003D000000000002A2B28000000000000000000A0
:1003E0000000000000000029000000002C1E342046
:1003F000212224342627252E362D3738271E1F206C
:100400002122232425263333362E37381F040506B0
:100410000708090A0B0C0D0E0F10111213141516F4
:100420001718191A1B1C1D2F3130232D35040506F2
:100430000708090A0B0C0D0E0F10111213141516D4
:100440001718191A1B1C1D2F3130354C00000000E5
:10045000000000000000000000000000000000009C
:100460007E0F00D4FFFFFFC70000007832190A009A
:10047000047F3F1F643214643214783C1E1E140A39
:10048000052223252628292A2C2D2F3032333536D4
:10049000383A3B3D3E4042434547494A4C4E505115
:1004A000535557595A5C5E6062646668696B6D6F3C
:1004B00071737577797B7D7F81838587898A8C8E3F
:1004C00090929496989A9C9E9FA1A3A5A7A8AAAC47
:1004D000AEAFB1B3B4B6B8B9BBBCBEBFC1C2C3C581
:1004E000C6C7C9CACBCCCDCED0D1D2D2D3D4D5D623
:1004F000D7D7D8D9D9DADADBDBDBDCDCDCDCDCDD56
:10050000DDDDDDDCDCDCDCDCDBDBDBDADAD9D9D839
:10051000D7D7D6D5D4D3D2D2D1D0CECDCCCBCAC9D1
:10052000C7C6C5C3C2C1BFBEBCBBB9B8B6B4B3B100
:10053000AFAEACAAA8A7A5A3A19F9E9C9A9896949B
:1005400092908E8C8A89878583817F7D7B79777570
:1005500073716F6D6B6968666462605E5C5A59574F
:10056000555351504E4C4A4947454342403E3D3B0E
:100570003A3836353332302F2D2C2A292826252398
:1005800022FFAA7F55400001010101010101010183
:100590000202020202020202020303030303030334
:1005A0000304040404040404050505050506060601
:1005B0000606070707070708080808090909090ABE
:1005C0000A0A0B0B0B0C0C0C0D0D0D0E0E0E0F0F63
:1005D0000F101011111112121313141415151616F1
:1005E0001717181819191A1A1B1B1C1D1D1E1E1F60
:1005F0002020212222232424252626272829292AAF
:100600002B2C2D2D2E2F30313232333435363738D6
:10061000393A3B3C3D3E3F404142434445464748D2
:10062000494A4C4D4E4F50515354555658595A5BA8
:100630005D5E5F616264656668696B6C6D6F707248
:10064000737577787A7B7D7E8082838587888A8CB4
:100650008E8F91939596989A9C9EA0A2A3A5A7A9E8
:10066000ABADAFB1B3B5B7BABCBEC0C2C4C6C9CBDF
:10067000CDCFD1D4D6D8DBDDDFE2E4E7E9EBEEF095
:10068000F3F5F8FAFDFF04033000000016035700ED
:1006900069006E007200790020003200350074009D
:1006A000660000000E0364007A00740065006300B9
:1006B000680000000403090409025B00030100A0B4
:1006C000FA090400000103010100092111010001E0
:1006D0002240000705810308000A09040100020303
:1006E00000000009211101000122220007058203F8
:1006F0002000010705030320000109040200010393
:1007000000000009211101000122BC00070584033B
:1007100020000A1201100100000008F1F12500017B
:1007200000010203010660FF0961A10109621500D1
:1007300026FF009520750881020963150026FF0039
:10074000952075089102C005010902A101850209E1
:1007500001A1000509190129051500250195057557
:1007600001810295017503810105010930093115E7
:1007700081257F95027508810609381581257F95A9
:100780000175088106050C0A38021581257F95013F
:1007900075088106C0C005010980A1018503190102
:1007A0002AB700150126B700950175108100C00514
:1007B0000C0901A101850419012AA002150126A036
:1007C00002950175108100C005010906A10185058A
:1007D000050719E029E71500250195087501810233
:1007E0000507190029EF1500250195F07501810213
:1007F00005081901290595057501910295017503F3
:100800009101C005010906A101050719E029E715B5
:100810000025019508750181029501750881010582
:1008200007190029FF150026FF00950675088100AD
:1008300005081901290595057501910295017503B2
:100840009101C00011241FBECFEFDAE0DEBFCDBFA3
:1008500004B603FE27C08091210490912204A09148
:100860002304B09124048730904BA740B04BD1F4BF
:100870001092210410922204109223041092240456
:1008800014BE84B7877F84BF0FB6F894A895809173
:100890006000886180936000109260000FBEE0E00D
:1008A000F8E3099511E0A0E0B1E0E6E0F7E602C068
:1008B00005900D92A23DB107D9F724E0A2EDB1E079
:1008C00001C01D92A132B207E1F70E94DD2B0C940A
:1008D00032330C94000090E080E00895089508956C
:1008E00081E0089580FF03C0849A8C9808958498CD
:1008F000FCCF81E008950C94700408950C947D045D
:100900001F93CF93DF9300D000D00F92CDB7DEB707
:1009100049835A836B833091DA0289819A8131113C
:100920001DC06623B9F02223A9F00E94A123182F2D
:10093000682F89819A810E944A2369817A81812F57
:100940000F900F900F900F900F90DF91CF911F910C
:100950000C94E8130E947823182FEFCF0E94A12354
:1009600069817A81EDCFFC01262F4081518162811E
:10097000738184810C948004CF93DF93EC0160E059
:100980000E94B304BE01DF91CF910C947E04FF92CC
:100990000F931F93CF93DF93E82FF0E0E453FC4FC6
:1009A000F490C82FC695C695C695D0E0FE01E45ACE
:1009B000FB4F0491877010E0082E02C01595079533
:1009C0000A94E2F701701127C45BDB4FFE01C4916A
:1009D000D0E002C0D595C7958A95E2F7C170DD27B2
:1009E0000115110519F081EE0E943A1B209719F0AC
:1009F00086EE0E943A1B8F2D0E94221CCD2B19F0EF
:100A000086EE0E94CC1B012B41F081EEDF91CF914D
:100A10001F910F91FF900C94CC1BDF91CF911F91F0
:100A20000F91FF900895EF92FF920F931F93CF9332
:100A3000DF93EC01162F0AE08881882309F454C063
:100A4000813009F04EC08981813099F47E0122E025
:100A5000E20EF11C8A810E94221CE7012196812F5F
:100A6000815050F3EFE9FFE03197F1F700C000004B
:100A7000F7CF823041F47E0182E0E80EF11C8A81DA
:100A80000E943A1BEACF833041F47E01E2E0EE0E91
:100A9000F11C8A810E94CC1BE0CF843011F021969A
:100AA000DDCF2A81229690E080E0AE014F5F5F4F5C
:100AB0002053330B2A30310548F0019778F2EFE9E3
:100AC000FFE03197F1F700C00000F7CF089FB001B9
:100AD000099F700D1124C901860F971F2981EA0112
:100AE000E4CF0E94C704BACFDF91CF911F910F913D
:100AF000FF90EF90089560E00C9413058F929F9201
:100B0000AF92BF92CF92DF92EF92FF920F931F931B
:100B10006B017C0181E090E0A0E0B0E04C015D0160
:100B200004C0880C991CAA1CBB1C4A95D2F7B501BD
:100B3000A4014C015D0104C0880C991CAA1CBB1CBB
:100B40002A95D2F7482959296A297B2904C0880F98
:100B5000991FAA1FBB1F0A95D2F78A019B010C217E
:100B60001D212E213F21041715072607370789F479
:100B70008C299D29AE29BF29BC01CD011F910F9160
:100B8000FF90EF90DF90CF90BF90AF909F908F90AD
:100B9000089580959095A095B0958C219D21AE21CA
:100BA000BF21EACF0F93382F262F60912703709132
:100BB00028038091290390912A03042F432F0E9438
:100BC0007E050F910C9488220E945A270E94EB24E4
:100BD000811102C00E9488250C9463080C9465085A
:100BE00008950E94B11E0E94F0052FEF84E39CE05F
:100BF000215080409040E1F700C000000C94342761
:100C00000F931F93CF93DF9300D0CDB7DEB78C0146
:100C100061E00E94B3049A838983B801CE010196F2
:100C20000E94DD16811108C080E00F900F90DF91C7
:100C3000CF911F910F910895B80189819A810E94E7
:100C4000BD11882389F3B80189819A810E947B04B0
:100C5000882351F3B80189819A810E943E15882327
:100C600019F3B80189819A810E9490158823E1F2D5
:100C7000B80189819A810E94B3168823A9F2B8012C
:100C800089819A810E94CA10882371F2F8018281B9
:100C9000882349F089819A818115FCE59F0739F005
:100CA0008F3D9C4539F0C8010E947904BECF0E9457
:100CB000F105BACF0E948825B7CF0C94720481E069
:100CC00008950C945F06CF93C82F0E945D068C2F69
:100CD000CF910C9461060895FC01EE0FFF1FE459BB
:100CE000FB4F859194910895CF93DF930E94E81371
:100CF0000E948907EC01811520E5920708F042C0A7
:100D0000811530E4930708F0BDC0883E910528F5B1
:100D1000803E910508F09DC0883A910588F4853A97
:100D2000910508F08FC08130910509F492C00097B9
:100D300009F48FC0049708F08CC0D0E0C0E089C0EF
:100D40008F3B910508F489C0805C9109C03CD105B6
:100D5000A0F30E946C06EC017CC08115904250F417
:100D6000C11581E0D80708F074C0C03FD10528F351
:100D7000D0656FC0C11590E3D90708F079C0CE01E6
:100D80009F70E7CF811525E5920758F5811534E569
:100D9000930708F0A6C0811542E5940750F4C115E9
:100DA00081E5D80708F471C0DC2FCC27C16FD06A69
:100DB00050C0982F969596959E0123703327C115A4
:100DC000D34508F07FC0C1E0D0E002C0CC0FDD1FEA
:100DD0002A95E2F720E2929FC0011124C82BD92B5B
:100DE0006FC0C11589E5D807A8F4C11598E5D907E2
:100DF00008F07CC0C11526E5D20708F09ECF8C2FE5
:100E00000E942008C82FD0E0DC2FCC27CC27DF7130
:100E1000D0621FC0C1153AE5D30708F46CC0CE01FB
:100E200090568115904208F088CF8D2F8F710E94C7
:100E3000200890E0982F882788279F719C012C2BF1
:100E4000E901E6CFC55AD0E0C65ADE4FC881D0E0EE
:100E5000D064CE01DF91CF910895C85AD0E0CC0F75
:100E6000DD1FC45DDE4F0990D881C02DD464F1CF61
:100E7000CE019927D3FF03C0EC01D86CEACFEC0177
:100E8000D06CE7CFDF70D06AE4CFCE01E4E0969576
:100E90008795EA95E1F783702C2F26952695237088
:100EA00090E2299F90011124382B8C2F8370C1E090
:100EB000D0E002C0CC0FDD1F8A95E2F7C22BD32B06
:100EC000DC68C7CFC1E0D0E002C0CC0FDD1F2A959F
:100ED000E2F730E2939FC0011124C82BD92BDA68C6
:100EE000B8CFD82FCC27C46FD06AB3CFDC2FCC2794
:100EF000C06FD06AAECF8C2F8F700E94200834E074
:100F0000D695C7953A95E1F7CF709C2FEC01D06943
:100F1000A0CF82389105B1F1B0F48133910509F485
:100F200075C048F48932910509F469C08A32910587
:100F300009F473C008958533910509F459C08933C4
:100F4000910501F10895833E9105A9F138F4803EA1
:100F50009105F9F0823E910549F10895863E91058B
:100F6000A9F1873E9105C9F1843E910519F52091BB
:100F7000130421FF1FC08091120484FD14C087EE6A
:100F800090E00895209112042370A1F080EE90E08B
:100F900008952091120420FD47C03091130430FFC2
:100FA00009C024FF44C090E080E004C020911204F6
:100FB00022FDF7CF08952091120422FD3BC030910D
:100FC000130430FDE3CF24FFF5CFEDCF20911204C1
:100FD00023FFF0CF24FDE7CFD2CF2091120423FDD1
:100FE0002CC03091130431FFEECF84EE90E00895D1
:100FF0002091120425FFDECF89E290E00895209130
:10100000120425FFD7CF85E390E0089520911204C4
:1010100026FFD0CF8AE290E008952091120426FFA7
:10102000C9CF81E390E0089589E390E0089583EECD
:1010300090E0089582EE90E0089586EE90E00895A5
:101040009091120492FF06C0282F28712830F9F4DD
:10105000877F846093FF06C0282F28712831F1F420
:10106000877E84612091130420FF06C0382F3871D9
:101070003830D9F4877F816021FF06C0282F28717E
:101080002831D1F4877E816194FD877E0895282FD1
:1010900024712430F9F68B7F8860DCCF282F2471EF
:1010A000243101F78B7E8861DDCF382F31713130EB
:1010B00019F78E7F8860E0CF282F2171213121F729
:1010C0008E7E8861E1CF0C946E040C946F04E82F3F
:1010D000F0E0E457FC4F80810895089580EA8A95F6
:1010E000F1F70895CF93DF93A2E6B1E047E651E030
:1010F000C1E0D0E08D91E82FE295EF70F0E061A1C2
:101100008F709E0101C0220F8A95EAF7922F909569
:10111000962391A382A1822B82A34A175B0751F7E2
:10112000ADE5B1E061E070E08D91E82FE295EF7000
:10113000F0E041A18F709B0101C0220F8A95EAF770
:10114000922F9095942391A382A1822B82A381E078
:10115000A236B80749F71092870310928C031092B9
:10116000880310928D031092890310928E031092BF
:101170008A0310928F0310928B031092900385E0E4
:101180000E944609DF91CF910C94E4058F929F92C3
:10119000AF92BF92CF92DF92EF92FF920F931F9385
:1011A000CF93DF9382E6A82E81E0B82E07E813E004
:1011B000912CCC24C394D12CF50181915F01C82FCF
:1011C000C295CF70D0E099A18F70760101C0EE0C6E
:1011D0008A95EAF7892F8E2989A38AA18E2C80947B
:1011E00088218AA30E946E08EDE5F1E050E040E01E
:1011F00020E03191A32FA295AF70B0E090968C9132
:1012000090E03F7002C0959587953A95E2F780FD92
:1012100039C08C2D042E01C0880F0A94EAF7282BC0
:101220004F5F5F4F4530510521F789A1882289A280
:101230008AA1E82AEAA2F8018081281729F12083EF
:1012400081E0982A0F5F1F4FF7E6AF16F1E0BF0667
:1012500009F0B2CF292D45E06CE873E087E893E010
:101260000E9447090E94EE05892DDF91CF911F91C1
:101270000F91FF90EF90DF90CF90BF90AF909F9035
:101280008F90089580E0CBCF80E0DBCF0895FF9270
:101290000F931F93CF93DF93F82E092F162FD72F7D
:1012A000C42F222349F081E08093D4010E94E926D3
:1012B0009093D3018093D2018091D4018823A1F02F
:1012C0008091D2019091D3010E940127069760F08E
:1012D000EF2DF02FA12FBD2FCE0FDF2FD11DEC173B
:1012E000FD0741F41092D401DF91CF911F910F912E
:1012F000FF90089581918D93F2CFEF92FF920F931B
:101300001F93CF93DF93EB01E82FD11110C044233B
:1013100021F0F0E0EA57FA4FE4916E2F7E2F8E2FE6
:10132000DF91CF911F910F91FF90EF9008950D2FB6
:1013300010E0282F30E0442329F02A573A4FF901D2
:10134000249130E0F6E0CF9FC0011124EFEFF0E0F0
:10135000BF010E94B831AB018C2F90E0880F991F1C
:10136000A5E5A49FB001A59F700D1124861B970BC6
:10137000982F990F980FBF01601B710B629FD001CE
:10138000639FB00D729FB00D11248B2F9D9FB001F4
:101390001124672F7727EF01C61BD70BBE01629F71
:1013A000E001639FD00D729FD00D11247F01E91AD7
:1013B000F108E09EB001E19E700DF09E700D1124C9
:1013C000672F7727E61BF70BE29F8001E39F100D45
:1013D000F29F100D1124E12F722F4230510599F028
:1013E00048F44115510569F04130510581F0EB2F6A
:1013F0008D2F07C04430510569F080F0463051050B
:10140000B1F76E2F8DCFE22F7B2F812FFACFE22FF6
:101410007D2FF7CFEB2F822F712FF3CF7B2F822FD2
:10142000ED2FEFCF41E00C947D090895CF93DF932A
:10143000762FE901682F842F0E94120A798368832E
:101440008A83DF91CF910895473908F046E90C94DB
:10145000160A80919103982F9E7F61F481708260BB
:101460008093910380919403873918F086E98093E3
:10147000940308958635B0F381708465F1CF88E0D8
:1014800090E00C94D332CF92DF92EF92FF926B01F7
:101490007C010E94290AB701A60188E090E0FF9034
:1014A000EF90DF90CF900C94F132609191037091A6
:1014B000920380919303909194030C94430AE1E981
:1014C000F3E083E0808311828FEF828386E9838358
:1014D000148260817181828193810C94430A80918E
:1014E000910380FF02C08695089580E00895909151
:1014F0009503933018F49F5F90939503882351F0E0
:101500006091910370919203809193039091940361
:101510000C94430A089581E00C94770A9091950306
:10152000992319F0915090939503882351F060917D
:1015300091037091920380919303909194030C9482
:10154000430A089581E00C948E0A809195030895D2
:1015500080939503662351F06091910370919203FB
:1015600080919303909194030C94430A089560E052
:101570000C94A80A80919203089580919303089592
:1015800080919403089570E00C943A1160910801E1
:101590008091910380FF0AC08091070123E0829F20
:1015A000C00111248A569C4F0C94C30A80910901F2
:1015B00090910A0123E0829FF0011124EA56FC4F2A
:1015C000891750F71182108212828F5F3396F8CFFD
:1015D0009091910390FF14C09091090120910A010C
:1015E00033E0939FF0011124EA56FC4F921710F05C
:1015F0000C94C60A8183608342839F5F3396F6CF43
:101600000895CF93DF9300D00F92CDB7DEB79091BE
:10161000910390FF0AC09E012F5F3F4F0E94240A52
:101620004B8169818A810E94E80A0F900F900F9088
:10163000DF91CF910895CF93DF93EC01EC81F0E03F
:10164000EF57FB4F4491E1E9F3E0628181810E9411
:10165000010B8C818F5F8C83DF91CF910895CF93A5
:10166000DF93EC01E1E9F3E0438162818C810E9428
:10167000010B8C818F5F8C83DF91CF9108950F9345
:101680001F93CF93DF9300D00F92CDB7DEB78C01BD
:101690008091D50181110AC09E012F5F3F4F46E91D
:1016A0006FEF0E94240A8A818093D501F80164813A
:1016B000613069F08091D50140E0662361F040E03F
:1016C000623011F44091D50180E060E004C0609187
:1016D000D50140E080E00E94E80AF801848190E0B2
:1016E000019663E070E00E94CC3184830F900F90EC
:1016F0000F90DF91CF911F910F910895AF92BF92FC
:10170000CF92DF92EF92FF920F931F93CF93DF93CD
:1017100000D00F92CDB7DEB7182FF62E042FE22E91
:101720009091910390FF29C0E92FE695AE2FB0E08C
:10173000A959BE4F8C918093A7029E7F923059F594
:101740009E012F5F3F4F812F0E94240A4B816981A8
:101750008A810E94E80A10939203F0929303009307
:101760009403EE2051F06091910370919203809167
:101770009303909194030E94430A0F900F900F904F
:10178000DF91CF911F910F91FF90EF90DF90CF905D
:10179000BF90AF900895823019F400919403DBCF8D
:1017A000863019F410919203D6CF8930D9F389315C
:1017B00091F6E9518E2F8170D82EE695F0E0EF5723
:1017C000FA4FA590B490C12CBB2460910B01C616B2
:1017D00018F00E94C60ABFCF2C2D30E0A29EC00197
:1017E000A39E900DB29E900D112470E00E94B8311E
:1017F000812FD11013C0860F40910901420F532F42
:10180000511D9A01220F331F240F351F2A563C4FBA
:10181000402F6F2D0E94240AC394D7CF861BECCF94
:10182000E1E9F3E09181282F4381628188E0890F0B
:101830000C947E0B81E00C94100CE1E9F3E09181B3
:10184000282F4381628188EF890F0C947E0B81E001
:101850000C941D0CE1E9F3E0628128E0620F08F4CA
:101860006FEF282F438181810C947E0B81E00C94D3
:101870002A0CE1E9F3E0628128E0621B08F460E0F1
:10188000282F438181810C947E0B81E00C94390CCC
:10189000E1E9F3E0438128E0420F08F44FEF282FFD
:1018A000628181810C947E0B81E00C94480CE1E90B
:1018B000F3E0438128E0421B08F440E0282F6281D6
:1018C00081810C947E0B81E00C94570C20E00C94E9
:1018D0007E0BEF92FF921F93CF93DF93EC0110E00A
:1018E000EE24EA94F12C60910B01161770F00E941F
:1018F000C60A9A818C8190FF27C08F5F8C83DF910D
:10190000CF911F91FF90EF90089520910901422FF0
:10191000410F5527551FCA019A01220F331F280F67
:10192000391F2A563C4F70E0C7010E94CC31962FD8
:101930008C814091940360919303199F800D112431
:101940000E94240A1F5FCFCF8150D8CFAF92BF92A1
:10195000CF92DF92EF92FF920F931F93CF93DF937B
:10196000FC0182810FEF80FF01E010E048E2A42E2D
:1019700080910B011817C8F00E94C60A8091D70108
:10198000013009F055C0811102C080910B018150D6
:101990008093D701DF91CF911F910F91FF90EF902E
:1019A000DF90CF90BF90AF900895C0910901C12EF4
:1019B000D12CCC0DDD2DD11DCE01880F991FC80F64
:1019C000D91FCA56DC4F198218821A8234E0E32EDE
:1019D000F12CB12C8091D7018B0D89321CF16A2D2D
:1019E0000E94AA31892F082E000C990BC816D9061F
:1019F00091F4809194038E9DA0018F9D500D112430
:101A000055954795559547959E0160919303809113
:101A100092030E94240AB00EF1E0EF1AF108D1F609
:101A20001F5FA6CF87FFDFCF90910B01890FDBCF20
:101A300090E0019660910B0170E00E94CC31A8CF3C
:101A40000F931F93CF93DF938091090190910A0127
:101A500023E0829FF0011124EA56FC4F891740F1E0
:101A6000C0E0D3E060910B01C61740F10E94C60AA6
:101A7000209105018091D601820F8093D60190912B
:101A80000601920F90930601191654F4082E000CCB
:101A9000990B40910B014150550B841795071CF091
:101AA000219520930501DF91CF911F910F9108950A
:101AB0001182108212828F5F3396D0CF0C2F10E0EC
:101AC00070E0C8010E94CC3120910901820F482F9B
:101AD00050E02091D601022E000C330B02171307A1
:101AE000BCF020910601022E000C330B20173107A9
:101AF0007CF08D9F900111242A563C4F4091940315
:101B000060919303809192030E94240ACF5FAACF31
:101B1000FA01EE0FFF1FE40FF51FEA56FC4F11828A
:101B200010821282F3CF8F929F92AF92BF92CF9288
:101B3000DF92EF92FF920F931F93CF93DF93EC010D
:101B40004C81042F10E09801D8010E9417329B01AC
:101B5000AC010E942D324B015C01E0E2F0E0E01BA1
:101B6000F10BA5E5B0E0AC019B010E942D326B01A9
:101B70007C019F01DF010E940F329B01AC010E949A
:101B800038329B01AC01280D391D4A1D5B1DC70170
:101B9000B6010E94E031F22E822F90E039E23F152B
:101BA00060F143E0249F9001112435952795122F71
:101BB000109500E085E5E82EEF1880910B010817DD
:101BC00058F10E94C60A9C8181E0992319F0903255
:101BD00019F48FEF8093040180910401890F8C83A5
:101BE000DF91CF911F910F91FF90EF90DF90CF90F9
:101BF000BF90AF909F908F90089525E530E0B90198
:101C0000681B790B9B01220F331F260F371F37FFED
:101C1000CCCF2F5F3F4FC9CF8E2D01FD8F2D20914F
:101C20000901622F600F7727771F9B01220F331F57
:101C3000260F371F2A563C4F412F609193030E9475
:101C4000240A0F5FBACF0F931F93CF93DF93EC015A
:101C500010E000E090910B019017110609F06CF470
:101C60000E94C60A8C8190E00196817099278C832E
:101C7000DF91CF911F910F91089520910901A80143
:101C8000420F511D9A01220F331F240F351F2A5670
:101C90003C4F4C81609193038091920396959017ED
:101CA000110651F04CF0442349F0409194030E94F6
:101CB000240A0F5F1F4FCECF4423B9F340E0F7CF84
:101CC0008F929F92AF92BF92CF92DF92EF92FF924C
:101CD0000F931F93CF93DF93FC01B280948081E038
:101CE000848300E015E05BE4A52E88248394EE2431
:101CF000EA94F12C7BE4C72ED12C80910B010817BC
:101D000070F0DF91CF911F910F91FF90EF90DF90D6
:101D1000CF90BF90AF909F908F900C94C60AC02F29
:101D2000D0E01C9FF0011D9FF00D1124E852FE4FE2
:101D300091101CC01382128220910901CE01820FE2
:101D4000911D9C01220F331F280F391F2A563C4F2B
:101D50001C9FF0011D9FF00D1124E852FE4F42819F
:101D6000618180810E94240A0F5FC7CF23812223D3
:101D700079F12150238334818A2D821B311101C0D6
:101D8000822F1C9FF0011D9FF00D1124E852FE4F81
:101D900090919403899FC0011124B6010E94B8312B
:101DA0006283211104C0332311F01482A38222E044
:101DB0002B1510F21C9FF0011D9FF00D1124E8520D
:101DC000FE4F809192038083809193038183B4CFEF
:101DD0000E94AE32823091400CF0AECF82E08B1583
:101DE00030F50E94AE32B7010E94CC311C9FF00149
:101DF0001D9FF00D1124E852FE4F808322E02B1529
:101E0000C8F40E94AE32209193032695622F70E0B1
:101E10000E94CC31280F1C9FF0011D9FF00D112452
:101E2000E852FE4F21831282A382848285CF809163
:101E30009203DCCF20919303EECFE1E9F3E08081C0
:101E40008E7F808360817181828193810E94430AA9
:101E50001092A8022FEF80E792E02150804090403E
:101E6000E1F700C000000C94C60AE1E9F3E08081CC
:101E70008E7F80831092A8022FEF80E792E021509E
:101E800080409040E1F700C000000C94C60A6091C9
:101E90009103669570E04BE050E08CE091E00E9489
:101EA000BE32892B19F481E08093A8020E94E926B2
:101EB0009093A1028093A00208959091910390FFC6
:101EC00035C09170811128C0926090939103662370
:101ED00051F06091910370919203809193039091DE
:101EE00094030E94430A60919103669570E04BE071
:101EF00050E08CE091E00E94BE32892BA1F010925C
:101F0000A80281E08093A30240919403609193031F
:101F1000809192030C94660C8B3210F09465D5CFAF
:101F2000880F982BD2CF0E94470FEBCF0895682FD0
:101F300090919103969581E0890F8B3208F081E0B2
:101F40000C945D0F81E00C94970F682F9091910392
:101F500096958FEF890F09F48AE20C945D0F81E06A
:101F60000C94A50F61E00C945D0FE1E9F3E0808132
:101F70008160808386950C94B20F8091910380FDDF
:101F80000C941D0F0C94B50F60E00C945D0F8091C4
:101F9000A60281112EC00E94EB24811104C00E9470
:101FA00088250E945F0A0E943F0A60939103709304
:101FB000920380939303909394036E7F61F40E9445
:101FC0005F0A0E943F0A609391037093920380938B
:101FD0009303909394030E94290A1092A80280917F
:101FE000910380FF03C086950E94C40F81E0809317
:101FF000A6020895E1E9F3E08081816080838695FF
:102000000C94C40F1092A80208950F931F93CF93BE
:10201000DF938091A802882309F49DC08091A702D4
:10202000E0919103E695E81BE093A2028230C9F5A6
:10203000F0E0E358FB4FE491CE2FD0E00BE11BE042
:102040008091A302882389F01092A3020E94E926BE
:102050009E0120953095820F931F9093A10280934B
:10206000A0021092A5021092A4028091A002909169
:10207000A1020E9401278C179D0708F46CC0E09113
:10208000A002F091A102CE0FDF1FD093A102C09356
:10209000A00280EA92E0F801DF91CF911F910F91A9
:1020A0000994863049F4F0E0E658FB4FE491CE2FD6
:1020B000D0E00FE21BE0C4CF893051F4E695F0E0A8
:1020C000E958FB4FE491CE2FD0E009E61CE0B8CFF1
:1020D0008F3051F4E695F0E0EC58FB4FE491CE2FB1
:1020E000D0E006EA1CE0ACCF853149F4F0E0EF58CF
:1020F000FB4FE491CE2FD0E000E21DE0A1CFC8E27B
:10210000D0E003E91DE0883109F49ACF833239F435
:10211000EFE6F4E0C591D4910FE31BE091CFC4EF5B
:10212000D1E003E21EE0843209F48ACFC0EDD7E0AB
:1021300005E11AE0853209F083CF8E2F63E00E941B
:102140009E31E92FF0E0E459FB4FE491CE2FD0E02F
:1021500000E61EE075CFDF91CF911F910F9108959A
:10216000FA01811101C0FB010994CF93DF93C82FBD
:10217000D62F0E946F0A8C1740F00E946F0A8D17AD
:1021800020F4DF91CF910C94A20F8C2FDF91CF918F
:102190000C94B20F0F931F93CF938C01FB01C2815C
:1021A000CC2309F465C00E9436248272F801E25CF7
:1021B000FC45E431F10538F4EC5CFC4C0C94023243
:1021C0000E94BD0FC0E08C2FCF911F910F910895F9
:1021D0004FEA5FE062EA7FE00E94B010F3CF42EA8C
:1021E0005FE06FEA7FE0F8CF47E25CE06AE17CE025
:1021F000F3CF4AE15CE067E27CE0EECF45E45CE0EF
:1022000066E37CE0E9CF46E35CE065E47CE0E4CFB4
:1022100043E65CE064E57CE0DFCF44E55CE063E658
:102220007CE0DACF42EA5AE06BE87AE0D5CF4BE8BF
:102230005AE062EA7AE0D0CF81E00E94B20FC2CFCA
:1022400065E082E00E94B510BDCF68E086E0FACF7D
:102250006EE089E0F7CF64E18FE0F4CF67E185E1DC
:10226000F1CF88E1EACF62E289E1ECCF83E2E5CF0A
:10227000C1E0A9CF559A4BB14F7D5BB15062EFB72A
:10228000F8949B01220F331F260F371F280F391F89
:102290002817390741F4EFBF8FE594E00197F1F774
:1022A00000C000000895DC016D91CD0178E05BB9BC
:1022B000000000C067FF4BB9660F000000C000C0FF
:1022C00000C04BB900C07A9591F7E2CF82E290E06E
:1022D0000E94CB32813289F483E290E00E94CB32BB
:1022E000873059F484E290E00E94CB3291E083324F
:1022F00009F090E0892F8170089580E0FCCFCF93A2
:10230000C82F6FEF811161E282E290E00E94DF321C
:102310006FEFC11167E083E290E00E94DF326FEF60
:10232000C11163E284E290E0CF910C94DF3280E04F
:102330000E947F110C94E524089585E290E00E94AC
:10234000CB32682F70E090E080E0089585E290E065
:102350000C94DF320E949C110E94661181110CC006
:1023600060E070E0CB010E94A6110E9460130E9401
:102370004C1481E00C947F110895CF93FB01C2812E
:10238000CC2309F19C0122513F452031310520F534
:1023900082510E945C14C0E08C2FCF91089581E09F
:1023A0000E94AE2243E062E081E00E94D205F3CFBA
:1023B00081E00E94CF2243E062E081E00E94D205EA
:1023C000EBCF82E0F6CF8031FFE59F0789F38131C3
:1023D0009F45B9F3C1E0E0CF8031EFE59E07F9F208
:1023E00081319F45C9F682E0DBCF2FEFFC012083CE
:1023F0000895CF93DF93EC0188818138A9F028F408
:10240000803871F0DF91CF910895823881F0833860
:10241000C9F70E94BA0A89830E94BD0A8A83F2CF53
:102420000E94C00A8983EECF0E946F0AFBCF0E94F0
:10243000A50AF8CFCF93DF93EC0188818138E1F0D2
:1024400028F4803869F0DF91CF910895823811F136
:102450008338C9F70E94C00A482F6A81898108C061
:10246000D9810E94BD0AC82F0E94BA0A4D2F6C2F35
:10247000DF91CF910C94660C89810E94C40F8981F1
:10248000811104C0DF91CF910C94350FDF91CF9172
:102490000C94FA0F8981DF91CF910C94B70AEF92D7
:1024A000FF920F931F93CF93DF93EC01062FDC0174
:1024B000ED91CD01E150E33108F0BFC0F0E0E85B01
:1024C000FC4C0C940232198289E08A83602FCE0181
:1024D000DF91CF911F910F91FF90EF900C94D12A33
:1024E0008981823069F0833071F08130D9F40E94A3
:1024F000F5260E9408326A837B838C839D83E6CF16
:102500000E949D11F6CF7E01B2E0EB0EF11C10E0AF
:10251000812F0E946708F70181937F011F5F1530AB
:10252000B9F7D4CF602FCE010E94F511CFCF8981AA
:102530008230C1F76A817B818C819D810E94083243
:102540000E94A611C3CF4B816A8189810E943213F8
:102550009827892798279D838C83B8CF2C813D812C
:102560003227232732274B816A8189810E944B13AE
:10257000ADCF0E946013AACF0E941A12A7CF0E946B
:10258000F911A4CF0E94550AA1CF0E94F5138983A7
:102590009DCF0E94F7139827892798279A838983CC
:1025A00095CF6B8170E089819A81AE014C5F5F4F5E
:1025B0009827892798270E94FA1388CF6B8170E0AB
:1025C00089819A81AE014C5F5F4F982789279827B0
:1025D0000E9421147BCF0E944C1478CF0E942013BC
:1025E000D6CF6B8170E089819A81AE014C5F5F4FDD
:1025F0009827892798270E94981368CF6B8170E0ED
:1026000089819A81AE014C5F5F4F9827892798276F
:102610000E94BE135BCF0E94971158CFCE010E943B
:10262000D12AFFEF21EE84E0F15020408040E1F715
:1026300000C000000E94342749CF8FEF888346CF27
:1026400088E0089550E0440F551F9AE0699F400DBF
:10265000511D112492E3899F400D511D1124CA017F
:10266000869608950F931F93CF93DF930E942213B2
:102670008C010E94CB32C82FD0E0DC2FCC27C801C0
:1026800001960E94CB329E01282BC901DF91CF9188
:102690001F910F9108950F931F93CF93DF93122FE4
:1026A000032F0E942213EC01602F0E94DF32612F62
:1026B000CE010196DF91CF911F910F910C94DF32E3
:1026C000AF92BF92CF92DF92EF92FF921F93CF9380
:1026D000DF938CEAC82E80E0D82ED0E07601C0E0EF
:1026E00014C0F50125913491412F6C2F8D2F0E943C
:1026F0004B1382E0A80EB11C1F5F153091F78AE0E2
:10270000E80EF11CCF5FC53019F0570110E0E9CF9A
:10271000DF5F82E3C80ED11CD83001F7DF91CF9183
:102720001F91FF90EF90DF90CF90BF90AF900895F2
:10273000EF92FF920F931F93CF93DF93EC018A01E7
:102740007C01E60EF71ECE018696CE15DF0539F424
:10275000DF91CF911F910F91FF90EF900895C039B5
:1027600021E0D20740F40E94CB32F80180830F5F52
:102770001F4F2196E8CFF8011082F9CFCF92DF9258
:10278000EF92FF920F931F93CF93DF937C016A0127
:102790008C01060F171FEC01CE018696C017D107DA
:1027A00049F4DF91CF911F910F91FF90EF90DF904F
:1027B000CF900895C03921E0D20740F4FE01EE1910
:1027C000FF09EC0DFD1D60810E94DF322196E4CFF0
:1027D000462F883038F4753028F4653018F4672FA8
:1027E0000C94321390E080E0089580E108958AE42B
:1027F00092E00895EF92FF920F931F93CF93DF9390
:10280000EC018A017C01E60EF71ECE018A549E4F30
:10281000CE15DF0539F4DF91CF911F910F91FF9015
:10282000EF900895CA3422E0D20740F40E94CB32E0
:10283000F80180830F5F1F4F2196E7CFF8011082C8
:10284000F9CFCF92DF92EF92FF920F931F93CF9326
:10285000DF937C016A018C01060F171FEC01CE018A
:102860008A549E4FC017D10749F4DF91CF911F9131
:102870000F91FF90EF90DF90CF900895CA3422E03F
:10288000D20740F4FE01EE19FF09EC0DFD1D608139
:102890000E94DF322196E3CFCF93DF93C6EBD1E0E6
:1028A00060E0CE010E94DF322196C11584E0D80796
:1028B000B9F7DF91CF910895DF92EF92FF920F93D6
:1028C0001F93CF93DF9300D000D0CDB7DEB7F82EA3
:1028D0008FE08F1540F08FEF93E00E94CB3206EB34
:1028E00011E08823C1F00F900F900F900F90DF91AF
:1028F000CF911F910F91FF90EF90DF9008950115F8
:1029000084E0180781F3C8010E94CB32811101C015
:10291000FA940F5F1F4FF110F2CF19821A821B82B7
:102920001C82DD24D39478018FEFE81AF80AC801DD
:102930000E94CB3289831A828823A9F29FEF980FD5
:10294000933078F48A83D9820E5F1F4FC7010E94AB
:10295000CB328B83882339F2CE0101960E947B050E
:10296000E2CF8701F9CFAF92BF92CF92DF92EF9281
:10297000FF920F931F93CF93DF937C015B01C42FD2
:10298000D22FFC0182818823F9F04093AB020E9490
:10299000E9269093AA028093A90280E28C0F8830E6
:1029A00008F061C0C77081E001C0880FCA95EAF7DE
:1029B000DF91CF911F910F91FF90EF90DF90CF901B
:1029C000BF90AF900C94351C1091AB02141340C013
:1029D0008091A9029091AA020E9401276C01B7017F
:1029E000C5010E942721C816D90690F5C0E2CD0F77
:1029F0001D17B9F080E2810F883040F4177081E034
:102A000001C0880F1A95EAF70E943C1CC83048F4B0
:102A100081E09D2F977001C0880F9A95EAF70E9478
:102A2000351C802F0E94221CC830E8F4D77081E04A
:102A300001C0880FDA95EAF7DF91CF911F910F91CE
:102A4000FF90EF90DF90CF90BF90AF900C943C1C24
:102A500080E28C0F883038F4C77081E001C0880FA5
:102A6000CA95EAF7E9CFDF91CF911F910F91FF90BF
:102A7000EF90DF90CF90BF90AF9008950F939C019F
:102A8000CB01243F4CE5340759F1A8F4283DFCE57F
:102A90003F0701F1293D4CE53407D1F1273D3C4585
:102AA00091F406E221EE41EE67ED7CE50E94B3145D
:102AB00080E00F910895263FFCE53F07E9F0B0F074
:102AC000273F3C45F9F0FC018281882339F11092BF
:102AD000AB02EFCF07E225EE45EE68ED7CE5E6CFF1
:102AE00006E221EE40EE64EF7CE5E0CF07E225EE62
:102AF00044EE65EF7CE5DACF06E221EE42EE66EFCA
:102B00007CE5D4CF07E225EE46EE67EF7CE5CECF3D
:102B100008E221E045EE69ED7CE5C8CF81E0C9CF50
:102B2000CF93DF93EC01FB018281882309F419C163
:102B3000C230FCE5DF07C0F1C6319CE5D90730F0B3
:102B40009E012B5F3C452930310570F50E94FE2423
:102B50009093130480931204C031ECE5DE0709F46E
:102B6000CFC008F05BC0C8308CE5D80709F4B6C008
:102B700088F5C430ECE5DE0709F4A8C0C0F4C23023
:102B80008CE5D80709F49CC0809112048260C330A0
:102B9000DC4509F498C080911204909113040E94BE
:102BA0000C250E94B11E80E0DF91CF9108958091A5
:102BB00012048061C630ECE5DE0709F484C0809120
:102BC00012048860C730DC4508F47DC0809112048F
:102BD000806279C0CC308CE5D80709F489C070F4E4
:102BE000809112048C60CA30ECE5DE0709F46BC0FA
:102BF00008F478C0809112048E7F65C0CE308CE5D9
:102C0000D80709F479C0809112048B7FCF30DC455E
:102C100008F459C0809112048F7E55C0CC3FECE57A
:102C2000DE0709F457C030F5C3318CE5D80709F445
:102C30006FC078F4C131ECE5DE0709F465C0C2313C
:102C4000DC4509F0A8CF0E94B11E809112048F7755
:102C50003AC0C5318CE5D80709F462C008F476C0E3
:102C6000809113048160CB3FDC4509F094CF8093C1
:102C7000130491CFC115FDE5DF0709F44DC088F4B9
:102C8000809113048D7FCE3F9CE5D90781F380911D
:102C900013048E7FCF3FDC4550F380911304836093
:102CA000E6CFC230FDE5DF0709F459C008F444C09F
:102CB00080E0C330DD4509F06ECF0E948A256BCFDE
:102CC0008091120481608093120465CF8091120478
:102CD0008460F9CF809113048260C9CF809112047F
:102CE0008064F1CF0E94B11E809112048068EBCF06
:102CF000809112048D7FE7CF80911204877FE3CF0C
:102D0000809112048F7DDFCF809112048F7BDBCF07
:102D100080911204837FD7CF809113048C7FA7CF3B
:102D20008091120482FB992790F921E0922790FB71
:102D300082F990FB83F9C7CF80911304982F909567
:102D400091708E7F892B90FB81F991CF0E94B11EEB
:102D500090911204892F97FB87F98058B4CF81E0B6
:102D6000ACCF81E021CFCF93DF93EB0186319C453F
:102D700011F50E9436249A81992399F08A7A91E07C
:102D800009F490E09093AC02811109C089E20E949D
:102D900011240E94822480E0DF91CF91089585E381
:102DA000F6CF8091AC02811104C089E20E94182400
:102DB000F0CF85E3FBCF81E0EFCF4F925F926F9230
:102DC0007F928F929F92AF92BF92CF92DF92EF92BB
:102DD000FF920F931F93CF93DF93EC01E881F9816A
:102DE000CF01815095458F3F910510F485E5F82777
:102DF000DB0112964C90442009F466C2EF3FF105C6
:102E000009F100F1EE3DFC4521F01092AD02A42D38
:102E100007C08091AD0291E089278093AD02A0E0C8
:102E20008A2FDF91CF911F910F91FF90EF90DF904C
:102E3000CF90BF90AF909F908F907F906F905F905A
:102E40004F900895A091AD02AA2309F4E9C0109211
:102E5000AD02E03CF105F0F5E038F10508F0AAC05C
:102E6000E034F10508F070C021E030E040E050E0CF
:102E700060E070E080E090E00E2F0E944032B09160
:102E8000AE022B2BB091AF023B2BB091B0024B2B7B
:102E9000B091B1025B2BB091B2026B2BB091B30237
:102EA0007B2BB091B4028B2BB091B5029B2B20935E
:102EB000AE023093AF024093B0025093B1026093E0
:102EC000B2027093B3028093B4029093B502F98377
:102ED000E883A6CFEF3FF10509F030F621E030E0BE
:102EE00040E050E060E070E080E090E08F01005C46
:102EF00011090E944032B091C6022B2BB091C7023B
:102F00003B2BB091C8024B2BB091C9025B2BB09107
:102F1000CA026B2BB091CB027B2BB091CC028B2BD6
:102F2000B091CD029B2B2093C6023093C7024093F1
:102F3000C8025093C9026093CA027093CB02809377
:102F4000CC029093CD02C3CF21E030E040E050E0CE
:102F500060E070E080E090E08F01005411090E9471
:102F60004032B091B6022B2BB091B7023B2BB091FF
:102F7000B8024B2BB091B9025B2BB091BA026B2B0C
:102F8000B091BB027B2BB091BC028B2BB091BD02E8
:102F90009B2B2093B6023093B7024093B802509314
:102FA000B9026093BA027093BB028093BC02909303
:102FB000BD028DCF21E030E040E050E060E070E005
:102FC00080E090E08F01005811090E944032B091DA
:102FD000BE022B2BB091BF023B2BB091C0024B2BFA
:102FE000B091C1025B2BB091C2026B2BB091C302B6
:102FF0007B2BB091C4028B2BB091C5029B2B2093ED
:10300000BE023093BF024093C0025093C10260934E
:10301000C2027093C3028093C4029093C50257CF3B
:10302000E034F10508F067C07090AE028090AF0206
:103030009090B002D091B102C091B202B091B302AF
:103040005090B4026090B50221E030E040E050E0E2
:1030500060E070E080E090E00E2F0E944032590165
:103060006A017B018C0127213B2D382149215D2DEF
:103070005D236C237F2D7B238521912F96210E9438
:10308000593209F0C4CEE03CF10508F08EC0E038BA
:10309000F10508F0EBC0E034F10508F0B9C021E01B
:1030A00030E040E050E060E070E080E090E00E2F23
:1030B0000E944032209530954095509560957095CE
:1030C000809590952721382149215D236C237B230E
:1030D000852196212093AE023093AF024093B00237
:1030E0005093B1026093B2027093B3028093B40222
:1030F0009093B50295CEE038F105E0F47090B602F9
:103100008090B7029090B802D091B902C091BA02F3
:10311000B091BB025090BC026090BD0221E030E053
:1031200040E050E060E070E080E090E08F0100540B
:10313000110993CFE03CF105E0F47090BE0280905D
:10314000BF029090C002D091C102C091C202B09162
:10315000C3025090C4026090C50221E030E040E01C
:1031600050E060E070E080E090E08F0100581109CD
:1031700074CF7090C6028090C7029090C802D09120
:10318000C902C091CA02B091CB025090CC026090AB
:10319000CD0221E030E040E050E060E070E080E00F
:1031A00090E08F01005C110958CFEF3FF10511F05D
:1031B00008F075CF8F01005C110921E030E040E09C
:1031C00050E060E070E080E090E00E9440322095A6
:1031D00030954095509560957095809590952721F4
:1031E000382149215D236C237B238521962120935F
:1031F000C6023093C7024093C8025093C90260933D
:10320000CA027093CB028093CC029093CD0208CE79
:103210008F010054110921E030E040E050E060E00F
:1032200070E080E090E00E9440322095309540951B
:10323000509560957095809590952721382149216A
:103240005D236C237B23852196212093B602309346
:10325000B7024093B8025093B9026093BA027093D8
:10326000BB028093BC029093BD02DACD8F0100585F
:10327000110921E030E040E050E060E070E080E0E3
:1032800090E00E9440322095309540955095609591
:103290007095809590952721382149215D236C23D5
:1032A0007B23852196212093BE023093BF02409359
:1032B000C0025093C1026093C2027093C302809314
:1032C000C4029093C502ACCDA1E0EF3FF10509F037
:1032D00098F5E034F10590F58090AE029090AF0241
:1032E000D091B002C091B102B091B202A091B302EC
:1032F0006090B4027090B50221E030E040E050E010
:1033000060E070E080E090E00E2F0E9440325901B2
:103310006A017B018C0128213B2D39214D235D2D34
:103320005C236B237F2D7A23A1E08621912F9721A7
:103330000E94593209F4A0E0A17072CDE038F10585
:10334000E0F48090B6029090B702D091B802C0919C
:10335000B902B091BA02A091BB026090BC02709019
:10336000BD028F010054110921E030E040E050E03F
:1033700060E070E080E090E0C8CFE03CF105A0F4B0
:103380008090BE029090BF02D091C002C091C10255
:10339000B091C202A091C3026090C4027090C502B5
:1033A0008F0100581109E0CF8090C6029090C702AB
:1033B000D091C802C091C902B091CA02A091CB02BB
:1033C0006090CC027090CD028F01005C1109CCCFCF
:1033D0009093D3028093D2020895E091D202F091AB
:1033E000D302309721F00190F081E02D099480E024
:1033F0000895E091D202F091D302309799F0209194
:103400002B01222359F02091120427FF07C0DC0171
:103410002C9111962C93119725E02C930280F38127
:10342000E02D09940895E091D202F091D3023097F3
:1034300039F022E0DC012C930480F581E02D099421
:1034400008952091D0023091D1022817390771F0E8
:103450009093D1028093D002E091D202F091D302F6
:10346000309721F00680F781E02D0994089520918E
:10347000CE023091CF022817390771F09093CF0216
:103480008093CE02E091D202F091D302309721F0E6
:103490000084F185E02D0994089585B7806885BF83
:1034A00085B7806885BF0895089508950C94541ACF
:1034B00008950C94581A0E944D1A0E94551A0C94A3
:1034C000561A81E008950C94611A0E94E0260E9429
:1034D00072080E94AA110E946E270E94C70F0C94C6
:1034E000591ABF92CF92DF92EF92FF920F931F93E0
:1034F000CF93DF93CDB7DEB72A970FB6F894DEBF30
:103500000FBECDBF0E94C6080E94631A882309F42B
:1035100061C085EDC82E82E0D82E10E000E0B02E0C
:10352000802F0E946708E82EF601F1906F01F816CF
:1035300009F44AC08091540381FD0E946D089F2DBB
:103540009E2580E0FF24F394292F2F21C1F18E8343
:10355000BF82EF2081E009F480E088870E94E9269D
:103560008160782F9A8789874E815F8168858A85F7
:103570000E940B1BF801EB52FD4F8081F826F08270
:103580000E9405100E9419290E94ED199091D40201
:10359000891789F10E94ED198093D4022A960FB6FB
:1035A000F894DEBF0FBECDBFDF91CF911F910F9179
:1035B000FF90EF90DF90CF90BF900C9463068F5FE9
:1035C000FF0C853009F0C0CF0F5F1F4F053011058C
:1035D00009F0A5CF8FEF89838A831B820E94E92699
:1035E0008160782F9D838C8349815A816B818D8185
:1035F0000E940B1BC5CF2A960FB6F894DEBF0FBEF4
:10360000CDBFDF91CF911F910F91FF90EF90DF9091
:10361000CF90BF900895CF93DF93CDB7DEB72B97B0
:103620000FB6F894DEBF0FBECDBF4F8358876987B2
:103630007A878B871E821D8285E0FE013796DE0128
:10364000119601900D928A95E1F749815A816B811B
:103650007C818D819E812B960FB6F894DEBF0FBEC4
:10366000CDBFDF91CF910C942A21FC018081918103
:103670000C94E323CF93C82F882309F48BC082389E
:10368000C1F40E94ED1981FD85C089E30E941124D7
:103690000E9482242FEF81EE94E0215080409040E0
:1036A000E1F700C0000089E30E941824CF910C9438
:1036B00082248338A1F40E94ED1980FD6BC083E55C
:1036C0000E9411240E9482242FEF81EE94E0215069
:1036D00080409040E1F700C0000083E5E5CF8438EA
:1036E000A1F40E94ED1982FD55C087E40E941124C7
:1036F0000E9482242FEF81EE94E021508040904080
:10370000E1F700C0000087E4CFCF8CEF8C0F813A47
:1037100090F46C2F80911701909118010E94A325BD
:10372000882329F08C2F0E9418240E9482248C2F39
:103730000E941124BBCF80E28C0F883048F4C77000
:1037400081E001C0880FCA95EAF70E943924AECF04
:10375000EBE5EC0FE33040F4F0E0E054FE4F808105
:1037600090E0CF910C94211AE8E5EC0FE73150F48A
:10377000F0E0EE0FFF1FEE56FE4F80819181CF915A
:103780000C94371AC03F30F08C2F0E941328CF9131
:103790000C94FE28CF910895882309F452C08238F2
:1037A00071F40E94ED1981FF4CC089E30E9411243D
:1037B0000E94822489E30E9418240C948224833876
:1037C00059F40E94ED1980FF3CC083E50E9411244A
:1037D0000E94822483E5EFCF843859F40E94ED19CA
:1037E00082FF2FC087E40E9411240E94822487E474
:1037F000E2CF9CEF980F913AF0F290E2980F983058
:1038000050F4877091E001C0990F8A95EAF7892FEB
:103810000E943F24D2CF9BE5980F933020F490E094
:1038200080E00C94211A98E5980F973120F490E0ED
:1038300080E00C94371A803F20F00E947B280C9483
:10384000FE280895CF93C82F0E943A1BC93349F42C
:103850002FEF87EE93E0215080409040E1F700C0C9
:1038600000008C2FCF910C94CC1B882321F00E9458
:1038700039240C9482240895882321F00E943F2447
:103880000C9482240895BF92CF92DF92EF92FF9220
:103890000F931F93CF93DF936C01D62FC72FFC019B
:1038A000058102950F70128111110E9456240E9409
:1038B0002F24E82E882391F01123D1F08C2F807FC4
:1038C000803421F080E28D0F883090F082E00E94F9
:1038D000CD240E942F2491E0E82EE926BC2EB2943C
:1038E0009FE0B922EB2DF0E0E55AFC4C0C9402323B
:1038F000E12CF4CF0C2F0F70C07F11F00295007FE8
:103900001123A9F0002359F080E28D0F883010F0C8
:10391000D11109C0802F0E9439240E9482248D2F4A
:103920000E943A1B14C0802F0E944924F6CF8D2F8D
:103930000E94CC1B002359F080E28D0F883010F0DC
:10394000D1112CC0802F0E943F240E9482242B2D55
:103950002850330B2430310520F40E94ED190E94C9
:103960006306EE2009F49EC10E942B2480FD9AC1BB
:10397000F60112820E9425240E94AE22C6010E94F6
:10398000731E0E942524DF91CF911F910F91FF900C
:10399000EF90DF90CF90BF900C94CF22802F0E94A9
:1039A0004F24D3CFFC2FFF70FF2EC07FC03219F001
:1039B000F29480EFF822DD2369F0D13049F1112330
:1039C00091F1002351F1F601858180FFA8CF8F701E
:1039D000858323C0112381F0011106C00E94692450
:1039E0008F290E94351CB3CF0130C1F70E94692492
:1039F0008F290E946F24ABCF011106C00E9478244A
:103A00008F2D0E943C1CA3CF013009F4A0CFF6CF2C
:103A1000112329F0063008F09ACF8F2DE2CF053020
:103A200008F095CFEDCF002359F3D93349F4FFEFD8
:103A300027EE33E0F15020403040E1F700C00000B5
:103A40008D2F0E94CC1B83CF8C2F869586958370FB
:103A500069F0813009F07BCF8D2F9C2F937011116D
:103A600002C090E080E00E94371A71CF8D2F9C2F0A
:103A70009370111102C090E080E00E94211A67CF7C
:103A80008D2F112329F00E9413280E94FE285FCF5A
:103A90000E947B28FACF8C2F837009F041C011114E
:103AA00056CF4D2F429546954770440F440F0D2F2A
:103AB0000F7010E030E020E0042E04C0000F111F52
:103AC000221F331F0A94D2F760E070E0CB01D4FFCD
:103AD0000FC06FE070E080E090E004C0660F771FD9
:103AE000881F991F4A95D2F760957095809590959B
:103AF000C695C695C370602B712B822B932BC23059
:103B000049F058F4C13019F00E94602220CF0E9481
:103B10004E221DCF0E9472221ACF0E944C2217CF34
:103B20008695112311F08C2F8170882309F40FCF13
:103B30004D2F429546954770440F440F0D2F0F703F
:103B400010E030E020E0042E04C0000F111F221FFF
:103B5000331F0A94D2F760E070E0CB01D4FF0FC0AE
:103B60006FE070E080E090E004C0660F771F881F70
:103B7000991F4A95D2F76095709580959095C69556
:103B8000C695C370602B712B822B932BC23049F0EA
:103B900058F4C13019F00E942523D9CE0E94132376
:103BA000D6CE0E943723D3CE0E948822D0CECF70AB
:103BB000112329F08C2F0E94AE228D2F12CF8D2F32
:103BC0000E943C1C8C2F0E94CF22C1CED23F89F193
:103BD00060F4D03FC9F0D13F29F1112309F442C06C
:103BE00001119DCE8C2F8F7121C0D33F39F1D43F6D
:103BF000A1F7112369F1CF718C2F0E94AE2263E0EF
:103C00008C2F0E94B824A3CE112341F0053008F078
:103C10009ECE8C2F8F710E94F22299CE063008F032
:103C200096CEF7CF8C2F8F71112369F20E94AE22AE
:103C30008ECE8C2F8F711123C9F3C5CF112329F09C
:103C40008C2F8F710E94992282CE0E9494227FCE67
:103C500081E00E94CD24023008F479CE82E00E94F7
:103C6000CD2475CE002359F0D93309F0E9CE8FEF7A
:103C700097EEE3E081509040E040E1F7DFCE8C2FFB
:103C80008F71A1CF4C2F4F706D2FC6010E946B0416
:103C90000E94C4215CCE4C2F4F706D2FC6010E9434
:103CA0006B0655CEDF91CF911F910F91FF90EF9052
:103CB000DF90CF90BF9008950F931F93CF93DF9322
:103CC000EC01688179818A810E94ED238C010E9438
:103CD00049230E944B22B801CE01DF91CF911F9161
:103CE0000F910C94431CCF93DF93EC018B819C814B
:103CF000892B29F08881998189238F3F59F4DF919D
:103D0000CF910895CE010E945C1ECE01DF91CF912C
:103D10000C94BC04CE010E9400068111F3CF0E94D6
:103D20002F24882361F38A81882349F382E0DF917D
:103D3000CF910C94CD240E9456240E9466240E94A8
:103D400082240E94252A0E94FE2890E080E00E94A2
:103D5000211A90E080E00C94371A0E941F240C94E2
:103D60009B1E0E9446240C94AD1EE92FE295EF7035
:103D7000E250EE3070F4F0E0E559FC4C0C94023265
:103D8000803F19F020F4883E20F481E00895843FBC
:103D9000E1F380E00895883EC0F3813FD1F7F5CF8D
:103DA00093FB882780F908950E94E3230C94B51EA5
:103DB000CF93DF9300D000D00F92CDB7DEB70F9036
:103DC0000F900F900F900F90DF91CF910895CF93A8
:103DD000DF9300D000D000D0CDB7DEB726960FB667
:103DE000F894DEBF0FBECDBFDF91CF9108951F9332
:103DF000CF93DF93C091DB0216E08091DC028C133D
:103E000004C0DF91CF911F910895D0E01C9FF00175
:103E10001D9FF00D1124E352FD4F408151816281BD
:103E20007381848195810E94E71E2196C770E5CF3A
:103E300040910D0350910E0360910F037091100398
:103E400080911103909112030C94E71E1F93CF935E
:103E5000DF9380911203807FA9F480910F03882360
:103E600089F08091DB02C091DC0260910D037091BA
:103E70000E03A0911003B0911103D62FD72316E0A3
:103E8000C81304C0DF91CF911F91089590E010975F
:103E900011F0DF3F19F401968770F2CF189F90015F
:103EA000199F300D1124F901E352FD4F4181471351
:103EB000F2CF40814613EFCF42814111ECCF4381D5
:103EC00054814A1B5B0B483C510528F78091120333
:103ED0008F70806180931203F901EE51FD4F808154
:103EE0008F70806180838DE093E00E94731EDF916C
:103EF000CF911F910C94F71EAF92BF92CF92DF9299
:103F0000EF92FF920F931F93CF93DF93CDB7DEB75E
:103F100061970FB6F894DEBF0FBECDBF8C0185E070
:103F2000F801DE011D9601900D928A95E1F7F801E6
:103F300040815181E2808DE0C82E83E0D82E6091CF
:103F40001003709111036115710509F461C190911D
:103F50000D0320910E03892F82238F3F09F458C14E
:103F6000A380B480F0900F03F501E61BF70BFF2050
:103F700009F4FCC080911203382F307FE83CF10532
:103F800008F0B2C0311179C0FE2C251323C0941360
:103F900021C0E1101FC08F708061809312030E94C6
:103FA000181FC6010E94731E80911203F8018583B9
:103FB0008F2D61960FB6F894DEBF0FBECDBFDF9197
:103FC000CF911F910F91FF90EF90DF90CF90BF9016
:103FD000AF900895AB2829F0842F85238F3F09F0F7
:103FE00033C180E0F82FF170DF2E80FF3CC080915C
:103FF000DB022091DC0236E0821315C04D875E871C
:104000008D859E850E94E323292F22952F702230D3
:10401000F0F0243018F59F70F1F0F8019581907F51
:10402000D1F4D12C1EC090E0389FF001399FF00DE3
:104030001124E352FD4F6181651306C06081641352
:1040400003C062816E110FC001968770D5CF9F703B
:1040500011F0882331F3805E883018F3C8010E9484
:10406000731EFD2CA5CFEE2009F4A2CF8091120380
:10407000816080931203F12C9BCF251306C094130B
:1040800004C0F801EE2009F48DC04D875E878D8550
:104090009E850E94D41E882319F1EE2009F180919B
:1040A0001203803270F020910D0330910E03388797
:1040B0002F831986BB86AA868C87CE0107960E941D
:1040C000731E86E0F801ADE0B3E001900D928A9591
:1040D000E1F70E94261F0E94181FFF24F39468CF67
:1040E000C8010E94731EF9CF311113C07A2DB98A0D
:1040F000A88A6E2D89890E94D81E8DE093E00E94C7
:10410000731E86E0F60111928A95E9F70E94181F46
:10411000B2CF25130FC094130DC0E1100BC0F801EE
:104120008583C8010E94731E86E0F60111928A956C
:10413000E9F73ECF4D875E878D859E850E94D41E10
:10414000882371F2EE2061F280911203803208F42C
:10415000B8CF20910D0330910E033A8329831B823F
:10416000BD82AC828E83CE010196A9CFE83CF105D9
:1041700008F041C0FE2CEE2009F4B2CF25132AC06E
:10418000941328C08091120380FD1BC0982F907F4C
:10419000C1F0F8018583903F31F0982F907F905FB8
:1041A0008F70892B8583C8010E94731E86E0F801F9
:1041B000ADE0B3E001900D928A95E1F70E94181FDF
:1041C000F7CE86E0F801ADE0B3E001900D928A955C
:1041D000E1F7EECE4D875E878D859E850E94D41EC9
:1041E00081116FCF80911203816080931203C80107
:1041F0000E94731EDDCE7A2DB98AA88A6E2D898918
:104200000E94D81E86E0F60111928A95E9F7D6CF72
:10421000EE2009F465CF4D875E878D859E850E94CF
:10422000D41EF82E882309F45BCF86E0F801ADE0B8
:10423000B3E001900D928A95E1F78DE093E00E9442
:10424000351B0E94261FBACF81E08E25CBCE88EC8D
:1042500090E008951F93CF93DF93CDB7DEB72C97EF
:104260000FB6F894DEBF0FBECDBF4F835887698766
:104270007A878B879C87CE0107960E947C1F8823B4
:1042800069F08A859B85892B39F04F815885842F69
:1042900085238F3F09F071C016E05FC086E0FE0104
:1042A0003796DE01119601900D928A95E1F78A8585
:1042B0009B85892B89F38F81988589238F3F61F3B3
:1042C0002091DC0230E0C901019687709927409166
:1042D000DB024817190671F40E94B11E1092DC022D
:1042E0001092DB0286E0EDE0F3E0DF011D928A959B
:1042F000E9F7D2CF96E0929FD001939FB00D1124A1
:10430000A352BD4FFE01319601900D929A95E1F7AF
:104310008093DC020E94F71EBFCF819FC001112451
:1043200083529D4F0E947C1F8823E9F0E091DB02BD
:104330001E9FF0011124E352FD4F408151816281A3
:104340007381848195810E94E71E8091DB0290E059
:104350000196877099278093DB028091DB02909110
:10436000DC028913DACF2C960FB6F894DEBF0FBEAD
:10437000CDBFDF91CF911F91089569857A858B8597
:104380009C850E94E71E88CFEF92FF920F931F93A8
:10439000CF93DF938C01892B81F0F12CEE24E394F1
:1043A000E8012196F8018491843770F4843008F094
:1043B0005FC08130B1F08230A1F1DF91CF911F91C8
:1043C0000F91FF90EF900895853709F44CC008F4E1
:1043D0003DC09CE7980F903780F78F770E94CC1BE9
:1043E00049C00E5F1F4FFE01849190E2980F9830F4
:1043F00060F48770FE2D01C0FF0F8A95EAF78F2FBA
:104400000E9459240E94822402C00E943A1B8F2DD0
:10441000815030F2EFE9FFE03197F1F700C0000082
:10442000F7CF0E5F1F4FFE01849190E2980F9830F6
:1044300050F48770FE2D01C0FF0F8A95EAF78F2F89
:104440000E945F24DFCF0E94CC1BE1CF0E5F1F4F85
:10445000FE01C491C150D8F28FE99FE00197F1F7B6
:1044600000C00000F7CF0E5F1F4FFE01F490CFCFCA
:104470000E943A1B8E01CBCF08950C943C220E94DF
:104480003D2260932B0370932C0380932D03909314
:104490002E030C949B1E08950C943F220F931F93A0
:1044A00000912B0310912C0320912D0330912E03AA
:1044B000602B712B822B932B1F910F910C943F2219
:1044C0000F931F9300912B0310912C0320912D0328
:1044D00030912E0360237123822393231F910F9128
:1044E0000C943F220F931F9300912B0310912C03E8
:1044F00020912D0330912E03602771278227932767
:104500001F910F910C943F220C943C220C94842216
:104510000E948622609327037093280380932903C7
:1045200090932A030C949B1E60E070E0CB010C94E6
:1045300088220F931F9341E050E060E070E08A0111
:104540009B0104C0000F111F221F331F8A95D2F751
:10455000C901B8011F910F910C9488220F931F93EA
:1045600041E050E060E070E004C0440F551F661F5A
:10457000771F8A95D2F78091270390912803A09105
:104580002903B0912A038A019B01082B192B2A2B9E
:104590003B2BC901B8011F910F910C9488220F93F6
:1045A0001F9341E050E060E070E004C0440F551FED
:1045B000661F771F8A95D2F7CB01BA016095709577
:1045C000809590950091270310912803209129034D
:1045D00030912A0360237123822393231F910F912B
:1045E0000C9488220F931F9341E050E060E070E04C
:1045F00004C0440F551F661F771F8A95D2F780911C
:10460000270390912803A0912903B0912A038A01DE
:104610009B01082719272A273B27C901B8011F91A9
:104620000F910C9488220F931F93009127031091F0
:1046300028032091290330912A03602B712B822BB0
:10464000932B1F910F910C9488220F931F9300912D
:104650002703109128032091290330912A03602316
:104660007123822393231F910F910C9488220F931F
:104670001F93009127031091280320912903309163
:104680002A0360277127822793271F910F910C948B
:1046900088220895E92FEE0FEE0F9E0F890F982FB5
:1046A000977041E001C0440F9A95EAF78695869588
:1046B000869595E0899FF0011124ED5EFC4F30E076
:1046C00020E070E05191DF011197CB01022E02C072
:1046D000969587950A94E2F78170819585278423C2
:1046E00085278C932F5F3F4F2530310559F708956B
:1046F000E92FEE0FEE0F9E0F890F982F977086957A
:104700008695869525E0829FF0011124ED5EFC4F91
:1047100050E040E080E0219130E0092E02C0369563
:1047200027950A94E2F721703327042E01C0220F47
:104730000A94EAF7822B4F5F5F4F4530510559F7D6
:104740000895BF92CF92DF92EF92FF920F931F9343
:10475000CF93DF938C01C0902703D0902803E09083
:104760002903F0902A0380912B0390912C03A091B0
:104770002D03B0912E03C82AD92AEA2AFB2ACFE1B9
:10478000D0E0BC2ED701C6010C2E04C0B695A7956B
:10479000979587950A94D2F780FD0EC0219788F7E8
:1047A000B12C8B2DDF91CF911F910F91FF90EF9046
:1047B000DF90CF90BF900895B8018C2F0E947406AF
:1047C000019761F3EECFCF93DF93EC010E94A12319
:1047D000BE01DF91CF910C9474061F93CF93DF93AA
:1047E000EB019091DA02992331F0CB01DF91CF9167
:1047F0001F910C94E323882379F0CB010E94A1231D
:10480000182F682FCE010E944A23BE01812FDF910D
:10481000CF911F910C947406CB010E947823182F1E
:10482000F4CF682F80911701909118010C942326E2
:10483000682F80911701909118010C942E26809179
:104840001701909118010C94392680912F038595BA
:1048500085958595089580912F038770089590918F
:104860002F03977081E009F480E00895809153034D
:10487000089590915303892B809353030895809555
:1048800090915303982390935303089510925303E8
:10489000089590915203892B809352030895809537
:1048A00090915203982390935203089510925203CB
:1048B000089590915103892B809351030895809519
:1048C00090915103982390935103089510925103AE
:1048D000089580913003089508950C946C2490916C
:1048E0003003981721F0809330030C946D240895C1
:1048F00080913003882329F01092300380E00C94DB
:104900006D240895E0911701F091180180915303EF
:104910008083E0911701F0911801808190915203FA
:10492000892B8083E0911701F0911801808190918B
:104930005103892B808390913003992381F0E0917A
:104940001701F09118018081892B808380911701D4
:10495000909118010E948F2581110E9478248091E6
:104960001701909118010C94F91908950C94B5242D
:1049700098E0899F90011124622B60932F030E947D
:10498000AE2280912F038595859585950C94B6244C
:1049900010922F0380E00C94B62490912F03809501
:1049A000892380932F03282F277071F4282F082E36
:1049B000000C330B9217130639F085958595859574
:1049C0000E94CF220C94C82408956FEF7FEF90E0EF
:1049D00080E00C94FD3290E080E00E94D93221E02A
:1049E0008C3E9E4F09F020E0822F089582E090E0F7
:1049F0000C94CB3283E090E00C94CB32CF9384E0E4
:104A000090E00E94CB32C82F81E290E00E94CB322E
:104A1000982F8C2FCF910895CF93C92F682F84E0C2
:104A200090E00E94DF326C2F81E290E0CF910C94F5
:104A3000DF32AB01BC018FE090E00C94F132AB01AE
:104A4000BC0183E190E00C94F13260E070E0CB01B6
:104A50000C941F2560E070E0CB010E9419250C9496
:104A600025256CEE7EEF90E080E00E94FD3260E054
:104A700082E090E00E94DF3260E083E090E00E94FC
:104A8000DF3210922B0310922C0310922D03109200
:104A90002E0360E084E090E00E94DF3260E081E27B
:104AA00090E00E94DF3260E085E090E00E94DF321B
:104AB00060E086E090E00E94DF326FEF87E090E0F8
:104AC0000E94DF3240E050E0BA0188E090E00E94AE
:104AD000F13260E08DE090E00E94DF3240E050E093
:104AE000BA0188E190E00E94F13260E087E190E055
:104AF0000E94DF3240E050E0BA018CE190E00E9479
:104B0000F13260E080E290E00E94DF320C942A25CE
:104B10000C943125682F8EE090E00C94DF32FC017C
:104B2000329680912B01882321F0809112049EE11E
:104B300087FF96E080E0915008F4089521912223A8
:104B4000D1F38F5FF8CF662301F120912B0122234F
:104B5000F1F02091120427FF1AC0462F4695469582
:104B600046954E3190F4677021E030E002C0220F8C
:104B7000331F6A95E2F7840F911DFC01828190E05A
:104B80002823392381E0232B69F480E00895FC0178
:104B9000329608962191261721F0E817F907D1F7E8
:104BA000F4CF81E008959C01FC0132969FEF80E0F4
:104BB0004191461751F09F3F19F4411101C0982FC0
:104BC0008F5F8630A9F79F3F09F40895290F311DA3
:104BD00097FD3A95F90162830895FC013296089693
:104BE0002191261303C0DF0111971C92E817F907E2
:104BF000B9F70895E62FE695E695E695EE3168F467
:104C0000E80FF92FF11D677021E030E001C0220F9D
:104C10006A95EAF78281822B82830895E62FE695D2
:104C2000E695E695EE3170F4E80FF92FF11D677007
:104C300021E030E001C0220F6A95EAF720958281D9
:104C400028232283089520912B01222329F02091EB
:104C5000120427FD0C94FA250C94D32520912B01E6
:104C6000222329F02091120427FD0C940E260C9487
:104C7000ED25FC01329680912B01882351F0809123
:104C8000120487FF06C08EE1DF011D928A95E9F7C5
:104C9000089586E0F9CF089508950C944C260E945B
:104CA0004D2680911804843009F439C010925503C0
:104CB00088E190E020E40FB6F894A8958093600016
:104CC0000FBE2093600080E00E9463060E940210E5
:104CD0008091560381110AC081E080935603809130
:104CE00091038170809357030E94350F0E944D26D7
:104CF00083B7817F846083BF83B7816083BF7894EB
:104D0000889583B78E7F83BF0FB6F894A89580915E
:104D10006000886180936000109260000FBE08956B
:104D20000895CF930E944B260E94C6080E949026A9
:104D3000C0E08C2F0E946708811105C0CF5FC5308D
:104D4000C1F7CF91089581E0FCCF08950C94A5267A
:104D50000E94B11E0E94ED190E9463061092560334
:104D60008091570381110E94FA0F0E94470F0C9403
:104D7000A6261F921FB61F9211248F939F93AF9365
:104D8000BF9380915503811113C080910E049091BF
:104D90000F04A0911004B09111044196A11DB11D02
:104DA00080930E0490930F04A0931004B093110409
:104DB000BF91AF919F918F911F901FBE1F9018952B
:104DC00082E084BD93E095BD9AEF97BD80936E001D
:104DD00008952FB7F89480910E0490910F04A0913C
:104DE0001004B09111042FBF08952FB7F89460916B
:104DF0000E0470910F0480911004909111042FBF44
:104E000008959C014FB7F89480910E0490910F047F
:104E1000A0911004B09111044FBF821B930B089511
:104E200078941F921FB61F9211248F939F93AF9374
:104E3000BF9380910E0490910F04A0911004B09143
:104E400011040196A11DB11D80930E0490930F04CF
:104E5000A0931004B0931104BF91AF919F918F91D3
:104E60001F901FBE1F90189581E08093E00080E2A4
:104E70008093D8001092C9008FE19EE40197F1F76A
:104E800000C0000087E090EBDC0180932104909348
:104E90002204A0932304B093240488E19CE00FB67D
:104EA000F894A895809360000FBE90936000FFCFA8
:104EB0000C9497110E94C6088FE39CE90197F1F7C3
:104EC00000C000000E94C60880E00E94670880FFC2
:104ED00004C00E9458270C94342708950E94EB24A4
:104EE000811102C00E9488250E94F62480935403F9
:104EF0000E94FE2490931304809312040E94FA24CB
:104F0000682F70E090E080E00E944C2260912703BF
:104F1000709128038091290390912A030C94862292
:104F200080915E0380FF12C060911E0185E0689F42
:104F3000B001112475956795759567956038710571
:104F4000A8F561157105A1F1862F089581FF09C0AB
:104F500060911E0185E0689FB001112475956795E9
:104F6000EDCF60911E0182FD0AC080915D03882310
:104F7000D1F090911D0160911E01891728F085E004
:104F8000689FB0011124DACF869FB001112485E01B
:104F9000869F9001879F300D1124692F70E0C90111
:104FA0000E94CC31CBCF65E070E0CECF8FE7089583
:104FB00081E0089580915E0380FF0CC060911A012A
:104FC00070E075956795759567956115710549F15F
:104FD000862F089581FF06C060911A0170E07595D3
:104FE0006795F3CF60911A0182FD0BC090915C032D
:104FF0009923A1F06091190180911A01961738F058
:10500000682F70E06038710500F38FE70895899F7D
:10501000C001112470E00E94CC31F4CF61E070E057
:10502000D7CF81E00895803F31F40E949027819589
:10503000809362030895813F19F40E949027F8CF6E
:10504000823F31F40E9490278195809361030895F7
:10505000833F19F40E949027F8CF893F29F40E94DA
:10506000DA278093630308958A3F21F40E94DA27A8
:105070008195F7CF8B3F31F40E94DA278195809399
:10508000640308958C3F19F40E94DA27F8CF843F17
:1050900031F4809160038160809360030895853FBF
:1050A00021F4809160038260F7CF863F21F48091E4
:1050B00060038460F1CF873F21F4809160038860B2
:1050C000EBCF883F21F4809160038061E5CF8D3F75
:1050D00031F480915E03816080935E0308958E3F7A
:1050E00021F480915E038260F7CF8F3FB9F7809102
:1050F0005E038460F1CF90916103803F59F4809109
:10510000620387FF0DC01092620391110BC01092D1
:105110005D0308C0813F81F48091620318169CF3FF
:10512000992381F08091630390916403892B09F0A6
:1051300064C010925C030895823F49F497FFF0CF5A
:1051400010926103809162038111ECCFE0CF833F25
:1051500019F41916ACF3E4CF20916303893F29F4C5
:105160001216F4F610926303DBCF8A3F19F427FF7F
:10517000D7CFF8CF209164038B3F29F427FFD0CFFE
:1051800010926403CDCF8C3F19F41216CCF3C8CF24
:10519000843F31F4809160038E7F80936003C0CFA1
:1051A000853F21F4809160038D7FF7CF863F21F406
:1051B000809160038B7FF1CF873F21F48091600362
:1051C000877FEBCF883F21F4809160038F7EE5CF0E
:1051D0008D3F31F480915E038E7F80935E03A0CF7C
:1051E0008E3F21F480915E038D7FF7CF8F3F09F0D2
:1051F00097CF80915E038B7FF0CF08950E94E926C0
:105200009C019091610380916203982B21F030936F
:105210005B0320935A039091630380916403982B5E
:1052200021F030935903209358038FE593E00C94B9
:10523000131AEF92FF920F931F93CF93DF9300D037
:1052400000D000D0CDB7DEB786E0EFE5F3E0DE01B9
:10525000119601900D928A95E1F7E0906103F0902C
:105260006203009163031091640310926103109232
:10527000620310926303109264038E2D8F2991F0C4
:1052800080915A0390915B030E940127AC01909199
:105290005D03992309F43FC080911F01841715060F
:1052A00008F447C0802F812B91F080915803909192
:1052B00059030E940127AC0190915C03992309F4E2
:1052C00077C080911B018417150608F47FC0809178
:1052D000610390916203892B90916303892B9091D4
:1052E0006403892B11F00E94FE2886E0FE013196AE
:1052F000AFE5B3E001900D928A95E1F726960FB6DF
:10530000F894DEBF0FBECDBFDF91CF911F910F91FB
:10531000FF90EF900895209120018AE0289F90014E
:1053200011242417350708F0BDCF9F5F90935D03CC
:1053300002C09F3FD1F7EE2059F00E9490279FEFC7
:105340001E140CF491E0899F802D11248093610339
:10535000FF2059F00E9490279FEF1F140CF491E05A
:10536000899F802D11248093620330916103332340
:1053700009F498CF20916203222309F493CF45EBDF
:105380003403C0011124992359F09093610345EB34
:10539000240390011124332339F03093620382CF28
:1053A00081E080936103F3CF81E0809362037ACF41
:1053B00020911C018AE0289F9001112424173507B1
:1053C00008F085CF9F5F90935C0302C09F3FD1F7A9
:1053D000002359F00E94DA279FEF10160CF491E099
:1053E000899F802D112480936303112359F00E941B
:1053F000DA279FEF11160CF491E0899F802D11247C
:105400008093640330916303332309F460CF2091C8
:105410006403222309F45BCF45EB3403C00111245C
:10542000992359F09093630345EB240390011124D1
:10543000332339F0309364034ACF81E080936303D0
:10544000F3CF81E08093640342CF86E0EFE5F3E0A1
:10545000DF011D928A95E9F710925D0310925C03BB
:1054600010925E030895809185030895CF93DF9392
:1054700000D00F92CDB7DEB790911804943011F59B
:1054800089837B836A839093E9008FEF9091E80092
:10549000815095FD06C095ED9A95F1F700008111B8
:1054A000F5CF8091E80085FF0DC050E040E063E05B
:1054B00070E0CE0101960E94BE2C8091E8008E77AC
:1054C0008093E8000F900F900F90DF91CF91089597
:1054D000BC0184E00C94362ABC0183E00C94362A8B
:1054E0009C0184E08093E9009FEF8091E800915057
:1054F00085FD06C085ED8A95F1F700009111F5CF85
:105500008091E80085FF0CC050E040E066E070E06C
:10551000C9010E94BE2C8091E8008E778093E8003C
:105520000895CF93DF93EC0180912B018823B1F193
:105530008091120487FF32C060E284E08093E9002A
:105540008FEF9091E800815095FD06C095ED9A95FA
:10555000F1F700008111F5CF8091E80085FF1BC0B5
:1055600080912B0170E050E040E0811104C050E0D8
:1055700040E068E070E0CE010E94BE2C8091E8001F
:105580008E778093E80080E2FE01A5E6B3E001900B
:105590000D928A95E1F7DF91CF91089568E081E05F
:1055A000CDCFCF93FC01603221F580911804843077
:1055B00001F5C091E900CF702091EC00922F91701D
:1055C00020FD90E8C92B82E08093E9008091E800FB
:1055D00080FF0CC050E040E060E270E0CF010E942C
:1055E000BE2C8091E8008E778093E800CF70C09346
:1055F000E900CF91089580911704811109C00E949C
:105600009D2E0E94FA2E8091E20084608093E20039
:105610000895109217040895089508950C94A826EB
:1056200042E061EC81E00E94192E42E261EC84E0EC
:105630000E94192E42E261EC82E00E94192E42E2A1
:1056400060EC83E00C94192E80911A04833009F4E5
:1056500061C030F48130D1F1823009F49DC00895E9
:105660008A3009F489C08B3009F46FC0893009F0A1
:1056700050C080911904813209F04BC080911D0403
:1056800090911E04009719F0029709F042C0809192
:10569000E800877F8093E8008091E80082FF35C0B2
:1056A0009091F3008091F200029729F48091F1002B
:1056B0008B7F813021F48091F1008093850380916C
:1056C000E8008B778093E8000C944D2E80911904AC
:1056D000813AF9F48091E800877F8093E800809117
:1056E0001D0490911E04892B61F460E285E693E02D
:1056F00070E00E945C2D8091E8008B778093E80039
:10570000089560E090E080E0F3CF8091180481116B
:10571000C3CF089580911904813AD9F780911D046F
:1057200090911E04892BA9F78091E800877F8093D0
:10573000E8008091E80080FFFCCF80912B018093EE
:10574000F1008091E8008E77BDCF809119048132FD
:1057500001F780911D0490911E04892BD1F6809150
:10576000E800877F8093E8000E944D2E80911B0403
:1057700080932B010C94B11E80911904813249F65B
:105780008091E800877F8093E8000E944D2E8091F1
:105790001C0480938603089580911904813A09F0CE
:1057A000B8CF8091E800877F8093E8008091E8007F
:1057B00080FFFCCF80918603C2CFCDB7DEB7A09724
:1057C0000FB6F894DEBF0FBECDBF84B7877F84BF0E
:1057D0000FB6F894A895809160008861809360006E
:1057E000109260000FBE80E890E00FB6F8948093AE
:1057F0006100909361000FBE0E945B1A0E949D2E73
:105800000E94FA2E8091E20084608093E2007894F6
:105810000E9483310E94651A81E291E00E94E8199A
:1058200013E080911804853039F10E94711A80913B
:1058300018048430B1F71093E9008091E80082FFEA
:10584000F0CF8091E80090E085FF09C050E040E093
:1058500060E270E0CE0101960E940D2D91E08091F2
:10586000E8008B778093E8009923D9F260E2CE01BB
:1058700001960E944F12D5CF0E944F2680911604A8
:10588000882379F20E949126882359F20E94A82C3D
:10589000C8CF0C944B2C292F33272330310521F10D
:1058A00068F42130310509F449C02230310509F48A
:1058B0004AC090E080E030E020E029C0213231058C
:1058C00081F122323105A9F76330710590F7FB01B0
:1058D000EE0FFF1FEA53FE4F208131816D537E4F43
:1058E000FB01808190E013C099278130910599F0E8
:1058F000009741F08230910589F00397D1F6E6E8F0
:10590000F6E002C0E4EBF6E0849190E09F01FA013A
:10591000318320830895E4EAF6E0F6CFECE8F6E080
:10592000F3CF6330710528F6660F771FFB01E45350
:10593000FE4F2081318189E090E0E9CF82E190E063
:1059400023E137E0E4CF8BE590E028EB36E0DFCFD2
:1059500080E189BD82E189BD09B400FEFDCF80915F
:10596000D8008F7D8093D8008091E0008260809382
:10597000E0008091E00081FDFCCF0895AF92BF92DE
:10598000CF92DF92FF920F931F93CF93DF936C011F
:10599000EB018A010E946C2EF82E811123C00115A3
:1059A000110539F0F80180819181C81BD90BC80E0F
:1059B000D91EB12CA12C2097A9F08091E80085FD7B
:1059C00022C08091E8008E778093E80001151105D0
:1059D000A1F0F80180819181A80EB91EB182A08248
:1059E00085E0F82E8F2DDF91CF911F910F91FF90C1
:1059F000DF90CF90BF90AF9008950E946C2E8823C7
:105A0000D1F2F82EEFCFF60181916F018093F10072
:105A10002197FFEFAF1ABF0ACECFAF92BF92CF92BE
:105A2000DF92FF920F931F93CF93DF936C01EB01F3
:105A30008A010E946C2EF82E811123C001151105D8
:105A400039F0F80180819181C81BD90BC80ED91E8D
:105A5000B12CA12C2097A9F08091E80085FD22C0EF
:105A60008091E8008B778093E80001151105A1F083
:105A7000F80180819181A80EB91EB182A08285E0D3
:105A8000F82E8F2DDF91CF911F910F91FF90DF9016
:105A9000CF90BF90AF9008950E946C2E8823D1F2D2
:105AA000F82EEFCF8091F100F60181936F012197DD
:105AB000FFEFAF1ABF0ACECFFC0180911F04909177
:105AC000200486179707A0F06115710529F49091BD
:105AD000E8009E779093E80090E06115710551F41D
:105AE000911108C08091E80082FF34C080E00895E1
:105AF000BC01F2CF809118048823C1F18530C1F137
:105B00008091E80083FD30C08091E80082FDEACFFB
:105B10008091E80080FFE1CF8091F3002091F200B6
:105B2000382F6115710519F02830310558F091E0D2
:105B30002830310509F090E02091E8002E7720937D
:105B4000E800CBCF81918093F100615071092F5F04
:105B50003F4FE7CF80911804882341F0853041F012
:105B60008091E80083FFBECF81E0089582E0089530
:105B700083E00895FC0180911F0490912004861712
:105B80009707A0F06115710529F48091E8008E77E0
:105B90008093E80090E06115710551F4911108C0FF
:105BA0008091E80082FF35C080E00895BC01F2CF0B
:105BB000809118048823C9F18530C9F18091E800EB
:105BC00083FD31C08091E80082FDEACF8091E8003A
:105BD00080FFE1CF8091F3002091F200382F611512
:105BE000710519F02830310558F091E02830310561
:105BF00009F090E08091E8008E778093E800CBCFA9
:105C000084918093F1003196615071092F5F3F4F6D
:105C1000E6CF80911804882341F0853041F08091CF
:105C2000E80083FFBDCF81E0089582E0089583E01E
:105C30000895982F973028F08F708093E90081E0C5
:105C400008959093E900242F762F50E0981731F0B3
:105C50007091EC002091ED005091F00021FD02C008
:105C60009F5FE8CF3091EB003E7F3093EB003091A7
:105C7000ED003D7F3093ED003091EB0031603093CB
:105C8000EB007093EC002093ED005093F000209116
:105C9000EE0027FDE5CF80E008958091190487FF8D
:105CA00013C08091E80082FF06C08091E8008B77E6
:105CB0008093E80004C0809118048111F2CF089508
:105CC000809118048823D9F38091E80080FFF8CFF1
:105CD0008091E8008E77ECCF2091E4003091E500D0
:105CE00095E6A9012091EC00822F817020FF06C06B
:105CF0008091E80080FF06C080E008952091E800D0
:105D000022FD1AC080911804882389F0853089F01B
:105D10008091EB0085FD0FC02091E4003091E500FB
:105D200042175307F9F29150E1F684E0089582E0BA
:105D3000089583E0089581E008950E940B2F0E944A
:105D4000132FE0EEF0E0808181608083E8EDF0E0E9
